:020000040800F2
:1000000000800020BD020008D5030008E1030008BD
:1000100000000000000000000000000000000000E0
:10002000000000000000000000000000ED030008D8
:100030000000000000000000F903000805040008AB
:100040001104000800000000C0000008C000000803
:10005000C00000081D040008290400083504000839
:1000600000000000410400084D0400085904000885
:1000700065040008710400087D0400080000000009
:100080008904000895040008A1040008AD040008D4
:10009000B9040008C5040008D1040008DD04000804
:1000A000E9040008F5040008010500080D05000832
:1000B00019050008250500080000000000000000E8
:1000C000FEE7000030B5002A0ED00C008A1880210F
:1000D00089050502000E23785840543080004058AE
:1000E000684001349442F4D130BDC04630B50A4C6A
:1000F000002180256D000B060822002B02DA5B0030
:10010000434000E05B00013A002AF6D108C4013107
:10011000A942F0D130BDC04650010020F0B54F4695
:100120004646C0B483B01700019304000D00884216
:1001300027D2184E184B9946184B9846E368B3429D
:100140001AD1A3684B4517D16368434514D1144BAA
:1001500022689A4210D1019A002A02D0A38B9342BE
:100160000AD1606FFFF7C2FF7C222100206FFFF7EA
:10017000A9FFE36F984206D0E419AC42DED3002019
:1001800002E0002000E0200003B00CBC904699463D
:10019000F0BDC0460190C965ED3E4BAA19228FDF24
:1001A0003371D69D70B5002810D1194B1022194912
:1001B0001948FFF7B3FF041E23D0436902699A1A56
:1001C0000169006FFFF77EFF050012E0104B10225F
:1001D00012491048FFF7A2FF041E14D001694369B9
:1001E0005A1A80239B029C466144006FFFF76AFF06
:1001F00005000B48FFF77AFFA36F9D4205D1200051
:1002000004E0002002E0002000E0002070BDC046B5
:10021000082B00000000020800100008000004087D
:10022000B71DC104F0B5474680B4020080321D4BB3
:100230001B691B0604D51B4B1B4959601B495960A0
:100240001B4B802424059A4219D125E0B9421ED9BE
:100250004D0507D145461D61596161461961D9684F
:100260000A42FCD1D9680A42FCD11A618021890274
:10027000611809882180D9680A42FCD107E00D4E37
:100280000D4F084B01220221884640318C46023432
:100290002100A51B8542D9D18022024B1A6104BCE2
:1002A0009046F0BD0020024023016745AB89EFCDA9
:1002B000000002088000FEFFFF0F000810B53C4B55
:1002C0001A6801210A431A6058683A4A02405A6083
:1002D0001868394A02401A601868384A02401A60A1
:1002E0005868374A02405A60DA6A0F208243DA625D
:1002F000186B344A02401A635A6B8A435A630022CD
:100300009A601A68802149020A431A601A00802301
:100310009B0211681942FCD011222B4B1A60244B0E
:100320005A685A605A685A605968284A0A405A609E
:100330005A68882149030A435A601A68802149048F
:100340000A431A601A0080239B0411681942FCD0EA
:10035000174B5A6803218A435A60596802220A439C
:100360005A6019000C224B681340082BFBD1104B2C
:10037000C022D2025A6101229A61002280239B0589
:100380001A600020FFF70EFF04000120FFF70AFFAC
:10039000002808D0002C03D0C28BE38B9A4202D0F5
:1003A000FFF740FFEDE70A4B1B689847FEE7C046A2
:1003B000001002400CB8FFF8FFFFF6FEFFFFFBFF46
:1003C000FFFFC0FFACFEFFFF00200240FF7FC0FF29
:1003D00004100008014B1B689F46C0460810000827
:1003E000014B1B689F46C0460C100008014B1B6860
:1003F0009F46C0462C100008014B1B689F46C04614
:1004000038100008014B1B689F46C0463C1000088E
:10041000014B1B689F46C04640100008014B1B68FB
:100420009F46C04654100008014B1B689F46C046BB
:1004300058100008014B1B689F46C0465C1000081E
:10044000014B1B689F46C04664100008014B1B68A7
:100450009F46C04668100008014B1B689F46C04677
:100460006C100008014B1B689F46C04670100008C6
:10047000014B1B689F46C04674100008014B1B6867
:100480009F46C04678100008014B1B689F46C04637
:1004900080100008014B1B689F46C046841000086E
:1004A000014B1B689F46C04688100008014B1B6823
:1004B0009F46C0468C100008014B1B689F46C046F3
:1004C00090100008014B1B689F46C046941000081E
:1004D000014B1B689F46C04698100008014B1B68E3
:1004E0009F46C0469C100008014B1B689F46C046B3
:1004F000A0100008014B1B689F46C046A4100008CE
:10050000014B1B689F46C046A8100008014B1B68A2
:100510009F46C046AC100008014B1B689F46C04672
:10052000B0100008014B1B689F46C046B41000087D
:10053000FFFFFFFFFFFFFFFFFFFFFFFFFFFFFFFFCB
:10054000FFFFFFFFFFFFFFFFFFFFFFFFFFFFFFFFBB
:10055000FFFFFFFFFFFFFFFFFFFFFFFFFFFFFFFFAB
:10056000FFFFFFFFFFFFFFFFFFFFFFFFFFFFFFFF9B
:1010000000800020D11300082114000821140008DA
:1010100000000000000000000000000000000000D0
:10102000000000000000000000000000C57E000875
:101030000000000000000000317F0008757F0008FC
:1010400021140008000000002114000821140008E9
:1010500021140008A16D0008211400089165000802
:101060000000000021140008211400086139000864
:1010700021140008211400082114000800000000B9
:10108000211400082114000821140008211400086C
:10109000211400084D640008B964000821140008F8
:1010A000211400082114000821140008BD3700088D
:1010B000211400082114000800000000FFFFFFFFBA
:1010C00002780B78002A03D0013001319A42F7D020
:1010D000D01A70470023C25C0133002AFBD1581E8E
:1010E00070470000002243088B4274D303098B42EF
:1010F0005FD3030A8B4244D3030B8B4228D3030CE8
:101100008B420DD3FF22090212BA030C8B4202D389
:101110001212090265D0030B8B4219D300E0090AB1
:10112000C30B8B4201D3CB03C01A5241830B8B42BA
:1011300001D38B03C01A5241430B8B4201D34B03A3
:10114000C01A5241030B8B4201D30B03C01A524108
:10115000C30A8B4201D3CB02C01A5241830A8B428D
:1011600001D38B02C01A5241430A8B4201D34B0276
:10117000C01A5241030A8B4201D30B02C01A5241DA
:10118000CDD2C3098B4201D3CB01C01A524183098E
:101190008B4201D38B01C01A524143098B4201D3C8
:1011A0004B01C01A524103098B4201D30B01C01AF3
:1011B0005241C3088B4201D3CB00C01A524183086D
:1011C0008B4201D38B00C01A524143088B4201D39A
:1011D0004B00C01A5241411A00D2014652411046FA
:1011E0007047FFE701B5002000F0F0F802BDC046EF
:1011F0000029F7D076E7704703460B437FD40022DF
:1012000043088B4274D303098B425FD3030A8B429A
:1012100044D3030B8B4228D3030C8B420DD3FF2204
:10122000090212BA030C8B4202D31212090265D0D2
:10123000030B8B4219D300E0090AC30B8B4201D385
:10124000CB03C01A5241830B8B4201D38B03C01ACC
:101250005241430B8B4201D34B03C01A5241030B43
:101260008B4201D30B03C01A5241C30A8B4201D3F4
:10127000CB02C01A5241830A8B4201D38B02C01A9F
:101280005241430A8B4201D34B02C01A5241030A16
:101290008B4201D30B02C01A5241CDD2C3098B42FB
:1012A00001D3CB01C01A524183098B4201D38B0178
:1012B000C01A524143098B4201D34B01C01A52411B
:1012C00003098B4201D30B01C01A5241C3088B4260
:1012D00001D3CB00C01A524183088B4201D38B004B
:1012E000C01A524143088B4201D34B00C01A5241ED
:1012F000411A00D201465241104670475DE0CA0FC4
:1013000000D04942031000D34042534000229C4683
:1013100003098B422DD3030A8B4212D3FC2289018D
:1013200012BA030A8B420CD3890192118B4208D363
:10133000890192118B4204D389013AD0921100E0C5
:101340008909C3098B4201D3CB01C01A52418309D9
:101350008B4201D38B01C01A524143098B4201D306
:101360004B01C01A524103098B4201D30B01C01A31
:101370005241C3088B4201D3CB00C01A52418308AB
:101380008B4201D38B00C01A5241D9D243088B4201
:1013900001D34B00C01A5241411A00D201466346A4
:1013A00052415B10104601D34042002B00D5494208
:1013B000704763465B1000D3404201B5002000F047
:1013C00005F802BD0029F8D016E770477047C046FF
:1013D0000D488546002103E00C4B5B584350043117
:1013E0000B480C4B42189A42F6D30B4A02E00023FA
:1013F00013600432094B9A42F9D305F00DFF07F050
:1014000049FC01F007FAFEE700800020987101080E
:10141000000000201C0300201C030020A06C002002
:10142000FEE7000030B5002A0CD00C008A180649EF
:101430000502000E2378584080004058684001346F
:101440009442F5D130BDC0468822002030B50A4C08
:10145000002180256D000B060822002B02DA5B00BC
:10146000434000E05B00013A002AF6D108C4013194
:10147000A942F0D130BDC0468822002030B5002AF4
:1014800013D00D00013A92B201328918030A2A786A
:1014900053401C096340000258401C0360405B013C
:1014A000434098B201358D42F0D130BDF0B557467A
:1014B0004E464546E0B486B007000E0015001422E3
:1014C000774901A807F0EDFBBC00E4190134E30FF4
:1014D0001C196410734BDB8B4C2B17D1C8225200A4
:1014E0003B00C33BFF3B9BB293420FD80A2138001D
:1014F000FFF7F8FD80B22D384000694B1818848A38
:10150000A3001C190134E30F1C196410664B5B6ABD
:101510009846002D35D05E23644AD35A002B2DD136
:10152000604B9A46988A0121494202F07BFF830072
:1015300018180130C30F181840100A235B424343A8
:1015400099465346588A012102F06CFF830018180F
:101550000130C30F181840108300181840004B4684
:10156000C01A3F224346134058432030C31713404C
:101570001818801148444D4B186601E04B4B186E0B
:101580002418002F02D0002E0BDB00E0002676008E
:1015900001ABF05A830018184000012601277F4252
:1015A00009E07642760001ABF05A8300181840003B
:1015B000012676420127002D3FD05E233B4AD35AB5
:1015C000002B29D1374B1B8B022B06D0032B08D0C5
:1015D000012B0AD11421002709E028210A277F4284
:1015E00005E03C2114277F4201E00021002743460B
:1015F0009A04920EC91B4A4313002033DA173F2185
:101600000A40D3189B11DB19264AD28A002A00D13E
:101610005B42264A536601E0244B5B6E002E01DDDF
:10162000C01800E0181A002804DA40420126764269
:10163000012702E0012601277F426043F530FF3099
:10164000FA218900FFF74EFD46437843001934190B
:10165000174B9C4200DD1C00F423FF339C4201DC4D
:10166000FA246400124B984200DD1800F423FF3383
:10167000984201DCFA204000A4B20C4EB48681B23C
:10168000F186002004F0CAFF2100012004F0C6FF0B
:101690005E23F55206B01CBC90469946A246F0BDAA
:1016A000A48E0008F821002000100040B826002079
:1016B000C409000010B540221C49002004F02EFC93
:1016C000002814D1194B1B884F2B10D91848174BE1
:1016D00078229A5A12047A21595A521802657C22A9
:1016E000995A090402329A5A8B18836004E08022C6
:1016F00000210E4807F0DEFA0C4B1B89012B03D8A2
:1017000002220A4B1A8104E00A2B02D90A22074B53
:101710001A81064B2D229A800022DA801A82DB89F8
:10172000012B01D9014BDA8110BDC046F821002000
:10173000B826002030B583B00C490D4B5A880A807A
:101740000C4A106D050C78240D530234085392682E
:10175000140C7C200C5202300A521B880093002388
:101760004022002004F02AFC03B030BDF821002004
:1017700098260020B826002030B500233F2812D834
:101780003B280DD9094A116D094B0D0C78241D53C6
:10179000023419539268140C7C215C5202315A5263
:1017A0004000034BC35A180030BDC046B826002085
:1017B000F821002010B5002801D1064B9888054B70
:1017C0005B88002B05D0000105300A21FFF714FDCE
:1017D00080B210BDF8210020014B0620185E704732
:1017E000F821002010B5074BD88E9B8EC0180A3008
:1017F0001421FFF701FD013040000521FFF7FCFC3B
:1018000080B210BDB826002070B50F4BDD8E9A8EC9
:10181000AB18013359080020002913D0954209D292
:101820006424280060439B08C018FFF75BFC201A63
:1018300000B207E0642462439B08D018FFF752FC13
:10184000001B00B270BDC046B826002000230F2840
:1018500002D84000014BC35A180070479826002058
:1018600010B50B00034A5086034A0021180004F00B
:1018700069F810BDB8260020891A00087423014AAF
:10188000D05A7047B8260020002804D0034A136DB0
:10189000506D181A01E0014B186D7047B8260020F2
:1018A000002802D0024B986D01E0014B9868704708
:1018B000B82600200120704710B54623114AD35A9C
:1018C000002B01D105F098FC44230E4AD35A002B7B
:1018D00016D005F091FC0B4B1B6CC01A0A4B9842BA
:1018E00004D84423074AD35A232B09D9054C002294
:1018F0004423E25205F080FC206401225C23E25282
:1019000010BDC046B82600205FEA0000F8B51448B4
:1019100001F04CF9134E0024134D370000213F2CE9
:101920000ED83B2C0BD92B6D190C7822B9520232F0
:10193000BB52AB68190C0232B9520232BB52318829
:101940000A4801F033F90134A4B20236402CE5D143
:10195000074801F02BF900216823034AD152F8BD52
:10196000EC670108F8210020B8260020F467010880
:10197000F867010870B504000D003F280ED8430039
:10198000074A9B5A8B4206D0064E01226823F25228
:1019900005F032FCF0666400014BE55270BDC046B4
:1019A000F8210020B826002070B5354B9A88198C94
:1019B00063280AD1501C00B2324B38229B5E5A1D5C
:1019C0000025904212DD10B210E0030063330AD10B
:1019D000501E00B22B4B38229B5E5A1F00259042AE
:1019E00004DA10B202E0101800B20125244BDB8BA0
:1019F000482B19D002D8432B16D01AE04C2B0AD012
:101A00004F2B16D1041C632800DD632424B2132C51
:101A100022DC142420E02C2800DC2D20041C552876
:101A200000DD552424B217E0031C552800DD5523A2
:101A300018B2041C632800DD632424B2182C00DCD7
:101A400019240B00193B9BB2492B05D809B2231C62
:101A50008C4200DD0B1C1CB221000220FFF78AFF24
:101A6000002D01D0074B1C87054B1A8A0620195EF2
:101A700098888300C018400080B2FFF717FD70BD42
:101A8000F8210020B826002010B5154BDB8D002B67
:101A900024D0134A108E012806D002384242504109
:101AA000404200281AD000E001200D4A528E022A3E
:101AB00014D801339BB20A4AD385032B03D9830080
:101AC000C01800B203E0022B01D9400000B2FFF7BA
:101AD0006BFF044A0021002003F034FF10BDC04614
:101AE000B8260020891A000810B50B4BDB8818189F
:101AF00000B2031C092800DD0923191C1BB209339D
:101B000001DA064B198809B20320FFF733FF0020E2
:101B1000FFF74AFF10BDC046F8210020E867010822
:101B200010B53B283BD88AB243001D4C1B5B934247
:101B300035D00E282DD883001A4CE3589F464B1EF3
:101B40009941174B598024E0154B9888101A00B220
:101B5000FFF72AFF1DE0124BD888101A00B2FFF7DA
:101B6000C3FF16E040000E4BC25212E040000C4B87
:101B7000C2520D4B994203D1012003F09BFF08E0B4
:101B8000002906D1002003F085FF02E04000044B4D
:101B9000C25202F057FD01210020FFF761FE10BD87
:101BA000F8210020108E0008FF03000070B504002B
:101BB000C44B5A8E062A00D960E29300C24AD35819
:101BC0009F46002804D101210020FFF749FE17E3BA
:101BD000032809D10120404205F094F90022002198
:101BE000002003F0AFFE0BE3042808D1012005F02C
:101BF00089F900220021002003F0A4FE00E301285F
:101C000000D0FDE2002005F03DF9F9E20C2805D1F5
:101C1000AE4A0021002003F095FE16E0012808D10D
:101C20000120FFF7C1FEA94A0021002003F08AFE2F
:101C300016E0022809D101204042FFF7B5FEA34A71
:101C40000021002003F07EFE16E0032C08D10120C5
:101C5000FFF74AFF9D4A0021002003F073FECFE208
:101C6000042C09D101204042FFF73EFF974A002192
:101C7000002003F067FEC3E2002C00D0C0E2012187
:101C80000020FFF7EDFDBBE2012804D10121002077
:101C900003F07CFEB4E2022804D10221002003F00C
:101CA00075FEADE203280CD103F05AFE052103F0C6
:101CB0006DFE0E2800D8A3E201210020FFF7D0FD21
:101CC0009EE204239C4300D09AE287E2804BDB8BA8
:101CD000432B01D0482B1CD1002D04D10421080036
:101CE00003F054FE0DE0012D04D10421092003F07E
:101CF0004DFE85E2022D04D104210A2003F046FEA8
:101D00007EE2032D00D07BE204210D2003F03EFE95
:101D100076E2002D04D10421012003F037FE0DE00E
:101D2000012D04D10421080003F030FE0DE0022D46
:101D300004D10421092003F029FE61E2032D04D11E
:101D400004210A2003F022FE5AE2042D00D057E2BB
:101D500004210D2003F01AFE52E2023421B20420C5
:101D6000FFF708FE0421022003F010FE48E2614262
:101D7000614109B20520FFF7FDFD0421032003F0B6
:101D800005FE3DE221B20620FFF7F4FD37E121B266
:101D90000820FFF7EFFD00215E234A4AD1520020C0
:101DA000FFF702FE4A4BDB8B432B01D0482B07D1B8
:101DB000002D00D123E10421062003F0E7FD1FE2FE
:101DC000002D00D11BE10421052003F0DFFD17E207
:101DD00021B20B20FFF7CEFD00215E23394AD152FC
:101DE0000020FFF7E1FD0421062003F0CFFD07E20C
:101DF00021B20920FFF7BEFD00215E23314AD152F6
:101E00000020FFF7D1FD0421072003F0BFFDF7E11B
:101E100021B20A20FFF7AEFD00215E23294AD152EC
:101E20000020FFF7C1FD0421082003F0AFFDE7E12A
:101E300021B20C20FFF79EFD00215E23214AD152E2
:101E40000020FFF7B1FDDAE0002D00D0D2E1002143
:101E50000120FFF78FFDD2E001210800FFF78AFD86
:101E6000CDE01B4BDB8B432B01D0482B1CD1002D2D
:101E700004D107210520FFF7F3FCC1E1012D04D1B6
:101E800003210220FFF7ECFCBAE1022D04D102216C
:101E90000120FFF7E5FCB3E1032D00D0B0E10A21FA
:101EA0000620FFF7DDFCABE1002D04D104210B205F
:101EB00003F06CFDA4E1012D0CD107210520FFF7F3
:101EC000CFFC9DE1B82600204C8E0008891A00083E
:101ED000F8210020022D04D104210C2003F056FD2E
:101EE0008EE1032D04D103210220FFF7B9FC87E125
:101EF000042D04D104210220FFF7B2FC80E1052D5E
:101F000004D102210120FFF7ABFC79E1062D00D0BE
:101F100076E10A210620FFF7A3FC71E121B211202E
:101F2000FFF728FD6042604180B201F069FB0121AA
:101F30005C23B44AD15262E021B20D20FFF71AFDB2
:101F4000200005F013F801215C23AE4AD15256E07F
:101F5000002D00D051E1AB4B1A6D5A654FE00022C5
:101F6000A84B9A654BE0002D0CD143210F20FFF7C1
:101F700001FD01215C23A34AD1520B310520FFF75B
:101F80006FFC1DE0012D0CD148210F20FFF7F2FC62
:101F900001215C239B4AD1520C310520FFF760FCE4
:101FA0001DE0022D0CD14C210F20FFF7E3FC012195
:101FB0005C23944AD1520D310520FFF751FC1FE1FB
:101FC000032D0CD14F210F20FFF7D4FC01215C23FE
:101FD0008C4AD1520D310520FFF742FC10E1042D4F
:101FE00000D00DE100210F20FFF7C4FC01215C238C
:101FF000844AD1520D310520FFF732FC00E1012166
:102000000020FFF72DFCFBE0002800D0F8E0BFF334
:102010004F8F7D4A7D4BDA60BFF34F8FFEE702287A
:102020000BD801210020FFF71BFC00217423754A07
:10203000D1520020FFF7B8FCE2E003280DD1714B2C
:102040001B8ADB0603D4012174236E4AD15200227D
:102050000021002003F076FCD2E0042800D0CFE07D
:10206000684B1B8A1B0703D401217423654AD15294
:1020700000220021002003F065FCC1E00A2C0AD1F7
:10208000002003F007FD03225E4B5A860321002047
:1020900003F07CFCB4E0002C03D1002003F0FAFC38
:1020A0000FE00B2C03D1022003F004FD13E0062CFB
:1020B00007D1574B9B89002B1CD0012003F0FAFC61
:1020C00018E0072C07D1524B9B89002B22D000200F
:1020D00003F0F0FC1EE0082C0CD14D4B9B89002B2B
:1020E00002D06320FFF760FC00220021002003F0F3
:1020F00029FC35E0092C0DD1454B9B89002B03D0E1
:1021000063204042FFF750FC00220021002003F032
:1021100019FC4CE0012C23D10120FFF745FC3D4A7E
:102120000021002003F00EFC364B1B8A0E221A42BF
:102130000AD1374B0421595E1020FFF71BFC012107
:102140005C23304AD1523DE016221A423AD1002196
:102150001020FFF70FFC01215C232A4AD15231E005
:10216000022C24D101204042FFF71EFC294A002105
:10217000002003F0E7FB234B1B8A0E221A420AD1F0
:10218000234B0421595E1020FFF7F4FB01215C234F
:102190001C4AD15234E016221A4231D100211020BB
:1021A000FFF7E8FB01215C23164AD15228E0032CFB
:1021B00008D10120FFF798FC164A0021002003F007
:1021C000C1FB1DE0042C1BD101204042FFF78CFC19
:1021D000104A0021002003F0B5FB11E003F0C8FB1A
:1021E0000400050003F0BCFB0E2809D880000A4B50
:1021F0001B589F46012D03D12EE6012D00D1AEE6DE
:1022000070BDC046B82600200400FA0500ED00E0CD
:10221000F8210020891A0008688E0008F0B55F4692
:1022200056464D464446F0B48DB0302200216846F3
:1022300006F040FD824B0093824B0193824B029348
:10224000824B0393824B0493824B0593824B0693FC
:10225000824B0793824B1B8A9B05DB0F1B01984621
:102260007F4B1B8A1B0603D5022342461A43904626
:102270007B4B1B8A5B0603D5042342461A439046D8
:10228000774B1B8ADB0503D5082342461A43904649
:10229000734B1B8A9B0603D5012342461A43904683
:1022A000704B1B8ADB0403D5202342461A43904619
:1022B00004F054FE002806D00138402383404246F3
:1022C00013439BB29846012500260124664B99468C
:1022D0009A4602E001360135ADB2B7B23204120CB3
:1022E000130008335B004B445B885B009BB24146A4
:1022F0000C4207D11100083149005B488446614413
:102300004B8006E01100083149005144012003438D
:102310004B80130008335B005349CB1859880720C2
:1023200001405980072924D14F4B1B8A1C4200D001
:102330007CE023434C4A1382052F0ED1538D002B92
:1023400003D10122484B5A8560E003F051FB002085
:1023500003F0A0FBFFF7EEF958E0002F5BD1424BF2
:1023600000229A851B8E002B35D100223E4BDA8548
:102370002FE000292DD13C4B1B8A1C4250D03A49FA
:102380008B46A3430B8292006B46D158374800F02E
:102390000DFC01235A46D38517863800FFF706FC4B
:1023A000002F2DD1304F0123BB8504F025FFFB68A2
:1023B000C31A9B467B8E002B0DD104F01DFF2A4BC8
:1023C000D860FA239B009B4505D80B20FFF7EEFB56
:1023D00001E0002F14D1244B1B8A234223D1224B2E
:1023E0009B8D002B1FD001339BB21F4A9385642B1A
:1023F00019D900221C4B9A850A20FFF7D7FB12E05F
:102400006400A4B20B2D00D864E712E0164B1B8EBB
:10241000052BAAD0F4E7144B1B8EBB42F0D1A4E7E6
:10242000002FEDD1DBE76400A4B253E7002FE7D122
:10243000F9E70DB03CBC90469946A246AB46F0BDCC
:10244000FC670108046801080868010810680108B1
:102450001868010820680108286801083068010828
:102460000004004800080048B82600203868010829
:10247000F0B5474680B40121D04804F0D1FF802652
:1024800036010121300004F0D9FF012180208002B3
:1024900005F03EFA01218020C00205F039FA012141
:1024A0008020000305F034FA01218020400305F06C
:1024B0002FFA0121012005F039FAE120400201F054
:1024C000AFF8BF4FFB8B9846390020311A00BD484A
:1024D00000F06CFBBC4D78220021280006F0EAFBDE
:1024E000BA4B596A2960802252045A62B84800F0F7
:1024F0005DFBB848FEF7AAFF04F004FEB64804F0FE
:102500006FFEB64C20220021200006F0D3FBBB8BCF
:102510002380434663802B681A0CA283E383B04B6D
:102520001B681A0C22826382AE4B1B681A0CA282B3
:10253000E382AD4B1B681A0C2283638304F068FFAF
:10254000208104F05FFF60810004020C2189A7480C
:1025500000F02CFBA64C0025A571657125710127A3
:10256000E771F8239B0023602100A24805F01EF8C4
:1025700080235B01236021009F4805F017F831009C
:102580009D4805F06BF8A571E571277126606571AE
:102590002100994805F00AF80323237101332360D1
:1025A00021009020C00505F001F8A571E5712771A3
:1025B0000C232360657121008F4804F0F7FF04218C
:1025C0008D4805F04BF808218B4805F049F803F0D9
:1025D000B1FDFFF76FF8894BDB8B4F2B03D19620B2
:1025E000000201F01DF800F027F904F035FD834CDE
:1025F000608B04F0BBFC03F085FA03F0B7F803F03E
:10260000DFFD638C002B02D0002000F0F9FF7C4836
:1026100005F03AF8072005F03DF8FA2005F040F8FB
:10262000002005F031F805F049F805F03FF804F016
:10263000E3FD06000022734B1A80634C236D636533
:102640000020FFF7B1F97623E35A002B07D00421CD
:102650000E2003F09BF903225B4B5A8607E0674B81
:10266000DB8B4F2B03D103210220FFF7F9F8564BE8
:1026700098461C001F00022006F052F904F066FD87
:1026800000F020F900F0E0FCFFF7C8FD03F0CEFCFD
:10269000FFF712F9002004F053F8012004F050F87D
:1026A00004F0AAFD801BF423FF33984204D9F536C9
:1026B000FF360C20FFF77AFA04F0A6FD43465B686C
:1026C000984211D001336360A3680133A360A36D06
:1026D000581CA0653C21FEF78BFD1E2904D1002269
:1026E0001D39002003F02EF9434D0821280004F085
:1026F000B5FF0421280004F0B3FF04F0D7FF5C23EA
:10270000FB5A002B05D000215C232F4AD152FFF742
:1027100011F874232C4AD35A012B0CD11500022234
:102720007333EA5204F068FD28670022002136481E
:10273000FEF7BCFE2CE0022B14D104F05DFD224B11
:102740001B6FC01A314B984222D904F055FD1E4D23
:102750002867002200212E48FEF7A8FE03227423DA
:10276000EA5215E0032B13D104F046FD164B1B6F04
:10277000C01A264B98420BD904F03EFD124D286733
:10278000002200212048FEF791FE02227423EA5223
:1027900068230D4AD35A002B00D16CE704F02CFDBE
:1027A000094BDB6EC01A312800D864E7134BDB8B72
:1027B0004F2B00D15FE7FFF7A9F85CE7331000006B
:1027C000B866010854680108B826002000100240CD
:1027D0006C680108B71DC10488130000982600200A
:1027E000ACF7FF1FB0F7FF1FB4F7FF1F80680108A9
:1027F000502700200004004800080048F82100206D
:1028000055550000000000208A0200000F2700003C
:10281000EE02000000B583B00023019300938022F4
:1028200052000349034805F097FE05F061FFFEE7FB
:10283000A86801087124000870B51E4E0622002108
:10284000300006F037FA01218020800005F06EF894
:10285000194903230B710024CC7101330B609020C4
:10286000C00504F0A3FE15490C6001230B718C60B8
:102870000C614C61124D280004F052FD012004F05F
:1028800071FD05220421280004F080FD3480280019
:1028900004F082FD0121280004F058FD2C000121E4
:1028A000200004F0A1FD0028F9D0054804F096FDB1
:1028B00070BDC046002800205027002008280020B6
:1028C0000024014070B5274804F082FD264B1B8888
:1028D000002B1DD1234C206C244B584380231B011B
:1028E0009C466044000B224B5843F530FF301E4D90
:1028F000FA218900FEF7F6FB68800023A362072215
:1029000080214902200004F041FD01232B8024E0B6
:10291000144B1B6C174A1088181A144B5843802309
:102920001B019C466044000BFA239B005843124B4A
:102930009C4660441149FEF75FFC03003133A82B2D
:1029400002D81E30084B9880064800248462052275
:10295000042104F01BFD044B1C80024804F03EFDE2
:1029600070BDC0460024014000280020E40C000097
:1029700041130000B8F7FF1F66080000CC100000EC
:10298000014B58887047C04600280020014B0420A6
:10299000185E70470028002010B50400224B234A1F
:1029A000D35A002B3DD082235B01D35A042B02D88B
:1029B0000D2809D135E00A2806D11D4B1B680D2BC7
:1029C00002D00D20FFF7E8FF194B1C60194B174A86
:1029D000D358002B0ED0184A14498A5A012A20D9FC
:1029E0000A00581C134950501C701349535A013B9C
:1029F000535216E0114B0D4AD15A4B1C9BB2104A50
:102A0000934200D900230F4A0848825A92B2934257
:102A100002D04454094943520B4A116880230B43A6
:102A20001360200010BDC0463E100000302800207A
:102A30001C030020381000003C100000261000008D
:102A4000FF030000281000000038014010B504000A
:102A50000078002805D00134FFF79EFF2078002879
:102A6000F9D110BDF0B55F464E464546E0B482B0A0
:102A700004000091019298460B00083B082B01D9F5
:102A80000A23009300261A4B9B461A4F00E04E463D
:102A9000731C99465B46F51800992000FEF7A8FBC9
:102AA0007B5C2B7000992000FEF71CFB041EEED10E
:102AB000019B99450BDA20344346002B00D010349B
:102AC000019F2000FFF768FF013FB945F9DB4B4646
:102AD000002B07DD064CA05DFFF75EFF013E731C77
:102AE000002BF8DC02B01CBC90469946A346F0BD12
:102AF000202800200C8F0008F0B55F4656464D4652
:102B00004446F0B483B004000091019298460B0053
:102B1000083B082B01D90A23009300239B46002C75
:102B200002DA644201339B4600261E4B9A461E4B36
:102B3000994600E03E00771C5346F51800992000A6
:102B4000FEF740FC4B465B5C2B7000992000FEF7C3
:102B500053FB041EEED15B46002B03D02D22114BFC
:102B6000DA55B71C019BBB420BDD20254346002BE9
:102B700000D01035019C2800FFF70EFF013CA74252
:102B8000F9DB7C1E002F05DD064D285DFFF704FFF5
:102B9000013CFAD203B03CBC90469946A246AB46F3
:102BA000F0BDC046202800200C8F00080FB4F0B5FF
:102BB00085B00AAB80CB0393387800286DD0002312
:102BC00001930124644200252026002D08D12528E8
:102BD0005AD0FFF7E1FE002301930124644258E03C
:102BE000252803D1FFF7D8FE002552E064280AD13A
:102BF000039B1A1D03921868019B22000A21FFF70C
:102C00007BFF002545E075280AD1039B1A1D03921E
:102C10001868019B22000A21FFF724FF002538E0F5
:102C20000300B343582B0AD1039B1A1D0392186863
:102C3000019B22001021FFF715FF002529E07328D2
:102C400007D1039B1A1D03921868FFF7FFFE0025AA
:102C50001FE0632807D1039B1A1D03921868FFF732
:102C60009BFE002515E000250300303B092B10D802
:102C7000002C02DA012301930024A3001B195B003E
:102C80003038C418012504E0002301930124644274
:102C9000012501373878002897D105B0F0BC08BC71
:102CA00004B01847F0B55F4656464D464446F0B46A
:102CB0008FB0002802D0012845D06CE0394BDC8B66
:102CC0000E20FEF7C3FD0C900F20FEF7BFFD0D9008
:102CD0000820FEF7BBFD05000920FEF7B7FD060042
:102CE0000A20FEF7B3FD07000B20FEF7AFFD80467C
:102CF0000C20FEF7ABFD81460D20FEF7A7FD8246B6
:102D00000020FEF7C1FD83460020FEF7C9FD0B90B1
:102D10000D20FEF731FD08903C210B98FEF7E2F9FB
:102D200007905946069151460591494604914146FE
:102D300003910297019600950D9B0C9A21001A4869
:102D4000FFF734FF27E0002003F0EEFD0B9000209A
:102D500003F0F6FD0C90002003F0FEFD0D90012025
:102D600003F0E2FD0700012003F0EAFD040001206A
:102D700003F0F2FD0500FFF703FE0600FFF706FE75
:102D8000049003960295019400970D9B0C9A0B9961
:102D90000648FFF70BFF0FB03CBC90469946A24691
:102DA000AB46F0BDB8660108B0680108F0680108DC
:102DB000F0B54F464646C0B483B0170001930400F7
:102DC0000D00884227D2184E184B9946184B98464A
:102DD000E368B3421AD1A3684B4517D163684345F2
:102DE00014D1144B22689A4210D1019A002A02D0C1
:102DF000A38B93420AD1606FFEF728FB7C2221004F
:102E0000206FFEF70FFBE36F984206D0E419AC4247
:102E1000DED3002002E0002000E0200003B00CBC64
:102E200090469946F0BDC0460190C965ED3E4BAA5B
:102E300019228FDF3371D69D10B500280FD1164BA4
:102E4000102216491648FFF7B3FF041E1ED043692F
:102E500002699A1A0169006FFEF7E4FA11E00E4B5D
:102E6000102210490D48FFF7A3FF041E10D001697E
:102E700043695A1A80239B029C466144006FFEF707
:102E8000D1FAA36F984205D1200004E0002002E0AF
:102E9000002000E0002010BD082B00000000020808
:102EA0000010000800000408F0B5474680B41D4B30
:102EB000C4181D4B9C4231D8C3072FD41B4B1B6930
:102EC0001B0604D5194B1A4C5C601A4C5C60002A36
:102ED0001FD00026154C02239C46403398460125FE
:102EE000430507D163462361606143462361E3687C
:102EF0001D42FCD18B195B781B028F5DFB1825618D
:102F00000380E3681D42FCD10236B6B20230B24201
:102F1000E6D8064A116980230B43136104BC90462E
:102F2000F0BDC0460000FEF7FFFF01000020024098
:102F300023016745AB89EFCD70B50100861C0020E9
:102F400000240D782A00303AD3B2092B01D9373D3D
:102F5000EBB20F2B04D9203BDBB20F2B00D923009F
:102F60000001C318D8B20131B142EAD170BDC046E8
:102F7000F0B5474680B482B0040001908C46224BE5
:102F8000224A9A5A92B222495B5A9A4230D01F4A38
:102F90001D49885A80B26246002A2BD083422BD02A
:102FA00021000025184F1B4E5A1C92B2FB1880249A
:102FB000E400A04643441C781300B24200D9002329
:102FC0003B2C03D0232C01D00D2C07D100220199DA
:102FD0004A550F4A0C498B52280010E00135ADB21A
:102FE0000C70AC450AD001318342DDD1002006E0EF
:102FF000002004E0002002E0002000E0002002B0F9
:1030000004BC9046F0BDC046302800202A100000C5
:103010002C100000FF01000010B5002801D0064967
:1030200000E006490648FFF7C1FDFEF743FC01003A
:103030000448FFF7BBFD10BD1868010810680108BF
:103040001469010828690108F0B55F4656464D46E7
:103050004446F0B485B0C84B8222120194466344C2
:103060000193C64BC64A94466344029382221201DE
:103070009C466244039228E2C023DB00BE4AD35A36
:10308000C04A934206D1C049CA8B2031BF48FFF7DE
:103090008DFD1AE2BE4A934202D1FEF737FC14E2DC
:1030A000C022D200B4498A5C402A5DD1B94BCB5CC6
:1030B000002601241F2B3CD84DE00134A4B220008F
:1030C0002B19C022D200944663441B781F2B02D9CF
:1030D000303B092BF1D8C023DB009C466044C0196B
:1030E00005F0D9FD01B23000FEF71AFD3B19C022F0
:1030F000D200944663441B78303B092B0BD89E4A80
:103100000134A4B21319C021C9008C4663441B7852
:10311000303B092BF4D90136B6B2402E1BD0964B6A
:103120001B19C022D200944663441B781F2B04D87D
:1031300011E0914B98461D001F00200043461B19CB
:10314000C022D200944663441B781F2BC3D9303B66
:10315000092BB2D8BFE700220021002002F0F2FBC9
:103160008D48FFF723FDB0E18C4A934203D1002044
:1031700002F0A0FCA9E18A4A93420CD10120FFF79A
:103180005BFE002803D08748FFF710FD9DE18648CD
:10319000FFF70CFD99E1854A934216D1774805F077
:1031A0007AFD040081235B0102990A00D0500022BD
:1031B0007F4BCA5280221201FF21039805F07AFD4D
:1031C00021007C48FFF7F2FC7FE17B4A934214D157
:1031D0007A48FEF73BF9684C754BE25A82231B0193
:1031E000E11801204042FEF71DF9020081235B0136
:1031F000E1587348FFF7DAFC67E1724A934210D155
:103200006B4B5D4AD25A043B5B49C85880239B02F2
:103210009C4660440199FFF747FE6B48FFF7C6FCE8
:1032200053E16A4A934229D16948FFF785FE83B288
:103230009946002B00D148E1042600244E4B9B46C2
:103240005B4F644B9A46D8465B46DD5B55450ED8CE
:103250006B1C4246D353C023DB00F0184044FFF7F9
:103260006BFE454482231B019C4665442870013453
:10327000A4B20236B6B2A145E6D826E1564A934238
:103280000BD1564A80239B051A60BFF34F8F544AD7
:10329000544BDA60BFF34F8FFEE7534A934206D197
:1032A000364805F0F8FC80B2FFF7FCFC0DE10F207A
:1032B000FEF762FA4F2800D007E14C4BC022D20043
:1032C0002D498A5A9A421BD1494C2000FFF76EFCC7
:1032D0004848FFF76BFC4848FFF768FC4748FFF792
:1032E00065FC4748FFF762FC4648FFF75FFC46482D
:1032F000FFF75CFC4548FFF759FC2000FFF756FC40
:10330000C023DB001C4AD35A414A93420CD13048B7
:1033100005F0C1FC0300143B4F2B00D9D5E001B2EE
:103320000220FEF7FDFBD0E03A4A93420CD1284838
:1033300005F0B1FC03000933122B00D9C5E001B23E
:103340000320FEF7EDFBC0E0334A934200D0A1E03A
:10335000324B094AD35C202B62D102241100013484
:10336000A4B223000A19C020C00084466244127827
:10337000202AF4D056E0C04630280020332E00200A
:10338000FDF9FFFF64760000B86601085468010883
:1033900067730000010600003C6901085E5E0000E2
:1033A0006673000044690108546901086661000001
:1033B000241000006C69010866630000B71DC10499
:1033C0007C69010866700000906901087B7B000041
:1033D000322E0020FF07000066780000621A97393D
:1033E0000400FA0500ED00E0697200006865000065
:1033F000A4680108A0690108BC690108D469010832
:10340000FC690108246A01084C6A0108706A010815
:1034100073700000736E00007373000002060000FA
:1034200002230224C022D20094466344684E9819B5
:1034300005F031FC050022003619C023DB009C4654
:1034400066443378202B0BD961490134A4B22200A1
:103450000B19C020C000844663441B78202BF4D88D
:10346000C023DB009C4662445948101805F013FC49
:1034700004002B00143B4F2B03D829B20220FEF787
:103480004FFB23000933122B1FD821B20320FEF774
:1034900047FB1AE04F4A934203D10020FFF7BCFDDF
:1034A00013E04D4A934203D10120FFF7B5FD0CE034
:1034B0004A4A934203D1012002F0FCFA05E0484A4F
:1034C000934202D1002002F0E5FA802189004548AC
:1034D000FFF74EFD002800D0CEE503F08DFE424BF5
:1034E000984204D90121414B394AD15204E03F4B63
:1034F000374AD35A002B64D0354A82235B01D15A14
:1035000005295ED88B003A4AD3589F4680219020E7
:10351000C00504F0A5F803F06FFE2D4B354A985016
:103520000121043A99524CE003F066FE314B284ADF
:10353000D358C01A182844D980219020C00504F01F
:103540008DF803F059FE224B2A4A98500221043A82
:10355000995236E003F050FE264B1D4AD358C01A4C
:10356000F423FF3398422CD90D20FEF705F9010012
:103570002148FFF71BFB032182235B01144AD15230
:103580001FE01E48FFF712FB03F036FE104B194AEE
:1035900098500521043A995213E003F02DFE154B83
:1035A0000B4AD358C01AF423FF33984209D903F0C9
:1035B00023FE104B064AD05080219020C00504F015
:1035C0004FF805B03CBC90469946A246AB46F0BDCC
:1035D000302800206A6C00006A72000068670000F2
:1035E00068780000302E0020C40900003E10000062
:1035F000208F000844100000986A0108AC6A010896
:10360000002805D0002182235B01044AD15204E046
:10361000042182235B01014AD152704730280020E7
:10362000F0B5474680B480462C4A00212C4805F06E
:1036300041FB01218020C00104F078F99026F605B5
:1036400001220921300004F00DF801220A21300086
:1036500004F008F8234C0025A571E57102232371BD
:10366000FF33FF332360012767712100300003F02F
:103670009DFFE7718023DB0023602100300003F011
:1036800095FF8023236027712100300003F08EFF17
:103690008021300003F0E2FF134943460B604D6088
:1036A0008D60CD604D610C230B61104C200004F047
:1036B00027FA0121200004F091FA01220C49200090
:1036C00004F098FA0B481B230370153B4370877076
:1036D00003F0FCFF04BC9046F0BDC046481000005B
:1036E00030280020502700206C270020003801409F
:1036F00005010500A0270020F0B5284BDA691868FD
:10370000130702D00F21254B1962930620D5234BB6
:103710009C8CA4B2224B2349CB5A01339BB2224941
:103720008B4200D9002321491E4D695A994209D084
:103730001B4EA95B69188027FF00BC4661440C70D2
:10374000AB5305E0174B0021184C1953144C195377
:10375000030622D5130620D5124A154BD35A9BB225
:103760001449525A9A4213D00E4B11495A5A92B2E6
:10377000501C80B25852985C084A10855B5A9BB224
:103780000D4A934209D90021094B064AD15204E05F
:10379000024A136880218B431360F0BD003801405A
:1037A0002A10000030280020FF0100002C1000002B
:1037B0002810000026100000FF03000010B5FFF7DE
:1037C0009BFF10BD10B5040002210E4803F048FF16
:1037D000012003F005FD21000B4804F00BF9052042
:1037E00003F0FEFC084C8021200004F00FF90028B3
:1037F000F9D10221034803F031FF012003F0F0FC6E
:1038000010BDC046000400480038004010B5040058
:103810000421054803F024FF012003F0E1FC20000F
:10382000FFF7D0FF10BDC0460004004810B50400EB
:103830000421054803F012FF012003F0D1FC200011
:10384000FFF7C0FF10BDC0460004004870B50C4B28
:103850001B8ADB070BD411E0338A2B420ED00A20DF
:1038600005F05EF8013CA4B2002CF5D106E00A2078
:1038700005F056F8034C024E0125EDE770BDC04639
:1038800000040048E703000070B58025ED00334CCC
:103890002900200003F0E4FE022005F041F8290091
:1038A000200003F0DBFE142005F03AF8FFF7CEFF0E
:1038B0001220FFF7ABFFFFF7C9FF0120FFF7A6FFBC
:1038C000C720FFF7B3FF0020FFF7B0FF0120FFF78D
:1038D000ADFF1120FFF79AFF0120FFF7A7FF44205B
:1038E000FFF794FF0020FFF7A1FF1820FFF79EFFCE
:1038F0004520FFF78BFFC720FFF798FF0020FFF759
:1039000095FF0020FFF792FF0020FFF78FFF3C207C
:10391000FFF77CFF0120FFF789FF1820FFF776FFF4
:103920008020FFF783FF2220FFF770FFB120FFF711
:103930007DFF2020FFF76AFF4E20FFF767FF002082
:10394000FFF774FF4F20FFF761FFC720FFF76EFFFF
:103950000020FFF76BFFFFF779FF70BD0004004800
:1039600000B583B0002301938020800203F0BAFDEC
:10397000064B586B01A904F0BDFC019B002B03D042
:1039800080225205024B1A6003B000BD7838002037
:1039900004ED00E0F8B507000D001F4C00230022E5
:1039A0000021606B04F0E4FC1C4E0421300003F0A5
:1039B00055FE012003F014FC0221300003F050FEFC
:1039C00001220221164804F017F8E7606561210022
:1039D0000831144D280003F03FFD8027BF02380056
:1039E00003F080FD380003F089FD0121280003F079
:1039F00051FD606B0023FA225200002104F0B8FC54
:103A0000022004F08DFF0221300003F027FE002188
:103A1000280003F03FFDF8BD78380020000400487E
:103A2000003800405800024070B5040060232D4A61
:103A3000D35A012B4DD16133D35A002B05D0FFF758
:103A400023FF00216223274AD152FFF7FFFE002CFB
:103A500004D15E23234AD35A002B28D02420FFF719
:103A6000D5FE214D214C29002000FFF793FF262091
:103A7000FFF7CCFE29002000FFF78CFF2220FFF784
:103A8000C5FEF720FFF7D2FE2020FFF7BFFEFFF7AD
:103A9000DDFE1020FFF7BAFE0120FFF7C7FE0A2067
:103AA00004F03EFF012162230E4AD15211E024208E
:103AB000FFF7ACFE0C490D48FFF76CFF2220FFF723
:103AC000A5FEFF20FFF7B2FE2020FFF79FFEFFF7C5
:103AD000BDFE5E23034AD35A002B02D000215E2391
:103AE000D15270BD7838002088130000E4390020DE
:103AF00070B50D4D0D4C2A00FF21200005F0DAF8BD
:103B00002420FFF783FE29002000FFF743FF222037
:103B1000FFF77CFEF720FFF789FE2020FFF776FEF7
:103B2000FFF794FE70BDC046881300002C5400209F
:103B300010B5C72835D8C72933D85823194CE45AAB
:103B40005A2C04D1C723591A030088B207E00B008E
:103B5000B42C04D1C723181A80B2591A8BB2002A88
:103B600010D0C8225A431118CB17072213405918F6
:103B7000C9100D4C0723184079330341625C13438D
:103B800063540EE0C8225A431118CB170722134082
:103B90005B18DB10044C104080210141E25C8A4339
:103BA000E25410BD78380020E43900200023C728F3
:103BB00025D8C72923D85833124AD25A5A2A04D1B1
:103BC000C723591A030088B207E00B00B42A04D1B6
:103BD000C723181A80B2591A8BB2C8215943091841
:103BE000CB17072213405918C910074B5A5C0723FB
:103BF0001840793303411340581E83419BB218008B
:103C00007047C04678380020E4390020F0B55746A8
:103C10004E464546E0B482B081460E001700C728E4
:103C200036DC04008BB20193013B1BB29A46A4B26E
:103C300001992000FFF7BAFFB84229D0C72E10DC47
:103C40003500ADB229002000FFF7B0FF874208D051
:103C50003A0029002000FFF76BFF01352DB2C82D77
:103C6000EFD15546002D0FDBADB229002000FFF744
:103C70009DFF874208D03A0029002000FFF758FF37
:103C8000013D2DB2002DEFDA013424B2C82CCED183
:103C90004D46013D2DB2002D35DBB3B20193013B02
:103CA0001BB29846ADB201992800FFF77FFF87420B
:103CB00029D0C72E10DC3400A4B221002800FFF761
:103CC00075FF874208D03A0021002800FFF730FF37
:103CD000013424B2C82CEFD14446002C0FDBA4B22F
:103CE00021002800FFF762FF874208D03A00210038
:103CF0002800FFF71DFF013C24B2002CEFDA013D44
:103D00002DB2002DCEDA02B01CBC90469946A246D8
:103D1000F0BDC046F0B55F4656464546E0B484B0B7
:103D200082468B461500029353421BB21F00039339
:103D30009D4227DB2B006B43984617E0230063432B
:103D40009B19AB4206DC5346181980B2029A0199BE
:103D5000FFF7EEFE013424B2BC42EFDD3B004746E4
:103D6000A8461D007B1C1FB2BD420BDB3E007E43FC
:103D7000039C5B46DB199BB201932B004546B8467A
:103D80001F00DBE704B01CBC90469A46A346F0BD7A
:103D9000F0B55F4656464D464446F0B483B0040045
:103DA0000E0090460CAA12880192404503DB424661
:103DB000811A09B202E04246111A09B29E4202DBA0
:103DC000F21A12B201E09A1B12B20020814691420F
:103DD00007DA4246984613002200340016000122FA
:103DE0009146444505DD32001E0013002200444682
:103DF00090464246121B92B2924615B29E4208DB92
:103E0000F71A3FB2EB0F5D196D1001235B429B4621
:103E100006E09F1B3FB2EB0F5D196D1001239B461F
:103E200044451ADC4B46002B05D0A1B2B0B2019A32
:103E3000FFF77EFE04E0B1B2A0B2019AFFF778FE70
:103E4000ED1BABB21DB2002D03DA5E4436B2534413
:103E50001DB2013424B24445E4DD03B03CBC9046BD
:103E60009946A246AB46F0BDF0B585B01D000AAB41
:103E70001C8803B2180017B20EB2009433003A0047
:103E800031000390FFF784FF2DB200942B003A001D
:103E900031003800FFF77CFF00942B00039A2900C3
:103EA0003800FFF775FF00943300039802002900E3
:103EB000FFF76EFF05B0F0BDF0B585B00700140048
:103EC0000AAA1588A04201D302D80FE027000400F7
:103ED0001EB20BB2039320B2009533000200039987
:103EE000FFF756FF0134A4B2BC42F4D305B0F0BDD5
:103EF000F0B587B003900C000CA909880DA80588BF
:103F000000292FD169468889D10F891849108AB2B2
:103F1000811A09B20491821812B2DE0FF3185B10F5
:103F20009BB2A6B29F193FB2F61A36B200953B007B
:103F3000059239000498FFF72BFF00953B00059A86
:103F400031000398FFF724FF00953300039E3200F1
:103F500039000498FFF71CFF2A0021003000FFF70A
:103F600055FE62E001292FD169468889D10F891851
:103F700049108AB2871A3FB2821812B20492A6B2CE
:103F8000DA0FD218521093B2F21A11B2F3181EB20D
:103F9000009533003A0005913800FFF7F9FE0095CF
:103FA00033003A002100049E3000FFF7F1FE009537
:103FB0002300320005993800FFF7EAFE2A002100AD
:103FC0000398FFF723FE30E002292ED1D10F8A1883
:103FD000521092B26946898957183FB28A1A12B2B2
:103FE0000492A6B2DA0FD218521093B2F21A11B29A
:103FF000F3181EB2009533003A0005913800FFF720
:10400000C7FE009533003A002100049E3000FFF700
:10401000BFFE00952300320005993800FFF7B8FE77
:104020002A0021000398FFF7F1FD07B0F0BDC0465C
:10403000F0B55F4656464D464446F0B485B007009D
:104040008B46904601930EAB1B78002851D0202B55
:1040500001D1808852E08278002093424ED3F978D3
:1040600099424BD39B1A9B00BA68944663445E887E
:104070001B88180003933B88002B3CD00300013BB6
:10408000DA1707210A40D318DB1001339BB2994697
:1040900000239A4643460293B846070024E0029B59
:1040A00053449BB20093A8B2C2084346DB689B19F5
:1040B0009B5C234205D0584480B2019A0099FFF7D7
:1040C00037FD640800D180340135ABB2BB42EAD37E
:1040D0004E44B6B2534601339BB201229446E244A9
:1040E000424612889A4208D900258024002FD6D152
:1040F000EEE7002002E0039800E0039805B03CBC26
:1041000090469946A246AB46F0BDC046F0B50C2895
:1041100005D90024204F0AE0854208D300E000269C
:10412000F6001D488619706900280AD132E0013472
:10413000A4B22600E5007D192D8A002DECD1164889
:1041400029E0002B01D004881C800B780024002576
:104150001F2B04D81AE0002D01D00235ADB2202B60
:1041600003D18388ED18ADB20BE086789E4208D863
:10417000C7789F4205D39B1B9B0086689B5BED180D
:10418000ADB20134A4B20B5D1F2BE4D8002A02D0DB
:10419000158000E00048F0BDBC8F0008F0B589B084
:1041A00006000591100004930EAB20CB1C880E2353
:1041B00004AA9446634407AA2900FFF7A7FF0390C7
:1041C000082C6AD8A400494B1B599F4607AB1B8893
:1041D0005B08F31A9EB260E007AB1B88F31A9EB22D
:1041E0005BE00E2304AA944663441B885B08059A8F
:1041F000D31A9BB2059350E007AB1B885B08F31AF8
:104200009EB20E2304AA944663441B885B08059A59
:10421000D31A9BB2059340E007AB1B88F31A9EB2FA
:104220000E2304AA944663441B885B08059AD31A9C
:104230009BB2059331E0039BDB880E2204A98C46D8
:10424000624412889B1A059A944663449BB2059374
:1042500023E007AB1B885B08F31A9EB2039BDB8845
:104260000E2204A98C46624412889B1A059A944631
:1042700063449BB2059310E007AB1B88F31A9EB210
:10428000039BDB880E2204A98C46624412889B1A89
:10429000059A944663449BB20593002207AB1A80AB
:1042A0002B7800271F2B06D81CE0002807D00230EF
:1042B00007AA108003E06A461421525E059207ACFB
:1042C0002188711809B20093049B059A0398FFF79F
:1042D000AFFE2388C01880B220807B1C9FB2EB5DAC
:1042E0001F2BE2D807AB188809B0F0BD388F000843
:1042F000F0B55F4656464D464446F0B485B0019051
:10430000884602920E9A9146D788928892461AB2AF
:104310009346FF2213409AB2082A40D89B00404A95
:10432000D3589F4653465B08019AD31A9BB2019318
:1043300035E0019B52469B1A9BB201932FE07B080C
:10434000CB1A9BB298462AE053465B08019AD31ACF
:104350009BB201937B08CB1A9BB298461FE0019B4E
:1043600052469B1A9BB201937B08CB1A9BB298468C
:1043700015E0CB1B9BB2984611E053465B08019AAF
:10438000D31A9BB20193CB1B9BB2984607E0019BCB
:1043900052469B1A9BB20193CB1B9BB29846002FAF
:1043A00037D08025002400265346013B019A9446CD
:1043B000634403934B461B689B5D2B4211D05B46C5
:1043C000002B07DB019B181980B2029A4146FFF7C8
:1043D000AFFB06E0039B181B80B2029A4146FFF731
:1043E000A7FB0134A4B26D0805D10136B6B2A245CF
:1043F00005D980350BE0A24509D80136B6B243464F
:1044000001339BB29846013FBFB280250024002FA4
:10441000D0D105B03CBC90469946A246AB46F0BD13
:104420005C8F000870B58AB005000E000D4C2100AD
:104430005831122205A804F034FC21006C311222FC
:10444000684604F02EFC0020082D08D8002E03DB5F
:104450006D0005ABE85A02E06D006B46E85A0AB001
:1044600070BDC046BC8F0008F0B54F464646C0B48C
:1044700083B0050000260024674B9846C0E05E2A02
:1044800001D0242A5BD101342B5D19003039092970
:104490000DD80027B800C0194000303B1F18013468
:1044A0002B5D190030390929F4D9002F12D15B4F47
:1044B0005B4B9B194246D35140239E1B594BD6520E
:1044C0005948FEF773FB00234246D2591370424607
:1044D000D3512FE05E2A09D10220FDF74DF9C01912
:1044E00080B2FDF767F90190504F08E00220FDF718
:1044F00043F9C01B80B2FDF75DF901904C4F464A6D
:10450000474B9B19454953504020861B454BD6527B
:104510000120FDF731F96B23002800D10233019A05
:1045200039004448FEF742FB3B4A3C4B0021D0583F
:104530000170D1503A48FCF7CDFD060060E07E2ABC
:1045400001D0232A58D10134285D0300303B092BC8
:104550000DD800218B00591849003038411801341A
:10456000285D0300303B092BF4D9002914D12A4FD0
:104570002A4B99462A4B9B194A46BB5040239E1B07
:10458000284BFE522C48FEF711FB00234A46BA582E
:1045900013704A46BB502AE07E2A14D11E4F1F4B8F
:1045A00099461F4B9B194A46BB5040239E1B1D4BEF
:1045B000FE522248FEF7FAFA00234A46BA58137010
:1045C0004A46BB5013E0144F144B9946144B9B19A9
:1045D0004A46BB5040239E1B124BFE521848FEF722
:1045E000E5FA00234A46BA5813704A46BB500C48B5
:1045F000FCF770FD060003E00134094B9A550136C3
:104600002A5D1F2A00D93AE705480023835503B0E5
:104610000CBC90469946F0BD3028002038100000B0
:10462000200300203C100000C06A0108B06A0108A5
:10463000B86A0108D46A0108E86A0108FC6A01083E
:10464000146B010810B50620FDF796F81E4C9C234C
:10465000E0520420FDF790F8023880B27A23E35A42
:10466000834202D97C23184AD0520520FDF784F8F2
:10467000002804D101218C23134AD15203E00021E8
:104680008C23114AD1520820FDF776F80E4CAC234A
:10469000E0520920FDF770F8CC23E0520A20FDF724
:1046A0006BF8DC23E0520B20FDF766F8BC23E052E8
:1046B0000C20FDF761F8EC23E0521120FDF75CF8C7
:1046C0008E235B00E05210BD78380020F0B55F46C5
:1046D00056464D464446F0B485B000239946002620
:1046E00000240027334B9A469B46B046BB005246F7
:1046F00052689D5AA30052461268944663441A6851
:10470000002A17D12B012B4AD3186E334A461A8040
:10471000C82243469F2B02DC4246283292B22B012C
:104720002449CB1870331A800137BFB20023994651
:1047300098462FE0AA1D12011E498C466244526819
:10474000002A05D1AA1D12018A1853601021118177
:10475000AA1D12015A4451890131518112890192D5
:104760001868FFF781FE010002AB9E1D03AB32000B
:104770000198FFF7CBFC33881A1C434500D2424610
:1047800093B2984603AB1B881A1C4B4500D24A468D
:1047900093B299460134A4B20E2F01D80E2DA5D99B
:1047A000FFF750FF05B03CBC90469946A246AB4689
:1047B000F0BDC04678380020F0B557464646C0B434
:1047C00087B004000D00002800D1E9E00123009328
:1047D000C633C72200210020FFF76EFB012D09D14F
:1047E0002389002B02D0013B23810EE0E388013BAB
:1047F00023810AE0022D08D1238901339BB2238152
:10480000E2889A4201D8002323812268002A01D13C
:104810002089C6E066897300F618B6B22589AB0018
:104820009858FFF721FEA28801230193039000907E
:10483000002331006420FFF7B1FC0E2702AB9C4639
:104840006744A08800233A000399FFF75FFC3B8888
:10485000C8209F2B01DC283398B2A0814008642334
:104860001B1A9BB298466C23181A83B29A46638926
:104870005F1C7F10F7193AB21100023B1BB252467F
:1048800010B200270197012200920F320391FFF727
:104890002FFB6389023B1BB2A0891038504400B241
:1048A0000197022200920E320399FFF721FB6389E0
:1048B000F3189BB2A289424492B20097310040465D
:1048C000FFF7D2FA6189761AB6B2013DADB2E3883C
:1048D000AB421BD9C72E19D80137A3889846AB0025
:1048E00022689858FFF7C0FD0197009000234246C8
:1048F00031006420FFF752FC013DADB26189711AAD
:104900008EB2E388AB4201D9C72EE6D9618989000E
:104910008EB225890135ADB2E388AB421BD9C72ED3
:1049200019D80127A3889846AB0022689858FFF74A
:104930009BFD019700900023424631006420FFF761
:104940002DFC0135ADB2618971188EB2E388AB429E
:1049500001D9C72EE6D901230093C733C822B82155
:104960000020FFF7A9FA00230093B833C822B8212A
:104970000020FFF70DFA072501950C4B009300234B
:104980000C22C7213220FFF709FC0195084B009348
:1049900000230C22C7219620FFF700FC208900E0AD
:1049A000002007B00CBC90469A46F0BD2C6B010865
:1049B000FC670108F0B55F4656464D464446F0B4E4
:1049C00093B0322003F0ACFFEC48FEF7EFF8EC4C6C
:1049D000B4225823E25270335A3AA3520232A352FD
:1049E000FFF774FE01256023E552FEF74DFFFFF748
:1049F0007FF8642003F094FF5E23E5526564E04B8A
:104A00009B46E04B18330893DE4B183309930A207A
:104A100003F086FF5B46DB6C002B2AD0DA4AFF21CD
:104A2000DA4804F047F9D74B00930023002207210E
:104A30000020FFF75DFC0120FEF7F6FF642003F085
:104A40006FFF1020FEF7E2FE1120FEF7EFFE64205C
:104A500003F066FF01F0E2FA0028F8D080252D016E
:104A6000CB4C2900200002F0FBFD642003F058FF2E
:104A7000F7E7C34B5B6C002B11D102F0BDFBC04BC1
:104A80009A6B801ADB6B9842C1D30120FEF7CCFFF2
:104A900002F0B2FBBA4B9863BE4ADA63B7E7B84B91
:104AA00000225A645B6DDB070CD502F0A5FBB44B0A
:104AB0009B6BC01AB84B984204D9B14A516D02237E
:104AC0000B435365AE4B5B6D9B0705D5B14AAC4BB1
:104AD000DA630123049304E0B04AA94BDA630023AC
:104AE000049302F089FBA64CA063636D03229343F9
:104AF000636501230093C633C43200210020FFF711
:104B0000DBF9A36C0E2B01D900F05FFC9B00A44ADB
:104B1000D3589F4600240094C723C72200210020B9
:104B2000FFF7CAF90220FEF77FFF954BDC6300F028
:104B300001FE01230093C633C72200210020FFF7A6
:104B4000BBF90220FEF770FF00228D4BDA6300F004
:104B5000F1FD00240194934B009300230C220521C6
:104B60000A20FFF71BFB904D904F0AAEEE51904B81
:104B700098462023994643464A46EA528D4BD98BA4
:104B80008D48FEF713F8EB591C70EC510194009618
:104B900000230C2205219420FFF700FB0194874B92
:104BA000009300230C2214210A20FFF7F7FAEE519C
:104BB00043464A46EA520E20FCF748FE05900F2075
:104BC000FCF744FE020005997D48FDF7EFFFEB5925
:104BD0001C70EC510194009600230C222321282004
:104BE000FFF7DCFA0194774B009300230C2232216B
:104BF0000A20FFF7D3FAEE5143464A46EA5208200C
:104C0000FCF724FE05900920FCF720FE06900A2000
:104C1000FCF71CFE07900B20FCF718FE82460C20C8
:104C2000FCF714FE81460D20FCF710FE02904B4667
:104C3000019353460093079B069A05996248FDF736
:104C4000B5FFEB591C70EC510194009600230C2227
:104C500041212820FFF7A2FA01945C4B0093002326
:104C60000C2250210A20FFF799FAEE510C239946A5
:104C700043464A46EA520020FCF706FE01004E4831
:104C8000FDF794FFEB591C70EC5101940096002342
:104C90000C225F212820FFF781FA01944C4B0093EE
:104CA00000230C226E210A20FFF778FAEE514346CA
:104CB0004A46EA520020FCF7F3FD3C21FCF712FAC9
:104CC00001003D48FDF772FFEB591C70EC51019457
:104CD000009600230C227D212820FFF75FFA019423
:104CE0003C4B009300230C228C210A20FFF756FA3C
:104CF000EE5143464A46EA520D20FCF73DFD0100C5
:104D00002D48FDF753FFEB591C70EC5101940096B0
:104D100000230C229B212820FFF740FA01942E4B00
:104D2000009300230C22AA210A20FFF737FA0F2054
:104D3000FCF722FD482814D002D8432805D069E0AA
:104D40004C284FD04F2859D064E000230193234BC7
:104D5000009300230C22B9212820FFF71FFA00F04E
:104D6000E3FC002301931E4B009300230C22B92186
:104D70002820FFF713FA00F0D7FCC0464C6B01085F
:104D8000783800204C90000888130000E439002097
:104D900000080048C02709004B1D00004C1D000002
:104DA000808F0008686B0108302800203810000050
:104DB0003C100000B8660108D06C0108786B01084F
:104DC000A06B0108846B0108906B0108AC6B0108B3
:104DD000BC6B0108D06B0108E06B0108F06B0108A7
:104DE000F86B010800230193F14B009300230C2280
:104DF000B9212820FFF7D2F900F096FC0023019397
:104E0000EC4B009300230C22B9212820FFF7C6F9B0
:104E100000F08AFC00230193E74B009300230C224F
:104E2000B9212820FFF7BAF900F07EFC0024019494
:104E3000E24B009300230C2202210520FFF7AEF97C
:104E40000194DF4B9A46009300230C2214210A2080
:104E5000FFF7A4F90194DB4B009300230C222321DC
:104E60000A20FFF79BF90194D74B009300230C22F3
:104E700032210A20FFF792F9D44DD54F0AAEEE51F8
:104E8000D44B98460C23994643464A46EA520020A2
:104E900001F04AFD0100D048FDF788FEEB591C7077
:104EA000EC510194009600230C2214219620FFF768
:104EB00075F9EE5143464A46EA52002001F040FDA2
:104EC0000100C548FDF772FEEB591C70EC510194CE
:104ED000009600230C2223219620FFF75FF9EE5164
:104EE00043464A46EA52002001F036FD0100BA4826
:104EF000FDF75CFEEB591C70EC5101940096002309
:104F00000C2232219620FFF749F90194B34B00930C
:104F100000230C2252210520FFF740F9019453464B
:104F2000009300230C2264210A20FFF737F9019433
:104F3000A44B009300230C2273210A20FFF72EF9C3
:104F40000194A14B009300230C2282210A20FFF739
:104F500025F9EE5143464A46EA52012001F0E4FCAD
:104F600001009D48FDF722FEEB591C70EC510194A5
:104F7000009600230C2264219620FFF70FF9EE51D2
:104F800043464A46EA52012001F0DAFC0100924809
:104F9000FDF70CFEEB591C70EC51019400960023B8
:104FA0000C2273219620FFF7F9F8EE5143464A464A
:104FB000EA52012001F0D0FC01008748FDF7F6FD20
:104FC000EB591C70EC510194009600230C228221B5
:104FD0009620FFF7E3F80194814B009300230C2205
:104FE000A0210A20FFF7DAF8EE5143464A46EA527A
:104FF000FDF7C6FC0590FDF7C3FCFA218900FCF71C
:10500000F7F88BB29A46FA2189000598FCF76AF8FE
:1050100081B252467348FDF7C9FDEB591C70EC5143
:105020000194009600230C22A0219620FFF7B6F8E9
:1050300001946D4B009300230C22AF210A20FFF74F
:10504000ADF8EE5143464A46EA52FDF79FFC010097
:105050006648FDF7ABFDEB591C70EC5101940096CE
:1050600000230C22AF219620FFF798F85CE3002480
:1050700001945D4B009300230C220A210A20FFF7C4
:105080008DF801945A4B009300230C2219210A2019
:10509000FFF784F80194574B009300230C2228213A
:1050A0000A20FFF77BF80194534B009300230C2256
:1050B00037210A20FFF772F80194504B0093002328
:1050C0000C2246210A20FFF769F801944C4B00930B
:1050D00000230C2255210A20FFF760F80194494B68
:1050E000009300230C2264210A20FFF757F8019453
:1050F000454B009300230C2273210A20FFF74EF842
:1051000012E3324C324F0AAEE6511022314BE252DA
:10511000002001F0F7FE411C3C48FDF747FD00254B
:10512000E3591D70E55101240194009600231022DB
:105130000A219420FFF732F801F0C2FE019400909A
:1051400000230C2237219420FFF728F8304B083336
:105150000093002300220A210120FFF7C9F80195DE
:105160002C4B0093002310226E210A20FFF716F823
:10517000DAE201240194284B0093002314220A212F
:105180009420FFF70BF80194244B00930023102286
:1051900032219420FFF702F800230193204B009363
:1051A00000230C226E210A20FEF7F8FFBCE2C04665
:1051B000006C01080C6C0108146C010810680108EF
:1051C000206C01082C6C0108386C01083028002084
:1051D000381000003C100000D06C0108186801086D
:1051E0003C6C01084C6C0108546C0108606C0108AF
:1051F000646C0108746C0108806C01088C6C0108F7
:105200009C6C0108AC6C0108B86C0108C46C010806
:105210004C900008D46C0108DC6C0108F06C0108AB
:105220000C6D010801240194DC4B0093002314222F
:1052300019219420FEF7B2FF0194D94B009300236B
:10524000142237219420FEF7A9FF00230193D54BA8
:10525000009300230C226E210A20FEF79FFF63E2D9
:1052600001240194CD4B0093002314221921942092
:10527000FEF794FF0194CC4B0093002314223721B6
:105280009420FEF78BFF00230193C64B009300236D
:105290000C226E210A20FEF781FF45E201240194D1
:1052A000BE4B00930023142219219420FEF776FFB1
:1052B0000194BE4B00930023142237219420FEF763
:1052C0006DFF00230193B74B009300230C226E2146
:1052D0000A20FEF763FF27E2B54B1B6D032B07D1B6
:1052E000B34B0022AC2149005A5004395A5025E0F2
:1052F000AF4B1B6D042B06D1AD4BAA22520099581F
:10530000043299501AE0AA4B1B6D052B16D1A84BFD
:10531000586801880E2911D802000023A44DAC243E
:1053200064002E5BB14202D15288A1490A51013377
:105330009BB29A00821811880E29F2D99C4C216DDB
:1053400089B2AC235B00E05806300001001904303C
:10535000FFF732FA00232365E6E101230193954B21
:1053600000930023142214219420FEF717FFFCF76A
:1053700085FA002801D1904B00E0904B0122019268
:1053800000930023133232219420FEF707FFCBE174
:10539000012401948A4B00930023102214219420AD
:1053A000FEF7FCFE0194874B009300231022282176
:1053B0009420FEF7F3FE0194834B00930023102208
:1053C0003C219420FEF7EAFEAEE10020FCF7F2F962
:1053D000060020220AAB1A705424632804D96438CA
:1053E00086B211321A700C3C0AAD0A213000FBF76C
:1053F00079FE303068700A213000FBF7F9FE303159
:10540000A9700026EE70042301930095002322006A
:1054100040215A20FEF7C2FE0120FCF7ADF9082317
:1054200001938000694BC3580093002310226E2122
:10543000C620FEF7B3FE00967323C7227321012016
:10544000FEF7A6FCFCF7C8F90300C217801850400D
:1054500004B2303028706E70002C13D108230193F1
:105460000AAB009300232422A6216020FEF796FEBB
:10547000574B1033009306230022A6216820FEF725
:1054800037FF2CE0002B15DA082301930AAB0093B9
:1054900000232422A9216020FEF780FEE400099B5E
:1054A0009C466444009406230022A9216820FEF74C
:1054B0001FFF14E0062301930AAB0093002324226C
:1054C000A9216820FEF76AFEE400089B9C4664441C
:1054D0000094404B0022A9216020FEF709FF08201C
:1054E000FCF74AF900281AD00F20FCF745F94328A9
:1054F00015D00F20FCF740F9482810D00B20FCF7FE
:105500003BF9002801D0344B00E0344B00220192DB
:10551000009300230E3201210120FEF73FFE00F030
:105520007DFA021E0ED12E4C2E4D0AAB6351203255
:105530002D4BE2522D48FDF739FB002362591370C1
:10554000635177E0431E9BB2042B51D805231B1AED
:105550009BB206281ED0122464425C43AF34A4B22E
:105560005D1C002726B20023062208213000FEF72A
:10557000D1FB0123052208213000FEF7CBFB0023DD
:10558000042208213000FEF7C5FB01371234A4B213
:10559000BD42E7D100220AAB1A704BE0146D01083E
:1055A000F06B01080C6D0108F86B0108246D01080F
:1055B000783800202C6D01083C6B0108346B010821
:1055C0003C6D01084C6D01085C6D01080400002071
:1055D0004C90000808800000486B0108446B0108EB
:1055E00030280020381000003C1000006C6D0108CD
:1055F00006280ED1544C554D0AAB63511A32544B08
:10560000E2525448FDF7D2FA0023625913706351F5
:1056100010E006280ED94C4C4C4D0AAB63512022A9
:105620004B4BE252C11F4C48FDF7C0FA00236259B0
:1056300013706351022301930AAD009500230E22DB
:105640000121C620FEF7AAFD002600961423C722DA
:1056500014210120FEF79CFB3B4C3C4FE5512022DE
:105660003B4BE2520120FCF70FF905900120FCF7BB
:1056700017F91E303C21FBF735FD0200059937482C
:10568000FDF794FAE3591E70E65106230193009545
:1056900000230E22C7210120FEF780FD0820FCF721
:1056A0006BF800280DD1284C0AABE3512022284B7F
:1056B000E2522B48FDF77AFA0023E2591370E351C6
:1056C00020E0FCF7A1F805002027002805D02C37A2
:1056D000002802DC404205B206371B4C1B4E0AABC9
:1056E000A35120221A4BE252FCF77CF8FCF762F837
:1056F00001002B003A001B48FDF758FA0023A2597D
:105700001370A351062301930AAB009300230E22CA
:10571000C7217820FEF742FD00230093B433C7224F
:10572000B4210120FEF734FB049B012B02D81800A2
:10573000FEF77AF90C4B1B6C002B01D1FFF767F9D0
:105740009847FFF764F9C046302800203810000061
:105750003C100000746D01087C6D0108806D01082B
:105760008C6D0108946D010878380020F0B583B085
:10577000604CB62252000021200003F09BFA5E4BE1
:10578000083323605D4B683363600F20FBF7F4FF41
:10579000432804D00F20FBF7EFFF482806D1554AD5
:1057A000574B5C331360574B28335360564C0025DE
:1057B000A571E57101272771544B23606771544E21
:1057C0002100300001F0F2FE5249300001F046FFA6
:1057D0008021C901300001F043FF2571E771276086
:1057E0002100300001F0E2FEA571E5710223237172
:1057F000A0231B02236067712100300001F0D6FE58
:105800002571E7711823236021009020C00501F065
:10581000CDFE01218020C00102F096F800220D216A
:10582000300001F01FFF00220F21300001F01AFFAD
:1058300039493A4B0B8082235B004B80E023DB002D
:105840008B80CD800D8180239B004B81E13BFF3B12
:105850008B81CD810D82324C200002F083F88026AE
:1058600076003100200002F0B3F80121200002F0A0
:10587000A3F80121012002F04BF81E4C294BA36034
:10588000294BE36010232361083B6361A5617833F2
:10589000E36125626562A562E56225632100083146
:1058A000224801F0D9FD2249224801F001FE0122DF
:1058B00002211E4801F00CFE1F480B230370043B1D
:1058C0004370877001F002FF03220021012002F0E3
:1058D00055FC606300230022002102F06DFC01955D
:1058E0000097002332001549154802F035FE03B039
:1058F000F0BDC04678380020040000204C9000081D
:1059000004010020CC90000850270020064400002D
:1059100000040048060400005827002000C0FFFFD4
:10592000003800400C380040E439002058000240A4
:105930000000034000000240A0270020A06D0108E5
:10594000B5490008054B1A645A6D11435965012287
:105950005A64002800D098647047C0467838002008
:10596000AC235B00014AD05A7047C046783800200B
:10597000AC235B00044AD35800200E2B03DC1B0130
:10598000D3186C33188870477838002030B500235E
:105990000E2829D8154A1364063393640301D318DB
:1059A0006C331C881165042903D1AA235B00D050F5
:1059B00016E0052914D10D4B586801880E290FD81F
:1059C000AC235B00094AD55A02000023A94200D14A
:1059D000548801339BB29A00821811880E29F5D998
:1059E0000122024B5A642300180030BD7838002091
:1059F0000122014BDA6470477838002010B5064A5E
:105A0000136910619BB2834204D00022012100205F
:105A1000FFF798FF10BDC046B4670020014B18691E
:105A200080B27047B467002010B5034B188301B2F1
:105A30000E20FCF775F810BDB467002070B5144C4B
:105A40009025ED050020FFF7D9FF208BFFF7ECFF35
:105A50000A2002F065FF0620FBF78EFE208007205B
:105A6000FBF78AFE60800420FBF786FEA0800520FD
:105A7000FBF782FEE080A368002B04D140212800C0
:105A800001F0EEFDDEE74021280001F0E7FDDCE754
:105A9000B467002010B50400054B9B68002B04D0B0
:105AA000002802D10020FFF7BFFF014B9C6010BD12
:105AB000B467002010B5012815D1114C0123636192
:105AC000208B7F3358402083FFF7AEFF238B1B06CC
:105AD00005D50B4B01229A600132DA600EE00020FE
:105AE000FFF7D8FF0AE0064B9B68002B03D000208D
:105AF000FFF7D0FF02E00120FFF7DCFF10BDC0463A
:105B0000B467002030B583B09025ED054021280012
:105B100001F0A6FD0F4900248C71CC7101230B719B
:105B20003F330B604C71280001F040FD0A4D1C22F0
:105B30000021280003F0BEF82C6101940423009397
:105B40000023802252000549054802F005FD03B0FC
:105B500030BDC04650270020B46700201C700108EB
:105B60003D5A000870B580256D000F4C29002000BB
:105B700001F074FD022001F033FB8021200001F0D0
:105B80006DFD022001F02CFB2900200001F068FDD2
:105B9000022001F025FB8021200001F061FD0220A0
:105BA00001F01EFB70BDC0460008004870B506003D
:105BB000104C8021200001F053FD022001F010FB69
:105BC00080256D002900200001F04AFD022001F02F
:105BD00007FB8021200001F041FD022001F000FBC5
:105BE0002900200001F03AFD022001F0F9FA30000E
:105BF00070BDC04600080048F8B50700082480269C
:105C00007600254D7BB2002B04DA3100280001F02C
:105C100025FD03E03100280001F022FD022001F003
:105C2000DFFA8021280001F019FD7F00FFB2022079
:105C300001F0D6FA8021280001F012FD013CA4B247
:105C4000002CDFD180267600134C3100200001F0BB
:105C500005FD124D2900200001F0A8FC022001F0F2
:105C6000BFFA8021200001F0F9FC022001F0B8FA0F
:105C70003100200001F0ECFC06008021200001F042
:105C8000EFFC022001F0ACFA29000839200001F0F5
:105C90008DFC3000F8BDC04600080048F0670020C9
:105CA000F0B54F4680B481462349244801F07EFC7C
:105CB00008270026214D022001F092FA80212800B9
:105CC00001F0CCFC022001F08BFA80214900280071
:105CD00001F0BEFC7400204304B2A6B2802128006B
:105CE00001F0BEFC013FBFB2002FE4D14B46002BB8
:105CF00005D080214900114801F0B2FC04E0802168
:105D000049000E4801F0AAFC0C4D0D49280001F095
:105D10004DFC022001F064FA8021280001F09EFC75
:105D2000022001F05DFA8021280001F099FCE0B228
:105D300004BC9146F0BDC046F06700200008004852
:105D4000E867002010B5FFF70DFFA020FFF754FF14
:105D5000002802D1FFF72AFF02E00420FFF726FF08
:105D600010BDC04670B5050001F046FA84B2002DA2
:105D70000DD0FFF7E7FF00280AD001F0E7F901F0A6
:105D80003BFA001B80B28542F3D8022000E00220DB
:105D900070BDC046F0B5474680B405000C00160043
:105DA0000520FFF7DFFF002844D1FFF7DBFEA0202E
:105DB000FFF722FF002803D00120FFF7F7FE39E0AC
:105DC000E8B2FFF719FF002803D00120FFF7EEFE2D
:105DD00030E0FFF7C7FEA120FFF70EFF002804D137
:105DE000601E80B2002C1AD115E00120FFF7DEFE04
:105DF00020E02000FFF754FF3070002D04D0434610
:105E00002B4201D101F0A2F9013CA4B201360135C7
:105E1000ADB2BC42EDD10020FFF7C8FE0AE0FFF7AB
:105E20003FFF3070023CA4B201360025034F0F2320
:105E30009846ECE704BC9046F0BDC046FFFF00006A
:105E4000F0B55F4656464D46E0B482B0050001917C
:105E500091469A46002951D00F000F239B460520FA
:105E6000FFF780FF00284BD1FFF77CFEA020FFF753
:105E7000C3FE002804D00120FFF798FE060045E08D
:105E8000E8B2FFF7B9FE002802D1002F05D139E0B2
:105E90000120FFF78BFE060038E0002401239C461A
:105EA000E1444B46013B1878FFF7A6FE002804D0DA
:105EB0000120FFF77BFE060028E07B1E9FB2013524
:105EC000ADB25E462E400BD0002C04D05B46234280
:105ED00001D101F03BF90134A4B2002FDED111E071
:105EE0000020FFF763FE002F10D05346002BB6D0E2
:105EF000019BDF1B53461F80052607E0002605E0B7
:105F0000060003E00020FFF751FE0026300002B03B
:105F10001CBC91469A46A346F0BDC046F0B5574614
:105F200080B482B001900C0016000320002A3DD0FE
:105F3000002936D0570003253A000021200002F046
:105F4000B9FE1C4A08210198FFF724FF002822D13E
:105F5000062218491848FBF791FA164BDB88834252
:105F600019D1144B99888E421DD3490089B20198EA
:105F7000083080B22200FFF70DFF00280BD10D4B37
:105F80009A469A88520021000138FBF74BFA534693
:105F90001B68984209D06B1E9DB2002DCCD1032006
:105FA00004E0032002E0032000E0002002B004BC73
:105FB0009246F0BDD0670020FFFF0000F0B583B02F
:105FC00000900D0014000193124B1E8D002E1DD168
:105FD0001F00BA81520001204042FBF723FAB8604B
:105FE0003900083106220C48FBF748FAF8816B4665
:105FF0001B88BB856400FC85089B3B637D63019B1C
:10600000BB6300237B8501333B8500E00426300021
:1060100003B0F0BDD0670020FFFF0000024B188DD9
:106020004342584180B27047D067002070B582B0BB
:106030003E4B1B8D012B02D0022B3FD074E0FFF7AB
:1060400081FE002870D13A4C4021200001F008FB6D
:10605000364B588D1A00083282180821091A89B265
:106060009B8DC01880B26B460633FFF7E9FE060031
:106070004021200001F0F2FA052E09D16B460633CB
:106080001B88072B0FD829494A8D9B184B854BE05D
:10609000002E08D1254B02221A859A8D08329A8546
:1060A00000225A8540E0214B9B6B002B3CD01F4ABD
:1060B00000211185116B3000984735E0FFF742FE53
:1060C000002831D1194D6E6B194C4021200001F090
:1060D000C7FA688D3218E98D091A89B2AB8DC018DC
:1060E00080B26B460633FFF7ABFE0500402120006F
:1060F00001F0B4FA052D0DD10C4A518D6B460633D3
:106100001B88CB189BB25385D28D93420CD3074B7F
:106110005A8509E0054B00221A859B6B002B03D0A2
:10612000024A116B2800984702B070BDD06700206A
:1061300000080048F8B51F4C3C220021200002F066
:10614000B9FD0125A577E5772577C023A361270051
:1061500018373900184801F029FA80267600A66120
:106160003900154801F022FA4021134801F076FA6F
:106170002623E5540133E55400232422A354266248
:106180000132A354322001F02BF80020FFF70EFD5E
:10619000322001F025F80020FFF708FD2200103220
:1061A00004210020FFF7F6FD002802D10348FCF788
:1061B000FDFCF8BDD06700200008004824700108ED
:1061C000F8B55F4656464D464446F0B48F4E3023F0
:1061D00033602F3B9846337173710025B571F571AB
:1061E0008B4C3100200001F0E1F9434633717371AB
:1061F000B571F57180231B029A46336031009020FF
:10620000C00501F0D3F9042333603100814801F067
:10621000CDF90423336031007F4801F0C7F98023B2
:106220001B01336031007C4801F0C0F935714346F1
:10623000F3718023DB0033603100200001F0B6F9F8
:1062400020239B46336031009020C00501F0AEF959
:1062500001218020800201F069FB704B1D809D8030
:106260000122914642469A8125261E851924DC6228
:106270006B4F15233B704B467B70BB70380001F0B1
:1062800025FA01218020C00201F050FB654B1D80E2
:106290009D8042469A811E85DC6216233B704B46E8
:1062A0007B70BB70380001F011FA0121022001F06F
:1062B0004BFB5D4E3580B580B5815C4B3383B58338
:1062C0003323338435855A4BF3627563B563338862
:1062D0004A4613439BB23380564C6C220021200067
:1062E00002F0E8FC082363800233A380524BA360D2
:1062F0009023DB05E360474B2361504BA3820423CB
:10630000E38251469020C00501F0A8F93023638351
:10631000022323835B462365494B9A466365A36545
:10632000E565FA235B002366A566F06A0301181A87
:106330001421FAF7D7FE606620006C306C22002131
:1063400002F0B8FC6C234246E25209220233E252C8
:1063500002320233E2523B4B63672F4BA367E36782
:106360008023073AE252023380221201E2520421D2
:10637000294801F073F986233022E252023B0222BF
:10638000E25238335A46E25004335246E250043364
:10639000E2500433E5500433FA225200E25008334D
:1063A000E550F06A0301181A1421FAF79BFED02376
:1063B000E0500121012001F0B9FA0A21022001F088
:1063C0002BFB0521002001F027FB1F4C8023DB0065
:1063D000236000232371082363714B46A3712000BF
:1063E00001F098F85B462360200001F093F8072342
:1063F0003B704B467B70BB70380001F067F93CBCCA
:1064000090469946A246AB46F8BDC04650270020AC
:1064100000080048000C0048000400480044014007
:10642000A0270020004801400004004060600000F8
:106430007F0700000C680020340400400080FFFF4C
:10644000204E000038040040CC270020164B0022CC
:106450001A801A82154B1B68002B14D0144B1B8B0F
:10646000002B0BD080225203124B9A61104B1A8BD7
:106470000D4BDA6200220D4B1A600EE00C4B5A8B6A
:10648000094BDA6209E010220A4B9A610F3A074B76
:106490001A60074B5A8B044BDA62034B00225A6294
:1064A00001321A807047C04600440140600300205A
:1064B0000C68002000080048184B00221A801A823D
:1064C000174B5B68002B17D08423164AD35A002B36
:1064D0000CD080229203144B9A618423114AD25A21
:1064E0000E4BDA6200220E4B5A6010E086230D4AF2
:1064F000D25A0A4BDA620AE020220B4B9A611F3A09
:10650000074B5A608623074AD25A044BDA62034B80
:1065100000225A6201321A807047C046004801408A
:10652000600300200C6800200008004810B504003B
:106530000800144BD96A322358434B08C018FAF7A5
:10654000D1FD80B21E2801D8208301E01E232383C1
:10655000228B32239B1A63832388002B08D10A4B9A
:106560001B889BB2002B0BD10122074B1A8007E03E
