:020000040800F2
:1000000000800020590700089D080008A908000882
:1000100000000000000000000000000000000000E0
:10002000000000000000000000000000B50800080B
:100030000000000000000000C1080008CD08000812
:10004000D908000800000000C0000008C000000837
:10005000C0000008E5080008F1080008FD080008D5
:10006000000000000909000815090008210900081E
:100070002D090008390900084509000800000000A2
:10008000510900085D0900086909000875090008A0
:10009000810900088D09000899090008A5090008D0
:1000A000B1090008BD090008C9090008D509000800
:1000B000E1090008ED090008000000000000000050
:1000C000FEE7000030B5002A0ED00C008A1880210F
:1000D00089050502000E23785840543080004058AE
:1000E000684001349442F4D130BDC04630B50A4C6A
:1000F000002180256D000B060822002B02DA5B0030
:10010000434000E05B00013A002AF6D108C4013107
:10011000A942F0D130BDC04650010020F0B54F4695
:100120004646C0B483B01700019304000D00884216
:1001300027D2184E184B9946184B9846E368B3429D
:100140001AD1A3684B4517D16368434514D1144BAA
:1001500022689A4210D1019A002A02D0A38B9342BE
:100160000AD1606FFFF7C2FF7C222100206FFFF7EA
:10017000A9FFE36F984206D0E419AC42DED3002019
:1001800002E0002000E0200003B00CBC904699463D
:10019000F0BDC0460190C965ED3E4BAA19228FDF24
:1001A0003371D69D70B5002810D1194B1022194912
:1001B0001948FFF7B3FF041E23D0436902699A1A56
:1001C0000169006FFFF77EFF050012E0104B10225F
:1001D00012491048FFF7A2FF041E14D001694369B9
:1001E0005A1A80239B029C466144006FFFF76AFF06
:1001F00005000B48FFF77AFFA36F9D4205D1200051
:1002000004E0002002E0002000E0002070BDC046B5
:10021000082B00000000020800100008000004087D
:10022000B71DC104F0B5474680B4020080321D4BB3
:100230001B691B0604D51B4B1B4959601B495960A0
:100240001B4B802424059A4219D125E0B9421ED9BE
:100250004D0507D145461D61596161461961D9684F
:100260000A42FCD1D9680A42FCD11A618021890274
:10027000611809882180D9680A42FCD107E00D4E37
:100280000D4F084B01220221884640318C46023432
:100290002100A51B8542D9D18022024B1A6104BCE2
:1002A0009046F0BD0020024023016745AB89EFCDA9
:1002B000000002088000FEFFFF0F00082A4AD369F1
:1002C000802149000B43D361284B00221A809A8178
:1002D0001A825A6230321A85254ADA6201221A805D
:1002E000AA23DB00C318BA22D200811800221A8088
:1002F00002338B42FBD11F4AAA23DB00C2521E4AA3
:100300001E4BC2522D2284235B00C252164B5A69E7
:10031000802189020A435A619A698021C9010A43EE
:100320009A619023DB051868154A02401A601A6822
:100330008A20800402431A609A688A20400402439B
:100340009A60104A5A62104B00221A605A609960F3
:100350000E4A1A60D02252009A811968A03AFF3AD8
:100360000A431A607047C046001002400020004057
:10037000FFFF0000082B00000080FFFF5405000075
:10038000FFFFC3FC10010100003801400C14000005
:10039000F8B50400837904228271012B03D1043360
:1003A0008371002092E0022B0CD1494B1B691B0684
:1003B00004D5474B474A5A60474A5A600523A37100
:1003C000002083E0032B4CD10833FF33C35A0020B5
:1003D000462B7BD923000D33FF33E21D2000513023
:1003E000FF3011781970013301328342F9D186232D
:1003F0005B00E358F82212069918384A002091420F
:1004000064D8374A934228D95B050DD1304B02227C
:100410001A610B32FF32A2585A6142221A61190046
:10042000413ACB681A42FCD186235B00E058250094
:100430001135FF35CC3B9C468444254A01210F00F1
:100440006B781B022E78F31817610380D36819426A
:10045000FCD1023002356045F2D10523A3710020A2
:1004600034E0042B0DD11A4A11697C330B4313611C
:100470000020FFF797FE002827D00523A371012055
:1004800024E00020052B21D1A37A1A06637A1B04ED
:10049000D318E2799A18237A1B02D218F8231B0684
:1004A000D118104B994202D90223A3710EE0052303
:1004B000A3712500210040312000431B9B5CC372C7
:1004C00001308842F9D1472000E00020F8BDC04645
:1004D0000020024023016745AB89EFCDBFFF030039
:1004E000FF0F0008C0FF030048400823012206490F
:1004F000024203D04008484080B200E04008013B7F
:10050000002BF5D17047C04601A0FFFF70B5002950
:100510000CD0040001398DB2013545190448217809
:10052000FFF7E2FF0134AC42F9D100E0004870BDB2
:10053000FFFF000070B505000C00FFF7E7FF28552E
:10054000A61CB6B20134A4B2000A2855114A802173
:1005500007E0D3691942FCD02B781385013EB6B26F
:100560000135002E03D0D3691942F5D1F1E70949CD
:100570004022CB691A42FCD0074B5A6A92B219004A
:100580004B6A9B1A9BB2312BFAD9024B9A8C0F22E1
:100590001A6270BD0038014000200040F8B54F4697
:1005A0004646C0B40400694B9A8C0F221A6200229E
:1005B00085235B00C25265492032CB691A42FCD0C8
:1005C000634B5A6A92B2614BDB690B2119420ED11F
:1005D0005E49202685235B009C465D489025FF35BB
:1005E000FF3B994609E0CB694F461F4205D00022E8
:1005F00085235B00E2520026A2E0CB691E420DD0AB
:100600006346E35A8A8C9046E21847461771FF2BDF
:1006100002D801336246A352426A92B2436A9B1ADD
:100620009BB2AB42DFD985235B00E75A0026032F3C
:1006300000D885E0E319DD782D029B785D19ADB215
:10064000231D9846B91E89B21800FFF75FFF854247
:1006500076D12379002B04D084225200A25A9A42E8
:100660006ED1012F6BD96379042B40D10533FF3351
:10067000E35A2371A3791B02E279D3189BB2207A43
:100680000202607A801882B294469A18402A05DDE8
:1006900084236371823BA371032123E062465200ED
:1006A000A2716246002A1CD09E18B6B203225D1CBD
:1006B000AA21890089464B445B00195B531C9BB2FD
:1006C000A718080A3871023292B2E3181971ABB256
:1006D000B342ECD1634659001E4B9C46614489B23B
:1006E00000E003214046FFF725FF002628E0642BA9
:1006F00015D1A433E35A2371E42363712000FFF77B
:1007000047FE0600032805D901004046FFF712FF07
:10071000002615E003214046FFF70CFF10E084227D
:100720005200A25A22718022524213436371012364
:10073000A37103214046FFF7FDFE002600E00026DE
:1007400030000CBC90469946F8BDC04600380140C8
:100750000020004003000100F8B5454B1A68012154
:100760000A431A605868434A02405A601868424A6D
:1007700002401A601868414A02401A605868404AAC
:1007800002405A60DA6A0F208243DA62186B3D4AEF
:1007900002401A635A6B8A435A6300229A601A68AD
:1007A000802149020A431A601A0080239B021168C3
:1007B0001942FCD01122344B1A602D4B5A685A60F2
:1007C0005A685A605968314A0A405A605A68882102
:1007D00049030A435A601A68802149040A431A608F
:1007E0001A0080239B0411681942FCD0204B5A68E0
:1007F00003218A435A60596802220A435A60190049
:100800000C224B681340082BFBD1194BC022D2029B
:100810005A6101229A6180239B051E6800221A609A
:100820001B4D1C000020FFF7BDFC07000120FFF757
:10083000B9FCAE4203D0002F16D100280DD1200004
:10084000FFF73CFD2000FFF7A9FE0028FAD0114E6B
:10085000E8E7C28BFB8B9A4202D0FFF7E3FCE1E7AB
:100860000D4B1B689847FEE70028F2D1F8E7C04619
:10087000001002400CB8FFF8FFFFF6FEFFFFFBFF81
:10088000FFFFC0FFACFEFFFF00200240FF7FC0FF64
:100890009DE568C6621A973904100008014B1B6871
:1008A0009F46C04608100008014B1B689F46C04683
:1008B0000C100008014B1B689F46C0462C10000816
:1008C000014B1B689F46C04638100008014B1B684F
:1008D0009F46C0463C100008014B1B689F46C0461F
:1008E00040100008014B1B689F46C046541000088A
:1008F000014B1B689F46C04658100008014B1B68FF
:100900009F46C0465C100008014B1B689F46C046CE
:1009100064100008014B1B689F46C0466810000821
:10092000014B1B689F46C0466C100008014B1B68BA
:100930009F46C04670100008014B1B689F46C0468A
:1009400074100008014B1B689F46C04678100008D1
:10095000014B1B689F46C04680100008014B1B6876
:100960009F46C04684100008014B1B689F46C04646
:1009700088100008014B1B689F46C0468C10000879
:10098000014B1B689F46C04690100008014B1B6836
:100990009F46C04694100008014B1B689F46C04606
:1009A00098100008014B1B689F46C0469C10000829
:1009B000014B1B689F46C046A0100008014B1B68F6
:1009C0009F46C046A4100008014B1B689F46C046C6
:1009D000A8100008014B1B689F46C046AC100008D9
:1009E000014B1B689F46C046B0100008014B1B68B6
:1009F0009F46C046B4100008FFFFFFFFFFFFFFFF48
:100A0000FFFFFFFFFFFFFFFFFFFFFFFFFFFFFFFFF6
:100A1000FFFFFFFFFFFFFFFFFFFFFFFFFFFFFFFFE6
:100A2000FFFFFFFFFFFFFFFFFFFFFFFFFFFFFFFFD6
:100A3000FFFFFFFFFFFFFFFFFFFFFFFFFFFFFFFFC6
:1010000000800020D11300082114000821140008DA
:1010100000000000000000000000000000000000D0
:10102000000000000000000000000000F58E000835
:101030000000000000000000618F0008A58F00087C
:1010400021140008000000002114000821140008E9
:1010500021140008211400080D7D00082114000847
:1010600000000000211400082114000815350008B4
:1010700021140008211400082114000800000000B9
:10108000211400082114000821140008211400086C
:10109000211400082114000821140008211400085C
:1010A000211400082114000821140008ED6900082B
:1010B00021140008FD69000800000000FFFFFFFF89
:1010C00002780B78002A03D0013001319A42F7D020
:1010D000D01A70470023C25C0133002AFBD1581E8E
:1010E00070470000002243088B4274D303098B42EF
:1010F0005FD3030A8B4244D3030B8B4228D3030CE8
:101100008B420DD3FF22090212BA030C8B4202D389
:101110001212090265D0030B8B4219D300E0090AB1
:10112000C30B8B4201D3CB03C01A5241830B8B42BA
:1011300001D38B03C01A5241430B8B4201D34B03A3
:10114000C01A5241030B8B4201D30B03C01A524108
:10115000C30A8B4201D3CB02C01A5241830A8B428D
:1011600001D38B02C01A5241430A8B4201D34B0276
:10117000C01A5241030A8B4201D30B02C01A5241DA
:10118000CDD2C3098B4201D3CB01C01A524183098E
:101190008B4201D38B01C01A524143098B4201D3C8
:1011A0004B01C01A524103098B4201D30B01C01AF3
:1011B0005241C3088B4201D3CB00C01A524183086D
:1011C0008B4201D38B00C01A524143088B4201D39A
:1011D0004B00C01A5241411A00D2014652411046FA
:1011E0007047FFE701B5002000F0F0F802BDC046EF
:1011F0000029F7D076E7704703460B437FD40022DF
:1012000043088B4274D303098B425FD3030A8B429A
:1012100044D3030B8B4228D3030C8B420DD3FF2204
:10122000090212BA030C8B4202D31212090265D0D2
:10123000030B8B4219D300E0090AC30B8B4201D385
:10124000CB03C01A5241830B8B4201D38B03C01ACC
:101250005241430B8B4201D34B03C01A5241030B43
:101260008B4201D30B03C01A5241C30A8B4201D3F4
:10127000CB02C01A5241830A8B4201D38B02C01A9F
:101280005241430A8B4201D34B02C01A5241030A16
:101290008B4201D30B02C01A5241CDD2C3098B42FB
:1012A00001D3CB01C01A524183098B4201D38B0178
:1012B000C01A524143098B4201D34B01C01A52411B
:1012C00003098B4201D30B01C01A5241C3088B4260
:1012D00001D3CB00C01A524183088B4201D38B004B
:1012E000C01A524143088B4201D34B00C01A5241ED
:1012F000411A00D201465241104670475DE0CA0FC4
:1013000000D04942031000D34042534000229C4683
:1013100003098B422DD3030A8B4212D3FC2289018D
:1013200012BA030A8B420CD3890192118B4208D363
:10133000890192118B4204D389013AD0921100E0C5
:101340008909C3098B4201D3CB01C01A52418309D9
:101350008B4201D38B01C01A524143098B4201D306
:101360004B01C01A524103098B4201D30B01C01A31
:101370005241C3088B4201D3CB00C01A52418308AB
:101380008B4201D38B00C01A5241D9D243088B4201
:1013900001D34B00C01A5241411A00D201466346A4
:1013A00052415B10104601D34042002B00D5494208
:1013B000704763465B1000D3404201B5002000F047
:1013C00005F802BD0029F8D016E770477047C046FF
:1013D0000D488546002103E00C4B5B584350043117
:1013E0000B480C4B42189A42F6D30B4A02E00023FA
:1013F00013600432094B9A42F9D306F0CDFE08F08F
:1014000067FC01F0A9FAFEE700800020CCA40108E7
:10141000000000202003002020030020F8660020A8
:10142000FEE7000030B5002A0CD00C008A180649EF
:101430000502000E2378584080004058684001346F
:101440009442F5D130BDC046A822002030B50A4CE8
:10145000002180256D000B060822002B02DA5B00BC
:10146000434000E05B00013A002AF6D108C4013194
:10147000A942F0D130BDC046A822002030B5002AD4
:1014800013D00D00013A92B201328918030A2A786A
:1014900053401C096340000258401C0360405B013C
:1014A000434098B201358D42F0D130BDF0B557467A
:1014B0004E464546E0B486B007000D0016001422E3
:1014C0006A4901A808F00BFCBC00E4190134E20FE2
:1014D00014196410664B5B6A9846002E35D05E2363
:1014E000644AD35A002B2DD1634B9A46988A012126
:1014F000494202F073FE830018180130C30F181818
:1015000040100A235B42434399465346588A0121BF
:1015100002F064FE830018180130C30F1818401041
:101520008300181840004B46C01A3F224346134020
:1015300058432030C31713401818801148444D4BAE
:10154000186601E04B4B186E2418002F02D0002DB6
:101550000BDB00E000256D0001ABE85A8300181892
:101560004000012501277F4209E06D426D0001AB7B
:10157000E85A83001818400001256D420127002E0B
:101580003FD05E233B4AD35A002B29D13A4B1B8BC9
:10159000022B06D0032B08D0012B0AD114210027DF
:1015A00009E028210A277F4205E03C2114277F42D9
:1015B00001E00021002743469A04920EC91B4A43CA
:1015C00013002033DA173F210A40D3189B11DB198F
:1015D000294AD28A002A00D15B42264A536601E09A
:1015E000244B5B6E002D01DDC01800E0181A0028A6
:1015F00004DA404201256D42012702E0012501275E
:101600007F426043F530FF30FA218900FFF76AFD21
:101610004543784300192C19184B9C4200DD1C00EF
:10162000F423FF339C4201DCFA246400134B9842FC
:1016300000DD1800F423FF33984201DCFA2040005B
:10164000A2B20C4CA28685B2E5861021102005F0CE
:101650000FF92A001021112005F00AF95E23E65245
:1016600006B01CBC90469946A246F0BDDC9E000820
:1016700000100040D826002018220020C4090000D5
:1016800010B540221C49002004F0A4FE002814D10B
:10169000194B1B884F2B10D91848174B78229A5A90
:1016A00012047A21595A521802657C22995A090467
:1016B00002329A5A8B18836004E0802200210E487F
:1016C00008F016FB0C4B1B89012B03D802220A4B96
:1016D0001A8104E00A2B02D90A22074B1A81064B11
:1016E0002D229A800022DA801A82DB89012B01D90F
:1016F000014BDA8110BDC04618220020D8260020F8
:1017000030B583B00C490D4B5A880A800C4A106DD5
:10171000050C78240D53023408539268140C7C2075
:101720000C5202300A521B880093002340220020F2
:1017300004F0A0FE03B030BD18220020B82600201F
:10174000D826002030B500233F2812D83B280DD9D9
:10175000094A116D094B0D0C78241D53023419539D
:101760009268140C7C215C5202315A524000034BA7
:10177000C35A180030BDC046D826002018220020C9
:1017800010B5002801D1064B9888054B5B88002BCB
:1017900005D0000105300A21FFF72EFD80B210BDF3
:1017A00018220020014B0620185E704718220020E6
:1017B00010B5074BD88E9B8EC0180A301421FFF746
:1017C0001BFD013040000521FFF716FD80B210BD62
:1017D000D826002070B50F4BDD8E9A8EAB180133E2
:1017E00059080020002913D0954209D2642428000A
:1017F00060439B08C018FFF775FC201A00B207E091
:10180000642462439B08D018FFF76CFC001B00B2F5
:1018100070BDC046D826002000230F2802D8400003
:10182000014BC35A18007047B826002010B50B00B2
:10183000034A5086034A0021180004F0DDF910BD68
:10184000D8260020411A00087423014AD05A704754
:10185000D8260020002804D0034A136D506D181AB2
:1018600001E0014B186D7047D8260020002802D0F7
:10187000024B986D01E0014B98687047D826002014
:10188000034B5865186501215C2299527047C04688
:10189000D8260020024B986001215C2299527047A3
:1018A000D826002070B51021102004F0BFFF0500DD
:1018B0001321102004F0BAFF854202D3281A85B202
:1018C00001E0401B85B21021112004F0AFFF04009D
:1018D0001321112004F0AAFF844202D3201A83B2FC
:1018E00001E0001B83B20020322B03D83223AB422D
:1018F000404180B270BDC046F8B5144801F032F9DD
:10190000134E0024134D370000213F2C0ED83B2CE2
:101910000BD92B6D190C7822B9520232BB52AB682D
:10192000190C0232B9520232BB5231880A4801F016
:1019300019F90134A4B20236402CE5D1074801F070
:1019400011F900216823034AD152F8BD5C9C0108BB
:1019500018220020D8260020609C0108649C010801
:1019600070B504000D003F280ED84300074A9B5A6B
:101970008B4206D0064E01226823F25206F0FCFB91
:10198000F0666400014BE55270BDC046182200208D
:10199000D826002070B5284B99881A8C63280AD164
:1019A000481C00B2254B38215B5E591D002588423A
:1019B00012DD08B210E0030063330AD1481E00B202
:1019C0001E4B38215B5E591F0025884204DA08B29D
:1019D00002E0081800B20125041C632800DD63241E
:1019E00024B2182C00DC19241300193B9BB2492B9C
:1019F00005D812B2231C944200DD131C1CB20E4BFE
:101A0000DB8B002B04D0231C552C00DD55231CB28E
:101A100021000220FFF7A4FF002D01D0074B1C87F7
:101A2000054B1A8A0620195E98888300C01840006A
:101A300080B2FFF73BFD70BD18220020D8260020A1
:101A400010B5154BDB8D002B24D0134A108E0128C6
:101A500006D0023842425041404200281AD000E0ED
:101A600001200D4A528E022A14D801339BB20A4A31
:101A7000D385032B03D98300C01800B203E0022BE7
:101A800001D9400000B2FFF785FF044A0021002081
:101A900004F0B2F810BDC046D8260020411A000854
:101AA00010B54623574AD35A002B2BD106F064FBBE
:101AB000544BDB6BC01A544B984200D885E0102081
:101AC00005F0AEFC002800D17FE0112005F0A8FC55
:101AD00000287AD04B4C01224623E25208211020E4
:101AE00004F0A4FE4C23E052043BE05208211120F4
:101AF00004F09CFE4E23E052043BE05206F03CFB17
:101B0000206462E0012B14D10821102004F08EFE25
:101B100000285AD048223B498A5A824255D00C00AC
:101B20004C23C8520222063BCA5206F025FBE06352
:101B30004BE0022B33D10821112004F077FE00285E
:101B400019D04A222F498A5A824214D00B004E22C1
:101B500088520A6D01320A650321462299520021FA
:101B6000183299520020FFF715FF002201210020B2
:101B700004F042F829E006F0FFFA224BDB6BC01AB2
:101B8000224B984221D91F4C03224623E25206F0F1
:101B9000F3FA20644422A35A0133A35215E0032B25
:101BA00013D1184C01224333E2520821102004F0D3
:101BB0003DFE4C23E052043BE0520821112004F08A
:101BC00035FE4E23E052043BE05244230D4AD35AE3
:101BD000002B16D006F0D0FA0A4B1B6CC01A0C4B27
:101BE000984204D84423074AD35A232B09D9054CD9
:101BF00000224423E25206F0BFFA206401225C2353
:101C0000E25210BDD8260020CF070000DB050000FF
:101C10005FEA000010B50B4BDB88181800B2031CFC
:101C2000092800DD0923191C1BB2093301DA064B10
:101C3000198809B20320FFF793FE0020FFF7AAFEE0
:101C400010BDC04618220020589C010810B53B2842
:101C50003BD88AB243001D4C1B5B934235D00E2803
:101C60002DD883001A4CE3589F464B1E9941174BC1
:101C7000598024E0154B9888101A00B2FFF78AFEAD
:101C80001DE0124BD888101A00B2FFF7C3FF16E010
:101C900040000E4BC25212E040000C4BC2520D4BA2
:101CA000994203D1012004F069F908E0002906D126
:101CB000002004F053F902E04000044BC25202F04D
:101CC000A1FB01210020FFF7B1FD10BD182200206B
:101CD0004C9E0008FF03000070B50400C54B5A8EEF
:101CE000062A00D957E29300C34AD3589F460028DA
:101CF00004D101210020FFF799FD02E3032809D157
:101D00000120404206F0B4F800220021002003F038
:101D100073FFF6E2042808D1012006F0A9F800229A
:101D20000021002003F068FFEBE2012800D0E8E288
:101D3000002006F05DF8E4E20C2805D1AF4A00214E
:101D4000002003F059FF16E0012808D10120FFF719
:101D500021FEAA4A0021002003F04EFF16E00228CF
:101D600009D101204042FFF715FEA44A00210020BE
:101D700003F042FF16E0032C08D10120FFF74AFFD1
:101D80009E4A0021002003F037FFBAE2042C09D15B
:101D900001204042FFF73EFF984A0021002003F057
:101DA0002BFFAEE2002C00D0ABE201210020FFF7B8
:101DB0003DFDA6E2012804D10121002003F040FFEF
:101DC0009FE2022804D10221002003F039FF98E2AB
:101DD00003280CD103F01EFF052103F031FF0D286D
:101DE00000D88EE201210020FFF720FD89E20428BF
:101DF00000D191E1002800D083E203F013FF04003A
:101E0000050003F007FF0D2800D97AE280007C4B23
:101E10001B589F467B4BDB8B002B1CD0002C04D126
:101E20000421080003F00CFF0DE0012C04D1042173
:101E3000092003F005FF64E2022C04D104210A20EA
:101E400003F0FEFE5DE2032D00D05AE204210C20D7
:101E500003F0F6FE55E2002C04D10421012003F02A
:101E6000EFFE0DE0012C04D10421080003F0E8FE90
:101E70000DE0022C04D10421092003F0E1FE40E230
:101E8000032D04D104210A2003F0DAFE39E2042DE7
:101E900000D036E204210C2003F0D2FE31E2A11C76
:101EA00009B20420FFF75CFD0421022003F0C8FE04
:101EB00027E26142614109B20520FFF751FD04218B
:101EC000032003F0BDFE1CE221B20620FFF748FD0F
:101ED00022E121B20820FFF743FD00215E23454A9D
:101EE000D1520020FFF756FD464BDB8B002B07D06D
:101EF000002C00D110E10421062003F0A1FE00E235
:101F0000002C00D108E10421052003F099FEF8E13E
:101F100021B20B20FFF724FD00215E23354AD15268
:101F20000020FFF737FD0421062003F089FEE8E1D9
:101F300021B20920FFF714FD00215E232D4AD15262
:101F40000020FFF727FD0421072003F079FED8E1E8
:101F500021B20A20FFF704FD00215E23254AD15259
:101F60000020FFF717FD0421082003F069FEC8E1F7
:101F700021B20C20FFF7F4FC00215E231D4AD15250
:101F80000020FFF707FDC7E0002C00D0B3E10021DF
:101F90000120FFF7E5FCBFE001210800FFF7E0FCAE
:101FA000BAE0184BDB8B002B36D0002C06D105F0A5
:101FB00087FB07210520FFF739FCA2E1012C04D1A2
:101FC00003210220FFF732FC9BE1022C04D1022105
:101FD0000120FFF72BFC94E1032C04D108210520FC
:101FE000FFF724FC8DE1042C0ED109210520FFF719
:101FF0001DFC86E1D8260020889E0008411A0008B2
:10200000A49E000818220020052C00D079E10A21A6
:102010000620FFF70BFC74E1002C06D105F050FB05
:1020200007210520FFF702FC6BE1012C04D10421FC
:102030000B2003F005FE64E1022C04D103210220F1
:10204000FFF7F4FB5DE1032C04D104210220FFF72C
:10205000EDFB56E1042C04D102210120FFF7E6FB41
:102060004FE1052C04D108210520FFF7DFFB48E1F3
:10207000062C04D109210520FFF7D8FB41E1072CEC
:1020800000D03EE10A210620FFF7D0FB39E121B262
:102090000D20FFF765FC200005F01EFF01215C23E9
:1020A000984AD15238E0002C00D027E1954B1A6DA8
:1020B0005A6531E00022934B9A652DE0002C0CD13B
:1020C00043210F20FFF74CFC01215C238D4AD152A4
:1020D0000B310520FFF7AAFB13E1012C0CD148219D
:1020E0000F20FFF73DFC01215C23864AD1520C31C1
:1020F0000520FFF79BFB04E1022C00D001E1002149
:102100000F20FFF72DFC01215C237E4AD1520D31B7
:102110000520FFF78BFBF4E001210020FFF786FB91
:10212000EFE0002800D0ECE0BFF34F8F764A774B0A
:10213000DA60BFF34F8FFEE702280BD801210020A1
:10214000FFF774FB002174236E4AD1520020FFF781
:1021500021FCD6E003280DD16A4B1B8ADB0603D491
:1021600001217423674AD15200220021002003F08C
:1021700043FDC6E0042800D0C3E0624B1B8A1B0766
:1021800003D4012174235F4AD15200220021002090
:1021900003F032FDB5E00A2C0AD1002003F0DEFE88
:1021A0000322584B5A860321002003F049FDA8E082
:1021B000002C03D1002003F0D1FE0FE00B2C03D143
:1021C000022003F0DBFE13E0062C07D1504B9B8965
:1021D000002B1CD0012003F0D1FE18E0072C07D102
:1021E0004B4B9B89002B22D0002003F0C7FE1EE042
:1021F000082C0CD1464B9B89002B02D06320FFF7A3
:10220000C9FB00220021002003F0F6FC35E0092C78
:102210000DD13F4B9B89002B03D063204042FFF739
:10222000B9FB00220021002003F0E6FC4CE0012C69
:1022300023D10120FFF7AEFB364A0021002003F036
:10224000DBFC304B1B8A0E221A420AD1304B042190
:10225000595E1020FFF784FB01215C23294AD152EB
:102260003DE016221A423AD100211020FFF778FBF8
:1022700001215C23234AD15231E0022C24D10120D8
:102280004042FFF787FB234A0021002003F0B4FC03
:102290001C4B1B8A0E221A420AD11D4B0421595E87
:1022A0001020FFF75DFB01215C23164AD15228E084
:1022B00016221A4225D100211020FFF751FB0121DF
:1022C0005C23104AD1521CE0032C08D10120FFF7F7
:1022D000A1FC104A0021002003F08EFC11E0042C28
:1022E0000FD101204042FFF795FC0A4A002100204F
:1022F00003F082FC05E0012C03D14DE6012C00D156
:10230000D8E670BDD82600200400FA0500ED00E0F4
:1023100018220020411A0008F0B55F4656464D4687
:102320004446F0B48DB030220021684607F0E0FC4E
:10233000844B0093844B0193844B0293844B03930F
:10234000844B0493844B0593844B0693844B0793EF
:102350009023DB051B8A5B07DB0F1B019846814B33
:102360001B8A1B0603D5022342461A4390467D4B27
:102370001B8ADB0503D5042342461A43904690236B
:10238000DB051B8A9B0703D5082342461A43904668
:10239000744B1B8A9B0503D5012342461A43904682
:1023A0009023DB051B8A9B0603D5202342461A4354
:1023B000904605F089FD002806D00138402383406F
:1023C000424613439BB29846012500260124664BE2
:1023D00099469A4602E001360135ADB2B7B23204F1
:1023E000120C130008335B004B445B885B009BB20C
:1023F00041460C4207D11100083149005A48844631
:1024000061444B8006E0110008314900514401202D
:1024100003434B80130008335B005349CB185988A2
:10242000072001405980072924D14F4B1B8A1C42A9
:1024300000D07CE023434C4A1382052F0ED1538DEC
:10244000002B03D10122484B5A8560E003F02AFC9F
:10245000002003F083FDFFF753F958E0002F5BD114
:10246000414B00229A851B8E002B35D100223E4B1A
:10247000DA852FE000292DD13B4B1B8A1C4250D01E
:1024800039498B46A3430B8292006B46D15837489B
:1024900000F068FB01235A46D38517863800FFF702
:1024A0001BFC002F2DD1304F0123BB8505F064FEAE
:1024B000FB68C31A9B467B8E002B0DD105F05CFE9A
:1024C000294BD860FA239B009B4505D80B20FFF7CA
:1024D00003FC01E0002F14D1234B1B8A234223D19C
:1024E000214B9B8D002B1FD001339BB21E4A93853D
:1024F000642B19D900221C4B9A850A20FFF7ECFBAC
:1025000012E06400A4B20B2D00D864E712E0164B71
:102510001B8E052BAAD0F4E7134B1B8EBB42F0D1C8
:10252000A4E7002FEDD1DBE76400A4B253E7002F4E
:10253000E7D1F9E70DB03CBC90469946A246AB46C0
:10254000F0BDC046689C0108709C0108749C01089D
:102550007C9C0108849C01088C9C0108949C0108C7
:102560009C9C010800040048D8260020A49C010877
:10257000F0B5474680B40121DF4805F09FFE0121F8
:102580008020000105F0A8FE01218020800206F0D5
:102590000DF901218020C00206F008F901218020F8
:1025A000000306F003F901218020400306F0FEF845
:1025B0000121012006F008F9E120400200F09CFD15
:1025C000CE4EF78B310020313A00CD4800F0CAFAE8
:1025D000CC4D78220021280007F08AFBCA4B596AAB
:1025E0002960802252045A62C84800F0BBFAC848E9
:1025F000FEF72CFF05F046FDC64805F0B1FDC64CC0
:1026000020220021200007F073FBB38B238067801A
:102610002B681A0CA283E383C04B1B681A0C22821E
:102620006382BF4B1B681A0CA282E382BD4B1B68FE
:102630001A0C2283638305F039FE208105F030FEF9
:1026400060810004020C2189B74800F08BFAB74C76
:10265000002626710127E771B54B23609025ED0513
:102660002100280005F0F0FEC3235B012360210058
:10267000B04805F0E9FEB04B23602100AF4805F0FB
:10268000E3FE2671E771662323602100280005F030
:10269000DBFEE0239B0023602100A64805F0D4FE6A
:1026A0002B8A9B0706D42B8A5B0703D40121762350
:1026B000944AD1529025ED054021280005F01EFFD7
:1026C0009A4C0026A671E6710127277140232360EA
:1026D00066712100280005F0B7FE032323717D33C6
:1026E00023602100280005F0AFFEA671E671277176
:1026F0000C2323606671914D2100280005F0A4FE93
:102700000421280005F0F8FE0821280005F0F6FE57
:1027100003F06CFFFEF7B4FF05F002F805F052FC81
:10272000874B588B05F0D8FB03F05CFC03F080F975
:10273000844805F0F7FE072005F0FAFEFA2005F0C0
:10274000FDFE002005F0EEFE05F006FF05F0FCFEA4
:1027500005F012FD05007C4B1E806A4C236D6365FD
:102760000020FFF717F97623E35A002B06D0042147
:102770000D2003F065FA0322624B5A86614B98469E
:102780001F001C000A2007F0E9F805F09FFC00F08C
:102790006FFBFFF7C1FD03F0A5FEFFF781F905F020
:1027A000EBFC401BF423FF3398421AD9F535FF3573
:1027B0000C20FFF791FA43469A8E1021102004F066
:1027C00057F84346DA8E1021112004F051F8022206
:1027D0000921102004F04CF802220921112004F0F4
:1027E00047F805F0D1FC7B68984211D00133636053
:1027F000A3680133A360A36D581CA0653C21FEF7BC
:10280000F7FC1E2904D100221D39002003F0F4F941
:10281000FFF748F8002809D0484E0821300005F09D
:102820006BFE0421300005F069FE08E0434E0821EC
:10283000300005F063FE0421300005F05DFE05F078
:1028400083FE5C232F4AD35A002B04D000215C2343
:10285000D152FEF755FF74232A4AD35A012B0CD1CB
:10286000160002227333F25205F086FC3067002214
:1028700000213648FEF71AFE2CE0022B14D105F099
:102880007BFC204B1B6FC01A314B984222D905F0BC
:1028900073FC1C4E3067002200212E48FEF706FE16
:1028A00003227423F25215E0032B13D105F064FCCC
:1028B000144B1B6FC01A264B98420BD905F05CFCD9
:1028C000104E3067002200212048FEF7EFFD022263
:1028D0007423F25268230B4AD35A002B00D151E7DC
:1028E00005F04AFC074BDB6EC01A312800D849E7D7
:1028F000FFF702F846E7C04633100000A89A010827
:10290000BC9C0108D826002000100240CC9C010885
:10291000B71DC10488130000B8260020ACF7FF1FC4
:10292000B0F7FF1FB4F7FF1FD89C010870270020E5
:1029300019090000000400483FE2000000080048B8
:102940001822002055550000000000208A020000D7
:102950000F270000EE02000000B583B000230193B2
:102960000093802252000349034806F00DFE06F052
:10297000D7FEFEE7FC9C01087125000810B51B4B33
:102980001B4AD35A002B2FD00D282DD0C423DB0097
:10299000D358002B0FD0174A15498A5A012A23D938
:1029A0000A005C1CC421C900545018701149535AC4
:1029B000013B535218E0C223DB000D4AD15A4B1C95
:1029C0009BB20D4A934200D900230C4A084CA25AEC
:1029D00092B2934203D06054C221C9006352084AA4
:1029E000116880230B43136010BDC046260600000B
:1029F0003028002024060000FF030000120600001B
:102A00000050004010B504000078002805D00134C3
:102A1000FFF7B4FF20780028F9D110BDF0B55F466C
:102A20004E464546E0B482B00400009101929846BB
:102A30000B00083B082B01D90A23009300261A4BF0
:102A40009B461A4F00E04E46731C99465B46F518AC
:102A500000992000FEF7CCFB7B5C2B7000992000D6
:102A6000FEF740FB041EEED1019B99450BDA2034A2
:102A70004346002B00D01034019F2000FFF77EFF5B
:102A8000013FB945F9DB4B46002B07DD064CA05D45
:102A9000FFF774FF013E731C002BF8DC02B01CBC76
:102AA00090469946A346F0BD20280020F09E0008DD
:102AB000F0B55F4656464D464446F0B483B0040038
:102AC0000091019298460B00083B082B01D90A237C
:102AD000009300239B46002C02DA644201339B469C
:102AE00000261E4B9A461E4B994600E03E00771C7E
:102AF0005346F51800992000FEF764FC4B465B5CDA
:102B00002B7000992000FEF777FB041EEED15B4688
:102B1000002B03D02D22114BDA55B71C019BBB4271
:102B20000BDD20254346002B00D01035019C2800EA
:102B3000FFF724FF013CA742F9DB7C1E002F05DDD7
:102B4000064D285DFFF71AFF013CFAD203B03CBCEA
:102B500090469946A246AB46F0BDC04620280020CC
:102B6000F09E00080FB4F0B585B00AAB80CB03939C
:102B7000387800286DD00023019301246442002599
:102B80002026002D08D125285AD0FFF7F7FE002374
:102B900001930124644258E0252803D1FFF7EEFE9B
:102BA000002552E064280AD1039B1A1D039218687D
:102BB000019B22000A21FFF77BFF002545E07528D5
:102BC0000AD1039B1A1D03921868019B22000A2157
:102BD000FFF724FF002538E00300B343582B0AD148
:102BE000039B1A1D03921868019B22001021FFF716
:102BF00015FF002529E0732807D1039B1A1D0392B6
:102C00001868FFF7FFFE00251FE0632807D1039B2C
:102C10001A1D03921868FFF7B1FE002515E0002584
:102C20000300303B092B10D8002C02DA012301935A
:102C30000024A3001B195B003038C418012504E0F0
:102C400000230193012464420125013738780028CC
:102C500097D105B0F0BC08BC04B01847F0B54746A2
:102C600080B41D4BC4181D4B9C4231D8C3072FD4D0
:102C70001B4B1B691B0604D5194B1A4C5C601A4C84
:102C80005C60002A1FD00026154C02239C4640336E
:102C900098460125430507D1634623616061434699
:102CA0002361E3681D42FCD18B195B781B028F5DA9
:102CB000FB1825610380E3681D42FCD10236B6B2E1
:102CC0000230B242E6D8064A116980230B431361F1
:102CD00004BC9046F0BDC0460000FEF7FFFF0100B7
:102CE0000020024023016745AB89EFCD30B5411884
:102CF0000378202B09D1884242D201300378202B5F
:102D000003D18142F9D1140044E01400814241D939
:102D1000302B1CD14378782B38D0582B1BD1831CF7
:102D2000994237D900241D7828003038C2B2092AC8
:102D300001D9373DEAB20F2A03D9203AD2B20F2A7D
:102D400028D82401141901339942ECD822E0303BF1
:102D50001400092B1ED802781300303B092B11D820
:102D600000239C00E3185B009B18303B0130027885
:102D70001400303C092C07D88142F2D11C0009E034
:102D8000140007E0002405E01C0003E0831C14008D
:102D90009942C7D8200030BDF0B587B00F001A4B5C
:102DA000984204D901001948FFF7DCFE03E0010056
:102DB0001748FFF7D7FE0024164E2E25395D300048
:102DC000FFF7D0FEA3B2082B03D11348FFF7CAFECA
:102DD00002E02000072B00D9601C3A5D1100203969
:102DE0002B005E2900D8130001AA13540134102CC3
:102DF000E4D1110020231372002353740748FFF716
:102E0000B1FE07B0F0BDC046FFFF0000049D010801
:102E10000C9D0108149D0108189D01081C9D0108C6
:102E200070B50E4C0E4BE15A89B2C325ED006259C4
:102E300010320C4BE018FFF759FF0F2398436051F5
:102E4000E0231B06C218084B9A4203D80100FFF783
:102E5000A3FF02E00548FFF785FE70BD3028002083
:102E60001406000002040000F07F0000249D010809
:102E7000F0B5474680B4884B884AD35A9BB2002BA2
:102E800000D1B3E08023DB00D35A854A934206D1B8
:102E90008449CA8B20318448FFF764FEA0E0834A4E
:102EA000934202D1FFF7BCFF9AE0814A934202D1DC
:102EB000FEF722FD94E08022D20078498A5C402A05
:102EC0005DD17C4BCB5C002601241F2B3CD84DE010
:102ED0000134A4B220002B198022D200944663440E
:102EE0001B781F2B02D9303B092BF1D88023DB0044
:102EF0009C466044C01906F0ECFE01B23000FEF7BB
:102F0000A5FE3B198022D200944663441B78303BD7
:102F1000092B0BD8614A0134A4B213198021C900CE
:102F20008C4663441B78303B092BF4D90136B6B28A
:102F3000402E1BD0594B1B198022D200944663446B
:102F40001B781F2B04D811E0544B98461D001F001E
:102F5000200043461B198022D200944663441B780C
:102F60001F2BC3D9303B092BB2D8BFE70022002169
:102F7000002002F041FE5048FFF7F4FD30E04F4AD8
:102F8000934203D1002002F0F9FF29E04C4A93421A
:102F90000CD1424C80221205C623DB00E250494B83
:102FA000E01806F096FE484BE05019E0474A93427D
:102FB00016D1474B474A39498A5A9A4210D1464955
:102FC000464BCD18C624E4002B5980229202944629
:102FD000634418002022FFF741FE2B5920332B5168
:102FE0002E4B00223E495A522B495A5205F0C4F842
:102FF0003C4B984204D901213B4B284AD15204E072
:10300000394B264AD35A002B42D0C523DB00234A32
:10301000D35A012B11D0002B02D0022B22D037E043
:103020002021324805F06AFA05F0A6F81B4B304A19
:1030300098500121043A99522AE005F09DF82C4B52
:10304000164AD358C01A182822D92021274805F03B
:1030500053FA05F091F8114B254A98500221043A91
:10306000995215E005F088F8214B0C4AD358C01A44
:10307000F423FF3398420BD90D20FEF763FB0100C8
:103080001C48FFF76FFD0321C523DB00034AD15223
:1030900004BC9046F0BDC046160600003028002053
:1030A00064760000A89A0108BC9C0108646D0000C9
:1030B0006773000001040000389D01085E5E000097
:1030C0005B5B000002040000340600007B7B000014
:1030D0007D7D000022040000322C0020FEFBFFFF5B
:1030E00014060000C4090000260600000004004881
:1030F0002C0600003C9D0108F0B5474680B4804690
:10310000C722D2000021224806F0F2FD01218020D2
:10311000400305F067FB1F4E04220321300005F039
:10312000EFF904220421300005F0EAF91A4C0025D9
:10313000A571E5710223237116332360012767719E
:103140002100300005F080F9202323602771210041
:10315000300005F079F92021300005F0CDF90F4954
:1031600043460B604D608D60CD604D610C230B615B
:103170000B4C200005F0AAFC0121200005F014FDF5
:1031800001220849200005F04DFD04BC9046F0BD29
:103190003028002000040048702700208C270020E1
:1031A000005000400501050070B54D4BDA691E68FE
:1031B000130702D00F214A4B1962930668D5484B7A
:1031C000998CC9B2474B1B6A002B04D0042B0FD13A
:1031D0003B2906D00CE00D2903D9232901D03B2936
:1031E00006D10120404B4149C85200213D4B196294
:1031F0003E483F4C035B9BB25D1CADB20553C31808
:103200008025ED00AC4663441970035B9BB23948DE
:10321000834206D900232000344C235231480362F4
:1032200007E0304B186A04282FD883003248C3586F
:103230009F467B292CD12E4B2C49CB5A9BB2012B7C
:1032400026D10121274B196222E07B2920D1284B6E
:103250002649CB5A9BB2022B1AD10221214B19626B
:1032600016E07D2914D17A391E4B196210E07D29B0
:1032700003D179391B4B19620AE00221194B1962FB
:1032800006E00221174B196202E00021154B19627A
:10329000330623D5130621D5144A184BD35A9BB2B3
:1032A000C221C900525A9A4213D0104B13495A5A9C
:1032B00092B2501C80B25852985C094A10855B5AF1
:1032C0009BB20F4A934209D900210C4B074AD152B5
:1032D00004E0034A136880218B43136070BDC0462D
:1032E0000050004020030020160600003028002077
:1032F00014060000FF010000049F000812060000F1
:10330000FF03000070B58025ED00084C2900200067
:1033100005F0F4F8022006F021FB2900200005F05A
:10332000EBF8022006F01AFB70BDC046000400480E
:1033300010B5040002210E4805F0E0F8012004F069
:103340000FFF21000B4805F0BFFA052004F008FF2D
:10335000084C8021200005F0C3FA0028F9D1022191
:10336000034805F0C9F8012004F0FAFE10BDC0467C
:10337000000400480038004010B50400042105484E
:1033800005F0BCF8012004F0EBFE2000FFF7D0FFB1
:1033900010BDC0460004004810B5040004210548D3
:1033A00005F0AAF8012004F0DBFE2000FFF7C0FFC3
:1033B00010BDC0460004004870B50C4B1B8ADB07EB
:1033C0000BD411E0338A2B420ED00A2006F0C6FA45
:1033D000013CA4B2002CF5D106E00A2006F0BEFAAA
:1033E000034C024E0125EDE770BDC04600040048C5
:1033F000E703000070B56023294AD35A012B05D199
:1034000000283FD11E26274D683541E000283CD0DA
:10341000FFF7D2FF1820FFF7AFFF8020FFF7BCFFB8
:103420002220FFF7A9FFA120FFF7B6FF2020FFF71A
:10343000A3FFFFF7C1FF1B20FFF79EFF1820FFF738
:10344000ABFF6020FFF7A8FF2220FFF795FFB12018
:10345000FFF7A2FF2020FFF78FFFFFF7ADFFFFF779
:10346000ABFF3220FFF788FF0026002E07D0002494
:10347000285DFFF791FF0134A3B2B342F8D3FFF701
:103480009BFF0BE01E26074D02E04626054D20352A
:10349000FFF792FF3220FFF76FFFE8E770BDC046ED
:1034A000682E00209C9F0008F8B507000E0014004D
:1034B0001D004420FFF760FFFF08F8B2FFF76CFF24
:1034C000E408E0B2FFF768FF4520FFF755FFF0B2D0
:1034D000FFF762FF300AFFF75FFFE8B2FFF75CFF1C
:1034E000280AFFF759FFF8BD70B504000D004E2003
:1034F000FFF742FFE408E0B2FFF74EFF4F20FFF76F
:103500003BFFE8B2FFF748FF280AFFF745FFFFF748
:1035100053FF70BD00B583B000230193802080026B
:1035200004F02EFF064B586B01A905F0FBFE019B32
:10353000002B03D080225205024B1A6003B000BD5D
:10354000682E002004ED00E0F8B507000D001F4CC8
:10355000002300220021606B05F022FF1C4E042195
:10356000300004F0C9FF012004F0FAFD0221300010
:1035700004F0C4FF01220221164805F0A7F9E76014
:10358000656121000831144D280004F0B3FE802746
:10359000BF02380004F0F4FE380004F0FDFE012103
:1035A000280004F0C5FE606B0023FA2252000021BF
:1035B00005F0F6FE022006F0D1F90221300004F0F9
:1035C0009BFF0021280004F0B3FEF8BD682E002008
:1035D00000040048003800405800024070B5040064
:1035E0006023AC4AD35A012B6ED16133D35A002BDE
:1035F00031D0FFF787FE0120FFF7BEFE2720FFF73F
:10360000CBFE0120FFF7C8FE0020FFF7C5FE0C200F
:10361000FFF7B2FED720FFF7BFFED620FFF7BCFEB4
:103620009D20FFF7B9FE2C20FFF7A6FEA820FFF78C
:10363000B3FE3A20FFF7A0FE1A20FFF7ADFE3B20B5
:10364000FFF79AFE0820FFF7A7FE1120FFF794FE70
:103650000320FFF7A1FE2000FFF7CCFEFFF7ACFE32
:103660002823FF337F2200210020FFF71DFF0021C8
:103670000020FFF739FF2420FFF77EFE9421490147
:103680008548FFF761FF2220FFF776FEC420FFF791
:1036900083FE2020FFF770FEFFF78EFEFF20FFF76E
:1036A0006BFEFFF789FE002C00D1EAE01020FFF747
:1036B00063FE1120FFF770FE0A2006F04FF901218A
:1036C0006223744AD152DCE06223724AD35A002B3F
:1036D0005FD0FFF717FEFFF76FFE1220FFF74CFEDB
:1036E000FFF76AFE7420FFF747FE5420FFF754FEF1
:1036F0007E20FFF741FE3B20FFF74EFE2B20FFF719
:103700003BFE0420FFF748FE6320FFF745FE0C2038
:10371000FFF732FE8B20FFF73FFE9C20FFF73CFEB9
:103720009620FFF739FE0F20FFF736FE0120FFF746
:1037300023FE2720FFF730FE0120FFF72DFE00209B
:10374000FFF72AFE1120FFF717FE0320FFF724FEE4
:103750004420FFF711FE0020FFF71EFE0F20FFF7A9
:103760001BFE4520FFF708FE0020FFF715FE002096
:10377000FFF712FE2720FFF70FFE0120FFF70CFED8
:103780003C20FFF7F9FD0120FFF706FE0A2006F0B6
:10379000E5F8002C04D15E233E4AD35A002B38D0E2
:1037A0000120FFF727FE2823FF337F22002100207E
:1037B000FFF77AFE00210020FFF796FE2420FFF796
:1037C000DBFD94256D01344C29002000FFF7BCFE81
:1037D0002220FFF7D1FDC720FFF7DEFD2020FFF7F5
:1037E000CBFDFFF7E9FD0A2006F0B8F81020FFF73F
:1037F000C3FD1120FFF7D0FD0A2006F0AFF801212C
:103800006223244AD1522A002100244806F067FA94
:1038100037E00020FFF7EEFD2823FF337F22002151
:103820000020FFF741FE00210020FFF75DFE24206D
:10383000FFF7A2FD9424640121001748FFF784FEDE
:103840002620FFF799FD21001448FFF77DFE3A205E
:10385000FFF792FD1A20FFF79FFD3B20FFF78CFD3D
:103860000820FFF799FD2220FFF786FDC720FFF70C
:1038700093FD2020FFF780FDFFF79EFD0A2006F054
:103880006DF85E23034AD35A002B02D000215E2339
:10389000D15270BD682E002044420020C42F002069
:1038A0005823084AD35A5A2B05D0872252009342F4
:1038B00004D0802004E09420400001E094204000E7
:1038C0007047C046682E00205823074AD35A5A2B07
:1038D00006D087225200934204D09420400002E098
:1038E000802000E080207047682E002010B558230B
:1038F000174CE35A5A2B03D17F235B1A010098B26D
:103900007F2824D82823FF33994220D8002A0FD0BB
:10391000C9010918CB17072213405918C9100D4CBB
:103920000723184079330341625C134363540EE06C
:10393000C9010918CB17072213405918C910054CA3
:103940000723184079320241635C9343635410BDEE
:10395000682E0020444200205823114AD35A5A2B83
:1039600003D17F235B1A010098B200237F2815D86A
:103970002822FF32914211D8C9010918CB17213AE8
:10398000FF3A13405918C910064B5A5C07231840D8
:10399000793303411340581E83419BB2180070478E
:1039A000682E002044420020F0B55F4656464D4642
:1039B0004446F0B483B00600824689461500FFF7FE
:1039C0006FFF03B29B46FFF77FFF03B29846B345F4
:1039D00036DD4B466A46938093880193013B1FB2C4
:1039E000B6B201993000FFF7B7FFA84228D0C8450A
:1039F00010DD4C46A4B221003000FFF7ADFF854238
:103A000008D02A0021003000FFF770FF013424B2F3
:103A10004445EFDB3C1E0FDBA4B221003000FFF772
:103A20009BFF854208D02A0021003000FFF75EFF8F
:103A3000013C24B2002CEFDA013636B25E45CFDB12
:103A40005446013C24B2002C36DB4B466A46938038
:103A500093880193013B1EB2A4B201992000FFF7A5
:103A60007BFF854228D0C84510DD4F46BFB23900E4
:103A70002000FFF771FF854208D02A00390020009E
:103A8000FFF734FF01373FB24745EFDB371E0FDB4F
:103A9000BFB239002000FFF75FFF854208D02A003F
:103AA00039002000FFF722FF013F3FB2002FEFDA7D
:103AB000013C24B2002CCFDA03B03CBC90469946BE
:103AC000A246AB46F0BDC046F0B55F4656464546F9
:103AD000E0B484B082468B461500029353421BB279
:103AE0001F0003939D4227DB2B006B43984617E092
:103AF000230063439B19AB4206DC5346181980B27E
:103B0000029A0199FFF7F2FE013424B2BC42EFDDC4
:103B10003B004746A8461D007B1C1FB2BD420BDB85
:103B20003E007E43039C5B46DB199BB201932B0056
:103B30004546B8461F00DBE704B01CBC90469A46D9
:103B4000A346F0BDF0B55F4656464D464446F0B438
:103B500083B004000E0090460CAA128801924045E2
:103B600003DB4246811A09B202E04246111A09B249
:103B70009E4202DBF21A12B201E09A1B12B200203E
:103B80008146914207DA42469846130022003400EB
:103B9000160001229146444505DD32001E00130047
:103BA0002200444690464246121B92B2924615B2FB
:103BB0009E4208DBF71A3FB2EB0F5D196D1001232F
:103BC0005B429B4606E09F1B3FB2EB0F5D196D10F9
:103BD00001239B4644451ADC4B46002B05D0A1B27D
:103BE000B0B2019AFFF782FE04E0B1B2A0B2019A2E
:103BF000FFF77CFEED1BABB21DB2002D03DA5E4475
:103C000036B253441DB2013424B24445E4DD03B05E
:103C10003CBC90469946A246AB46F0BDF0B585B097
:103C20001D000AAB1C8803B2180017B20EB2009434
:103C300033003A0031000390FFF784FF2DB2009467
:103C40002B003A0031003800FFF77CFF00942B0076
:103C5000039A29003800FFF775FF0094330003989A
:103C600002002900FFF76EFF05B0F0BDF0B585B08A
:103C7000070014000AAA1588A04201D302D80FE059
:103C8000270004001EB20BB2039320B2009533004C
:103C900002000399FFF756FF0134A4B2BC42F4D3EB
:103CA00005B0F0BDF0B587B003900C000CA90988F1
:103CB0000DA8058800292FD169468889D10F891858
:103CC00049108AB2811A09B20491821812B2DE0F29
:103CD000F3185B109BB2A6B29F193FB2F61A36B228
:103CE00000953B00059239000498FFF72BFF0095E3
:103CF0003B00059A31000398FFF724FF009533003D
:103D0000039E320039000498FFF71CFF2A002100AF
:103D10003000FFF749FE62E001292FD1694688890A
:103D2000D10F891849108AB2871A3FB2821812B28D
:103D30000492A6B2DA0FD218521093B2F21A11B24C
:103D4000F3181EB2009533003A0005913800FFF7D2
:103D5000F9FE009533003A002100049E3000FFF781
:103D6000F1FE00952300320005993800FFF7EAFEC6
:103D70002A0021000398FFF717FE30E002292ED118
:103D8000D10F8A18521092B26946898957183FB2EA
:103D90008A1A12B20492A6B2DA0FD218521093B253
:103DA000F21A11B2F3181EB2009533003A000591D1
:103DB0003800FFF7C7FE009533003A002100049E4B
:103DC0003000FFF7BFFE0095230032000599380050
:103DD000FFF7B8FE2A0021000398FFF7E5FD07B0C2
:103DE000F0BDC046F0B55F4656464D464446F0B479
:103DF00085B007008B46904601930EAB1B780028D8
:103E000051D0202B01D1808852E08278002093424B
:103E10004ED3F97899424BD39B1A9B00BA689446CB
:103E200063445E881B88180003933B88002B3CD0BA
:103E30000300013BDA1707210A40D318DB100133D6
:103E40009BB2994600239A4643460293B846070020
:103E500024E0029B53449BB20093A8B2C20843469D
:103E6000DB689B199B5C234205D0584480B2019AC1
:103E70000099FFF73BFD640800D180340135ABB2F7
:103E8000BB42EAD34E44B6B2534601339BB2012241
:103E90009446E244424612889A4208D9002580247A
:103EA000002FD6D1EEE7002002E0039800E003984F
:103EB00005B03CBC90469946A246AB46F0BDC04614
:103EC000F0B50C2805D90024214F0AE0854208D31B
:103ED00000E00026F6001E488619F06900280BD184
:103EE00033E00134A4B22600E5007D192D8B002DAE
:103EF000ECD1174808302AE0002B01D004881C8040
:103F00000B78002400251F2B04D81AE0002D01D0C7
:103F10000235ADB2202B03D18388ED18ADB20BE092
:103F200086789E4208D8C7789F4205D39B1B9B008A
:103F300086689B5BED18ADB20134A4B20B5D1F2BFC
:103F4000E4D8002A03D0158001E001480830F0BD14
:103F50001CA00008F0B589B006000591100004937C
:103F60000EAB20CB1C880E2304AA9446634407AAF8
:103F70002900FFF7A5FF0390082C6AD8A400494B3D
:103F80001B599F4607AB1B885B08F31A9EB260E083
:103F900007AB1B88F31A9EB25BE00E2304AA94467B
:103FA00063441B885B08059AD31A9BB2059350E0C3
:103FB00007AB1B885B08F31A9EB20E2304AA944633
:103FC00063441B885B08059AD31A9BB2059340E0B3
:103FD00007AB1B88F31A9EB20E2304AA94466344CF
:103FE0001B885B08059AD31A9BB2059331E0039BAB
:103FF000DB880E2204A98C46624412889B1A059A1B
:10400000944663449BB2059323E007AB1B885B088F
:10401000F31A9EB2039BDB880E2204A98C466244ED
:1040200012889B1A059A944663449BB2059310E04C
:1040300007AB1B88F31A9EB2039BDB880E2204A9F0
:104040008C46624412889B1A059A944663449BB23C
:104050000593002207AB1A802B7800271F2B06D868
:104060001CE0002807D0023007AA108003E06A464F
:104070001421525E059207AC2188711809B2009391
:10408000049B059A0398FFF7ADFE2388C01880B201
:1040900020807B1C9FB2EB5D1F2BE2D807AB1888FA
:1040A00009B0F0BD189F0008F0B55F4656464D4672
:1040B0004446F0B485B00190884602920E9A91462B
:1040C000D788928892461AB29346FF2213409AB23A
:1040D000082A40D89B00404AD3589F4653465B0865
:1040E000019AD31A9BB2019335E0019B52469B1A69
:1040F0009BB201932FE07B08CB1A9BB298462AE033
:1041000053465B08019AD31A9BB201937B08CB1AE2
:104110009BB298461FE0019B52469B1A9BB20193AB
:104120007B08CB1A9BB2984615E0CB1B9BB29846F6
:1041300011E053465B08019AD31A9BB20193CB1B43
:104140009BB2984607E0019B52469B1A9BB2019393
:10415000CB1B9BB29846002F37D080250024002629
:104160005346013B019A9446634403934B461B68B4
:104170009B5D2B4211D05B46002B07DB019B18197E
:1041800080B2029A4146FFF7B1FB06E0039B181B81
:1041900080B2029A4146FFF7A9FB0134A4B26D0830
:1041A00005D10136B6B2A24505D980350BE0A2454E
:1041B00009D80136B6B2434601339BB29846013F57
:1041C000BFB280250024002FD0D105B03CBC904662
:1041D0009946A246AB46F0BD3C9F000870B58AB038
:1041E00005000E000D4C21006031122205A805F0DB
:1041F00076FD210074311222684605F070FD002022
:10420000082D08D8002E03DB6D0005ABE85A02E04C
:104210006D006B46E85A0AB070BDC0461CA000088D
:10422000F0B54F464646C0B483B0050000260024D2
:104230006A4B9846C6E05E2A01D0242A5ED101343A
:104240002B5D1900303909290DD80027B800C01995
:104250004000303B1F1801342B5D1900303909290B
:10426000F4D9002F13D1C427FF005D4B9B194246A0
:10427000D35140239E1B5B4BD6525B48FEF772FC2A
:1042800000234246D25913704246D35131E05E2A90
:1042900009D10220FDF756FAC01980B2FDF770FA75
:1042A0000190524F08E00220FDF74CFAC01B80B28B
:1042B000FDF766FA01904E4F484A494B9B19C421BD
:1042C000C90053504020861B464BD6520120FDF7B3
:1042D00039FA6B23002800D10233019A390045488E
:1042E000FEF740FC3D4AC423DB000021D05801709A
:1042F000D1503B48FCF7EEFE060063E07E2A01D079
:10430000232A5BD10134285D0300303B092B0DD8F3
:1043100000218B0059184900303841180134285DBC
:104320000300303B092BF4D9002915D12B4FC423AE
:10433000DB0099462A4B9B194A46BB5040239E1BE3
:10434000284BFE522C48FEF70DFC00234A46BA5873
:1043500013704A46BB502CE07E2A15D11F4FC42350
:10436000DB0099461E4B9B194A46BB5040239E1BBF
:104370001C4BFE522148FEF7F5FB00234A46BA5873
:1043800013704A46BB5014E0144FC423DB00994617
:10439000134B9B194A46BB5040239E1B114BFE52A8
:1043A0001748FEF7DFFB00234A46BA5813704A4607
:1043B000BB500B48FCF78EFE060003E00134084BAF
:1043C0009A5501362A5D1F2A00D934E70448002394
:1043D000835503B00CBC90469946F0BD30280020B0
:1043E00044030020240600005C9D01084C9D010848
:1043F000549D0108709D0108849D0108989D010845
:10440000B09D010810B50620FDF79CF9002802D0E8
:104410009C23224AD0520420FDF794F9023880B23E
:104420007A231E4AD35A834201D97C23D0520520D5
:10443000FDF788F9002804D101218C23174AD152B5
:1044400003E000218C23154AD1520820FDF77AF9A8
:10445000002802D0AC23114AD0520920FDF772F98E
:10446000002802D0CC230D4AD0520A20FDF76AF969
:10447000002802D0DC23094AD0520B20FDF762F954
:10448000002802D0BC23054AD0520C20FDF75AF96F
:10449000002802D0EC23014AD05210BD682E002023
:1044A000F0B55F4656464D464446F0B485B000230D
:1044B0009846002600240025304B9A469B46994694
:1044C000A20053461B689C4662441368002B19D116
:1044D0002F002B01294AD3186E3342461A80FFF76A
:1044E000DFF903002838864201DA2836B3B23F01EB
:1044F000224AD71970373B800135ADB20023984668
:1045000000262EE02B00A91D090159444968002905
:1045100006D1A91D0901194841184A6010200881D7
:1045200006331B014B445989013159811B89019381
:104530001068FFF775FE010002AA971D03AB3A0051
:104540000198FFF7BDFC3B881A1CB34200D2321C15
:1045500096B203AB1B881A1C434500D2424693B265
:1045600098460134A4B20D2DAAD9FFF74BFF05B030
:104570003CBC90469946A246AB46F0BD682E002052
:10458000F0B557464E464546E0B486B004000E00EE
:10459000002800D12DE1FFF783F90500FFF794F91A
:1045A000013883B2013DAAB201210091002100200F
:1045B000FFF75CFB012E09D12389002B02D0013BC0
:1045C00023810EE0E388013B23810AE0022E08D11B
:1045D000238901339BB22381E2889A4201D80023C8
:1045E00023812368002B01D1208903E166897600AD
:1045F000B6B2228990469200D058FFF711FE05000E
:10460000FFF74EF9A288400880B20123019300957C
:1046100000233100FFF79EFC0E2702AB9C46674447
:10462000A08800233A002900FFF74AFC3D88FFF7E5
:1046300037F907002838854201DA2835AFB2A7815B
:10464000FFF72EF940087F08C71BBFB238000830BB
:1046500083B29A4663895D1C6D1075192AB21100E8
:10466000023B1BB2524610B2002501950122009276
:104670000F320391FFF716FB6389023B1BB2A0893F
:104680001038504400B20195022200920E32039974
:10469000FFF708FB6389F3189BB2A289BA1892B29C
:1046A000009531003800FFF7B9FA6789F71BBFB2F0
:1046B0004546013DADB2E38801229046AB421DD88C
:1046C00020E0FFF7EDF80600A3889946AB002268CA
:1046D0009858FFF7A5FD7608B6B2434601930090BF
:1046E00000234A4639003000FFF734FC013DADB2EB
:1046F0006389FF1ABFB2E388AB4203D9FFF7E4F83E
:10470000B842DED867897B00FF18BFB22589013522
:10471000ADB2E38801229046AB421DD820E0FFF7FE
:10472000BFF80600A3889946AB0022689858FFF7A7
:1047300077FD7608B6B243460193009000234A46BF
:1047400039003000FFF706FC0135ADB26389FF1870
:10475000BFB2E388AB4203D9FFF7B6F8B842DED860
:10476000FFF7B2F80500FFF79BF8020029001039A7
:1047700089B2012300932B000020FFF777FAFFF79F
:10478000A3F8103805B2FFF78BF802B200230093AC
:104790002B0029000020FFF7D5F9FFF795F8013825
:1047A00081B207250195164B009300230C22192096
:1047B000FFF7D0FBFFF788F8013881B20195114B64
:1047C000009300230C229620FFF7C4FBFFF768F844
:1047D0000500FFF779F8013881B2013DA8B208233E
:1047E0000193094B009300230C22FFF7B3FB2089B0
:1047F00000E0002006B01CBC90469946A246F0BDE1
:10480000689C0108C89D0108D09D0108F0B55F466D
:1048100056464D464446F0B491B0322005F09EF81D
:10482000B348FEF79FF9B34C5A235822A352D03213
:10483000E252A83A0233E252FFF732FE002260232E
:10484000E2529023DB051B8A1B0701D501F083F898
:1048500001216023A74AD152FEF754FD0120FEF743
:104860008BFD2720FEF798FD0120FEF795FD002027
:10487000FEF792FD0C20FEF77FFDD720FEF78CFDA2
:10488000D620FEF789FD9D20FEF786FD2C20FEF741
:1048900073FDA820FEF780FD3A20FEF76DFD1A207B
:1048A000FEF77AFD3B20FEF767FD0820FEF774FD5A
:1048B0001120FEF761FD0320FEF76EFD60238D4A97
:1048C000D35A012B13D194256D018B4C2A00FF2163
:1048D000200005F00DFA0120FEF780FE2A00FF21DE
:1048E000200005F005FA0120FEF778FE08E094228A
:1048F0005201FF21804805F0FBF90120FEF76EFE12
:10490000642005F02BF87B4B01225E215A525A6439
:104910009A467A4B10330493784B083305930A2058
:1049200005F01CF85346DB6C002B6DD06023714AF8
:10493000D35A012B13D194256D016F4C2A00FF210E
:10494000200005F0D5F90120FEF748FE2A00FF21DE
:10495000200005F0CDF90120FEF740FE12E094257D
:104960006D01654C2A00FF21200005F0C1F90020EF
:10497000FEF734FE2A00FF21200005F0B9F90020DF
:10498000FEF72CFE94225201FF215B4805F0B0F99E
:104990000F20FCF7D7FE482808D1584B009300237E
:1049A000002207210020FFF77FFB15E00F20FCF716
:1049B000C9FE432808D1059B00930023002207214C
:1049C0000020FFF771FB07E0049B00930023002207
:1049D00007210020FFF768FB0120FEF7FFFD6420A0
:1049E00004F0BCFF1020FEF7C7FC1120FEF7D4FC3A
:1049F000642004F0B3FF01F06DFD0028F8D04021E1
:104A00009020C00503F078FD3A4B5B6C002B12D16F
:104A100003F0B2FB374B9A6B801ADB6B984200D2E3
:104A20007DE70120FEF7DAFD03F0A6FB314B98632A
:104A3000334ADA6373E72F4B00225A645B6DDB075E
:104A40000CD503F099FB2B4B9B6BC01A2D4B984256
:104A500004D9284A516D02230B435365254B5B6DE6
:104A60009B0705D5264A234BDA630123039304E011
:104A7000254A204BDA630023039303F07DFB1D4D91
:104A8000A8636B6D032293436B65012300937E3310
:104A90002822FF3200210020FFF7E8F8AB6C0E2B34
:104AA00001D900F083FD9B00184AD3589F4600248B
:104AB00000947F232822FF3200210020FFF7D6F840
:104AC0000220FEF78BFD0B4BDC6300F03BFF012364
:104AD00000937E332822FF3200210020FFF7C6F822
:104AE0000220FEF77BFD0022024BDA6300F02AFF72
:104AF000089E0108682E002044420020B4A000084F
:104B0000C02709004B1D00004C1D0000609F0008DD
:104B1000002501957E4B009300230C2205210A20DD
:104B2000FFF718FA01957B4B009300230C22142108
:104B30000A20FFF70FFA0195774B009300230C2210
:104B400023210A20FFF706FA0195744B00930023F6
:104B50000C2232210A20FFF7FDF90195704B0093DA
:104B600000230C2241210A20FFF7F4F901956D4B37
:104B7000009300230C2250210A20FFF7EBF9019546
:104B8000694B009300230C225F210A20FFF7E2F912
:104B9000664EC424E40008AF3751654B9946202384
:104BA0009B464B465A46F252624BD98B6248FDF700
:104BB000D9FF33591D7035510195009700230C2200
:104BC00005219420FFF7C6F937514B465A46F25259
:104BD0000E20FCF721FE06900F20FCF71DFE0200C0
:104BE00006995648FDF7BEFF33591D7035510195A2
:104BF000009700230C2214219420FFF7ABF93751C2
:104C00004B465A46F2520820FCF706FE0690092051
:104C1000FCF702FE07900A20FCF7FEFD0300079A4E
:104C200006994748FDF79EFF33591D703551019590
:104C3000009700230C2223219420FFF78BF9375192
:104C40004B465A46F2520B20FCF7E6FD06900C202C
:104C5000FCF7E2FD07900D20FCF7DEFD0300079A4C
:104C600006993748FDF77EFF33591D703551019580
:104C7000009700230C2232219420FFF76BF9375163
:104C80000C239B464B465A46F2520020FCF7E2FDAD
:104C900001002948FDF766FF33591D703551019514
:104CA000009700230C2241219420FFF753F937513C
:104CB0004B465A46F2520020FCF7D8FD3C21FCF747
:104CC00011FA01001C48FDF74DFF33591D70355195
:104CD0000195009700230C2250219420FFF73AF908
:104CE00037514B465A46F2520D20FCF72BFD01007E
:104CF0001148FDF737FF33591D7035510195009765
:104D000000230C225F219420FFF724F900F014FE09
:104D1000209E0108309E0108389E0108449E01082B
:104D2000509E0108609E0108709E010830280020F6
:104D300024060000A89A01084C9F0108849E0108DF
:104D4000809E010800260196CD4B009300230C2283
:104D500002219620FFF7FEF80196CA4B009300232C
:104D60000C220221DC20FFF7F5F80196C64B0093D8
:104D700000230C2214210A20FFF7ECF80196C34B04
:104D8000009300230C2223210A20FFF7E3F8019669
:104D9000BF4B009300230C2232210A20FFF7DAF8E0
:104DA0000196BC4B009300230C2241210A20FFF7FF
:104DB000D1F80196B84B009300230C2250210A2011
:104DC000FFF7C8F80196B54B009300230C225F2132
:104DD0000A20FFF7BFF80196B14B009300230C2285
:104DE0006E210A20FFF7B6F8AE4DC424E40008AFE8
:104DF0002F51AD4B99460C239B464B465A46EA52DF
:104E00001021102001F012FD0100A848FDF7AAFEB4
:104E10002B591E702E510196009700230C2214214D
:104E20009620FFF797F82F514B465A46EA52132126
:104E3000102001F0FBFC01009C48FDF793FE2B596C
:104E40001E702E510196009700230C2223219620DC
:104E5000FFF780F82F514B465A46EA521621102090
:104E600001F0E4FC01009148FDF77CFE2B591E7017
:104E70002E510196009700230C2232219620FFF735
:104E800069F82F514B465A46EA521821102001F07A
:104E9000CDFC01008548FDF765FE2B591E702E5193
:104EA0000196009700230C2241219620FFF752F82B
:104EB0002F514B465A46EA521D21102001F0B6FCF4
:104EC00001007A48FDF74EFE2B591E702E510196B7
:104ED000009700230C2250219620FFF73BF82F511A
:104EE0004B465A46EA521E21102001F09FFC010059
:104EF0006E48FDF737FE2B591E702E510196009714
:104F000000230C225F219620FFF724F82F514B46F7
:104F10005A46EA521F21102001F088FC0100634824
:104F2000FDF720FE2B591E702E510196009700238D
:104F30000C226E219620FFF70DF82F514B465A4652
:104F4000EA521021112001F071FC01005748FDF7D1
:104F500009FE2B591E702E510196009700230C223A
:104F60001421DC20FEF7F6FF2F514B465A46EA5239
:104F70001321112001F05AFC01004C48FDF7F2FD0D
:104F80002B591E702E510196009700230C222321CD
:104F9000DC20FEF7DFFF2F514B465A46EA5216211E
:104FA000112001F043FC01004048FDF7DBFD2B59C7
:104FB0001E702E510196009700230C223221DC2016
:104FC000FEF7C8FF2F514B465A46EA5218211120CE
:104FD00001F02CFC01003548FDF7C4FD2B591E7073
:104FE0002E510196009700230C224121DC20FEF770
:104FF000B1FF2F514B465A46EA521D21112001F0B4
:1050000015FC01002948FDF7ADFD2B591E702E51EE
:105010000196009700230C225021DC20FEF79AFF16
:105020002F514B465A46EA521E21112001F0FEFB39
:1050300001001E48FDF796FD2B591E702E5101965A
:10504000009700230C225F21DC20FEF783FF2F5105
:105050004B465A46EA521F21112001F0E7FB01009E
:105060001248FDF77FFD2B591E702E5101960097B7
:1050700000230C226E21DC20FEF76CFF00F05CFCAC
:105080007C9C0108849C0108909E0108A09E010858
:10509000B09E0108C09E0108C49E0108D49E01086C
:1050A000E49E010830280020240600004C9F0108DF
:1050B00000250195F54B009300230C220A210A20BC
:1050C000FEF748FF0195F24B009300230C221921B3
:1050D0000A20FEF73FFF0195EE4B009300230C22C0
:1050E00028210A20FEF736FF0195EB4B00930023A1
:1050F0000C2237210A20FEF72DFF0195E74B009384
:1051000000230C2246210A20FEF724FF0195E44BE0
:10511000009300230C2255210A20FEF71BFF019566
:10512000E04B009300230C2264210A20FEF712FFBB
:105130000195DD4B009300230C2273210A20FEF71A
:1051400009FFDA4EC423DB00984608AFF750D84B6E
:1051500099460C239B464B465A46F25204210C209A
:1051600001F064FB0100D348FDF7FCFC4346F35813
:105170001D704346F5500195009700230C220A212B
:105180009620FEF7E7FE4346F7504B465A46F2524A
:1051900005210C2001F04AFB0100C648FDF7E2FCA6
:1051A0004346F3581D704346F55001950097002380
:1051B0000C2219219620FEF7CDFE4346F7504B46B0
:1051C0005A46F25208210C2001F030FB0100B94888
:1051D000FDF7C8FC4346F3581D704346F550019552
:1051E000009700230C2228219620FEF7B3FE4346A9
:1051F000F7504B465A46F25209210C2001F016FB9B
:105200000100AC48FDF7AEFC4346F3581D70434621
:10521000F5500195009700230C2237219620FEF7C8
:1052200099FE4346F7504B465A46F2520A210C204B
:1052300001F0FCFA01009F48FDF794FC4346F35847
:105240001D704346F5500195009700230C2246211E
:105250009620FEF77FFE4346F7504B465A46F252E1
:105260000B210C2001F0E2FA01009248FDF77AFCD4
:105270004346F3581D704346F550019500970023AF
:105280000C2255219620FEF765FE4346F7504B460B
:105290005A46F2520C210C2001F0C8FA0100854850
:1052A000FDF760FC4346F3581D704346F5500195E9
:1052B000009700230C2264219620FEF74BFE434604
:1052C000F7504B465A46F2520D210C2001F0AEFA2F
:1052D00001007848FDF746FC4346F3581D704346ED
:1052E000F5500195009700230C2273219620FEF7BC
:1052F00031FE21E36D4DC423DB00984608AFEF502B
:1053000010226B4BEA52002002F0B2FD411C6A48A9
:10531000FDF728FC00264346EB581E704346EE502E
:10532000012501950097002310220A219420FEF701
:1053300011FE02F07BFD0195009000230C22372125
:105340009420FEF707FE5D4B1833009300230022E4
:105350000A210120FEF7A8FE0196594B0093002375
:1053600010226E210A20FEF7F5FDE5E201250195E8
:10537000544B0093002314220A219420FEF7EAFDE7
:105380000195514B00930023102232219420FEF707
:10539000E1FD002301934D4B009300230C226E216D
:1053A0000A20FEF7D7FDC7E201250195484B00937F
:1053B0000023142219219420FEF7CCFD0195454BC2
:1053C00000930023142237219420FEF7C3FD00230D
:1053D00001933E4B009300230C226E210A20FEF71E
:1053E000B9FDA9E2012501953B4B0093002314224E
:1053F00019219420FEF7AEFD0195384B0093002350
:10540000142237219420FEF7A5FD002301932F4B92
:10541000009300230C226E210A20FEF79BFD8BE2F5
:10542000012501952A4B0093002314221921942071
:10543000FEF790FD01952A4B00930023142237219B
:105440009420FEF787FD00230193204B0093002357
:105450000C226E210A20FEF77DFD6DE2214B1B6DB3
:10546000032B07D11F4B0022A42149005A500439B5
:105470005A5054E01B4B1B6D042B35D1194BA22203
:10548000520099580432995049E0C046E49E010800
:10549000C49E0108F09E0108FC9E0108089F0108B7
:1054A000189F0108289F0108349F01083028002018
:1054B000240600004C9F0108409F0108B4A000088A
:1054C000509F0108589F01086C9F0108889F0108A0
:1054D000909F0108A09F0108A89F0108B89F01089C
:1054E000C09F0108682E0020B64B1B6D052B16D1FE
:1054F000B44B5D6829880D2911D82A000023B14FCB
:10550000A4267600B85B814202D15288AD498A5107
:1055100001339BB29A00AA1811880D29F2D9A94D1E
:10552000296D89B2A4235B00E858063000014019B8
:105530000430FFF725F800232B65FDE101230193DB
:10554000A14B00930023142214219420FEF702FDA6
:10555000FCF77AF9002801D19C4B00E09C4B01221A
:10556000019200930023133232219420FEF7F2FCC3
:10557000E2E101250195974B0093002310221421AD
:105580009420FEF7E7FC0195934B00930023102233
:1055900028219420FEF7DEFC0195904B0093002318
:1055A00010223C219420FEF7D5FCC5E10020FCF739
:1055B000E7F80600632803D8202208AB1A7004E03D
:1055C000643886B2312208AB1A7008AD0A21300067
:1055D000FBF788FD303068700A213000FBF708FEC9
:1055E0003031A9700027EF70052301930095002347
:1055F00054224021BA20FEF7ADFC0120FCF7A2F8AE
:1056000001978000764BC358009300231022182185
:10561000D220FEF79FFCFCF7C5F80300C2178018E4
:10562000504006B2303028706F70002E13D1062320
:10563000019308AB0093002324226421F020FEF79D
:1056400089FC684B20330093062300226421D2207A
:10565000FEF72AFD2CE0002B15DA0623019308AB98
:105660000093002324226421D220FEF773FCF6006D
:105670005C4B28339E190096062300226421F020FB
:10568000FEF712FD14E00623019308AB00930023FC
:1056900024226421F020FEF75DFCF600514B2833F4
:1056A0009E190096504B00226421D220FEF7FCFC8C
:1056B0000820FCF747F8002815D00F20FCF742F827
:1056C000002810D10B30FCF73DF8002801D0474BE3
:1056D00000E0474B00220192009300230E3201218B
:1056E0000120FEF737FC0C2001F09AFE00280DD0B7
:1056F0000620FCF727F8002808D03A4B78330093AF
:105700000023002201219620FEF7CEFC00F0E0FAF3
:10571000021E0FD1374DC426F60008ABAB51203224
:10572000354BEA523548FDF71DFA0023AA5913708C
:10573000AB5179E0431E9BB2042B31D805273F1AA9
:10574000BFB2062828D012256D427D43ADB2013785
:105750000026FEF7A5F81938281800B20023062203
:105760000821FEF7B1F9FEF79BF81938281800B2A6
:10577000012305220821FEF7A7F9FEF791F8193851
:10578000281800B2002304220821FEF79DF90136F3
:105790001235ADB2B742DCD1002208AB1A7043E03B
:1057A00006282FD1134DC426F60008ABAB511A3290
:1057B000114BEA521248FDF7D5F90023AA5913708C
:1057C000AB5131E0682E0020C89F0108E09D010820
:1057D000D89D0108D89F0108E89F0108F89F01089B
:1057E00004000020B4A0000806800000F89D010815
:1057F000E89D0108302800202406000008A00108C8
:1058000010A0010806280FD9824DC426F60008AB67
:10581000AB512022804BEA52C11F8048FDF7A2F90C
:105820000023AA591370AB51FEF73AF8013880B241
:105830000223019308AD009500230E220121FEF7FB
:1058400089FBFEF72DF8013802B200239946009338
:10585000143314210120FEF775F96E4EC427FF00A2
:10586000F55120226C4BF2520120FBF7F3FF0400AC
:105870000120FBF7FBFF1E303C21FBF733FC02004D
:1058800021006748FDF76EF9F3594A461A704B46F6
:10589000F35106330193009500230E227E2101204F
:1058A000FEF758FB0820FBF74DFF00280DD1594D9E
:1058B00008ABEB512022584BEA525A48FDF752F9F7
:1058C0000023EA591370EB5121E0FBF783FF070037
:1058D0002024002805D02C34002802DC404207B2E6
:1058E00006344C4DC426F60008ABAB5120224A4B7F
:1058F000EA52FBF75DFFFBF743FF01003B0022008C
:105900004948FDF72FF90023AA591370AB5106231C
:10591000019308AB009300230E227E219620FEF710
:1059200019FBFDF7BDFF013802B2002300936C3371
:105930006C210120FEF706F9039B012B02D8180009
:10594000FDF74CFE394B1B6C002B01D1FEF7E7FF36
:105950009847FEF7E4FFFDF7D5FCFDF72DFD12207B
:10596000FDF70AFDFDF728FD7420FDF705FD542025
:10597000FDF712FD7E20FDF7FFFC3B20FDF70CFD3F
:105980002B20FDF7F9FC0420FDF706FD6320FDF751
:1059900003FD0C20FDF7F0FC8B20FDF7FDFC9C20A7
:1059A000FDF7FAFC9620FDF7F7FC0F20FDF7F4FC5D
:1059B0000120FDF7E1FC2720FDF7EEFC0120FDF7BB
:1059C000EBFC0020FDF7E8FC1120FDF7D5FC0320DF
:1059D000FDF7E2FC4420FDF7CFFC0020FDF7DCFCE6
:1059E0000F20FDF7D9FC4520FDF7C6FC0020FDF790
:1059F000D3FC0020FDF7D0FC2720FDF7CDFC0120D3
:105A0000FDF7CAFC3C20FDF7B7FC0120FDF7C4FC04
:105A1000FEF754FF302800202406000018A00108DB
:105A200028A0010834A0010844A00108682E002025
:105A3000F0B583B05D4CAE2252000021200004F08E
:105A400057F95B4B083323605A4B63600F20FBF719
:105A500079FE002806D0554A574B4C331360554BFE
:105A60003C335360554C0025A571E5710127277122
:105A7000534B23606771534E2100300002F0E4FC69
:105A80005149300002F038FD8021C901300002F098
:105A900035FD2571E77127602100300002F0D4FC4C
:105AA000A571E57102232371A0231B022360677196
:105AB0002100300002F0C8FC2571E7711823236033
:105AC00021009020C00502F0BFFC01218020C00110
:105AD00002F088FE00220D21300002F011FD0022AC
:105AE0000F21300002F00CFD3849394B0B80822326
:105AF0005B004B80E023DB008B80CD800D81802319
:105B00009B004B81E13BFF3B8B81CD810D82314C72
:105B1000200002F091FE802676003100200002F085
:105B2000C1FE0121200002F0B1FE0121012002F09E
:105B30003DFE1E4C284BA360284BE36010232361DD
:105B4000083B6361A5617833E36125626562A56204
:105B5000E562256321000831214802F0CBFB214991
:105B6000214802F0F3FB012202211D4802F0FEFB56
:105B70001E480B230370043B4370877002F0F4FC53
:105B800003220021012003F011FB606300230022A7
:105B9000002103F029FB01950097002332001449EE
:105BA000144803F0F1FC03B0F0BDC046682E00209D
:105BB0000400002034A10008040100207027002008
:105BC0000644000000040048060400007827002076
:105BD00000C0FFFF003800400C3800404442002065
:105BE000580002400000034000000240C02700208F
:105BF00054A001080D480008054B1A645A6D114362
:105C0000596501225A64002800D098647047C04644
:105C1000682E0020A4235B00014AD05A7047C0467A
:105C2000682E0020A4235B00044AD35800200D2BCB
:105C300003DC1B01D3186C3318887047682E0020D2
:105C400030B500230D2829D8154A13640633936410
:105C50000301D3186C331C881165042903D1A223D6
:105C60005B00D05016E0052914D10D4B586801880F
:105C70000D290FD8A4235B00094AD55A020000233E
:105C8000A94200D1548801339BB29A00821811882E
:105C90000D29F5D90122024B5A642300180030BDAA
:105CA000682E00200122014BDA647047682E002024
:105CB00010B5064A136910619BB2834204D00022DA
:105CC00001210020FFF798FF10BDC046845B002033
:105CD000014B186980B27047845B002010B5034BFC
:105CE000188301B20E20FBF7B1FF10BD845B0020CA
:105CF000F0B55F4656464D464446F0B485B00A229C
:105D0000914901A803F0EBFF904B9B460020FFF761
:105D1000CFFF5B461A8B0D210C2000F0A9FD5B46DE
:105D2000188BFFF7DBFF0A2003F018FE0620FBF7B5
:105D300009FD5B4618800720FBF704FD5B46588091
:105D40000420FBF7FFFC5B4698800520FBF7FAFC7C
:105D50005B46D8809B68002BD8D00C2001F060FBFC
:105D60000028D3D0794BDB68002B14D00520FBF73B
:105D7000E9FC00280BD0754BDA6892B20F210C2099
:105D800000F076FDC8220E210C2000F071FD0023EA
:105D90006E4AD3600AE00520FBF7D4FC002805D04A
:105DA000962252000E210C2000F062FD674B9B688A
:105DB000002BABD0654B1B8B1B06A7D50023984649
:105DC000624B99469A461F001EE0434601339BB240
:105DD00098461800FFF76CFF02F0CEF90500534615
:105DE0009B68002B10D05A4E22000D210C2000F091
:105DF0003FFD0A2003F0B2FD02F0BEF9401BB042A5
:105E000002D8BB68002BEFD143465B0001AA9C5A25
:105E1000002C03D04B469B68002BD6D14B4B9B6884
:105E2000002B00D172E70520FFF742FF02F0A4F932
:105E30000400464B9B68002B11D0454D434E9022E9
:105E40000D210C2000F014FD0A2003F087FD02F064
:105E500093F9001BA84202D8B368002BEFD13B4B4B
:105E60009B68002B00D151E70620FFF721FF394A3C
:105E700008210C2000F0FCFC02F07EF90500334BF9
:105E80009B68002B12D0344C304E08210C2000F0BF
:105E9000CDFC00280AD00A2003F060FD02F06CF966
:105EA000401BA04202D8B368002BEED1274C228BB6
:105EB0000D210C2000F0DCFC208BFFF70FFFA36806
:105EC000002B00D122E7214B5B69002B06D1002279
:105ED0001E4B9A600020FFF701FF17E70022022106
:105EE0000020FFF789FE194B9B88FA24A4005C432D
:105EF00002F042F90700002C00D10AE7134B9B681F
:105F0000002B00D105E70020104E3500201AFA21A1
:105F10008900FBF7E7F8073080B2FFF7C9FE328B44
:105F20000D210C2000F0A4FC308BFFF7D7FE0A20D7
:105F300003F014FD02F020F9C01B844200D8E8E60B
:105F4000AB68002BE2D1E4E69C9A0108845B002058
:105F5000E7030000C4090000C309000010B50400F5
:105F6000054B9B68002B04D0002802D10020FFF7CE
:105F7000B5FE014B9C6010BD845B002010B500286D
:105F800009D10022164B5A618030FFF7A7FE01208D
:105F9000FFF7E4FF22E0012815D1114C01236361D2
:105FA000208B7F3358402083FFF798FE238B1B06FE
:105FB00005D50B4B01229A600132DA600EE0002019
:105FC000FFF7CCFF0AE0064B9B68002B03D00020B4
:105FD000FFF7C4FF02E00120FFF7D0FF10BDC0466D
:105FE000845B002010B582B0094C1C2200212000E7
:105FF00003F07EFE0023236101930433009300230A
:10600000802252000349044803F0BEFA02B010BDDA
:10601000845B0020A8A20108F15C000870B580250F
:106020006D000F4C2900200002F066FA022002F0F9
:1060300097F88021200002F05FFA022002F090F829
:106040002900200002F05AFA022002F089F880218B
:10605000200002F053FA022002F082F870BDC04620
:106060000008004870B50600104C8021200002F0A6
:1060700045FA022002F074F880256D002900200006
:1060800002F03CFA022002F06BF88021200002F0BE
:1060900033FA022002F064F82900200002F02CFA02
