:020000040800F2
:1000000000800020590700089D080008A908000882
:1000100000000000000000000000000000000000E0
:10002000000000000000000000000000B50800080B
:100030000000000000000000C1080008CD08000812
:10004000D908000800000000C0000008C000000837
:10005000C0000008E5080008F1080008FD080008D5
:10006000000000000909000815090008210900081E
:100070002D090008390900084509000800000000A2
:10008000510900085D0900086909000875090008A0
:10009000810900088D09000899090008A5090008D0
:1000A000B1090008BD090008C9090008D509000800
:1000B000E1090008ED090008000000000000000050
:1000C000FEE7000030B5002A0ED00C008A1880210F
:1000D00089050502000E23785840543080004058AE
:1000E000684001349442F4D130BDC04630B50A4C6A
:1000F000002180256D000B060822002B02DA5B0030
:10010000434000E05B00013A002AF6D108C4013107
:10011000A942F0D130BDC04650010020F0B54F4695
:100120004646C0B483B01700019304000D00884216
:1001300027D2184E184B9946184B9846E368B3429D
:100140001AD1A3684B4517D16368434514D1144BAA
:1001500022689A4210D1019A002A02D0A38B9342BE
:100160000AD1606FFFF7C2FF7C222100206FFFF7EA
:10017000A9FFE36F984206D0E419AC42DED3002019
:1001800002E0002000E0200003B00CBC904699463D
:10019000F0BDC0460190C965ED3E4BAA19228FDF24
:1001A0003371D69D70B5002810D1194B1022194912
:1001B0001948FFF7B3FF041E23D0436902699A1A56
:1001C0000169006FFFF77EFF050012E0104B10225F
:1001D00012491048FFF7A2FF041E14D001694369B9
:1001E0005A1A80239B029C466144006FFFF76AFF06
:1001F00005000B48FFF77AFFA36F9D4205D1200051
:1002000004E0002002E0002000E0002070BDC046B5
:10021000082B00000000020800100008000004087D
:10022000B71DC104F0B5474680B4020080321D4BB3
:100230001B691B0604D51B4B1B4959601B495960A0
:100240001B4B802424059A4219D125E0B9421ED9BE
:100250004D0507D145461D61596161461961D9684F
:100260000A42FCD1D9680A42FCD11A618021890274
:10027000611809882180D9680A42FCD107E00D4E37
:100280000D4F084B01220221884640318C46023432
:100290002100A51B8542D9D18022024B1A6104BCE2
:1002A0009046F0BD0020024023016745AB89EFCDA9
:1002B000000002088000FEFFFF0F00082A4AD369F1
:1002C000802149000B43D361284B00221A809A8178
:1002D0001A825A6230321A85254ADA6201221A805D
:1002E000AA23DB00C318BA22D200811800221A8088
:1002F00002338B42FBD11F4AAA23DB00C2521E4AA3
:100300001E4BC2522D2284235B00C252164B5A69E7
:10031000802189020A435A619A698021C9010A43EE
:100320009A619023DB051868154A02401A601A6822
:100330008A20800402431A609A688A20400402439B
:100340009A60104A5A62104B00221A605A609960F3
:100350000E4A1A60D02252009A811968A03AFF3AD8
:100360000A431A607047C046001002400020004057
:10037000FFFF0000082B00000080FFFF5405000075
:10038000FFFFC3FC10010100003801400C14000005
:10039000F8B50400837904228271012B03D1043360
:1003A0008371002092E0022B0CD1494B1B691B0684
:1003B00004D5474B474A5A60474A5A600523A37100
:1003C000002083E0032B4CD10833FF33C35A0020B5
:1003D000462B7BD923000D33FF33E21D2000513023
:1003E000FF3011781970013301328342F9D186232D
:1003F0005B00E358F82212069918384A002091420F
:1004000064D8374A934228D95B050DD1304B02227C
:100410001A610B32FF32A2585A6142221A61190046
:10042000413ACB681A42FCD186235B00E058250094
:100430001135FF35CC3B9C468444254A01210F00F1
:100440006B781B022E78F31817610380D36819426A
:10045000FCD1023002356045F2D10523A3710020A2
:1004600034E0042B0DD11A4A11697C330B4313611C
:100470000020FFF797FE002827D00523A371012055
:1004800024E00020052B21D1A37A1A06637A1B04ED
:10049000D318E2799A18237A1B02D218F8231B0684
:1004A000D118104B994202D90223A3710EE0052303
:1004B000A3712500210040312000431B9B5CC372C7
:1004C00001308842F9D1472000E00020F8BDC04645
:1004D0000020024023016745AB89EFCDBFFF030039
:1004E000FF0F0008C0FF030048400823012206490F
:1004F000024203D04008484080B200E04008013B7F
:10050000002BF5D17047C04601A0FFFF70B5002950
:100510000CD0040001398DB2013545190448217809
:10052000FFF7E2FF0134AC42F9D100E0004870BDB2
:10053000FFFF000070B505000C00FFF7E7FF28552E
:10054000A61CB6B20134A4B2000A2855114A802173
:1005500007E0D3691942FCD02B781385013EB6B26F
:100560000135002E03D0D3691942F5D1F1E70949CD
:100570004022CB691A42FCD0074B5A6A92B219004A
:100580004B6A9B1A9BB2312BFAD9024B9A8C0F22E1
:100590001A6270BD0038014000200040F8B54F4697
:1005A0004646C0B40400694B9A8C0F221A6200229E
:1005B00085235B00C25265492032CB691A42FCD0C8
:1005C000634B5A6A92B2614BDB690B2119420ED11F
:1005D0005E49202685235B009C465D489025FF35BB
:1005E000FF3B994609E0CB694F461F4205D00022E8
:1005F00085235B00E2520026A2E0CB691E420DD0AB
:100600006346E35A8A8C9046E21847461771FF2BDF
:1006100002D801336246A352426A92B2436A9B1ADD
:100620009BB2AB42DFD985235B00E75A0026032F3C
:1006300000D885E0E319DD782D029B785D19ADB215
:10064000231D9846B91E89B21800FFF75FFF854247
:1006500076D12379002B04D084225200A25A9A42E8
:100660006ED1012F6BD96379042B40D10533FF3351
:10067000E35A2371A3791B02E279D3189BB2207A43
:100680000202607A801882B294469A18402A05DDE8
:1006900084236371823BA371032123E062465200ED
:1006A000A2716246002A1CD09E18B6B203225D1CBD
:1006B000AA21890089464B445B00195B531C9BB2FD
:1006C000A718080A3871023292B2E3181971ABB256
:1006D000B342ECD1634659001E4B9C46614489B23B
:1006E00000E003214046FFF725FF002628E0642BA9
:1006F00015D1A433E35A2371E42363712000FFF77B
:1007000047FE0600032805D901004046FFF712FF07
:10071000002615E003214046FFF70CFF10E084227D
:100720005200A25A22718022524213436371012364
:10073000A37103214046FFF7FDFE002600E00026DE
:1007400030000CBC90469946F8BDC04600380140C8
:100750000020004003000100F8B5454B1A68012154
:100760000A431A605868434A02405A601868424A6D
:1007700002401A601868414A02401A605868404AAC
:1007800002405A60DA6A0F208243DA62186B3D4AEF
:1007900002401A635A6B8A435A6300229A601A68AD
:1007A000802149020A431A601A0080239B021168C3
:1007B0001942FCD01122344B1A602D4B5A685A60F2
:1007C0005A685A605968314A0A405A605A68882102
:1007D00049030A435A601A68802149040A431A608F
:1007E0001A0080239B0411681942FCD0204B5A68E0
:1007F00003218A435A60596802220A435A60190049
:100800000C224B681340082BFBD1194BC022D2029B
:100810005A6101229A6180239B051E6800221A609A
:100820001B4D1C000020FFF7BDFC07000120FFF757
:10083000B9FCAE4203D0002F16D100280DD1200004
:10084000FFF73CFD2000FFF7A9FE0028FAD0114E6B
:10085000E8E7C28BFB8B9A4202D0FFF7E3FCE1E7AB
:100860000D4B1B689847FEE70028F2D1F8E7C04619
:10087000001002400CB8FFF8FFFFF6FEFFFFFBFF81
:10088000FFFFC0FFACFEFFFF00200240FF7FC0FF64
:100890009DE568C6621A973904100008014B1B6871
:1008A0009F46C04608100008014B1B689F46C04683
:1008B0000C100008014B1B689F46C0462C10000816
:1008C000014B1B689F46C04638100008014B1B684F
:1008D0009F46C0463C100008014B1B689F46C0461F
:1008E00040100008014B1B689F46C046541000088A
:1008F000014B1B689F46C04658100008014B1B68FF
:100900009F46C0465C100008014B1B689F46C046CE
:1009100064100008014B1B689F46C0466810000821
:10092000014B1B689F46C0466C100008014B1B68BA
:100930009F46C04670100008014B1B689F46C0468A
:1009400074100008014B1B689F46C04678100008D1
:10095000014B1B689F46C04680100008014B1B6876
:100960009F46C04684100008014B1B689F46C04646
:1009700088100008014B1B689F46C0468C10000879
:10098000014B1B689F46C04690100008014B1B6836
:100990009F46C04694100008014B1B689F46C04606
:1009A00098100008014B1B689F46C0469C10000829
:1009B000014B1B689F46C046A0100008014B1B68F6
:1009C0009F46C046A4100008014B1B689F46C046C6
:1009D000A8100008014B1B689F46C046AC100008D9
:1009E000014B1B689F46C046B0100008014B1B68B6
:1009F0009F46C046B4100008FFFFFFFFFFFFFFFF48
:100A0000FFFFFFFFFFFFFFFFFFFFFFFFFFFFFFFFF6
:100A1000FFFFFFFFFFFFFFFFFFFFFFFFFFFFFFFFE6
:100A2000FFFFFFFFFFFFFFFFFFFFFFFFFFFFFFFFD6
:100A3000FFFFFFFFFFFFFFFFFFFFFFFFFFFFFFFFC6
:1010000000800020D11300082114000821140008DA
:1010100000000000000000000000000000000000D0
:10102000000000000000000000000000F592000831
:10103000000000000000000061930008A593000874
:1010400021140008000000002114000821140008E9
:10105000211400082114000805810008211400084B
:101060000000000021140008211400080D390008B8
:1010700021140008211400082114000800000000B9
:10108000211400082114000821140008211400086C
:10109000211400082114000821140008211400085C
:1010A000211400082114000821140008E56D00082F
:1010B00021140008F56D000800000000FFFFFFFF8D
:1010C00002780B78002A03D0013001319A42F7D020
:1010D000D01A70470023C25C0133002AFBD1581E8E
:1010E00070470000002243088B4274D303098B42EF
:1010F0005FD3030A8B4244D3030B8B4228D3030CE8
:101100008B420DD3FF22090212BA030C8B4202D389
:101110001212090265D0030B8B4219D300E0090AB1
:10112000C30B8B4201D3CB03C01A5241830B8B42BA
:1011300001D38B03C01A5241430B8B4201D34B03A3
:10114000C01A5241030B8B4201D30B03C01A524108
:10115000C30A8B4201D3CB02C01A5241830A8B428D
:1011600001D38B02C01A5241430A8B4201D34B0276
:10117000C01A5241030A8B4201D30B02C01A5241DA
:10118000CDD2C3098B4201D3CB01C01A524183098E
:101190008B4201D38B01C01A524143098B4201D3C8
:1011A0004B01C01A524103098B4201D30B01C01AF3
:1011B0005241C3088B4201D3CB00C01A524183086D
:1011C0008B4201D38B00C01A524143088B4201D39A
:1011D0004B00C01A5241411A00D2014652411046FA
:1011E0007047FFE701B5002000F0F0F802BDC046EF
:1011F0000029F7D076E7704703460B437FD40022DF
:1012000043088B4274D303098B425FD3030A8B429A
:1012100044D3030B8B4228D3030C8B420DD3FF2204
:10122000090212BA030C8B4202D31212090265D0D2
:10123000030B8B4219D300E0090AC30B8B4201D385
:10124000CB03C01A5241830B8B4201D38B03C01ACC
:101250005241430B8B4201D34B03C01A5241030B43
:101260008B4201D30B03C01A5241C30A8B4201D3F4
:10127000CB02C01A5241830A8B4201D38B02C01A9F
:101280005241430A8B4201D34B02C01A5241030A16
:101290008B4201D30B02C01A5241CDD2C3098B42FB
:1012A00001D3CB01C01A524183098B4201D38B0178
:1012B000C01A524143098B4201D34B01C01A52411B
:1012C00003098B4201D30B01C01A5241C3088B4260
:1012D00001D3CB00C01A524183088B4201D38B004B
:1012E000C01A524143088B4201D34B00C01A5241ED
:1012F000411A00D201465241104670475DE0CA0FC4
:1013000000D04942031000D34042534000229C4683
:1013100003098B422DD3030A8B4212D3FC2289018D
:1013200012BA030A8B420CD3890192118B4208D363
:10133000890192118B4204D389013AD0921100E0C5
:101340008909C3098B4201D3CB01C01A52418309D9
:101350008B4201D38B01C01A524143098B4201D306
:101360004B01C01A524103098B4201D30B01C01A31
:101370005241C3088B4201D3CB00C01A52418308AB
:101380008B4201D38B00C01A5241D9D243088B4201
:1013900001D34B00C01A5241411A00D201466346A4
:1013A00052415B10104601D34042002B00D5494208
:1013B000704763465B1000D3404201B5002000F047
:1013C00005F802BD0029F8D016E770477047C046FF
:1013D0000D488546002103E00C4B5B584350043117
:1013E0000B480C4B42189A42F6D30B4A02E00023FA
:1013F00013600432094B9A42F9D307F0C9F808F098
:1014000067FE01F001FBFEE70080002070AA0108E2
:101410000000002034030020340300200871002065
:10142000FEE7000030B5002A0CD00C008A180649EF
:101430000502000E2378584080004058684001346F
:101440009442F5D130BDC0469822002030B50A4CF8
:10145000002180256D000B060822002B02DA5B00BC
:10146000434000E05B00013A002AF6D108C4013194
:10147000A942F0D130BDC0469822002030B5002AE4
:1014800013D00D00013A92B201328918030A2A786A
:1014900053401C096340000258401C0360405B013C
:1014A000434098B201358D42F0D130BDF0B557467A
:1014B0004E464546E0B486B007000D0016001422E3
:1014C000784901A808F00BFEBC00E4190134E20FD2
:1014D00014196410744BDB8B4C2B17D1C8225200AB
:1014E0003B00C33BFF3B9BB293420FD80A2138001D
:1014F000FFF7F8FD80B22D3840006A4B1818848A37
:10150000A3001C190134E20F14196410674B5B6AC5
:101510009846002E35D05E23654AD35A002B2DD134
:10152000614B9A46988A0121494203F053F883009F
:1015300018180130C30F181840100A235B424343A8
:1015400099465346588A012103F044F8830018183D
:101550000130C30F181840108300181840004B4684
:10156000C01A3F224346134058432030C31713404C
:101570001818801148444E4B186601E04C4B186E09
:101580002418002F02D0002D0BDB00E000256D0099
:1015900001ABE85A830018184000012501277F425B
:1015A00009E06D426D0001ABE85A83001818400055
:1015B00001256D420127002E3FD05E233C4AD35ABD
:1015C000002B29D1384B1B8B022B06D0032B08D0C4
:1015D000012B0AD11421002709E028210A277F4284
:1015E00005E03C2114277F4201E00021002743460B
:1015F0009A04920EC91B4A4313002033DA173F2185
:101600000A40D3189B11DB19274AD28A002A00D13D
:101610005B42274A536601E0254B5B6E002D01DDDE
:10162000C01800E0181A002804DA404201256D4273
:10163000012702E0012501277F426043F530FF309A
:10164000FA218900FFF74EFD4543784300192C1914
:10165000184B9C4200DD1C00F423FF339C4201DC4C
:10166000FA246400134B984200DD1800F423FF3382
:10167000984201DCFA204000A2B20D4CA28685B24D
:10168000E5861021102005F0EFFA2A001021112024
:1016900005F0EAFA5E23E65206B01CBC9046994675
:1016A000A246F0BDE0A20008082200200010004081
:1016B000C8260020C409000010B540221C490020A3
:1016C00005F084F8002814D1194B1B884F2B10D932
:1016D0001848174B78229A5A12047A21595A5218EC
:1016E00002657C22995A090402329A5A8B18836047
:1016F00004E0802200210E4808F0FAFC0C4B1B8904
:10170000012B03D802220A4B1A8104E00A2B02D9CA
:101710000A22074B1A81064B2D229A800022DA807A
:101720001A82DB89012B01D9014BDA8110BDC04639
:1017300008220020C826002030B583B00C490D4B8C
:101740005A880A800C4A106D050C78240D53023417
:1017500008539268140C7C200C5202300A521B88E9
:10176000009300234022002005F080F803B030BD34
:1017700008220020A8260020C826002030B500231B
:101780003F2812D83B280DD9094A116D094B0D0C81
:1017900078241D53023419539268140C7C215C5236
:1017A00002315A524000034BC35A180030BDC046A4
:1017B000C82600200822002010B5002801D1064BC1
:1017C0009888054B5B88002B05D0000105300A2165
:1017D000FFF712FD80B210BD08220020014B062049
:1017E000185E70470822002010B5074BD88E9B8EDC
:1017F000C0180A301421FFF7FFFC0130400005211A
:10180000FFF7FAFC80B210BDC826002070B50F4B60
:10181000DD8E9A8EAB18013359080020002913D0B1
:10182000954209D26424280060439B08C018FFF742
:1018300059FC201A00B207E0642462439B08D018C8
:10184000FFF750FC001B00B270BDC046C826002048
:1018500000230F2802D84000014BC35A18007047DC
:10186000A826002010B50B00034A5086034A002129
:10187000180004F0BDFB10BDC82600208D1A00081A
:101880007423014AD05A7047C8260020002804D08B
:10189000034A136D506D181A01E0014B186D704723
:1018A000C8260020002802D0024B986D01E0014BB1
:1018B00098687047C8260020034B586518650121B9
:1018C0005C2299527047C046C8260020024B98609F
:1018D00001215C2299527047C826002070B5102162
:1018E000102005F09FF905001321102005F09AF94A
:1018F000854202D3281A85B201E0401B85B210212F
:10190000112005F08FF904001321112005F08AF948
:10191000844202D3201A83B201E0001B83B200206C
:10192000322B03D83223AB42404180B270BDC04657
:10193000F8B5144801F06EF9134E0024134D37002A
:1019400000213F2C0ED83B2C0BD92B6D190C782283
:10195000B9520232BB52AB68190C0232B952023290
:10196000BB5231880A4801F055F90134A4B202365D
:10197000402CE5D1074801F04DF900216823034AC6
:10198000D152F8BDBCA0010808220020C8260020C2
:10199000C4A00108C8A0010870B504000D003F28CC
:1019A0000ED84300074A9B5A8B4206D0064E0122AE
:1019B0006823F25206F0DCFDF0666400014BE5524C
:1019C00070BDC04608220020C826002070B52D4BEF
:1019D00099881A8C63280AD1481C00B22A4B3821F6
:1019E0005B5E591D0025884212DD08B210E003003D
:1019F00063330AD1481E00B2234B38215B5E591F66
:101A00000025884204DA08B202E0081800B2012575
:101A1000041C632800DD632424B2182C00DC192484
:101A20001300193B9BB2492B05D812B2231C9442D8
:101A300000DD131C1CB2134BDB8B002B06D0221CC9
:101A4000552C00DD552214B24C2B07D02C2C00DC79
:101A50002D24231C552C00DD55231CB2210002200F
:101A6000FFF79AFF002D01D0074B1C87054B1A8A00
:101A70000620195E98888300C018400080B2FFF7E6
:101A800015FD70BD08220020C826002010B5154B9A
:101A9000DB8D002B24D0134A108E012806D002388B
:101AA00042425041404200281AD000E001200D4A35
:101AB000528E022A14D801339BB20A4AD385032BD3
:101AC00003D98300C01800B203E0022B01D9400003
:101AD00000B2FFF77BFF044A0021002004F088FADF
:101AE00010BDC046C82600208D1A000810B5462338
:101AF000574AD35A002B2BD106F03AFD544BDB6BDF
:101B0000C01A544B984200D885E0102005F084FE9E
:101B1000002800D17FE0112005F07EFE00287AD059
:101B20004B4C01224623E2520821102005F07AF89E
:101B30004C23E052043BE0520821112005F072F8DA
:101B40004E23E052043BE05206F012FD206462E0B6
:101B5000012B14D10821102005F064F800285AD078
:101B600048223B498A5A824255D00C004C23C85225
:101B70000222063BCA5206F0FBFCE0634BE0022B5C
:101B800033D10821112005F04DF8002819D04A2240
:101B90002F498A5A824214D00B004E2288520A6D75
:101BA00001320A65032146229952002118329952C6
:101BB0000020FFF70BFF00220121002004F018FA9B
:101BC00029E006F0D5FC224BDB6BC01A224B984271
:101BD00021D91F4C03224623E25206F0C9FC20649F
:101BE0004422A35A0133A35215E0032B13D1184CFE
:101BF00001224333E2520821102005F013F84C2350
:101C0000E052043BE0520821112005F00BF84E236E
:101C1000E052043BE05244230D4AD35A002B16D025
:101C200006F0A6FC0A4B1B6CC01A0C4B984204D859
:101C30004423074AD35A232B09D9054C00224423B5
:101C4000E25206F095FC206401225C23E25210BDB2
:101C5000C8260020CF070000DB0500005FEA000077
:101C600010B50B4BDB88181800B2031C092800DDE7
:101C70000923191C1BB2093301DA064B198809B272
:101C80000320FFF789FE0020FFF7A0FE10BDC0462D
:101C900008220020B8A0010810B53B283BD88AB222
:101CA00043001D4C1B5B934235D00E282DD883007A
:101CB0001A4CE3589F464B1E9941174B598024E01C
:101CC000154B9888101A00B2FFF780FE1DE0124BEA
:101CD000D888101A00B2FFF7C3FF16E040000E4B81
:101CE000C25212E040000C4BC2520D4B994203D13C
:101CF000012004F03FFB08E0002906D1002004F099
:101D000029FB02E04000044BC25202F073FD0121A6
:101D10000020FFF7A7FD10BD082200204CA20008FC
:101D2000FF03000070B50400C54B5A8E062A00D987
:101D300082E29300C34AD3589F46002804D1012170
:101D40000020FFF78FFD2DE3032809D10120404239
:101D500006F08AFA00220021002004F049F921E36C
:101D6000042808D1012006F07FFA0022002100207B
:101D700004F03EF916E3012800D013E3002006F03A
:101D800033FA0FE30C2805D1AF4A0021002004F0FC
:101D90002FF916E0012808D10120FFF717FEAA4A03
:101DA0000021002004F024F916E0022809D10120C6
:101DB0004042FFF70BFEA44A0021002004F018F96E
:101DC00016E0032C08D10120FFF74AFF9E4A0021AC
:101DD000002004F00DF9E5E2042C09D10120404275
:101DE000FFF73EFF984A0021002004F001F9D9E2F4
:101DF000002C00D0D6E201210020FFF733FDD1E214
:101E0000012804D10121002004F016F9CAE20228B9
:101E100004D10221002004F00FF9C3E203280CD101
:101E200004F0F4F8052104F007F90E2800D8B9E20F
:101E300001210020FFF716FDB4E2042800D1BCE127
:101E4000002800D0AEE204F0E9F80400050004F038
:101E5000DDF80E2800D9A5E280007C4B1B589F4678
:101E60007B4BDB8B002B1ED04C2B1CD0002C04D1C9
:101E70000421080004F0E0F80DE0012C04D1042155
:101E8000092004F0D9F88DE2022C04D104210A20A3
:101E900004F0D2F886E2032D00D083E204210D2065
:101EA00004F0CAF87EE2002D04D10421012004F0E0
:101EB000C3F80DE0012D04D10421080004F0BCF8A2
:101EC0000DE0022D04D10421092004F0B5F869E2E7
:101ED000032D04D104210A2004F0AEF862E2042D9F
:101EE00000D05FE204210D2004F0A6F85AE2A11C04
:101EF00009B20420FFF750FD0421022004F09CF8F1
:101F000050E26142614109B20520FFF745FD04211D
:101F1000032004F091F845E221B20620FFF73CFDD2
:101F20004BE121B20820FFF737FD00215E23444A30
:101F3000D1520020FFF74AFD454BDB8B002B09D027
:101F40004C2B07D0002C00D137E10421062004F0EF
:101F500073F827E2002D00D12FE10421052004F0C1
:101F60006BF81FE221B20B20FFF716FD00215E2364
:101F7000334AD1520020FFF729FD0421062004F046
:101F80005BF80FE221B20920FFF706FD00215E2376
:101F90002B4AD1520020FFF719FD0421072004F03D
:101FA0004BF8FFE121B20A20FFF7F6FC00215E2387
:101FB000234AD1520020FFF709FD0421082004F034
:101FC0003BF8EFE121B20C20FFF7E6FC00215E2395
:101FD0001B4AD1520020FFF7F9FCEEE0002C00D0A4
:101FE000DAE100210120FFF7D7FCE6E0012108003B
:101FF000FFF7D2FCE1E0164BDB8B002B39D04C2BEA
:1020000037D0002C06D105F057FD07210520FFF73A
:1020100029FCC7E1012C04D103210220FFF722FC97
:10202000C0E1022C04D102210120FFF71BFCB9E121
:10203000032C0FD108210520FFF714FCB2E1C046A4
:10204000C826002088A200088D1A0008A4A2000853
:1020500008220020042C04D109210520FFF702FCEE
:10206000A0E1052C00D09DE10A210620FFF7FAFB34
:1020700098E1002D04D104210B2003F0DDFF91E154
:10208000012D06D105F018FD07210520FFF7EAFB19
:1020900088E1022D04D104210C2003F0CDFF81E161
:1020A000032D04D103210220FFF7DCFB7AE1042D8C
:1020B00004D104210220FFF7D5FB73E1052D04D1E3
:1020C00002210120FFF7CEFB6CE1062D04D108218F
:1020D0000520FFF7C7FB65E1072D04D10921052085
:1020E000FFF7C0FB5EE1082D00D05BE10A2106206E
:1020F000FFF7B8FB56E121B21120FFF74DFC60421B
:10210000604180B201F02EFA01215C23A64AD1522F
:1021100053E021B20D20FFF73FFC200006F0D8F875
:1021200001215C23A04AD15247E0002C00D036E1C7
:102130009D4B1A6D5A6540E000229B4B9A653CE02E
:10214000002C0CD143210F20FFF726FC01215C233A
:10215000954AD1520B310520FFF784FB1DE0012C7D
:102160000CD148210F20FFF717FC01215C238E4A78
:10217000D1520C310520FFF775FB13E1022C0CD175
:102180004C210F20FFF708FC01215C23864AD15225
:102190000D310520FFF766FB04E1032D00D001E1BE
:1021A00000210F20FFF7F8FB01215C237E4AD1526A
:1021B0000D310520FFF756FBF4E001210020FFF769
:1021C00051FBEFE0002800D0ECE0BFF34F8F774ADF
:1021D000774BDA60BFF34F8FFEE702280BD801215F
:1021E0000020FFF73FFB002174236F4AD1520020EB
:1021F000FFF7ECFBD6E003280DD16B4B1B8ADB0607
:1022000003D401217423684AD15200220021002006
:1022100003F0EEFEC6E0042800D0C3E0624B1B8A48
:102220001B0703D4012174235F4AD15200220021ED
:10223000002003F0DDFEB5E00A2C0AD1002004F0F6
:1022400089F80322584B5A860321002003F0F4FE3C
:10225000A8E0002C03D1002004F07CF80FE00B2C48
:1022600003D1022004F086F813E0062C07D1514B6D
:102270009B89002B1CD0012004F07CF818E0072C6F
:1022800007D14C4B9B89002B22D0002004F072F820
:102290001EE0082C0CD1474B9B89002B02D06320F9
:1022A000FFF794FB00220021002003F0A1FE35E09F
:1022B000092C0DD13F4B9B89002B03D0632040425A
:1022C000FFF784FB00220021002003F091FE4CE088
:1022D000012C23D10120FFF779FB374A0021002090
:1022E00003F086FE304B1B8A0E221A420AD1314B74
:1022F0000421595E1020FFF74FFB01215C232A4A7D
:10230000D1523DE016221A423AD100211020FFF7A7
:1023100043FB01215C23244AD15231E0022C24D119
:1023200001204042FFF752FB234A0021002003F026
:102330005FFE1D4B1B8A0E221A420AD11D4B04213F
:10234000595E1020FFF728FB01215C23164AD15269
:1023500028E016221A4225D100211020FFF71CFB8D
:1023600001215C23104AD1521CE0032C08D101202A
:10237000FFF776FC104A0021002003F039FE11E03F
:10238000042C0FD101204042FFF76AFC0A4A0021C9
:10239000002003F02DFE05E0012C03D126E6012CE0
:1023A00000D1C9E670BDC046C82600200400FA0569
:1023B00000ED00E0082200208D1A0008F0B55F460D
:1023C00056464D464446F0B48DB030220021684652
:1023D00007F08EFE844B0093844B0193844B029351
:1023E000844B0393844B0493844B0593844B069353
:1023F000844B07939023DB051B8A5B07DB0F1B01D4
:102400009846814B1B8A1B0603D5022342461A437A
:1024100090467D4B1B8ADB0503D5042342461A43B5
:1024200090469023DB051B8A9B0703D50823424671
:102430001A439046744B1B8A9B0503D501234246E1
:102440001A4390469023DB051B8A9B0603D5202365
:1024500042461A43904605F033FF002806D0013863
:1024600040238340424613439BB2984601250026F1
:102470000124664B99469A4602E001360135ADB219
:10248000B7B23204120C130008335B004B445B8874
:102490005B009BB241460C4207D111000831490054
:1024A0005A48844661444B8006E0110008314900D7
:1024B0005144012003434B80130008335B00534910
:1024C000CB185988072001405980072924D14F4B48
:1024D0001B8A1C4200D07CE023434C4A1382052F08
:1024E0000ED1538D002B03D10122484B5A8560E059
:1024F00003F0D4FD002003F02DFFFFF71DF958E095
:10250000002F5BD1414B00229A851B8E002B35D1C9
:1025100000223E4BDA852FE000292DD13B4B1B8A50
:102520001C4250D039498B46A3430B8292006B4624
:10253000D158374800F06EFB01235A46D3851786E1
:102540003800FFF7EFFB002F2DD1304F0123BB8563
:1025500006F00EF8FB68C31A9B467B8E002B0DD14C
:1025600006F006F8294BD860FA239B009B4505D856
:102570000B20FFF7D7FB01E0002F14D1234B1B8A60
:10258000234223D1214B9B8D002B1FD001339BB2C3
:102590001E4A9385642B19D900221C4B9A850A2068
:1025A000FFF7C0FB12E06400A4B20B2D00D864E773
:1025B00012E0164B1B8E052BAAD0F4E7134B1B8E93
:1025C000BB42F0D1A4E7002FEDD1DBE76400A4B259
:1025D00053E7002FE7D1F9E70DB03CBC9046994690
:1025E000A246AB46F0BDC046CCA00108D4A001086D
:1025F000D8A00108E0A00108E8A00108F0A00108A7
:10260000F8A0010800A1010800040048C826002025
:1026100008A10108F0B5474680B40121E24806F060
:1026200049F801218020000106F052F801218020A4
:10263000800206F0B7FA01218020C00206F0B2FA4B
:1026400001218020000306F0ADFA01218020400323
:1026500006F0A8FA0121012006F0B2FAE1204002BA
:1026600000F090FFD14EF78B310020313A00D04876
:1026700000F0D0FACF4D78220021280007F038FD75
:10268000CD4B596A2960802252045A62CB4800F02F
:10269000C1FACB48FEF7DAFE05F0F0FEC94805F0B6
:1026A0005BFFC94C20220021200007F021FDB38BE5
:1026B000238067802B681A0CA283E383C34B1B68BB
:1026C0001A0C22826382C24B1B681A0CA282E3821C
:1026D000C04B1B681A0C2283638305F0E3FF208143
:1026E00005F0DAFF60810004020C2189BA4800F08D
:1026F00091FABA4C002626710127E771B84B236086
:102700009025ED052100280006F09AF8C3235B010F
:1027100023602100B34806F093F8B34B23602100F7
:10272000B24806F08DF82671E77166232360210018
:10273000280006F085F8E0239B0023602100A948CB
:1027400006F07EF82B8A9B0706D42B8A5B0703D4FE
:1027500001217623974AD1529026F6054021300078
:1027600006F0C8F89D4C0025A571E5710127277179
:102770004023236065712100300006F061F80323D7
:1027800023717D3323602100300006F059F8A571D4
:10279000E57127710C2323606571944D2100280099
:1027A00006F04EF80421280006F0A2F808212800BF
:1027B00006F0A0F804F016F9FEF77EFF05F0ACF97C
:1027C00005F0FCFD8A4C608B05F082FD03F006FEEF
:1027D00003F026FB638C002B02D0002000F0C2FE29
:1027E000844806F09BF8072006F09EF8FA2006F0D1
:1027F000A1F8002006F092F806F0AAF806F0A0F87A
:1028000005F0B6FE050000227B4B1A80694C236D53
:1028100063650020FFF7DAF87623E35A002B06D031
:1028200004210E2003F008FC0322624B5A86614B00
:1028300098461F001C00022007F090FA05F042FEA7
:1028400000F08CFCFFF7BAFD04F048F8FFF74EF9F2
:1028500005F08EFE401BF423FF3398421AD9F5355C
:10286000FF350C20FFF75EFA43469A8E10211020A8
:1028700004F0FAF94346DA8E1021112004F0F4F93D
:1028800002220921102004F0EFF90222092111206F
:1028900004F0EAF905F074FE7B68984211D0013328
:1028A0006360A3680133A360A36D581CA0653C213D
:1028B000FEF79EFC1E2904D100221D39002003F0E2
:1028C00097FBFFF70BF8002809D0484E082130008D
:1028D00006F00EF80421300006F00CF808E0434E34
:1028E0000821300006F006F80421300006F000F858
:1028F00006F026F85C232F4AD35A002B04D000217F
:102900005C23D152FEF718FF74232A4AD35A012BB5
:102910000CD1160002227333F25205F029FE306703
:10292000002200213548FEF7C1FD2CE0022B14D116
:1029300005F01EFE1F4B1B6FC01A314B984222D967
:1029400005F016FE1B4E3067002200212D48FEF7D1
:10295000ADFD03227423F25215E0032B13D105F0D1
:1029600007FE144B1B6FC01A254B98420BD905F07C
:10297000FFFD104E3067002200212048FEF796FD33
:1029800002227423F25268230A4AD35A002B00D140
:1029900051E705F0EDFD074BDB6EC01A312800D87A
:1029A00049E7FEF7C5FF46E733100000089F01081E
:1029B00024A10108C82600200010024038A1010807
:1029C000B71DC10488130000A8260020ACF7FF1F24
:1029D000B0F7FF1FB4F7FF1F4CA1010860270020CC
:1029E00019090000000400483FE200000008004808
:1029F0000822002055550000000000208A02000037
:102A00000F270000EE02000000B583B00023019301
:102A10000093802252000349034806F0B5FF07F0F7
:102A20007FF8FEE774A101081526000810B5194BC0
:102A3000194AD35A002B2BD00D2829D0174BD35825
:102A4000002B0ED0164A14498A5A012A20D90A00AE
:102A50005C1C1249545018701149535A013B53528F
:102A600016E0104B0C4AD15A4B1C9BB20E4A9342B3
:102A700000D900230D4A084CA25A92B2934202D0C8
:102A80006054084963520A4A116880230B4313605B
:102A900010BDC0463E100000202800203810000065
:102AA0003C10000026100000FF030000281000006A
:102AB0000050004010B504000078002805D0013413
:102AC000FFF7B4FF20780028F9D110BDF0B55F46BC
:102AD0004E464546E0B482B004000091019298460B
:102AE0000B00083B082B01D90A23009300261A4B40
:102AF0009B461A4F00E04E46731C99465B46F518FC
:102B000000992000FEF774FB7B5C2B70009920007D
:102B1000FEF7E8FA041EEED1019B99450BDA20344A
:102B20004346002B00D01034019F2000FFF77EFFAA
:102B3000013FB945F9DB4B46002B07DD064CA05D94
:102B4000FFF774FF013E731C002BF8DC02B01CBCC5
:102B500090469946A346F0BD1028002048A30008DF
:102B6000F0B55F4656464D464446F0B483B0040087
:102B70000091019298460B00083B082B01D90A23CB
:102B8000009300239B46002C02DA644201339B46EB
:102B900000261E4B9A461E4B994600E03E00771CCD
:102BA0005346F51800992000FEF70CFC4B465B5C81
:102BB0002B7000992000FEF71FFB041EEED15B4630
:102BC000002B03D02D22114BDA55B71C019BBB42C1
:102BD0000BDD20254346002B00D01035019C28003A
:102BE000FFF724FF013CA742F9DB7C1E002F05DD27
:102BF000064D285DFFF71AFF013CFAD203B03CBC3A
:102C000090469946A246AB46F0BDC046102800202B
:102C100048A300080FB4F0B585B00AAB80CB03938E
:102C2000387800286DD000230193012464420025E8
:102C30002026002D08D125285AD0FFF7F7FE0023C3
:102C400001930124644258E0252803D1FFF7EEFEEA
:102C5000002552E064280AD1039B1A1D03921868CC
:102C6000019B22000A21FFF77BFF002545E0752824
:102C70000AD1039B1A1D03921868019B22000A21A6
:102C8000FFF724FF002538E00300B343582B0AD197
:102C9000039B1A1D03921868019B22001021FFF765
:102CA00015FF002529E0732807D1039B1A1D039205
:102CB0001868FFF7FFFE00251FE0632807D1039B7C
:102CC0001A1D03921868FFF7B1FE002515E00025D4
:102CD0000300303B092B10D8002C02DA01230193AA
:102CE0000024A3001B195B003038C418012504E040
:102CF000002301930124644201250137387800281C
:102D000097D105B0F0BC08BC04B01847F0B55F46D9
:102D100056464D464446F0B48FB001284CD00028AA
:102D200005D0022875D0032800D19FE0D0E06C4B7D
:102D3000DC8B0E20FEF78CFD0C900F20FEF788FD3B
:102D40000D900820FEF784FD05000920FEF780FDA8
:102D500006000A20FEF77CFD07000B20FEF778FD39
:102D600080460C20FEF774FD81460D20FEF770FDB5
:102D700082460020FEF78AFD83460020FEF792FD82
:102D80000B900D20FEF7FAFC08903C210B98FEF703
:102D9000A9F9079059460691514605914946049173
:102DA000414603910297019600950D9B0C9A2100D4
:102DB0004C48FFF72FFF8BE01021102003F032FF6B
:102DC0000B901321102003F02DFF0C9016211020E2
:102DD00003F028FF06001821102003F023FF07004E
:102DE0001D21102003F01EFF04001E21102003F0FF
:102DF00019FF05001F21102003F014FF0390029516
:102E00000194009733000C9A0B993748FFF702FFA3
:102E10005EE01021112003F005FF0B90132111201B
:102E200003F000FF0C901621112003F0FBFE0600BA
:102E30001821112003F0F6FE07001D21112003F0D8
:102E4000F1FE04001E21112003F0ECFE05001F21FD
:102E5000112003F0E7FE03900295019400973300E0
:102E60000C9A0B992148FFF7D5FE31E004210C2084
:102E700003F0D8FE0B9005210C2003F0D3FE0C903C
:102E800008210C2003F0CEFE0D9009210C2003F048
:102E9000C9FE07000A210C2003F0C4FE04000B2128
:102EA0000C2003F0BFFE05000C210C2003F0BAFE3D
:102EB00006000D210C2003F0B5FE04900396029548
:102EC000019400970D9B0C9A0B990948FFF7A2FEFD
:102ED0000FB03CBC90469946A246AB46F0BDC046FA
:102EE000089F01087CA10108BCA10108E0A101081C
:102EF00004A20108F0B54F464646C0B483B017009F
:102F0000019304000D00884227D2184E184B9946B1
:102F1000184B9846E368B3421AD1A3684B4517D1C2
:102F20006368434514D1144B22689A4210D1019A28
:102F3000002A02D0A38B93420AD1606FFEF786FA73
:102F40007C222100206FFEF76DFAE36F984206D0D5
:102F5000E419AC42DED3002002E0002000E02000B3
:102F600003B00CBC90469946F0BDC0460190C965BF
:102F7000ED3E4BAA19228FDF3371D69D10B5002884
:102F80000FD1164B102216491648FFF7B3FF041E47
:102F90001ED0436902699A1A0169006FFEF742FA6E
:102FA00011E00E4B102210490D48FFF7A3FF041E3D
:102FB00010D0016943695A1A80239B029C466144E0
:102FC000006FFEF72FFAA36F984205D1200004E0AE
:102FD000002002E0002000E0002010BD082B0000CF
:102FE000000002080010000800000408F0B5474681
:102FF00080B41D4BC4181D4B9C4231D8C3072FD43D
:103000001B4B1B691B0604D5194B1A4C5C601A4CF0
:103010005C60002A1FD00026154C02239C464033DA
:1030200098460125430507D1634623616061434605
:103030002361E3681D42FCD18B195B781B028F5D15
:10304000FB1825610380E3681D42FCD10236B6B24D
:103050000230B242E6D8064A116980230B4313615D
:1030600004BC9046F0BDC0460000FEF7FFFF010023
:103070000020024023016745AB89EFCD70B5010008
:10308000861C002000240D782A00303AD3B2092B88
:1030900001D9373DEBB20F2B04D9203BDBB20F2B0C
:1030A00000D923000001C318D8B20131B142EAD1DE
:1030B00070BDC046F0B5474680B482B004000190B0
:1030C0008C46224B224A9A5A92B222495B5A9A4221
:1030D00030D01F4A1D49885A80B26246002A2BD040
:1030E00083422BD021000025184F1B4E5A1C92B250
:1030F000FB188024E400A04643441C781300B2422D
:1031000000D900233B2C03D0232C01D00D2C07D158
:10311000002201994A550F4A0C498B52280010E0B1
:103120000135ADB20C70AC450AD001318342DDD11E
:10313000002006E0002004E0002002E0002000E083
:10314000002002B004BC9046F0BDC04620280020FC
:103150002A1000002C100000FF010000F0B55F46AF
:1031600056464D464446F0B485B0C94B8222120102
:10317000944663440193C74BC74A94466344029301
:10318000822212019C466244039218E1C023DB00B4
:10319000BF4AD35AC14A934206D1C149CA8B203192
:1031A000C048FFF737FD0AE1BF4A934202D1FEF75C
:1031B000BFFB04E1C022D200B5498A5C402A5DD140
:1031C000BA4BCB5C002601241F2B3CD84DE00134C8
:1031D000A4B220002B19C022D200944663441B786D
:1031E0001F2B02D9303B092BF1D8C023DB009C46B2
:1031F0006044C01906F06DFF01B23000FEF74CFDCF
:103200003B19C022D200944663441B78303B092B03
:103210000BD89F4A0134A4B21319C021C9008C46AF
:1032200063441B78303B092BF4D90136B6B2402EEB
:103230001BD0974B1B19C022D200944663441B78C5
:103240001F2B04D811E0924B98461D001F00200050
:1032500043461B19C022D200944663441B781F2B9F
:10326000C3D9303B092BB2D8BFE700220021002090
:1032700002F0BEFE8E48FFF7CDFCA0E08D4A9342DF
:1032800003D1002003F076F899E08B4A93420CD1E9
:103290000120FFF773FE002803D08848FFF7BAFC2F
:1032A0008DE08748FFF7B6FC89E0864A934216D145
:1032B000784806F00EFF040081235B0102990A00A2
:1032C000D0500022804BCA5280221201FF21039865
:1032D00006F00EFF21007D48FFF79CFC6FE07C4A62
:1032E000934214D17B48FEF7B1F8694C764BE25A11
:1032F00082231B01E11801204042FEF793F80200EF
:1033000081235B01E1587448FFF784FC57E0734A5E
:10331000934210D16C4B5E4AD25A043B5C49C85868
:1033200080239B029C4660440199FFF75FFE6C4836
:10333000FFF770FC43E06B4A934228D16A48FFF7DD
:103340009DFE83B29946002B39D004260024504BB1
:103350009B465D4F654B9A46D8465B46DD5B5545BF
:103360000ED86B1C4246D353C023DB00F0184044F8
:10337000FFF784FE454482231B019C466544287068
:103380000134A4B20236B6B2A145E6D817E0584AD5
:1033900093420BD1574A80239B051A60BFF34F8F8E
:1033A000554A564BDA60BFF34F8FFEE7544A9342BB
:1033B00005D1384806F08DFE80B2FFF7A7FC8021CA
:1033C00089005048FFF776FE002800D0DEE605F0C1
:1033D000CFF84D4B984204D901214C4B2C4AD15285
:1033E00005E04A4B2A4AD35A002B00D1ADE0284AC7
:1033F00082235B01D15A052900D9A6E08B00444AFB
:10340000D3589F462021434805F074FA05F0B0F8E0
:103410001F4B414A98500121043A995295E005F01A
:10342000A7F83D4B1A4AD358C01A182800D88CE088
:103430002021384805F05CFA05F09AF8144B364A1A
:1034400098500221043A99527FE005F091F8324BEE
:103450000F4AD358C01AF423FF33984275D90D2070
:10346000FEF78CF901002D48FFF7D4FB03218223DE
:103470005B01074AD15268E02948FFF7CBFB05F012
:1034800077F8034B244A98500421043A99525CE09F
:1034900020280020232E0020FDF9FFFF6476000085
:1034A000089F010824A101086773000001060000BD
:1034B00028A201085E5E00006673000030A20108C9
:1034C00040A20108666100002410000058A2010813
:1034D00066630000B71DC10468A2010866700000A1
:1034E0007CA201087B7B0000222E0020FF07000049
:1034F00066780000621A97390400FA0500ED00E0D2
:1035000069720000202E0020C40900003E10000057
:103510005CA3000800040048441000008CA20108CD
:103520009CA2010805F024F80B4B0C4AD358C01A92
:10353000F423FF33984208D905F01AF8064B074ADE
:10354000D0502021064805F0D5F905B03CBC904686
:103550009946A246AB46F0BD44100000202800204A
:1035600000040048002805D0002182235B01044AA2
:10357000D15204E0042182235B01014AD1527047F9
:1035800020280020F0B5474680B48046234A002119
:10359000234806F0ADFD01218020400305F01EFB0D
:1035A000204E04220321300005F0A6F90422042154
:1035B000300005F0A1F91C4C0025A571E57102232E
:1035C000237116332360012767712100300005F055
:1035D00037F92023236027712100300005F030F9EE
:1035E0002021300005F084F9104943460B604D60FE
:1035F0008D60CD604D610C230B610D4C200005F0FA
:1036000061FC0121200005F0CBFC012209492000CA
:1036100005F004FD04BC9046F0BDC0464810000013
:103620002028002000040048602700207C2700207C
:103630000050004005010500F0B5284BDA69186814
:10364000130702D00F21254B1962930620D5234B77
:103650009C8CA4B2224B2349CB5A01339BB2224902
:103660008B4200D9002321491E4D695A994209D045
:103670001B4EA95B69188027FF00BC4661440C7093
:10368000AB5305E0174B0021184C1953144C195338
:10369000030622D5130620D5124A154BD35A9BB2E6
:1036A0001449525A9A4213D00E4B11495A5A92B2A7
:1036B000501C80B25852985C084A10855B5A9BB2E5
:1036C0000D4A934209D90021094B064AD15204E020
:1036D000024A136880218B431360F0BD0050004004
:1036E0002A10000020280020FF0100002C100000FC
:1036F0002810000026100000FF03000070B5802590
:10370000ED00084C2900200005F0F4F8022006F036
:1037100025FB2900200005F0EBF8022006F01EFB37
:1037200070BDC0460004004810B5040002210E48D8
:1037300005F0E0F8012004F00FFF21000B4805F030
:10374000BFFA052004F008FF084C8021200005F096
:10375000C3FA0028F9D10221034805F0C9F8012075
:1037600004F0FAFE10BDC0460004004800380040D6
:1037700010B504000421054805F0BCF8012004F050
:10378000EBFE2000FFF7D0FF10BDC046000400484C
:1037900010B504000421054805F0AAF8012004F042
:1037A000DBFE2000FFF7C0FF10BDC046000400484C
:1037B00070B50C4B1B8ADB070BD411E0338A2B420C
:1037C0000ED00A2006F0CAFA013CA4B2002CF5D1B2
:1037D00006E00A2006F0C2FA034C024E0125EDE78E
:1037E00070BDC04600040048E703000070B56023C8
:1037F000294AD35A012B05D100283FD11E26274D37
:10380000683541E000283CD0FFF7D2FF1820FFF7D1
:10381000AFFF8020FFF7BCFF2220FFF7A9FFA12008
:10382000FFF7B6FF2020FFF7A3FFFFF7C1FF1B2024
:10383000FFF79EFF1820FFF7ABFF6020FFF7A8FF00
:103840002220FFF795FFB120FFF7A2FF2020FFF70E
:103850008FFFFFF7ADFFFFF7ABFF3220FFF788FFC9
:103860000026002E07D00024285DFFF791FF0134C9
:10387000A3B2B342F8D3FFF79BFF0BE01E26074D20
:1038800002E04626054D2035FFF792FF3220FFF774
:103890006FFFE8E770BDC04668380020F8A3000855
:1038A000F8B507000E0014001D004420FFF760FF6C
:1038B000FF08F8B2FFF76CFFE408E0B2FFF768FF1B
:1038C0004520FFF755FFF0B2FFF762FF300AFFF720
:1038D0005FFFE8B2FFF75CFF280AFFF759FFF8BD6A
:1038E00070B504000D004E20FFF742FFE408E0B27F
:1038F000FFF74EFF4F20FFF73BFFE8B2FFF748FF0F
:10390000280AFFF745FFFFF753FF70BD00B583B0EE
:10391000002301938020800204F02EFF064B586B99
:1039200001A905F0FFFE019B002B03D08022520568
:10393000024B1A6003B000BD6838002004ED00E0BF
:10394000F8B507000D001F4C002300220021606B1A
:1039500005F026FF1C4E0421300004F0C9FF0120B1
:1039600004F0FAFD0221300004F0C4FF012202211C
:10397000164805F0A7F9E760656121000831144D8C
:10398000280004F0B3FE8027BF02380004F0F4FEE4
:10399000380004F0FDFE0121280004F0C5FE606B34
:1039A0000023FA225200002105F0FAFE022006F060
:1039B000D5F90221300004F09BFF0021280004F01B
:1039C000B3FEF8BD6838002000040048003800400D
:1039D0005800024070B504006023AC4AD35A012B52
:1039E0006ED16133D35A002B31D0FFF787FE01200F
:1039F000FFF7BEFE2720FFF7CBFE0120FFF7C8FE32
:103A00000020FFF7C5FE0C20FFF7B2FED720FFF71E
:103A1000BFFED620FFF7BCFE9D20FFF7B9FE2C208D
:103A2000FFF7A6FEA820FFF7B3FE3A20FFF7A0FE9F
:103A30001A20FFF7ADFE3B20FFF79AFE0820FFF7A4
:103A4000A7FE1120FFF794FE0320FFF7A1FE200040
:103A5000FFF7CCFEFFF7ACFE2823FF337F220021C7
:103A60000020FFF71DFF00210020FFF739FF242071
:103A7000FFF77EFE942149018548FFF761FF222070
:103A8000FFF776FEC420FFF783FE2020FFF770FECD
:103A9000FFF78EFEFF20FFF76BFEFFF789FE002C7D
:103AA00000D1EAE01020FFF763FE1120FFF770FE5F
:103AB0000A2006F053F901216223744AD152DCE056
:103AC0006223724AD35A002B5FD0FFF717FEFFF72D
:103AD0006FFE1220FFF74CFEFFF76AFE7420FFF71F
:103AE00047FE5420FFF754FE7E20FFF741FE3B20A7
:103AF000FFF74EFE2B20FFF73BFE0420FFF748FEAA
:103B00006320FFF745FE0C20FFF732FE8B20FFF706
:103B10003FFE9C20FFF73CFE9620FFF739FE0F206A
:103B2000FFF736FE0120FFF723FE2720FFF730FEC8
:103B30000120FFF72DFE0020FFF72AFE1120FFF7DE
:103B400017FE0320FFF724FE4420FFF711FE00209C
:103B5000FFF71EFE0F20FFF71BFE4520FFF708FEB4
:103B60000020FFF715FE0020FFF712FE2720FFF7C9
:103B70000FFE0120FFF70CFE3C20FFF7F9FD0120AE
:103B8000FFF706FE0A2006F0E9F8002C04D15E23B8
:103B90003E4AD35A002B38D00120FFF727FE2823B6
:103BA000FF337F2200210020FFF77AFE0021002052
:103BB000FFF796FE2420FFF7DBFD94256D01344CC2
:103BC00029002000FFF7BCFE2220FFF7D1FDC7200F
:103BD000FFF7DEFD2020FFF7CBFDFFF7E9FD0A2010
:103BE00006F0BCF81020FFF7C3FD1120FFF7D0FD51
:103BF0000A2006F0B3F801216223244AD1522A0098
:103C00002100244806F06BFA37E00020FFF7EEFDB4
:103C10002823FF337F2200210020FFF741FE0021EF
:103C20000020FFF75DFE2420FFF7A2FD942464012D
:103C300021001748FFF784FE2620FFF799FD210099
:103C40001448FFF77DFE3A20FFF792FD1A20FFF798
:103C50009FFD3B20FFF78CFD0820FFF799FD2220F8
:103C6000FFF786FDC720FFF793FD2020FFF780FDBB
:103C7000FFF79EFD0A2006F071F85E23034AD35A2F
:103C8000002B02D000215E23D15270BD6838002085
:103C9000544C0020D43900205823084AD35A5A2BB8
:103CA00005D087225200934204D0802004E0942063
:103CB000400001E0942040007047C0466838002072
:103CC0005823074AD35A5A2B06D0872252009342D0
:103CD00004D09420400002E0802000E08020704763
:103CE0006838002010B55823174CE35A5A2B03D1DB
:103CF0007F235B1A010098B27F2824D82823FF3342
:103D0000994220D8002A0FD0C9010918CB170722E1
:103D100013405918C9100D4C07231840793303413B
:103D2000625C134363540EE0C9010918CB170722E4
:103D300013405918C910054C072318407932024125
:103D4000635C9343635410BD68380020544C0020DA
:103D50005823114AD35A5A2B03D17F235B1A0100EF
:103D600098B200237F2815D82822FF32914211D81B
:103D7000C9010918CB17213AFF3A13405918C91045
:103D8000064B5A5C07231840793303411340581EF1
:103D900083419BB21800704768380020544C0020C3
:103DA000F0B55F4656464D464446F0B483B0060033
:103DB000824689461500FFF76FFF03B29B46FFF767
:103DC0007FFF03B29846B34536DD4B466A46938083
:103DD00093880193013B1FB2B6B201993000FFF7FF
:103DE000B7FFA84228D0C84510DD4C46A4B2210038
:103DF0003000FFF7ADFF854208D02A0021003000D7
:103E0000FFF770FF013424B24445EFDB3C1E0FDBAB
:103E1000A4B221003000FFF79BFF854208D02A00A2
:103E200021003000FFF75EFF013C24B2002CEFDAE6
:103E3000013636B25E45CFDB5446013C24B2002C3D
:103E400036DB4B466A46938093880193013B1EB252
:103E5000A4B201992000FFF77BFF854228D0C84516
:103E600010DD4F46BFB239002000FFF771FF8542D9
:103E700008D02A0039002000FFF734FF01373FB295
:103E80004745EFDB371E0FDBBFB239002000FFF7DD
:103E90005FFF854208D02A0039002000FFF722FF8B
:103EA000013F3FB2002FEFDA013C24B2002CCFDA01
:103EB00003B03CBC90469946A246AB46F0BDC04616
:103EC000F0B55F4656464546E0B484B082468B4620
:103ED0001500029353421BB21F0003939D4227DB40
:103EE0002B006B43984617E0230063439B19AB42BA
:103EF00006DC5346181980B2029A0199FFF7F2FEC8
:103F0000013424B2BC42EFDD3B004746A8461D0009
:103F10007B1C1FB2BD420BDB3E007E43039C5B4615
:103F2000DB199BB201932B004546B8461F00DBE727
:103F300004B01CBC90469A46A346F0BDF0B55F465F
:103F400056464D464446F0B483B004000E009046F9
:103F50000CAA12880192404503DB4246811A09B23D
:103F600002E04246111A09B29E4202DBF21A12B274
:103F700001E09A1B12B200208146914207DA4246C4
:103F80009846130022003400160001229146444551
:103F900005DD32001E0013002200444690464246D2
:103FA000121B92B2924615B29E4208DBF71A3FB23C
:103FB000EB0F5D196D1001235B429B4606E09F1BD2
:103FC0003FB2EB0F5D196D1001239B4644451ADC8F
:103FD0004B46002B05D0A1B2B0B2019AFFF782FE8A
:103FE00004E0B1B2A0B2019AFFF77CFEED1BABB2C8
:103FF0001DB2002D03DA5E4436B253441DB20134C3
:1040000024B24445E4DD03B03CBC90469946A24648
:10401000AB46F0BDF0B585B01D000AAB1C8803B2FD
:10402000180017B20EB2009433003A00310003902A
:10403000FFF784FF2DB200942B003A0031003800C6
:10404000FFF77CFF00942B00039A29003800FFF74C
:1040500075FF00943300039802002900FFF76EFFFC
:1040600005B0F0BDF0B585B0070014000AAA1588A8
:10407000A04201D302D80FE0270004001EB20BB209
:10408000039320B20095330002000399FFF756FF17
:104090000134A4B2BC42F4D305B0F0BDF0B587B092
:1040A00003900C000CA909880DA8058800292FD1C0
:1040B00069468889D10F891849108AB2811A09B2D4
:1040C0000491821812B2DE0FF3185B109BB2A6B2F5
:1040D0009F193FB2F61A36B200953B00059239009F
:1040E0000498FFF72BFF00953B00059A31000398D9
:1040F000FFF724FF00953300039E32003900049837
:10410000FFF71CFF2A0021003000FFF749FE62E0A4
:1041100001292FD169468889D10F891849108AB29F
:10412000871A3FB2821812B20492A6B2DA0FD218DE
:10413000521093B2F21A11B2F3181EB20095330066
:104140003A0005913800FFF7F9FE009533003A0078
:104150002100049E3000FFF7F1FE0095230032009D
:1041600005993800FFF7EAFE2A0021000398FFF7BF
:1041700017FE30E002292ED1D10F8A18521092B2C8
:104180006946898957183FB28A1A12B20492A6B2B8
:10419000DA0FD218521093B2F21A11B2F3181EB2FB
:1041A000009533003A0005913800FFF7C7FE0095EF
:1041B00033003A002100049E3000FFF7BFFE009557
:1041C0002300320005993800FFF7B8FE2A002100CD
:1041D0000398FFF7E5FD07B0F0BDC046F0B55F46B8
:1041E00056464D464446F0B485B007008B4690468F
:1041F00001930EAB1B78002851D0202B01D1808871
:1042000052E08278002093424ED3F97899424BD302
:104210009B1A9B00BA68944663445E881B8818000A
:1042200003933B88002B3CD00300013BDA170721A6
:104230000A40D318DB1001339BB2994600239A46FB
:1042400043460293B846070024E0029B53449BB2C6
:104250000093A8B2C2084346DB689B199B5C2342CB
:1042600005D0584480B2019A0099FFF73BFD6408DD
:1042700000D180340135ABB2BB42EAD34E44B6B272
:10428000534601339BB201229446E24442461288CF
:104290009A4208D900258024002FD6D1EEE70020CD
:1042A00002E0039800E0039805B03CBC90469946B4
:1042B000A246AB46F0BDC046F0B50C2805D9002497
:1042C000214F0AE0854208D300E00026F6001E4890
:1042D0008619F06900280BD133E00134A4B226001E
:1042E000E5007D192D8B002DECD1174808302AE010
:1042F000002B01D004881C800B78002400251F2B84
:1043000004D81AE0002D01D00235ADB2202B03D124
:104310008388ED18ADB20BE086789E4208D8C77846
:104320009F4205D39B1B9B0086689B5BED18ADB23B
:104330000134A4B20B5D1F2BE4D8002A03D01580F2
:1043400001E001480830F0BD78A40008F0B589B05C
:1043500006000591100004930EAB20CB1C880E23A1
:1043600004AA9446634407AA2900FFF7A5FF039017
:10437000082C6AD8A400494B1B599F4607AB1B88E1
:104380005B08F31A9EB260E007AB1B88F31A9EB27B
:104390005BE00E2304AA944663441B885B08059ADD
:1043A000D31A9BB2059350E007AB1B885B08F31A46
:1043B0009EB20E2304AA944663441B885B08059AA8
:1043C000D31A9BB2059340E007AB1B88F31A9EB249
:1043D0000E2304AA944663441B885B08059AD31AEB
:1043E0009BB2059331E0039BDB880E2204A98C4627
:1043F000624412889B1A059A944663449BB20593C3
:1044000023E007AB1B885B08F31A9EB2039BDB8893
:104410000E2204A98C46624412889B1A059A94467F
:1044200063449BB2059310E007AB1B88F31A9EB25E
:10443000039BDB880E2204A98C46624412889B1AD7
:10444000059A944663449BB20593002207AB1A80F9
:104450002B7800271F2B06D81CE0002807D002303D
:1044600007AA108003E06A461421525E059207AC49
:104470002188711809B20093049B059A0398FFF7ED
:10448000ADFE2388C01880B220807B1C9FB2EB5DFC
:104490001F2BE2D807AB188809B0F0BD74A3000841
:1044A000F0B55F4656464D464446F0B485B001909F
:1044B000884602920E9A9146D788928892461AB2FE
:1044C0009346FF2213409AB2082A40D89B00404AE4
:1044D000D3589F4653465B08019AD31A9BB2019367
:1044E00035E0019B52469B1A9BB201932FE07B085B
:1044F000CB1A9BB298462AE053465B08019AD31A1E
:104500009BB201937B08CB1A9BB298461FE0019B9C
:1045100052469B1A9BB201937B08CB1A9BB29846DA
:1045200015E0CB1B9BB2984611E053465B08019AFD
:10453000D31A9BB20193CB1B9BB2984607E0019B19
:1045400052469B1A9BB20193CB1B9BB29846002FFD
:1045500037D08025002400265346013B019A94461B
:10456000634403934B461B689B5D2B4211D05B4613
:10457000002B07DB019B181980B2029A4146FFF716
:10458000B1FB06E0039B181B80B2029A4146FFF77D
:10459000A9FB0134A4B26D0805D10136B6B2A2451B
:1045A00005D980350BE0A24509D80136B6B243469D
:1045B00001339BB29846013FBFB280250024002FF3
:1045C000D0D105B03CBC90469946A246AB46F0BD62
:1045D00098A3000870B58AB005000E000D4C2100AC
:1045E0006031122205A805F07AFD210074311222F3
:1045F000684605F074FD0020082D08D8002E03DB66
:104600006D0005ABE85A02E06D006B46E85A0AB04F
:1046100070BDC04678A40008F0B54F464646C0B409
:1046200083B0050000260024674B9846C0E05E2A50
:1046300001D0242A5BD101342B5D190030390929BE
:104640000DD80027B800C0194000303B1F180134B6
:104650002B5D190030390929F4D9002F12D15B4F95
:104660005B4B9B194246D35140239E1B594BD6525C
:104670005948FEF7CFFA00234246D25913704246FA
:10468000D3512FE05E2A09D10220FDF777F8C01937
:1046900080B2FDF791F80190504F08E00220FDF73D
:1046A0006DF8C01B80B2FDF787F801904C4F464A69
:1046B000474B9B19454953504020861B454BD652CA
:1046C0000120FDF75BF86B23002800D10233019A2B
:1046D00039004448FEF79EFA3B4A3C4B0021D05833
:1046E0000170D1503A48FCF7F5FC060060E07E2AE4
:1046F00001D0232A58D10134285D0300303B092B17
:104700000DD800218B005918490030384118013468
:10471000285D0300303B092BF4D9002914D12A4F1E
:104720002A4B99462A4B9B194A46BB5040239E1B55
:10473000284BFE522C48FEF76DFA00234A46BA5821
:1047400013704A46BB502AE07E2A14D11E4F1F4BDD
:1047500099461F4B9B194A46BB5040239E1B1D4B3D
:10476000FE522248FEF756FA00234A46BA58137002
:104770004A46BB5013E0144F144B9946144B9B19F7
:104780004A46BB5040239E1B124BFE521848FEF770
:1047900041FA00234A46BA5813704A46BB500C48A7
:1047A000FCF798FC060003E00134094B9A550136EA
:1047B0002A5D1F2A00D93AE705480023835503B034
:1047C0000CBC90469946F0BD20280020381000000F
:1047D000340300203C100000B0A20108A0A2010890
:1047E000A8A20108C4A20108D8A20108ECA20108ED
:1047F00004A3010810B50620FCF7C0FF1E4C9C2343
:10480000E0520420FCF7BAFF023880B27A23E35A60
:10481000834202D97C23184AD0520520FCF7AEFF10
:10482000002804D101218C23134AD15203E0002136
:104830008C23114AD1520820FCF7A0FF0E4CAC2368
:10484000E0520920FCF79AFFCC23E0520A20FCF743
:1048500095FFDC23E0520B20FCF790FFBC23E052D5
:104860000C20FCF78BFFEC23E0521120FCF786FFB5
:104870008E235B00E05210BD68380020F0B55F4623
:1048800056464D464446F0B485B00023984600266F
:1048900000240025304B9A469B469946A200534679
:1048A0001B689C4662441368002B19D12F002B0112
:1048B000294AD3186E3342461A80FFF7EDF90300F8
:1048C0002838864201DA2836B3B23F01224AD71986
:1048D00070373B800135ADB20023984600262EE0AC
:1048E0002B00A91D090159444968002906D1A91DB9
:1048F0000901194841184A601020088106331B013C
:104900004B445989013159811B8901931068FFF784
:1049100083FE010002AA971D03AB3A000198FFF73E
:10492000CBFC3B881A1CB34200D2321C96B203ABBC
:104930001B881A1C434500D2424693B29846013464
:10494000A4B20E2DAAD9FFF755FF05B03CBC904686
:104950009946A246AB46F0BD68380020F0B55746F0
:104960004E464546E0B486B004000E00002800D153
:104970002DE1FFF791F90500FFF7A2F9013883B2A5
:10498000013DAAB20121009100210020FFF76AFB3E
:10499000012E09D12389002B02D0013B23810EE097
:1049A000E388013B23810AE0022E08D123890133E9
:1049B0009BB22381E2889A4201D800232381236895
:1049C000002B01D1208903E166897600B6B22289E5
:1049D00090469200D058FFF71FFE0500FFF75CF9E4
:1049E000A288400880B20123019300950023310082
:1049F000FFF7ACFC0E2702AB9C466744A08800235F
:104A00003A002900FFF758FC3D88FFF745F90700F9
:104A10002838854201DA2835AFB2A781FFF73CF983
:104A200040087F08C71BBFB23800083083B29A46DF
:104A300063895D1C6D1075192AB21100023B1BB20F
:104A4000524610B200250195012200920F320391C7
:104A5000FFF724FB6389023B1BB2A0891038504446
:104A600000B20195022200920E320399FFF716FB65
:104A70006389F3189BB2A289BA1892B200953100EB
:104A80003800FFF7C7FA6789F71BBFB24546013DFB
:104A9000ADB2E38801229046AB421DD820E0FFF77B
:104AA000FBF80600A3889946AB0022689858FFF7E8
:104AB000B3FD7608B6B243460193009000234A4600
:104AC00039003000FFF742FC013DADB26389FF1AA7
:104AD000BFB2E388AB4203D9FFF7F2F8B842DED8A1
:104AE00067897B00FF18BFB225890135ADB2E38825
:104AF00001229046AB421DD820E0FFF7CDF806001A
:104B0000A3889946AB0022689858FFF785FD760880
:104B1000B6B243460193009000234A463900300064
:104B2000FFF714FC0135ADB26389FF18BFB2E3880B
:104B3000AB4203D9FFF7C4F8B842DED8FFF7C0F89C
:104B40000500FFF7A9F802002900103989B20123F6
:104B500000932B000020FFF785FAFFF7B1F810381B
:104B600005B2FFF799F802B2002300932B00290049
:104B70000020FFF7E3F9FFF7A3F8013881B207251A
:104B80000195164B009300230C221920FFF7DEFB42
:104B9000FFF796F8013881B20195114B009300237D
:104BA0000C229620FFF7D2FBFFF776F80500FFF7FF
:104BB00087F8013881B2013DA8B208230193094B5F
:104BC000009300230C22FFF7C1FB208900E00020A6
:104BD00006B01CBC90469946A246F0BDCCA0010888
:104BE0001CA3010824A30108F0B55F4656464D46B4
:104BF0004446F0B491B0322005F0B0F8B348FEF767
:104C000009F8B34C5A235822A352D032E252A83AA0
:104C10000233E252FFF732FE00226023E252902379
:104C2000DB051B8A1B0701D501F08AF801216023EF
:104C3000A74AD152FEF762FD0120FEF799FD272019
:104C4000FEF7A6FD0120FEF7A3FD0020FEF7A0FD64
:104C50000C20FEF78DFDD720FEF79AFDD620FEF73B
:104C600097FD9D20FEF794FD2C20FEF781FDA820E6
:104C7000FEF78EFD3A20FEF77BFD1A20FEF788FD39
:104C80003B20FEF775FD0820FEF782FD1120FEF7A0
:104C90006FFD0320FEF77CFD60238D4AD35A012B64
:104CA00013D194256D018B4C2A00FF21200005F0C3
:104CB0001FFA0120FEF78EFE2A00FF21200005F0DA
:104CC00017FA0120FEF786FE08E094225201FF2128
:104CD000804805F00DFA0120FEF77CFE642005F007
:104CE0003DF87B4B01225E215A525A649A467A4B18
:104CF00010330493784B083305930A2005F02EF8FF
:104D00005346DB6C002B6DD06023714AD35A012BC4
:104D100013D194256D016F4C2A00FF21200005F06E
:104D2000E7F90120FEF756FE2A00FF21200005F0DA
:104D3000DFF90120FEF74EFE12E094256D01654C6F
:104D40002A00FF21200005F0D3F90020FEF742FEE3
:104D50002A00FF21200005F0CBF90020FEF73AFEE3
:104D600094225201FF215B4805F0C2F90F20FCF7A5
:104D700005FD482808D1584B009300230022072145
:104D80000020FFF78DFB15E00F20FCF7F7FC432810
:104D900008D1059B00930023002207210020FFF784
:104DA0007FFB07E0049B00930023002207210020E3
:104DB000FFF776FB0120FEF70DFE642004F0CEFF26
:104DC0001020FEF7D5FC1120FEF7E2FC642004F071
:104DD000C5FF01F07BFD0028F8D040219020C005E0
:104DE00003F086FD3A4B5B6C002B12D103F0C0FB45
:104DF000374B9A6B801ADB6B984200D27DE701201B
:104E0000FEF7E8FD03F0B4FB314B9863334ADA63F5
:104E100073E72F4B00225A645B6DDB070CD503F060
:104E2000A7FB2B4B9B6BC01A2D4B984204D9284AE9
:104E3000516D02230B435365254B5B6D9B0705D5D5
:104E4000264A234BDA630123039304E0254A204BCF
:104E5000DA630023039303F08BFB1D4DA8636B6D96
:104E6000032293436B65012300937E332822FF3294
:104E700000210020FFF7F6F8AB6C0E2B01D900F0F3
:104E800087FD9B00184AD3589F46002400947F2337
:104E90002822FF3200210020FFF7E4F80220FEF76D
:104EA00099FD0B4BDC6300F042FF012300937E333E
:104EB0002822FF3200210020FFF7D4F80220FEF75D
:104EC00089FD0022024BDA6300F031FF5CA3010888
:104ED00068380020544C002010A50008C0270900A5
:104EE0004B1D00004C1D0000BCA3000800250195CF
:104EF0007E4B009300230C2205210A20FFF726FA9F
:104F000001957B4B009300230C2214210A20FFF70C
:104F10001DFA0195774B009300230C2223210A20D0
:104F2000FFF714FA0195744B009300230C223221F1
:104F30000A20FFF70BFA0195704B009300230C2217
:104F400041210A20FFF702FA01956D4B00930023DF
:104F50000C2250210A20FFF7F9F90195694B0093C3
:104F600000230C225F210A20FFF7F0F9664E674C00
:104F700008AF3751664B994620239B464B465A460D
:104F8000F252644BD98B6448FDF744FE33591D70CF
:104F900035510195009700230C2205219420FFF73D
:104FA000D5F937514B465A46F2520E20FCF750FCC9
:104FB00006900F20FCF74CFC020006995748FDF7BD
:104FC00029FE33591D7035510195009700230C229D
:104FD00014219420FFF7BAF937514B465A46F25242
:104FE0000820FCF735FC06900920FCF731FC0790FF
:104FF0000A20FCF72DFC0300079A06994848FDF7A4
:1050000009FE33591D7035510195009700230C227C
:1050100023219420FFF79AF937514B465A46F25212
:105020000B20FCF715FC06900C20FCF711FC0790F8
:105030000D20FCF70DFC0300079A06993848FDF790
:10504000E9FD33591D7035510195009700230C225D
:1050500032219420FFF77AF937510C239B464B46B7
:105060005A46F2520020FCF711FC01002A48FDF7D5
:10507000D1FD33591D7035510195009700230C2245
:1050800041219420FFF762F937514B465A46F252BC
:105090000020FCF707FC3C21FCF724F801001E4827
:1050A000FDF7B8FD33591D70355101950097002368
:1050B0000C2250219420FFF749F937514B465A46AC
:1050C000F2520D20FCF75AFB01001348FDF7A2FD38
:1050D00033591D7035510195009700230C225F2133
:1050E0009420FFF733F900F01CFEC04678A30108B6
:1050F00088A3010890A301089CA30108A8A30108A4
:10510000B8A30108C8A30108202800203810000017
:105110003C100000089F0108A4A40108DCA30108BA
:10512000D8A3010800260196CD4B009300230C2242
:1051300002219620FFF70AF90196CA4B009300233B
:105140000C220221DC20FFF701F90196C64B0093E7
:1051500000230C2214210A20FFF7F8F80196C34B14
:10516000009300230C2223210A20FFF7EFF8019679
:10517000BF4B009300230C2232210A20FFF7E6F8F0
:105180000196BC4B009300230C2241210A20FFF71B
:10519000DDF80196B84B009300230C2250210A2021
:1051A000FFF7D4F80196B54B009300230C225F2142
:1051B0000A20FFF7CBF80196B14B009300230C2295
:1051C0006E210A20FFF7C2F8AE4DAF4C08AF2F5149
:1051D000AE4B99460C239B464B465A46EA52102149
:1051E000102001F01FFD0100A948FDF713FD2B5908
:1051F0001E702E510196009700230C221421962038
:10520000FFF7A4F82F514B465A46EA5213211020BB
:1052100001F008FD01009E48FDF7FCFC2B591E70B3
:105220002E510196009700230C2223219620FFF790
:105230008DF82F514B465A46EA521621102001F0A4
:10524000F1FC01009248FDF7E5FC2B591E702E5130
:105250000196009700230C2232219620FFF776F862
:105260002F514B465A46EA521821102001F0DAFC21
:1052700001008748FDF7CEFC2B591E702E51019678
:10528000009700230C2241219620FFF75FF82F5151
:105290004B465A46EA521D21102001F0C3FC010082
:1052A0007B48FDF7B7FC2B591E702E5101960097D5
:1052B00000230C2250219620FFF748F82F514B462F
:1052C0005A46EA521E21102001F0ACFC0100704841
:1052D000FDF7A0FC2B591E702E510196009700235C
:1052E0000C225F219620FFF731F82F514B465A468A
:1052F000EA521F21102001F095FC01006448FDF7DF
:1053000089FC2B591E702E510196009700230C2208
:105310006E219620FFF71AF82F514B465A46EA5253
:105320001021112001F07EFC01005948FDF772FCAC
:105330002B591E702E510196009700230C22142128
:10534000DC20FFF703F82F514B465A46EA5213214F
:10535000112001F067FC01004D48FDF75BFC2B5963
:105360001E702E510196009700230C222321DC2071
:10537000FEF7ECFF2F514B465A46EA5216211120F8
:1053800001F050FC01004248FDF744FC2B591E700F
:105390002E510196009700230C223221DC20FEF7CB
:1053A000D5FF2F514B465A46EA521821112001F0E1
:1053B00039FC01003648FDF72DFC2B591E702E518B
:1053C0000196009700230C224121DC20FEF7BEFF4E
:1053D0002F514B465A46EA521D21112001F022FC62
:1053E00001002B48FDF716FC2B591E702E5101961B
:1053F000009700230C225021DC20FEF7A7FF2F513D
:105400004B465A46EA521E21112001F00BFC0100C6
:105410001F48FDF7FFFB2B591E702E510196009778
:1054200000230C225F21DC20FEF790FF2F514B461A
:105430005A46EA521F21112001F0F4FB01001448E2
:10544000FDF7E8FB2B591E702E51019600970023A3
:105450000C226E21DC20FEF779FF00F062FCC046D2
:10546000E0A00108E8A00108E8A30108F8A30108EA
:1054700008A4010818A401081CA401082CA4010810
:105480003CA4010820280020381000003C10000037
:10549000A4A4010800250195F44B009300230C22DD
:1054A0000A210A20FEF752FF0195F14B00930023D9
:1054B0000C2219210A20FEF749FF0195ED4B0093BC
:1054C00000230C2228210A20FEF740FF0195EA4B19
:1054D000009300230C2237210A20FEF737FF0195A5
:1054E000E64B009300230C2246210A20FEF72EFFF4
:1054F0000195E34B009300230C2255210A20FEF76F
:1055000025FF0195DF4B009300230C2264210A2024
:10551000FEF71CFF0195DC4B009300230C22732146
:105520000A20FEF713FFD94ED94B984608AFF75023
:10553000D84B99460C239B464B465A46F2520421BF
:105540000C2001F06FFB0100D348FDF763FB4346DD
:10555000F3581D704346F5500195009700230C2227
:105560000A219620FEF7F2FE4346F7504B465A4674
:10557000F25205210C2001F055FB0100C648FDF751
:1055800049FB4346F3581D704346F550019500977B
:1055900000230C2219219620FEF7D8FE4346F7502F
:1055A0004B465A46F25208210C2001F03BFB010009
:1055B000B948FDF72FFB4346F3581D704346F5509D
:1055C0000195009700230C2228219620FEF7BEFEAD
:1055D0004346F7504B465A46F25209210C2001F03F
:1055E00021FB0100AC48FDF715FB4346F3581D7045
:1055F0004346F5500195009700230C223721962051
:10560000FEF7A4FE4346F7504B465A46F2520A2193
:105610000C2001F007FB01009F48FDF7FBFA434611
:10562000F3581D704346F5500195009700230C2256
:1056300046219620FEF78AFE4346F7504B465A46CF
:10564000F2520B210C2001F0EDFA01009248FDF717
:10565000E1FA4346F3581D704346F5500195009713
:1056600000230C2255219620FEF770FE4346F7508A
:105670004B465A46F2520C210C2001F0D3FA01009D
:105680008548FDF7C7FA4346F3581D704346F55069
:105690000195009700230C2264219620FEF756FE08
:1056A0004346F7504B465A46F2520D210C2001F06A
:1056B000B9FA01007848FDF7ADFA4346F3581D707A
:1056C0004346F5500195009700230C227321962044
:1056D000FEF73CFE25E36D4D6D4B984608AFEF504D
:1056E00010226C4BEA52002002F0BEFD411C6B48B8
:1056F000FDF790FA00264346EB581E704346EE50E5
:10570000012501950097002310220A219420FEF71D
:105710001DFE02F087FD0195009000230C22372129
:105720009420FEF713FE5E4B1833009300230022F3
:105730000A210120FEF7B4FE01965A4B0093002384
:1057400010226E210A20FEF701FEEAE201250195F2
:10575000554B0093002314220A219420FEF7F6FDF6
:105760000195524B00930023102232219420FEF722
:10577000EDFD002301934E4B009300230C226E217C
:105780000A20FEF7E3FDCCE201250195494B009389
:105790000023142219219420FEF7D8FD0195464BD1
:1057A00000930023142237219420FEF7CFFD00231D
:1057B00001933F4B009300230C226E210A20FEF739
:1057C000C5FDAEE2012501953C4B00930023142258
:1057D00019219420FEF7BAFD0195394B009300235F
:1057E000142237219420FEF7B1FD00230193304BA2
:1057F000009300230C226E210A20FEF7A7FD90E201
:10580000012501952B4B009300231422192194208C
:10581000FEF79CFD01952B4B0093002314223721AA
:105820009420FEF793FD00230193214B0093002366
:105830000C226E210A20FEF789FD72E2224B1B6DBD
:10584000032B07D1204B0022AC2149005A500439C8
:105850005A5056E01C4B1B6D042B37D11A4BAA2211
:1058600052009958043299504BE0C0463CA40108BC
:105870001CA4010848A4010854A4010860A401085C
:1058800070A4010880A401088CA40108202800202D
:10589000381000003C100000A4A4010898A40108DE
:1058A00010A50008A8A40108B0A40108C4A4010818
:1058B000E0A40108E8A40108F8A4010800A5010873
:1058C00010A5010818A5010868380020B84B1B6D09
:1058D000052B16D1B64B5D6829880E2911D82A00F0
:1058E0000023B34FAC267600B85B814202D15288C8
:1058F000AF498A5101339BB29A00AA1811880E2928
:10590000F2D9AB4D296D89B2AC235B00E858063063
:10591000000140190430FFF721F800232B6500E255
:1059200001230193A34B00930023142214219420FC
:10593000FEF70CFDFBF7A4FF002801D19E4B00E011
:105940009E4B0122019200930023133232219420B6
:10595000FEF7FCFCE5E101250195994B009300233E
:10596000102214219420FEF7F1FC0195954B009331
:105970000023102228219420FEF7E8FC0195924B89
:105980000093002310223C219420FEF7DFFCC8E1A5
:105990000020FBF711FF0600632803D8202208AB84
:1059A0001A7004E0643886B2312208AB1A7008AD70
:1059B0000A213000FBF796FB303068700A21300076
:1059C000FBF716FC3031A9700027EF700523019317
:1059D0000095002354224021BA20FEF7B7FC012095
:1059E000FBF7CCFE01978000784BC358009300234F
:1059F00010221821D220FEF7A9FCFBF7EFFE0300CE
:105A0000C2178018504006B2303028706F70002ED8
:105A100013D10623019308AB0093002324226421B1
:105A2000F020FEF793FC6A4B2033009306230022FC
:105A30006421D220FEF734FD2CE0002B15DA06237A
:105A4000019308AB0093002324226421D220FEF7A7
:105A50007DFCF6005E4B28339E190096062300223B
:105A60006421F020FEF71CFD14E00623019308AB2F
:105A70000093002324226421F020FEF767FCF60047
:105A8000534B28339E190096524B00226421D2209A
:105A9000FEF706FD0820FBF771FE00281AD00F2044
:105AA000FBF76CFE002804D00F20FBF767FE4C28A4
:105AB00010D10B20FBF762FE002801D0464B00E01E
:105AC000464B00220192009300230E320121012057
:105AD000FEF73CFC0C2001F09FFE00280DD00620B4
:105AE000FBF74CFE002808D0394B78330093002395
:105AF000002201219620FEF7D3FC00F0E5FA021EF9
:105B00000ED1374D374E08ABAB512032364BEA52EF
:105B10003648FDF77FF80023AA591370AB517AE09D
:105B2000431E9BB2042B31D805273F1ABFB206286B
:105B300028D012256D427D43ADB201370026FEF715
:105B4000ABF81938281800B2002306220821FEF706
:105B5000B7F9FEF7A1F81938281800B20123052279
:105B60000821FEF7ADF9FEF797F81938281800B2AA
:105B7000002304220821FEF7A3F901361235ADB245
:105B8000B742DCD1002208AB1A7044E0062831D1BC
:105B9000134D144E08ABAB511A32134BEA52144852
:105BA000FDF738F80023AA591370AB5133E0C04613
:105BB0006838002020A5010834A301082CA301089F
:105BC00030A5010840A5010850A5010804000020E7
:105BD00010A50008068000004CA301083CA30108A2
:105BE00020280020381000003C10000060A50108AB
:105BF00068A5010806280ED9814D824E08ABAB512D
:105C00002022814BEA52C11F8048FDF703F8002390
:105C1000AA591370AB51FEF73FF8013880B2022346
:105C2000019308AD009500230E220121FEF78EFBA3
:105C3000FEF732F8013802B200239946009314337C
:105C400014210120FEF77AF96D4E6E4FF551202296
:105C50006D4BF2520120FBF719FE04000120FBF707
:105C600021FE1E303C21FBF73DFA0200210068486E
:105C7000FCF7D0FFF3594A461A704B46F3510633EE
:105C80000193009500230E227E210120FEF75EFB8A
:105C90000820FBF773FD00280DD1594D08ABEB51DF
:105CA0002022594BEA525B48FCF7B4FF0023EA5923
:105CB0001370EB5120E0FBF7A9FD0700202400281A
:105CC00005D02C34002802DC404207B206344C4D8B
:105CD0004C4E08ABAB5120224B4BEA52FBF784FDF4
:105CE000FBF76AFD01003B0022004B48FCF792FFE6
:105CF0000023AA591370AB510623019308AB0093FC
:105D000000230E227E219620FEF720FBFDF7C4FF24
:105D1000013802B2002300936C336C210120FEF79E
:105D20000DF9039B012B02D81800FDF753FE3B4BE6
:105D30001B6C002B01D1FEF7E0FF9847FEF7DDFF5B
:105D4000FDF7DCFCFDF734FD1220FDF711FDFDF73A
:105D50002FFD7420FDF70CFD5420FDF719FD7E206A
:105D6000FDF706FD3B20FDF713FD2B20FDF700FDA1
:105D70000420FDF70DFD6320FDF70AFD0C20FDF763
:105D8000F7FC8B20FDF704FD9C20FDF701FD96201C
:105D9000FDF7FEFC0F20FDF7FBFC0120FDF7E8FC02
:105DA0002720FDF7F5FC0120FDF7F2FC0020FDF7B0
:105DB000EFFC1120FDF7DCFC0320FDF7E9FC44209B
:105DC000FDF7D6FC0020FDF7E3FC0F20FDF7E0FC1B
:105DD0004520FDF7CDFC0020FDF7DAFC0020FDF7A3
:105DE000D7FC2720FDF7D4FC0120FDF7D1FC3C2097
:105DF000FDF7BEFC0120FDF7CBFCFEF74DFFC046D2
:105E000020280020381000003C10000070A5010878
:105E100080A501088CA501089CA501086838002010
:105E2000F0B583B05F4CB62252000021200004F090
:105E30005FF95D4B083323605C4B63600F20FBF719
:105E40009DFC00280BD00F20FBF798FC4C2806D0B7
:105E5000544A574B60331360544B40335360554C96
:105E60000025A571E57101272771534B23606771E8
:105E7000524E2100300002F0E3FC5149300002F0A4
:105E800037FD8021C901300002F034FD2571E77132
:105E900027602100300002F0D3FCA571E5710223D8
:105EA0002371A0231B02236067712100300002F0E0
:105EB000C7FC2571E7711823236021009020C005DD
:105EC00002F0BEFC01218020C00102F087FE00220A
:105ED0000D21300002F010FD00220F21300002F0F1
:105EE0000BFD3849384B0B8082235B004B80E0234D
:105EF000DB008B80CD800D8180239B004B81E13BBB
:105F0000FF3B8B81CD810D82304C200002F090FE52
:105F1000802676003100200002F0C0FE0121200022
:105F200002F0B0FE0121012002F03CFE1D4C284B86
:105F3000A360284BE36010232361083B6361A561E4
:105F40007833E36125626562A562E562256321001D
:105F50000831214802F0CAFB2049214802F0F2FB37
:105F6000012202211C4802F0FDFB1E480B23037096
:105F7000043B4370877002F0F3FC032200210120F0
:105F800003F014FB606300230022002103F02CFBCC
:105F900001950097002332001349144803F0F4FCE4
:105FA00003B0F0BD683800200400002090A5000870
:105FB000040100206027002006440000000400487F
:105FC000060400006827002000C0FFFF00380040E2
:105FD0000C380040544C00205800024000000340A0
:105FE00000000240B0270020ACA50108E94B0008E2
:105FF000054B1A645A6D1143596501225A640028F1
:1060000000D098647047C04668380020AC235B001D
:10601000014AD05A7047C04668380020AC235B0064
:10602000044AD35800200E2B03DC1B01D3186C3319
:10603000188870476838002030B500230E2829D80A
:10604000154A1364063393640301D3186C331C8818
:106050001165042903D1AA235B00D05016E005295D
:1060600014D10D4B586801880E290FD8AC235B0062
:10607000094AD55A02000023A94200D154880133AD
:106080009BB29A00821811880E29F5D90122024B81
:106090005A642300180030BD683800200122014BEB
