:020000040800F2
:1000000000800020590700089D080008A908000882
:1000100000000000000000000000000000000000E0
:10002000000000000000000000000000B50800080B
:100030000000000000000000C1080008CD08000812
:10004000D908000800000000C0000008C000000837
:10005000C0000008E5080008F1080008FD080008D5
:10006000000000000909000815090008210900081E
:100070002D090008390900084509000800000000A2
:10008000510900085D0900086909000875090008A0
:10009000810900088D09000899090008A5090008D0
:1000A000B1090008BD090008C9090008D509000800
:1000B000E1090008ED090008000000000000000050
:1000C000FEE7000030B5002A0ED00C008A1880210F
:1000D00089050502000E23785840543080004058AE
:1000E000684001349442F4D130BDC04630B50A4C6A
:1000F000002180256D000B060822002B02DA5B0030
:10010000434000E05B00013A002AF6D108C4013107
:10011000A942F0D130BDC04650010020F0B54F4695
:100120004646C0B483B01700019304000D00884216
:1001300027D2184E184B9946184B9846E368B3429D
:100140001AD1A3684B4517D16368434514D1144BAA
:1001500022689A4210D1019A002A02D0A38B9342BE
:100160000AD1606FFFF7C2FF7C222100206FFFF7EA
:10017000A9FFE36F984206D0E419AC42DED3002019
:1001800002E0002000E0200003B00CBC904699463D
:10019000F0BDC0460190C965ED3E4BAA19228FDF24
:1001A0003371D69D70B5002810D1194B1022194912
:1001B0001948FFF7B3FF041E23D0436902699A1A56
:1001C0000169006FFFF77EFF050012E0104B10225F
:1001D00012491048FFF7A2FF041E14D001694369B9
:1001E0005A1A80239B029C466144006FFFF76AFF06
:1001F00005000B48FFF77AFFA36F9D4205D1200051
:1002000004E0002002E0002000E0002070BDC046B5
:10021000082B00000000020800100008000004087D
:10022000B71DC104F0B5474680B4020080321D4BB3
:100230001B691B0604D51B4B1B4959601B495960A0
:100240001B4B802424059A4219D125E0B9421ED9BE
:100250004D0507D145461D61596161461961D9684F
:100260000A42FCD1D9680A42FCD11A618021890274
:10027000611809882180D9680A42FCD107E00D4E37
:100280000D4F084B01220221884640318C46023432
:100290002100A51B8542D9D18022024B1A6104BCE2
:1002A0009046F0BD0020024023016745AB89EFCDA9
:1002B000000002088000FEFFFF0F00082A4AD369F1
:1002C000802149000B43D361284B00221A809A8178
:1002D0001A825A6230321A85254ADA6201221A805D
:1002E000AA23DB00C318BA22D200811800221A8088
:1002F00002338B42FBD11F4AAA23DB00C2521E4AA3
:100300001E4BC2522D2284235B00C252164B5A69E7
:10031000802189020A435A619A698021C9010A43EE
:100320009A619023DB051868154A02401A601A6822
:100330008A20800402431A609A688A20400402439B
:100340009A60104A5A62104B00221A605A609960F3
:100350000E4A1A60D02252009A811968A03AFF3AD8
:100360000A431A607047C046001002400020004057
:10037000FFFF0000082B00000080FFFF5405000075
:10038000FFFFC3FC10010100003801400C14000005
:10039000F8B50400837904228271012B03D1043360
:1003A0008371002092E0022B0CD1494B1B691B0684
:1003B00004D5474B474A5A60474A5A600523A37100
:1003C000002083E0032B4CD10833FF33C35A0020B5
:1003D000462B7BD923000D33FF33E21D2000513023
:1003E000FF3011781970013301328342F9D186232D
:1003F0005B00E358F82212069918384A002091420F
:1004000064D8374A934228D95B050DD1304B02227C
:100410001A610B32FF32A2585A6142221A61190046
:10042000413ACB681A42FCD186235B00E058250094
:100430001135FF35CC3B9C468444254A01210F00F1
:100440006B781B022E78F31817610380D36819426A
:10045000FCD1023002356045F2D10523A3710020A2
:1004600034E0042B0DD11A4A11697C330B4313611C
:100470000020FFF797FE002827D00523A371012055
:1004800024E00020052B21D1A37A1A06637A1B04ED
:10049000D318E2799A18237A1B02D218F8231B0684
:1004A000D118104B994202D90223A3710EE0052303
:1004B000A3712500210040312000431B9B5CC372C7
:1004C00001308842F9D1472000E00020F8BDC04645
:1004D0000020024023016745AB89EFCDBFFF030039
:1004E000FF0F0008C0FF030048400823012206490F
:1004F000024203D04008484080B200E04008013B7F
:10050000002BF5D17047C04601A0FFFF70B5002950
:100510000CD0040001398DB2013545190448217809
:10052000FFF7E2FF0134AC42F9D100E0004870BDB2
:10053000FFFF000070B505000C00FFF7E7FF28552E
:10054000A61CB6B20134A4B2000A2855114A802173
:1005500007E0D3691942FCD02B781385013EB6B26F
:100560000135002E03D0D3691942F5D1F1E70949CD
:100570004022CB691A42FCD0074B5A6A92B219004A
:100580004B6A9B1A9BB2312BFAD9024B9A8C0F22E1
:100590001A6270BD0038014000200040F8B54F4697
:1005A0004646C0B40400694B9A8C0F221A6200229E
:1005B00085235B00C25265492032CB691A42FCD0C8
:1005C000634B5A6A92B2614BDB690B2119420ED11F
:1005D0005E49202685235B009C465D489025FF35BB
:1005E000FF3B994609E0CB694F461F4205D00022E8
:1005F00085235B00E2520026A2E0CB691E420DD0AB
:100600006346E35A8A8C9046E21847461771FF2BDF
:1006100002D801336246A352426A92B2436A9B1ADD
:100620009BB2AB42DFD985235B00E75A0026032F3C
:1006300000D885E0E319DD782D029B785D19ADB215
:10064000231D9846B91E89B21800FFF75FFF854247
:1006500076D12379002B04D084225200A25A9A42E8
:100660006ED1012F6BD96379042B40D10533FF3351
:10067000E35A2371A3791B02E279D3189BB2207A43
:100680000202607A801882B294469A18402A05DDE8
:1006900084236371823BA371032123E062465200ED
:1006A000A2716246002A1CD09E18B6B203225D1CBD
:1006B000AA21890089464B445B00195B531C9BB2FD
:1006C000A718080A3871023292B2E3181971ABB256
:1006D000B342ECD1634659001E4B9C46614489B23B
:1006E00000E003214046FFF725FF002628E0642BA9
:1006F00015D1A433E35A2371E42363712000FFF77B
:1007000047FE0600032805D901004046FFF712FF07
:10071000002615E003214046FFF70CFF10E084227D
:100720005200A25A22718022524213436371012364
:10073000A37103214046FFF7FDFE002600E00026DE
:1007400030000CBC90469946F8BDC04600380140C8
:100750000020004003000100F8B5454B1A68012154
:100760000A431A605868434A02405A601868424A6D
:1007700002401A601868414A02401A605868404AAC
:1007800002405A60DA6A0F208243DA62186B3D4AEF
:1007900002401A635A6B8A435A6300229A601A68AD
:1007A000802149020A431A601A0080239B021168C3
:1007B0001942FCD01122344B1A602D4B5A685A60F2
:1007C0005A685A605968314A0A405A605A68882102
:1007D00049030A435A601A68802149040A431A608F
:1007E0001A0080239B0411681942FCD0204B5A68E0
:1007F00003218A435A60596802220A435A60190049
:100800000C224B681340082BFBD1194BC022D2029B
:100810005A6101229A6180239B051E6800221A609A
:100820001B4D1C000020FFF7BDFC07000120FFF757
:10083000B9FCAE4203D0002F16D100280DD1200004
:10084000FFF73CFD2000FFF7A9FE0028FAD0114E6B
:10085000E8E7C28BFB8B9A4202D0FFF7E3FCE1E7AB
:100860000D4B1B689847FEE70028F2D1F8E7C04619
:10087000001002400CB8FFF8FFFFF6FEFFFFFBFF81
:10088000FFFFC0FFACFEFFFF00200240FF7FC0FF64
:100890009DE568C6621A973904100008014B1B6871
:1008A0009F46C04608100008014B1B689F46C04683
:1008B0000C100008014B1B689F46C0462C10000816
:1008C000014B1B689F46C04638100008014B1B684F
:1008D0009F46C0463C100008014B1B689F46C0461F
:1008E00040100008014B1B689F46C046541000088A
:1008F000014B1B689F46C04658100008014B1B68FF
:100900009F46C0465C100008014B1B689F46C046CE
:1009100064100008014B1B689F46C0466810000821
:10092000014B1B689F46C0466C100008014B1B68BA
:100930009F46C04670100008014B1B689F46C0468A
:1009400074100008014B1B689F46C04678100008D1
:10095000014B1B689F46C04680100008014B1B6876
:100960009F46C04684100008014B1B689F46C04646
:1009700088100008014B1B689F46C0468C10000879
:10098000014B1B689F46C04690100008014B1B6836
:100990009F46C04694100008014B1B689F46C04606
:1009A00098100008014B1B689F46C0469C10000829
:1009B000014B1B689F46C046A0100008014B1B68F6
:1009C0009F46C046A4100008014B1B689F46C046C6
:1009D000A8100008014B1B689F46C046AC100008D9
:1009E000014B1B689F46C046B0100008014B1B68B6
:1009F0009F46C046B4100008FFFFFFFFFFFFFFFF48
:100A0000FFFFFFFFFFFFFFFFFFFFFFFFFFFFFFFFF6
:100A1000FFFFFFFFFFFFFFFFFFFFFFFFFFFFFFFFE6
:100A2000FFFFFFFFFFFFFFFFFFFFFFFFFFFFFFFFD6
:100A3000FFFFFFFFFFFFFFFFFFFFFFFFFFFFFFFFC6
:1010000000800020D11300082114000821140008DA
:1010100000000000000000000000000000000000D0
:10102000000000000000000000000000F591000832
:10103000000000000000000061920008A592000876
:1010400021140008000000002114000821140008E9
:10105000211400082114000805800008211400084C
:101060000000000021140008211400080D380008B9
:1010700021140008211400082114000800000000B9
:10108000211400082114000821140008211400086C
:10109000211400082114000821140008211400085C
:1010A000211400082114000821140008E56C000830
:1010B00021140008F56C000800000000FFFFFFFF8E
:1010C00002780B78002A03D0013001319A42F7D020
:1010D000D01A70470023C25C0133002AFBD1581E8E
:1010E00070470000002243088B4274D303098B42EF
:1010F0005FD3030A8B4244D3030B8B4228D3030CE8
:101100008B420DD3FF22090212BA030C8B4202D389
:101110001212090265D0030B8B4219D300E0090AB1
:10112000C30B8B4201D3CB03C01A5241830B8B42BA
:1011300001D38B03C01A5241430B8B4201D34B03A3
:10114000C01A5241030B8B4201D30B03C01A524108
:10115000C30A8B4201D3CB02C01A5241830A8B428D
:1011600001D38B02C01A5241430A8B4201D34B0276
:10117000C01A5241030A8B4201D30B02C01A5241DA
:10118000CDD2C3098B4201D3CB01C01A524183098E
:101190008B4201D38B01C01A524143098B4201D3C8
:1011A0004B01C01A524103098B4201D30B01C01AF3
:1011B0005241C3088B4201D3CB00C01A524183086D
:1011C0008B4201D38B00C01A524143088B4201D39A
:1011D0004B00C01A5241411A00D2014652411046FA
:1011E0007047FFE701B5002000F0F0F802BDC046EF
:1011F0000029F7D076E7704703460B437FD40022DF
:1012000043088B4274D303098B425FD3030A8B429A
:1012100044D3030B8B4228D3030C8B420DD3FF2204
:10122000090212BA030C8B4202D31212090265D0D2
:10123000030B8B4219D300E0090AC30B8B4201D385
:10124000CB03C01A5241830B8B4201D38B03C01ACC
:101250005241430B8B4201D34B03C01A5241030B43
:101260008B4201D30B03C01A5241C30A8B4201D3F4
:10127000CB02C01A5241830A8B4201D38B02C01A9F
:101280005241430A8B4201D34B02C01A5241030A16
:101290008B4201D30B02C01A5241CDD2C3098B42FB
:1012A00001D3CB01C01A524183098B4201D38B0178
:1012B000C01A524143098B4201D34B01C01A52411B
:1012C00003098B4201D30B01C01A5241C3088B4260
:1012D00001D3CB00C01A524183088B4201D38B004B
:1012E000C01A524143088B4201D34B00C01A5241ED
:1012F000411A00D201465241104670475DE0CA0FC4
:1013000000D04942031000D34042534000229C4683
:1013100003098B422DD3030A8B4212D3FC2289018D
:1013200012BA030A8B420CD3890192118B4208D363
:10133000890192118B4204D389013AD0921100E0C5
:101340008909C3098B4201D3CB01C01A52418309D9
:101350008B4201D38B01C01A524143098B4201D306
:101360004B01C01A524103098B4201D30B01C01A31
:101370005241C3088B4201D3CB00C01A52418308AB
:101380008B4201D38B00C01A5241D9D243088B4201
:1013900001D34B00C01A5241411A00D201466346A4
:1013A00052415B10104601D34042002B00D5494208
:1013B000704763465B1000D3404201B5002000F047
:1013C00005F802BD0029F8D016E770477047C046FF
:1013D0000D488546002103E00C4B5B584350043117
:1013E0000B480C4B42189A42F6D30B4A02E00023FA
:1013F00013600432094B9A42F9D307F049F808F018
:10140000E7FD01F0A9FAFEE700800020CCA8010862
:10141000000000202003002020030020E4700020B2
:10142000FEE7000030B5002A0CD00C008A180649EF
:101430000502000E2378584080004058684001346F
:101440009442F5D130BDC0468422002030B50A4C0C
:10145000002180256D000B060822002B02DA5B00BC
:10146000434000E05B00013A002AF6D108C4013194
:10147000A942F0D130BDC0468422002030B5002AF8
:1014800013D00D00013A92B201328918030A2A786A
:1014900053401C096340000258401C0360405B013C
:1014A000434098B201358D42F0D130BDF0B557467A
:1014B0004E464546E0B486B007000D0016001422E3
:1014C0006A4901A808F08BFDBC00E4190134E20F61
:1014D00014196410664B5B6A9846002E35D05E2363
:1014E000644AD35A002B2DD1634B9A46988A012126
:1014F000494202F0EFFF830018180130C30F18189B
:1015000040100A235B42434399465346588A0121BF
:1015100002F0E0FF830018180130C30F18184010C4
:101520008300181840004B46C01A3F224346134020
:1015300058432030C31713401818801148444D4BAE
:10154000186601E04B4B186E2418002F02D0002DB6
:101550000BDB00E000256D0001ABE85A8300181892
:101560004000012501277F4209E06D426D0001AB7B
:10157000E85A83001818400001256D420127002E0B
:101580003FD05E233B4AD35A002B29D13A4B1B8BC9
:10159000022B06D0032B08D0012B0AD114210027DF
:1015A00009E028210A277F4205E03C2114277F42D9
:1015B00001E00021002743469A04920EC91B4A43CA
:1015C00013002033DA173F210A40D3189B11DB198F
:1015D000294AD28A002A00D15B42264A536601E09A
:1015E000244B5B6E002D01DDC01800E0181A0028A6
:1015F00004DA404201256D42012702E0012501275E
:101600007F426043F530FF30FA218900FFF76AFD21
:101610004543784300192C19184B9C4200DD1C00EF
:10162000F423FF339C4201DCFA246400134B9842FC
:1016300000DD1800F423FF33984201DCFA2040005B
:10164000A2B20C4CA28685B2E5861021102005F0CE
:101650008BFA2A001021112005F086FA5E23E6524B
:1016600006B01CBC90469946A246F0BDDCA100081D
:1016700000100040B4260020F4210020C40900001E
:1016800010B540221C49002005F020F8002814D194
:10169000194B1B884F2B10D91848174B78229A5A90
:1016A00012047A21595A521802657C22995A090467
:1016B00002329A5A8B18836004E0802200210E487F
:1016C00008F096FC0C4B1B89012B03D802220A4B15
:1016D0001A8104E00A2B02D90A22074B1A81064B11
:1016E0002D229A800022DA801A82DB89012B01D90F
:1016F000014BDA8110BDC046F4210020B426002041
:1017000030B583B00C490D4B5A880A800C4A106DD5
:10171000050C78240D53023408539268140C7C2075
:101720000C5202300A521B880093002340220020F2
:1017300005F01CF803B030BDF421002094260020F1
:10174000B426002030B500233F2812D83B280DD9FD
:10175000094A116D094B0D0C78241D53023419539D
:101760009268140C7C215C5202315A524000034BA7
:10177000C35A180030BDC046B4260020F421002012
:1017800010B5002801D1064B9888054B5B88002BCB
:1017900005D0000105300A21FFF72EFD80B210BDF3
:1017A000F4210020014B0620185E7047F421002030
:1017B00010B5074BD88E9B8EC0180A301421FFF746
:1017C0001BFD013040000521FFF716FD80B210BD62
:1017D000B426002070B50F4BDD8E9A8EAB18013306
:1017E00059080020002913D0954209D2642428000A
:1017F00060439B08C018FFF775FC201A00B207E091
:10180000642462439B08D018FFF76CFC001B00B2F5
:1018100070BDC046B426002000230F2802D8400027
:10182000014BC35A180070479426002010B50B00D6
:10183000034A5086034A0021180004F059FB10BDEA
:10184000B4260020411A00087423014AD05A704778
:10185000B4260020002804D0034A136D506D181AD6
:1018600001E0014B186D7047B4260020002802D01B
:10187000024B986D01E0014B98687047B426002038
:10188000034B5865186501215C2299527047C04688
:10189000B4260020024B986001215C2299527047C7
:1018A000B426002070B51021102005F03BF905008A
:1018B0001321102005F036F9854202D3281A85B28B
:1018C00001E0401B85B21021112005F02BF9040026
:1018D0001321112005F026F9844202D3201A83B285
:1018E00001E0001B83B20020322B03D83223AB422D
:1018F000404180B270BDC046F8B5144801F032F9DD
:10190000134E0024134D370000213F2C0ED83B2CE2
:101910000BD92B6D190C7822B9520232BB52AB682D
:10192000190C0232B9520232BB5231880A4801F016
:1019300019F90134A4B20236402CE5D1074801F070
:1019400011F900216823034AD152F8BD489F0108CC
:10195000F4210020B4260020509F0108549F010864
:1019600070B504000D003F280ED84300074A9B5A6B
:101970008B4206D0064E01226823F25206F078FD13
:10198000F0666400014BE55270BDC046F4210020B2
:10199000B426002070B5284B99881A8C63280AD188
:1019A000481C00B2254B38215B5E591D002588423A
:1019B00012DD08B210E0030063330AD1481E00B202
:1019C0001E4B38215B5E591F0025884204DA08B29D
:1019D00002E0081800B20125041C632800DD63241E
:1019E00024B2182C00DC19241300193B9BB2492B9C
:1019F00005D812B2231C944200DD131C1CB20E4BFE
:101A0000DB8B002B04D0231C552C00DD55231CB28E
:101A100021000220FFF7A4FF002D01D0074B1C87F7
:101A2000054B1A8A0620195E98888300C01840006A
:101A300080B2FFF73BFD70BDF4210020B4260020EA
:101A400010B5154BDB8D002B24D0134A108E0128C6
:101A500006D0023842425041404200281AD000E0ED
:101A600001200D4A528E022A14D801339BB20A4A31
:101A7000D385032B03D98300C01800B203E0022BE7
:101A800001D9400000B2FFF785FF044A0021002081
:101A900004F02EFA10BDC046B4260020411A0008FA
:101AA00010B54623574AD35A002B2BD106F0E0FC41
:101AB000544BDB6BC01A544B984200D885E0102081
:101AC00005F02AFE002800D17FE0112005F024FE59
:101AD00000287AD04B4C01224623E25208211020E4
:101AE00005F020F84C23E052043BE052082111207D
:101AF00005F018F84E23E052043BE05206F0B8FC23
:101B0000206462E0012B14D10821102005F00AF8AE
:101B100000285AD048223B498A5A824255D00C00AC
:101B20004C23C8520222063BCA5206F0A1FCE063D5
:101B30004BE0022B33D10821112004F0F3FF0028E1
:101B400019D04A222F498A5A824214D00B004E22C1
:101B500088520A6D01320A650321462299520021FA
:101B6000183299520020FFF715FF002201210020B2
:101B700004F0BEF929E006F07BFC224BDB6BC01AB7
:101B8000224B984221D91F4C03224623E25206F0F1
:101B90006FFC20644422A35A0133A35215E0032BA7
:101BA00013D1184C01224333E2520821102004F0D3
:101BB000B9FF4C23E052043BE0520821112004F00D
:101BC000B1FF4E23E052043BE05244230D4AD35A66
:101BD000002B16D006F04CFC0A4B1B6CC01A0C4BA9
:101BE000984204D84423074AD35A232B09D9054CD9
:101BF00000224423E25206F03BFC206401225C23D5
:101C0000E25210BDB4260020CF070000DB05000023
:101C10005FEA000010B50B4BDB88181800B2031CFC
:101C2000092800DD0923191C1BB2093301DA064B10
:101C3000198809B20320FFF793FE0020FFF7AAFEE0
:101C400010BDC046F4210020449F010810B53B2878
:101C50003BD88AB243001D4C1B5B934235D00E2803
:101C60002DD883001A4CE3589F464B1E9941174BC1
:101C7000598024E0154B9888101A00B2FFF78AFEAD
:101C80001DE0124BD888101A00B2FFF7C3FF16E010
:101C900040000E4BC25212E040000C4BC2520D4BA2
:101CA000994203D1012004F0E5FA08E0002906D1A9
:101CB000002004F0CFFA02E04000044BC25202F0D0
:101CC00019FD01210020FFF7B1FD10BDF421002016
:101CD0004CA10008FF03000070B50400C54B5A8EEC
:101CE000062A00D957E29300C34AD3589F460028DA
:101CF00004D101210020FFF799FD02E3032809D157
:101D00000120404206F030FA00220021002004F0B9
:101D1000EFF8F6E2042808D1012006F025FA0022A7
:101D20000021002004F0E4F8EBE2012800D0E8E212
:101D3000002006F0D9F9E4E20C2805D1AF4A0021D1
:101D4000002004F0D5F816E0012808D10120FFF7A3
:101D500021FEAA4A0021002004F0CAF816E0022859
:101D600009D101204042FFF715FEA44A00210020BE
:101D700004F0BEF816E0032C08D10120FFF74AFF5B
:101D80009E4A0021002004F0B3F8BAE2042C09D1E5
:101D900001204042FFF73EFF984A0021002004F056
:101DA000A7F8AEE2002C00D0ABE201210020FFF743
:101DB0003DFDA6E2012804D10121002004F0BCF879
:101DC0009FE2022804D10221002004F0B5F898E235
:101DD00003280CD104F09AF8052104F0ADF80D2881
:101DE00000D88EE201210020FFF720FD89E20428BF
:101DF00000D191E1002800D083E204F08FF80400C4
:101E0000050004F083F80D2800D97AE280007C4BAD
:101E10001B589F467B4BDB8B002B1CD0002C04D126
:101E20000421080004F088F80DE0012C04D10421FD
:101E3000092004F081F864E2022C04D104210A2074
:101E400004F07AF85DE2032D00D05AE204210C2060
:101E500004F072F855E2002C04D10421012004F0B2
:101E60006BF80DE0012C04D10421080004F064F8A3
:101E70000DE0022C04D10421092004F05DF840E2B9
:101E8000032D04D104210A2004F056F839E2042D70
:101E900000D036E204210C2004F04EF831E2A11CFF
:101EA00009B20420FFF75CFD0421022004F044F88D
:101EB00027E26142614109B20520FFF751FD04218B
:101EC000032004F039F81CE221B20620FFF748FD98
:101ED00022E121B20820FFF743FD00215E23454A9D
:101EE000D1520020FFF756FD464BDB8B002B07D06D
:101EF000002C00D110E10421062004F01DF800E2BE
:101F0000002C00D108E10421052004F015F8F8E1C7
:101F100021B20B20FFF724FD00215E23354AD15268
:101F20000020FFF737FD0421062004F005F8E8E162
:101F300021B20920FFF714FD00215E232D4AD15262
:101F40000020FFF727FD0421072003F0F5FFD8E16B
:101F500021B20A20FFF704FD00215E23254AD15259
:101F60000020FFF717FD0421082003F0E5FFC8E17A
:101F700021B20C20FFF7F4FC00215E231D4AD15250
:101F80000020FFF707FDC7E0002C00D0B3E10021DF
:101F90000120FFF7E5FCBFE001210800FFF7E0FCAE
:101FA000BAE0184BDB8B002B36D0002C06D105F0A5
:101FB00003FD07210520FFF739FCA2E1012C04D124
:101FC00003210220FFF732FC9BE1022C04D1022105
:101FD0000120FFF72BFC94E1032C04D108210520FC
:101FE000FFF724FC8DE1042C0ED109210520FFF719
:101FF0001DFC86E1B426002088A10008411A0008D3
:10200000A4A10008F4210020052C00D079E10A21C8
:102010000620FFF70BFC74E1002C06D105F0CCFC88
:1020200007210520FFF702FC6BE1012C04D10421FC
:102030000B2003F081FF64E1022C04D10321022074
:10204000FFF7F4FB5DE1032C04D104210220FFF72C
:10205000EDFB56E1042C04D102210120FFF7E6FB41
:102060004FE1052C04D108210520FFF7DFFB48E1F3
:10207000062C04D109210520FFF7D8FB41E1072CEC
:1020800000D03EE10A210620FFF7D0FB39E121B262
:102090000D20FFF765FC200006F09AF801215C2373
:1020A000984AD15238E0002C00D027E1954B1A6DA8
:1020B0005A6531E00022934B9A652DE0002C0CD13B
:1020C00043210F20FFF74CFC01215C238D4AD152A4
:1020D0000B310520FFF7AAFB13E1012C0CD148219D
:1020E0000F20FFF73DFC01215C23864AD1520C31C1
:1020F0000520FFF79BFB04E1022C00D001E1002149
:102100000F20FFF72DFC01215C237E4AD1520D31B7
:102110000520FFF78BFBF4E001210020FFF786FB91
:10212000EFE0002800D0ECE0BFF34F8F764A774B0A
:10213000DA60BFF34F8FFEE702280BD801210020A1
:10214000FFF774FB002174236E4AD1520020FFF781
:1021500021FCD6E003280DD16A4B1B8ADB0603D491
:1021600001217423674AD15200220021002003F08C
:10217000BFFEC6E0042800D0C3E0624B1B8A1B07E9
:1021800003D4012174235F4AD15200220021002090
:1021900003F0AEFEB5E00A2C0AD1002004F05AF894
:1021A0000322584B5A860321002003F0C5FEA8E005
:1021B000002C03D1002004F04DF80FE00B2C03D1CC
:1021C000022004F057F813E0062C07D1504B9B89EE
:1021D000002B1CD0012004F04DF818E0072C07D18B
:1021E0004B4B9B89002B22D0002004F043F81EE0CB
:1021F000082C0CD1464B9B89002B02D06320FFF7A3
:10220000C9FB00220021002003F072FE35E0092CFA
:102210000DD13F4B9B89002B03D063204042FFF739
:10222000B9FB00220021002003F062FE4CE0012CEB
:1022300023D10120FFF7AEFB364A0021002003F036
:1022400057FE304B1B8A0E221A420AD1304B042112
:10225000595E1020FFF784FB01215C23294AD152EB
:102260003DE016221A423AD100211020FFF778FBF8
:1022700001215C23234AD15231E0022C24D10120D8
:102280004042FFF787FB234A0021002003F030FE85
:102290001C4B1B8A0E221A420AD11D4B0421595E87
:1022A0001020FFF75DFB01215C23164AD15228E084
:1022B00016221A4225D100211020FFF751FB0121DF
:1022C0005C23104AD1521CE0032C08D10120FFF7F7
:1022D000A1FC104A0021002003F00AFE11E0042CAA
:1022E0000FD101204042FFF795FC0A4A002100204F
:1022F00003F0FEFD05E0012C03D14DE6012C00D1D9
:10230000D8E670BDB42600200400FA0500ED00E018
:10231000F4210020411A0008F0B55F4656464D46AC
:102320004446F0B48DB030220021684607F060FECC
:10233000844B0093844B0193844B0293844B03930F
:10234000844B0493844B0593844B0693844B0793EF
:102350009023DB051B8A5B07DB0F1B019846814B33
:102360001B8A1B0603D5022342461A4390467D4B27
:102370001B8ADB0503D5042342461A43904690236B
:10238000DB051B8A9B0703D5082342461A43904668
:10239000744B1B8A9B0503D5012342461A43904682
:1023A0009023DB051B8A9B0603D5202342461A4354
:1023B000904605F005FF002806D0013840238340F1
:1023C000424613439BB29846012500260124664BE2
:1023D00099469A4602E001360135ADB2B7B23204F1
:1023E000120C130008335B004B445B885B009BB20C
:1023F00041460C4207D11100083149005A48844631
:1024000061444B8006E0110008314900514401202D
:1024100003434B80130008335B005349CB185988A2
:10242000072001405980072924D14F4B1B8A1C42A9
:1024300000D07CE023434C4A1382052F0ED1538DEC
:10244000002B03D10122484B5A8560E003F0A6FD22
:10245000002003F0FFFEFFF753F958E0002F5BD197
:10246000414B00229A851B8E002B35D100223E4B1A
:10247000DA852FE000292DD13B4B1B8A1C4250D01E
:1024800039498B46A3430B8292006B46D15837489B
:1024900000F068FB01235A46D38517863800FFF702
:1024A0001BFC002F2DD1304F0123BB8505F0E0FF31
:1024B000FB68C31A9B467B8E002B0DD105F0D8FF1D
:1024C000294BD860FA239B009B4505D80B20FFF7CA
:1024D00003FC01E0002F14D1234B1B8A234223D19C
:1024E000214B9B8D002B1FD001339BB21E4A93853D
:1024F000642B19D900221C4B9A850A20FFF7ECFBAC
:1025000012E06400A4B20B2D00D864E712E0164B71
:102510001B8E052BAAD0F4E7134B1B8EBB42F0D1C8
:10252000A4E7002FEDD1DBE76400A4B253E7002F4E
:10253000E7D1F9E70DB03CBC90469946A246AB46C0
:10254000F0BDC046589F0108609F0108649F0108C4
:102550006C9F0108749F01087C9F0108849F0108FB
:102560008C9F010800040048B4260020949F0108B5
:10257000F0B5474680B40121DF4806F01BF8012181
:102580008020000106F024F801218020800206F05E
:1025900089FA01218020C00206F084FA01218020FE
:1025A000000306F07FFA01218020400306F07AFA4A
:1025B0000121012006F084FAE120400200F062FFD0
:1025C000CE4EF78B310020313A00CD4800F0CAFAE8
:1025D000CC4D78220021280007F00AFDCA4B596A29
:1025E0002960802252045A62C84800F0BBFAC848E9
:1025F000FEF72CFF05F0C2FEC64805F02DFFC64CC5
:1026000020220021200007F0F3FCB38B2380678099
:102610002B681A0CA283E383C04B1B681A0C22821E
:102620006382BF4B1B681A0CA282E382BD4B1B68FE
:102630001A0C2283638305F0B5FF208105F0ACFFFF
:1026400060810004020C2189B74800F08BFAB74C76
:10265000002626710127E771B54B23609025ED0513
:102660002100280006F06CF8C3235B0123602100E1
:10267000B04806F065F8B04B23602100AF4806F083
:102680005FF82671E771662323602100280006F0B9
:1026900057F8E0239B0023602100A64806F050F87D
:1026A0002B8A9B0706D42B8A5B0703D40121762350
:1026B000944AD1529025ED054021280006F09AF861
:1026C0009A4C0026A671E6710127277140232360EA
:1026D00066712100280006F033F8032323717D334F
:1026E00023602100280006F02BF8A671E6712771FF
:1026F0000C2323606671914D2100280006F020F81C
:102700000421280006F074F80821280006F072F869
:1027100004F0E8F8FEF7B4FF05F07EF905F0CEFD11
:10272000874B588B05F054FD03F0D8FD03F0FCFAFD
:10273000844806F073F8072006F076F8FA2006F0D1
:1027400079F8002006F06AF806F082F806F078F8CA
:1027500005F08EFE05007C4B1E806A4C236D636580
:102760000020FFF717F97623E35A002B06D0042147
:102770000D2003F0E1FB0322624B5A86614B984621
:102780001F001C00022007F069FA05F01BFE00F094
:1027900071FCFFF7C1FD04F021F8FFF781F905F0A6
:1027A00067FE401BF423FF3398421AD9F535FF35F5
:1027B0000C20FFF791FA43469A8E1021102004F066
:1027C000D3F94346DA8E1021112004F0CDF902220C
:1027D0000921102004F0C8F902220921112004F077
:1027E000C3F905F04DFE7B68984211D00133636058
:1027F000A3680133A360A36D581CA0653C21FEF7BC
:10280000F7FC1E2904D100221D39002003F070FBC3
:10281000FFF748F8002809D0484E0821300005F09D
:10282000E7FF0421300005F0E5FF08E0434E0821F2
:10283000300005F0DFFF0421300005F0D9FF05F07E
:10284000FFFF5C232F4AD35A002B04D000215C23C6
:10285000D152FEF755FF74232A4AD35A012B0CD1CB
:10286000160002227333F25205F002FE3067002296
:1028700000213648FEF71AFE2CE0022B14D105F099
:10288000F7FD204B1B6FC01A314B984222D905F03F
:10289000EFFD1C4E3067002200212E48FEF706FE99
:1028A00003227423F25215E0032B13D105F0E0FD4F
:1028B000144B1B6FC01A264B98420BD905F0D8FD5C
:1028C000104E3067002200212048FEF7EFFD022263
:1028D0007423F25268230B4AD35A002B00D151E7DC
:1028E00005F0C6FD074BDB6EC01A312800D849E75A
:1028F000FFF702F846E7C04633100000949D010838
:10290000B09F0108B426002000100240C49F0108B7
:10291000B71DC1048813000094260020ACF7FF1FE8
:10292000B0F7FF1FB4F7FF1FD89F01084C27002006
:1029300019090000000400483FE2000000080048B8
:10294000F421002055550000000000208A020000FC
:102950000F270000EE02000000B583B000230193B2
:102960000093802252000349034806F08DFF07F0D0
:1029700057F8FEE700A001087125000810B5194BB3
:10298000194AD35A002B2BD00D2829D0174BD358D6
:10299000002B0ED0164A14498A5A012A20D90A005F
:1029A0005C1C1249545018701149535A013B535240
:1029B00016E0104B0C4AD15A4B1C9BB20E4A934264
:1029C00000D900230D4A084CA25A92B2934202D079
:1029D0006054084963520A4A116880230B4313600C
:1029E00010BDC0463E1000000C280020381000002A
:1029F0003C10000026100000FF030000281000001B
:102A00000050004010B504000078002805D00134C3
:102A1000FFF7B4FF20780028F9D110BDF0B55F466C
:102A20004E464546E0B482B00400009101929846BB
:102A30000B00083B082B01D90A23009300261A4BF0
:102A40009B461A4F00E04E46731C99465B46F518AC
:102A500000992000FEF7CCFB7B5C2B7000992000D6
:102A6000FEF740FB041EEED1019B99450BDA2034A2
:102A70004346002B00D01034019F2000FFF77EFF5B
:102A8000013FB945F9DB4B46002B07DD064CA05D45
:102A9000FFF774FF013E731C002BF8DC02B01CBC76
:102AA00090469946A346F0BDFC270020F0A10008FF
:102AB000F0B55F4656464D464446F0B483B0040038
:102AC0000091019298460B00083B082B01D90A237C
:102AD000009300239B46002C02DA644201339B469C
:102AE00000261E4B9A461E4B994600E03E00771C7E
:102AF0005346F51800992000FEF764FC4B465B5CDA
:102B00002B7000992000FEF777FB041EEED15B4688
:102B1000002B03D02D22114BDA55B71C019BBB4271
:102B20000BDD20254346002B00D01035019C2800EA
:102B3000FFF724FF013CA742F9DB7C1E002F05DDD7
:102B4000064D285DFFF71AFF013CFAD203B03CBCEA
:102B500090469946A246AB46F0BDC046FC270020F1
:102B6000F0A100080FB4F0B585B00AAB80CB039399
:102B7000387800286DD00023019301246442002599
:102B80002026002D08D125285AD0FFF7F7FE002374
:102B900001930124644258E0252803D1FFF7EEFE9B
:102BA000002552E064280AD1039B1A1D039218687D
:102BB000019B22000A21FFF77BFF002545E07528D5
:102BC0000AD1039B1A1D03921868019B22000A2157
:102BD000FFF724FF002538E00300B343582B0AD148
:102BE000039B1A1D03921868019B22001021FFF716
:102BF00015FF002529E0732807D1039B1A1D0392B6
:102C00001868FFF7FFFE00251FE0632807D1039B2C
:102C10001A1D03921868FFF7B1FE002515E0002584
:102C20000300303B092B10D8002C02DA012301935A
:102C30000024A3001B195B003038C418012504E0F0
:102C400000230193012464420125013738780028CC
:102C500097D105B0F0BC08BC04B01847F0B55F468A
:102C600056464D464446F0B48FB001284CD000285B
:102C700005D0022875D0032800D19FE0D0E06C4B2E
:102C8000DC8B0E20FEF7C8FD0C900F20FEF7C4FD74
:102C90000D900820FEF7C0FD05000920FEF7BCFDE1
:102CA00006000A20FEF7B8FD07000B20FEF7B4FD72
:102CB00080460C20FEF7B0FD81460D20FEF7ACFDEE
:102CC00082460020FEF7C6FD83460020FEF7CEFDBB
:102CD0000B900D20FEF736FD08903C210B98FEF777
:102CE00001FA0790594606915146059149460491CB
:102CF000414603910297019600950D9B0C9A210085
:102D00004C48FFF72FFF8BE01021102003F00AFF43
:102D10000B901321102003F005FF0C9016211020BA
:102D200003F000FF06001821102003F0FBFE07004F
:102D30001D21102003F0F6FE04001E21102003F0D8
:102D4000F1FE05001F21102003F0ECFE0390029518
:102D50000194009733000C9A0B993748FFF702FF54
:102D60005EE01021112003F0DDFE0B9013211120F5
:102D700003F0D8FE0C901621112003F0D3FE0600BC
:102D80001821112003F0CEFE07001D21112003F0B1
:102D9000C9FE04001E21112003F0C4FE05001F21FE
:102DA000112003F0BFFE03900295019400973300B9
:102DB0000C9A0B992148FFF7D5FE31E004210C2035
:102DC00003F0B0FE0B9005210C2003F0ABFE0C903D
:102DD00008210C2003F0A6FE0D9009210C2003F021
:102DE000A1FE07000A210C2003F09CFE04000B2129
:102DF0000C2003F097FE05000C210C2003F092FE3E
:102E000006000D210C2003F08DFE04900396029520
:102E1000019400970D9B0C9A0B990948FFF7A2FEAD
:102E20000FB03CBC90469946A246AB46F0BDC046AA
:102E3000949D010808A0010848A001086CA00108A1
:102E400090A00108F0B54F464646C0B483B01700C5
:102E5000019304000D00884227D2184E184B994662
:102E6000184B9846E368B3421AD1A3684B4517D173
:102E70006368434514D1144B22689A4210D1019AD9
:102E8000002A02D0A38B93420AD1606FFEF7DEFACC
:102E90007C222100206FFEF7C5FAE36F984206D02E
:102EA000E419AC42DED3002002E0002000E0200064
:102EB00003B00CBC90469946F0BDC0460190C96570
:102EC000ED3E4BAA19228FDF3371D69D10B5002835
:102ED0000FD1164B102216491648FFF7B3FF041EF8
:102EE0001ED0436902699A1A0169006FFEF79AFAC7
:102EF00011E00E4B102210490D48FFF7A3FF041EEE
:102F000010D0016943695A1A80239B029C46614490
:102F1000006FFEF787FAA36F984205D1200004E006
:102F2000002002E0002000E0002010BD082B00007F
:102F3000000002080010000800000408F0B5474631
:102F400080B41D4BC4181D4B9C4231D8C3072FD4ED
:102F50001B4B1B691B0604D5194B1A4C5C601A4CA1
:102F60005C60002A1FD00026154C02239C4640338B
:102F700098460125430507D16346236160614346B6
:102F80002361E3681D42FCD18B195B781B028F5DC6
:102F9000FB1825610380E3681D42FCD10236B6B2FE
:102FA0000230B242E6D8064A116980230B4313610E
:102FB00004BC9046F0BDC0460000FEF7FFFF0100D4
:102FC0000020024023016745AB89EFCDF0B54746AD
:102FD00080B482B0040001908C46224B224A9A5A57
:102FE00092B222495B5A9A4230D01F4A1D49885AF0
:102FF00080B26246002A2BD083422BD021000025CC
:10300000184F1B4E5A1C92B2FB188024E400A046B5
:1030100043441C781300B24200D900233B2C03D058
:10302000232C01D00D2C07D1002201994A550F4ABB
:103030000C498B52280010E00135ADB20C70AC4544
:103040000AD001318342DDD1002006E0002004E0F7
:10305000002002E0002000E0002002B004BC904606
:10306000F0BDC0460C2800202A1000002C100000E3
:10307000FF010000F8B55F4656464D464446F0B4A1
:10308000CB4B82221201944663449B46C94BCA4AE9
:10309000944663449A4682231B015344984642E176
:1030A000C023DB00C24AD35AC44A934206D1C44962
:1030B000CA8B2031C348FFF755FD34E1C24A934221
:1030C00002D1FEF719FC2EE1C022D200B8498A5C79
:1030D000402A5DD1BD4BCB5C002601241F2B3CD880
:1030E0004DE00134A4B220002B19C022D200944636
:1030F00063441B781F2B02D9303B092BF1D8C02326
:10310000DB009C466044C01906F063FF01B230004A
:10311000FEF79CFD3B19C022D200944663441B7805
:10312000303B092B0BD8A24A0134A4B21319C02199
:10313000C9008C4663441B78303B092BF4D9013617
:10314000B6B2402E1BD09A4B1B19C022D200944617
:1031500063441B781F2B04D811E0954B99461D0042
:103160001F0020004B461B19C022D2009446634426
:103170001B781F2BC3D9303B092BB2D8BFE70022E5
:103180000021002002F0B4FE9148FFF7EBFCCAE0FA
:10319000904A934203D1002003F06CF8C3E08E4ABA
:1031A00093420CD10120FFF791FE002803D08B48F9
:1031B000FFF7D8FCB7E08A48FFF7D4FCB3E0894AB0
:1031C000934216D17B4806F004FF040081235B0183
:1031D0005246D0500022844B5146CA5280221201DE
:1031E000FF21404606F004FF21008048FFF7BAFCAB
:1031F00099E07F4A934214D17E48FEF727F96C4C40
:10320000794BE25A82231B01E11801204042FEF76C
:1032100009F9020081235B01E1587748FFF7A2FC1E
:1032200081E0764A934210D16F4B614AD25A043BF7
:103230005F49C85880239B029C4660445946FFF76B
:103240007DFE6F48FFF78EFC6DE06E4A934252D1CF
:103250006D4E3500083530000223554C2100E21830
:10326000C027FF00BC46624412787E2A06D1013393
:103270009BB2CA1862441278013AD2B2027001338A
:103280009BB201308542EAD1494AD218C021C90017
:103290008C46624412787D2A29D1454AD3184B4A7C
:1032A000944663441B787D2B21D14F4B404AD35A1F
:1032B000FF22D200934216D81A00083292B23C483C
:1032C0003478C11882252D01AC4661440C7001335D
:1032D0009BB201369A42F3D1434B3549CA524B480F
:1032E000FFF740FC1FE04A48FFF73CFC1BE0494861
:1032F000FFF738FC17E0484A93420BD1474A802336
:103300009B051A60BFF34F8F454A464BDA60BFF307
:103310004F8FFEE7444A934205D1264806F059FEF6
:1033200080B2FFF79BFC802189004048FFF74EFEEA
:10333000002800D0B4E605F09BF83D4B984204D934
:1033400001213C4B1A4AD15205E03A4B184AD35A54
:10335000002B00D18AE082235B01154AD35A012B4E
:1033600011D0002B02D0022B6AD07FE020213248FE
:1033700005F040FA05F07CF80D4B304A98500121D9
:10338000043A995272E005F073F82C4B084AD3586E
:10339000C01A18286AD92021274805F029FA05F013
:1033A00067F8034B254A98500221043A99525DE090
:1033B0000C2800200F2E0020FDF9FFFF647600008E
:1033C000949D0108B09F010867730000010600008A
:1033D000B4A001085E5E000066730000BCA0010896
:1033E000CCA001086661000024100000E4A00108E0
:1033F00066630000B71DC104F4A0010866700000F8
:1034000008A101087B7B00000C30002018A10108F6
:103410001CA1010820A1010866780000621A9739F2
:103420000400FA0500ED00E0697200000C2E002097
:10343000C40900003E1000000004004844100000D1
:1034400005F016F80C4B0D4AD358C01AF423FF337D
:1034500098420BD90D20FEF775F901000848FFF7D7
:1034600081FB032182235B01044AD1523CBC90467C
:103470009946A246AB46F8BD441000000C28002037
:1034800024A10108F0B5474680B48046234A0021B4
:10349000234806F0ADFD01218020400305F01EFB0E
:1034A000204E04220321300005F0A6F90422042155
:1034B000300005F0A1F91C4C0025A571E57102232F
:1034C000237116332360012767712100300005F056
:1034D00037F92023236027712100300005F030F9EF
:1034E0002021300005F084F9104943460B604D60FF
:1034F0008D60CD604D610C230B610D4C200005F0FB
:1035000061FC0121200005F0CBFC012209492000CB
:1035100005F004FD04BC9046F0BDC0464810000014
:103520000C280020000400484C27002068270020B9
:103530000050004005010500F0B5284BDA69186815
:10354000130702D00F21254B1962930620D5234B78
:103550009C8CA4B2224B2349CB5A01339BB2224903
:103560008B4200D9002321491E4D695A994209D046
:103570001B4EA95B69188027FF00BC4661440C7094
:10358000AB5305E0174B0021184C1953144C195339
:10359000030622D5130620D5124A154BD35A9BB2E7
:1035A0001449525A9A4213D00E4B11495A5A92B2A8
:1035B000501C80B25852985C084A10855B5A9BB2E6
:1035C0000D4A934209D90021094B064AD15204E021
:1035D000024A136880218B431360F0BD0050004005
:1035E0002A1000000C280020FF0100002C10000011
:1035F0002810000026100000FF03000070B5802591
:10360000ED00084C2900200005F0F4F8022006F037
:1036100025FB2900200005F0EBF8022006F01EFB38
:1036200070BDC0460004004810B5040002210E48D9
:1036300005F0E0F8012004F00FFF21000B4805F031
:10364000BFFA052004F008FF084C8021200005F097
:10365000C3FA0028F9D10221034805F0C9F8012076
:1036600004F0FAFE10BDC0460004004800380040D7
:1036700010B504000421054805F0BCF8012004F051
:10368000EBFE2000FFF7D0FF10BDC046000400484D
:1036900010B504000421054805F0AAF8012004F043
:1036A000DBFE2000FFF7C0FF10BDC046000400484D
:1036B00070B50C4B1B8ADB070BD411E0338A2B420D
:1036C0000ED00A2006F0CAFA013CA4B2002CF5D1B3
:1036D00006E00A2006F0C2FA034C024E0125EDE78F
:1036E00070BDC04600040048E703000070B56023C9
:1036F000294AD35A012B05D100283FD11E26274D38
:10370000683541E000283CD0FFF7D2FF1820FFF7D2
:10371000AFFF8020FFF7BCFF2220FFF7A9FFA12009
:10372000FFF7B6FF2020FFF7A3FFFFF7C1FF1B2025
:10373000FFF79EFF1820FFF7ABFF6020FFF7A8FF01
:103740002220FFF795FFB120FFF7A2FF2020FFF70F
:103750008FFFFFF7ADFFFFF7ABFF3220FFF788FFCA
:103760000026002E07D00024285DFFF791FF0134CA
:10377000A3B2B342F8D3FFF79BFF0BE01E26074D21
:1037800002E04626054D2035FFF792FF3220FFF775
:103790006FFFE8E770BDC0465438002088A20008DB
:1037A000F8B507000E0014001D004420FFF760FF6D
:1037B000FF08F8B2FFF76CFFE408E0B2FFF768FF1C
:1037C0004520FFF755FFF0B2FFF762FF300AFFF721
:1037D0005FFFE8B2FFF75CFF280AFFF759FFF8BD6B
:1037E00070B504000D004E20FFF742FFE408E0B280
:1037F000FFF74EFF4F20FFF73BFFE8B2FFF748FF10
:10380000280AFFF745FFFFF753FF70BD00B583B0EF
:10381000002301938020800204F02EFF064B586B9A
:1038200001A905F0FFFE019B002B03D08022520569
:10383000024B1A6003B000BD5438002004ED00E0D4
:10384000F8B507000D001F4C002300220021606B1B
:1038500005F026FF1C4E0421300004F0C9FF0120B2
:1038600004F0FAFD0221300004F0C4FF012202211D
:10387000164805F0A7F9E760656121000831144D8D
:10388000280004F0B3FE8027BF02380004F0F4FEE5
:10389000380004F0FDFE0121280004F0C5FE606B35
:1038A0000023FA225200002105F0FAFE022006F061
:1038B000D5F90221300004F09BFF0021280004F01C
:1038C000B3FEF8BD54380020000400480038004022
:1038D0005800024070B504006023AC4AD35A012B53
:1038E0006ED16133D35A002B31D0FFF787FE012010
:1038F000FFF7BEFE2720FFF7CBFE0120FFF7C8FE33
:103900000020FFF7C5FE0C20FFF7B2FED720FFF71F
:10391000BFFED620FFF7BCFE9D20FFF7B9FE2C208E
:10392000FFF7A6FEA820FFF7B3FE3A20FFF7A0FEA0
:103930001A20FFF7ADFE3B20FFF79AFE0820FFF7A5
:10394000A7FE1120FFF794FE0320FFF7A1FE200041
:10395000FFF7CCFEFFF7ACFE2823FF337F220021C8
:103960000020FFF71DFF00210020FFF739FF242072
:10397000FFF77EFE942149018548FFF761FF222071
:10398000FFF776FEC420FFF783FE2020FFF770FECE
:10399000FFF78EFEFF20FFF76BFEFFF789FE002C7E
:1039A00000D1EAE01020FFF763FE1120FFF770FE60
:1039B0000A2006F053F901216223744AD152DCE057
:1039C0006223724AD35A002B5FD0FFF717FEFFF72E
:1039D0006FFE1220FFF74CFEFFF76AFE7420FFF720
:1039E00047FE5420FFF754FE7E20FFF741FE3B20A8
:1039F000FFF74EFE2B20FFF73BFE0420FFF748FEAB
:103A00006320FFF745FE0C20FFF732FE8B20FFF707
:103A10003FFE9C20FFF73CFE9620FFF739FE0F206B
:103A2000FFF736FE0120FFF723FE2720FFF730FEC9
:103A30000120FFF72DFE0020FFF72AFE1120FFF7DF
:103A400017FE0320FFF724FE4420FFF711FE00209D
:103A5000FFF71EFE0F20FFF71BFE4520FFF708FEB5
:103A60000020FFF715FE0020FFF712FE2720FFF7CA
:103A70000FFE0120FFF70CFE3C20FFF7F9FD0120AF
:103A8000FFF706FE0A2006F0E9F8002C04D15E23B9
:103A90003E4AD35A002B38D00120FFF727FE2823B7
:103AA000FF337F2200210020FFF77AFE0021002053
:103AB000FFF796FE2420FFF7DBFD94256D01344CC3
:103AC00029002000FFF7BCFE2220FFF7D1FDC72010
:103AD000FFF7DEFD2020FFF7CBFDFFF7E9FD0A2011
:103AE00006F0BCF81020FFF7C3FD1120FFF7D0FD52
:103AF0000A2006F0B3F801216223244AD1522A0099
:103B00002100244806F06BFA37E00020FFF7EEFDB5
:103B10002823FF337F2200210020FFF741FE0021F0
:103B20000020FFF75DFE2420FFF7A2FD942464012E
:103B300021001748FFF784FE2620FFF799FD21009A
:103B40001448FFF77DFE3A20FFF792FD1A20FFF799
:103B50009FFD3B20FFF78CFD0820FFF799FD2220F9
:103B6000FFF786FDC720FFF793FD2020FFF780FDBC
:103B7000FFF79EFD0A2006F071F85E23034AD35A30
:103B8000002B02D000215E23D15270BD543800209A
:103B9000304C0020B03900205823084AD35A5A2B01
:103BA00005D087225200934204D0802004E0942064
:103BB000400001E0942040007047C0465438002087
:103BC0005823074AD35A5A2B06D0872252009342D1
:103BD00004D09420400002E0802000E08020704764
:103BE0005438002010B55823174CE35A5A2B03D1F0
:103BF0007F235B1A010098B27F2824D82823FF3343
:103C0000994220D8002A0FD0C9010918CB170722E2
:103C100013405918C9100D4C07231840793303413C
:103C2000625C134363540EE0C9010918CB170722E5
:103C300013405918C910054C072318407932024126
:103C4000635C9343635410BD54380020304C002013
:103C50005823114AD35A5A2B03D17F235B1A0100F0
:103C600098B200237F2815D82822FF32914211D81C
:103C7000C9010918CB17213AFF3A13405918C91046
:103C8000064B5A5C07231840793303411340581EF2
:103C900083419BB21800704754380020304C0020FC
:103CA000F0B55F4656464D464446F0B483B0060034
:103CB000824689461500FFF76FFF03B29B46FFF768
:103CC0007FFF03B29846B34536DD4B466A46938084
:103CD00093880193013B1FB2B6B201993000FFF700
:103CE000B7FFA84228D0C84510DD4C46A4B2210039
:103CF0003000FFF7ADFF854208D02A0021003000D8
:103D0000FFF770FF013424B24445EFDB3C1E0FDBAC
:103D1000A4B221003000FFF79BFF854208D02A00A3
:103D200021003000FFF75EFF013C24B2002CEFDAE7
:103D3000013636B25E45CFDB5446013C24B2002C3E
:103D400036DB4B466A46938093880193013B1EB253
:103D5000A4B201992000FFF77BFF854228D0C84517
:103D600010DD4F46BFB239002000FFF771FF8542DA
:103D700008D02A0039002000FFF734FF01373FB296
:103D80004745EFDB371E0FDBBFB239002000FFF7DE
:103D90005FFF854208D02A0039002000FFF722FF8C
:103DA000013F3FB2002FEFDA013C24B2002CCFDA02
:103DB00003B03CBC90469946A246AB46F0BDC04617
:103DC000F0B55F4656464546E0B484B082468B4621
:103DD0001500029353421BB21F0003939D4227DB41
:103DE0002B006B43984617E0230063439B19AB42BB
:103DF00006DC5346181980B2029A0199FFF7F2FEC9
:103E0000013424B2BC42EFDD3B004746A8461D000A
:103E10007B1C1FB2BD420BDB3E007E43039C5B4616
:103E2000DB199BB201932B004546B8461F00DBE728
:103E300004B01CBC90469A46A346F0BDF0B55F4660
:103E400056464D464446F0B483B004000E009046FA
:103E50000CAA12880192404503DB4246811A09B23E
:103E600002E04246111A09B29E4202DBF21A12B275
:103E700001E09A1B12B200208146914207DA4246C5
:103E80009846130022003400160001229146444552
:103E900005DD32001E0013002200444690464246D3
:103EA000121B92B2924615B29E4208DBF71A3FB23D
:103EB000EB0F5D196D1001235B429B4606E09F1BD3
:103EC0003FB2EB0F5D196D1001239B4644451ADC90
:103ED0004B46002B05D0A1B2B0B2019AFFF782FE8B
:103EE00004E0B1B2A0B2019AFFF77CFEED1BABB2C9
:103EF0001DB2002D03DA5E4436B253441DB20134C4
:103F000024B24445E4DD03B03CBC90469946A24649
:103F1000AB46F0BDF0B585B01D000AAB1C8803B2FE
:103F2000180017B20EB2009433003A00310003902B
:103F3000FFF784FF2DB200942B003A0031003800C7
:103F4000FFF77CFF00942B00039A29003800FFF74D
:103F500075FF00943300039802002900FFF76EFFFD
:103F600005B0F0BDF0B585B0070014000AAA1588A9
:103F7000A04201D302D80FE0270004001EB20BB20A
:103F8000039320B20095330002000399FFF756FF18
:103F90000134A4B2BC42F4D305B0F0BDF0B587B093
:103FA00003900C000CA909880DA8058800292FD1C1
:103FB00069468889D10F891849108AB2811A09B2D5
:103FC0000491821812B2DE0FF3185B109BB2A6B2F6
:103FD0009F193FB2F61A36B200953B0005923900A0
:103FE0000498FFF72BFF00953B00059A31000398DA
:103FF000FFF724FF00953300039E32003900049838
:10400000FFF71CFF2A0021003000FFF749FE62E0A5
:1040100001292FD169468889D10F891849108AB2A0
:10402000871A3FB2821812B20492A6B2DA0FD218DF
:10403000521093B2F21A11B2F3181EB20095330067
:104040003A0005913800FFF7F9FE009533003A0079
:104050002100049E3000FFF7F1FE0095230032009E
:1040600005993800FFF7EAFE2A0021000398FFF7C0
:1040700017FE30E002292ED1D10F8A18521092B2C9
:104080006946898957183FB28A1A12B20492A6B2B9
:10409000DA0FD218521093B2F21A11B2F3181EB2FC
:1040A000009533003A0005913800FFF7C7FE0095F0
:1040B00033003A002100049E3000FFF7BFFE009558
:1040C0002300320005993800FFF7B8FE2A002100CE
:1040D0000398FFF7E5FD07B0F0BDC046F0B55F46B9
:1040E00056464D464446F0B485B007008B46904690
:1040F00001930EAB1B78002851D0202B01D1808872
:1041000052E08278002093424ED3F97899424BD303
:104110009B1A9B00BA68944663445E881B8818000B
:1041200003933B88002B3CD00300013BDA170721A7
:104130000A40D318DB1001339BB2994600239A46FC
:1041400043460293B846070024E0029B53449BB2C7
:104150000093A8B2C2084346DB689B199B5C2342CC
:1041600005D0584480B2019A0099FFF73BFD6408DE
:1041700000D180340135ABB2BB42EAD34E44B6B273
:10418000534601339BB201229446E24442461288D0
:104190009A4208D900258024002FD6D1EEE70020CE
:1041A00002E0039800E0039805B03CBC90469946B5
:1041B000A246AB46F0BDC046F0B50C2805D9002498
:1041C000214F0AE0854208D300E00026F6001E4891
:1041D0008619F06900280BD133E00134A4B226001F
:1041E000E5007D192D8B002DECD1174808302AE011
:1041F000002B01D004881C800B78002400251F2B85
:1042000004D81AE0002D01D00235ADB2202B03D125
:104210008388ED18ADB20BE086789E4208D8C77847
:104220009F4205D39B1B9B0086689B5BED18ADB23C
:104230000134A4B20B5D1F2BE4D8002A03D01580F3
:1042400001E001480830F0BD08A30008F0B589B0CE
:1042500006000591100004930EAB20CB1C880E23A2
:1042600004AA9446634407AA2900FFF7A5FF039018
:10427000082C6AD8A400494B1B599F4607AB1B88E2
:104280005B08F31A9EB260E007AB1B88F31A9EB27C
:104290005BE00E2304AA944663441B885B08059ADE
:1042A000D31A9BB2059350E007AB1B885B08F31A47
:1042B0009EB20E2304AA944663441B885B08059AA9
:1042C000D31A9BB2059340E007AB1B88F31A9EB24A
:1042D0000E2304AA944663441B885B08059AD31AEC
:1042E0009BB2059331E0039BDB880E2204A98C4628
:1042F000624412889B1A059A944663449BB20593C4
:1043000023E007AB1B885B08F31A9EB2039BDB8894
:104310000E2204A98C46624412889B1A059A944680
:1043200063449BB2059310E007AB1B88F31A9EB25F
:10433000039BDB880E2204A98C46624412889B1AD8
:10434000059A944663449BB20593002207AB1A80FA
:104350002B7800271F2B06D81CE0002807D002303E
:1043600007AA108003E06A461421525E059207AC4A
:104370002188711809B20093049B059A0398FFF7EE
:10438000ADFE2388C01880B220807B1C9FB2EB5DFD
:104390001F2BE2D807AB188809B0F0BD04A20008B3
:1043A000F0B55F4656464D464446F0B485B00190A0
:1043B000884602920E9A9146D788928892461AB2FF
:1043C0009346FF2213409AB2082A40D89B00404AE5
:1043D000D3589F4653465B08019AD31A9BB2019368
:1043E00035E0019B52469B1A9BB201932FE07B085C
:1043F000CB1A9BB298462AE053465B08019AD31A1F
:104400009BB201937B08CB1A9BB298461FE0019B9D
:1044100052469B1A9BB201937B08CB1A9BB29846DB
:1044200015E0CB1B9BB2984611E053465B08019AFE
:10443000D31A9BB20193CB1B9BB2984607E0019B1A
:1044400052469B1A9BB20193CB1B9BB29846002FFE
:1044500037D08025002400265346013B019A94461C
:10446000634403934B461B689B5D2B4211D05B4614
:10447000002B07DB019B181980B2029A4146FFF717
:10448000B1FB06E0039B181B80B2029A4146FFF77E
:10449000A9FB0134A4B26D0805D10136B6B2A2451C
:1044A00005D980350BE0A24509D80136B6B243469E
:1044B00001339BB29846013FBFB280250024002FF4
:1044C000D0D105B03CBC90469946A246AB46F0BD63
:1044D00028A2000870B58AB005000E000D4C21001E
:1044E0006031122205A805F07AFD210074311222F4
:1044F000684605F074FD0020082D08D8002E03DB67
:104500006D0005ABE85A02E06D006B46E85A0AB050
:1045100070BDC04608A30008F0B54F464646C0B47B
:1045200083B0050000260024674B9846C0E05E2A51
:1045300001D0242A5BD101342B5D190030390929BF
:104540000DD80027B800C0194000303B1F180134B7
:104550002B5D190030390929F4D9002F12D15B4F96
:104560005B4B9B194246D35140239E1B594BD6525D
:104570005948FEF7F7FA00234246D25913704246D3
:10458000D3512FE05E2A09D10220FDF7DBF8C019D4
:1045900080B2FDF7F5F80190504F08E00220FDF7DA
:1045A000D1F8C01B80B2FDF7EBF801904C4F464AA2
:1045B000474B9B19454953504020861B454BD652CB
:1045C0000120FDF7BFF86B23002800D10233019AC8
:1045D00039004448FEF7C6FA3B4A3C4B0021D0580C
:1045E0000170D1503A48FCF775FD060060E07E2A64
:1045F00001D0232A58D10134285D0300303B092B18
:104600000DD800218B005918490030384118013469
:10461000285D0300303B092BF4D9002914D12A4F1F
:104620002A4B99462A4B9B194A46BB5040239E1B56
:10463000284BFE522C48FEF795FA00234A46BA58FA
:1046400013704A46BB502AE07E2A14D11E4F1F4BDE
:1046500099461F4B9B194A46BB5040239E1B1D4B3E
:10466000FE522248FEF77EFA00234A46BA581370DB
:104670004A46BB5013E0144F144B9946144B9B19F8
:104680004A46BB5040239E1B124BFE521848FEF771
:1046900069FA00234A46BA5813704A46BB500C4880
:1046A000FCF718FD060003E00134094B9A5501366A
:1046B0002A5D1F2A00D93AE705480023835503B035
:1046C0000CBC90469946F0BD0C2800203810000024
:1046D000200300203C10000044A1010834A101087F
:1046E0003CA1010858A101086CA1010880A10108A2
:1046F00098A1010810B50620FDF724F8002802D083
:104700009C23224AD0520420FDF71CF8023880B2C4
:104710007A231E4AD35A834201D97C23D0520520E2
:10472000FDF710F8002804D101218C23174AD1523B
:1047300003E000218C23154AD1520820FDF702F82E
:10474000002802D0AC23114AD0520920FCF7FAFF0E
:10475000002802D0CC230D4AD0520A20FCF7F2FFE9
:10476000002802D0DC23094AD0520B20FCF7EAFFD4
:10477000002802D0BC23054AD0520C20FCF7E2FFEF
:10478000002802D0EC23014AD05210BD543800203A
:10479000F0B55F4656464D464446F0B485B000231A
:1047A0009846002600240025304B9A469B469946A1
:1047B000A20053461B689C4662441368002B19D123
:1047C0002F002B01294AD3186E3342461A80FFF777
:1047D000E3F903002838864201DA2836B3B23F01F4
:1047E000224AD71970373B800135ADB20023984675
:1047F00000262EE02B00A91D090159444968002913
:1048000006D1A91D0901194841184A6010200881E4
:1048100006331B014B445989013159811B8901938E
:104820001068FFF779FE010002AA971D03AB3A005A
:104830000198FFF7C1FC3B881A1CB34200D2321C1E
:1048400096B203AB1B881A1C434500D2424693B272
:1048500098460134A4B20D2DAAD9FFF74BFF05B03D
:104860003CBC90469946A246AB46F0BD5438002069
:10487000F0B557464E464546E0B486B004000E00FB
:10488000002800D12DE1FFF787F90500FFF798F91F
:10489000013883B2013DAAB201210091002100201C
:1048A000FFF760FB012E09D12389002B02D0013BC9
:1048B00023810EE0E388013B23810AE0022E08D128
:1048C000238901339BB22381E2889A4201D80023D5
:1048D00023812368002B01D1208903E166897600BA
:1048E000B6B2228990469200D058FFF715FE050017
:1048F000FFF752F9A288400880B201230193009586
:1049000000233100FFF7A2FC0E2702AB9C46674450
:10491000A08800233A002900FFF74EFC3D88FFF7EE
:104920003BF907002838854201DA2835AFB2A78164
:10493000FFF732F940087F08C71BBFB238000830C4
:1049400083B29A4663895D1C6D1075192AB21100F5
:10495000023B1BB2524610B2002501950122009283
:104960000F320391FFF71AFB6389023B1BB2A08948
:104970001038504400B20195022200920E32039981
:10498000FFF70CFB6389F3189BB2A289BA1892B2A5
:10499000009531003800FFF7BDFA6789F71BBFB2F9
:1049A0004546013DADB2E38801229046AB421DD899
:1049B00020E0FFF7F1F80600A3889946AB002268D3
:1049C0009858FFF7A9FD7608B6B2434601930090C8
:1049D00000234A4639003000FFF738FC013DADB2F4
:1049E0006389FF1ABFB2E388AB4203D9FFF7E8F847
:1049F000B842DED867897B00FF18BFB22589013530
:104A0000ADB2E38801229046AB421DD820E0FFF70B
:104A1000C3F80600A3889946AB0022689858FFF7B0
:104A20007BFD7608B6B243460193009000234A46C8
:104A300039003000FFF70AFC0135ADB26389FF1879
:104A4000BFB2E388AB4203D9FFF7BAF8B842DED869
:104A5000FFF7B6F80500FFF79FF8020029001039AC
:104A600089B2012300932B000020FFF77BFAFFF7A8
:104A7000A7F8103805B2FFF78FF802B200230093B1
:104A80002B0029000020FFF7D9F9FFF799F801382A
:104A900081B207250195164B009300230C221920A3
:104AA000FFF7D4FBFFF78CF8013881B20195114B69
:104AB000009300230C229620FFF7C8FBFFF76CF849
:104AC0000500FFF77DF8013881B2013DA8B2082347
:104AD0000193094B009300230C22FFF7B7FB2089B9
:104AE00000E0002006B01CBC90469946A246F0BDEE
:104AF000589F0108B0A10108B8A10108F0B55F46B0
:104B000056464D464446F0B491B0322005F0A6F822
:104B1000B348FEF727F8B34C5A235822A352D03299
:104B2000E252A83A0233E252FFF732FE002260233B
:104B3000E2529023DB051B8A1B0701D501F084F8A4
:104B400001216023A74AD152FEF758FD0120FEF74C
:104B50008FFD2720FEF79CFD0120FEF799FD002028
:104B6000FEF796FD0C20FEF783FDD720FEF790FDA3
:104B7000D620FEF78DFD9D20FEF78AFD2C20FEF746
:104B800077FDA820FEF784FD3A20FEF771FD1A207C
:104B9000FEF77EFD3B20FEF76BFD0820FEF778FD5B
:104BA0001120FEF765FD0320FEF772FD60238D4A9C
:104BB000D35A012B13D194256D018B4C2A00FF2170
:104BC000200005F015FA0120FEF784FE2A00FF21DF
:104BD000200005F00DFA0120FEF77CFE08E094228B
:104BE0005201FF21804805F003FA0120FEF772FE12
:104BF000642005F033F87B4B01225E215A525A643F
:104C00009A467A4B10330493784B083305930A2065
:104C100005F024F85346DB6C002B6DD06023714AFD
:104C2000D35A012B13D194256D016F4C2A00FF211B
:104C3000200005F0DDF90120FEF74CFE2A00FF21DF
:104C4000200005F0D5F90120FEF744FE12E094257E
:104C50006D01654C2A00FF21200005F0C9F90020F4
:104C6000FEF738FE2A00FF21200005F0C1F90020E0
:104C7000FEF730FE94225201FF215B4805F0B8F99F
:104C80000F20FCF75FFD482808D1584B0093002304
:104C9000002207210020FFF783FB15E00F20FCF71F
:104CA00051FD432808D1059B0093002300220721D2
:104CB0000020FFF775FB07E0049B00930023002210
:104CC00007210020FFF76CFB0120FEF703FE6420A4
:104CD00004F0C4FF1020FEF7CBFC1120FEF7D8FC37
:104CE000642004F0BBFF01F071FD0028F8D04021E2
:104CF0009020C00503F07CFD3A4B5B6C002B12D179
:104D000003F0B6FB374B9A6B801ADB6B984200D2EC
:104D10007DE70120FEF7DEFD03F0AAFB314B98632F
:104D2000334ADA6373E72F4B00225A645B6DDB076B
:104D30000CD503F09DFB2B4B9B6BC01A2D4B98425F
:104D400004D9284A516D02230B435365254B5B6DF3
:104D50009B0705D5264A234BDA630123039304E01E
:104D6000254A204BDA630023039303F081FB1D4D9A
:104D7000A8636B6D032293436B65012300937E331D
:104D80002822FF3200210020FFF7ECF8AB6C0E2B3D
:104D900001D900F087FD9B00184AD3589F46002494
:104DA00000947F232822FF3200210020FFF7DAF849
:104DB0000220FEF78FFD0B4BDC6300F03CFF01236C
:104DC00000937E332822FF3200210020FFF7CAF82B
:104DD0000220FEF77FFD0022024BDA6300F02BFF7A
:104DE000F0A1010854380020304C0020A0A3000896
:104DF000C02709004B1D00004C1D00004CA20008FC
:104E0000002501957E4B009300230C2205210A20EA
:104E1000FFF71CFA01957B4B009300230C22142111
:104E20000A20FFF713FA0195774B009300230C2219
:104E300023210A20FFF70AFA0195744B00930023FF
:104E40000C2232210A20FFF701FA0195704B0093E2
:104E500000230C2241210A20FFF7F8F901956D4B40
:104E6000009300230C2250210A20FFF7EFF901954F
:104E7000694B009300230C225F210A20FFF7E6F91B
:104E8000664E674C08AF3751664B994620239B46C8
:104E90004B465A46F252644BD98B6448FDF762FE8A
:104EA00033591D7035510195009700230C220521BF
:104EB0009420FFF7CBF937514B465A46F2520E2059
:104EC000FCF7AAFC06900F20FCF7A6FC020006994E
:104ED0005748FDF747FE33591D703551019500972E
:104EE00000230C2214219420FFF7B0F937514B46D0
:104EF0005A46F2520820FCF78FFC06900920FCF776
:104F00008BFC07900A20FCF787FC0300079A0699A0
:104F10004848FDF727FE33591D703551019500971C
:104F200000230C2223219420FFF790F937514B46A0
:104F30005A46F2520B20FCF76FFC06900C20FCF74F
:104F40006BFC07900D20FCF767FC0300079A06999D
:104F50003848FDF707FE33591D703551019500970C
:104F600000230C2232219420FFF770F937510C23D3
:104F70009B464B465A46F2520020FCF76BFC010060
:104F80002A48FDF7EFFD33591D7035510195009703
:104F900000230C2241219420FFF758F937514B464A
:104FA0005A46F2520020FCF761FC3C21FCF79AF8CB
:104FB00001001E48FDF7D6FD33591D70355101958E
:104FC000009700230C2250219420FFF73FF937511E
:104FD0004B465A46F2520D20FCF7B4FB0100134831
:104FE000FDF7C0FD33591D70355101950097002321
:104FF0000C225F219420FFF729F900F016FEC0462D
:105000000CA201081CA2010824A2010830A2010878
:105010003CA201084CA201085CA201080C28002057
:10502000381000003C100000949D010838A30108CE
:1050300070A201086CA2010800260196CD4B0093D6
:1050400000230C2202219620FFF700F90196CA4B9B
:10505000009300230C220221DC20FFF7F7F80196D1
:10506000C64B009300230C2214210A20FFF7EEF810
:105070000196C34B009300230C2223210A20FFF743
:10508000E5F80196BF4B009300230C2232210A2041
:10509000FFF7DCF80196BC4B009300230C22412162
:1050A0000A20FFF7D3F80196B84B009300230C2297
:1050B00050210A20FFF7CAF80196B54B0093002350
:1050C0000C225F210A20FFF7C1F80196B14B009333
:1050D00000230C226E210A20FFF7B8F8AE4DAF4C2A
:1050E00008AF2F51AE4B99460C239B464B465A4670
:1050F000EA521021102001F015FD0100A948FDF72A
:1051000031FD2B591E702E510196009700230C2261
:1051100014219620FFF79AF82F514B465A46EA522F
:105120001321102001F0FEFC01009E48FDF71AFD3E
:105130002B591E702E510196009700230C2223211B
:105140009620FFF783F82F514B465A46EA52162114
:10515000102001F0E7FC01009248FDF703FD2B59F8
:105160001E702E510196009700230C2232219620AA
:10517000FFF76CF82F514B465A46EA52182110207F
:1051800001F0D0FC01008748FDF7ECFC2B591E70A4
:105190002E510196009700230C2241219620FFF703
:1051A00055F82F514B465A46EA521D21102001F066
:1051B000B9FC01007B48FDF7D5FC2B591E702E5120
:1051C0000196009700230C2250219620FFF73EF80D
:1051D0002F514B465A46EA521E21102001F0A2FCE4
:1051E00001007048FDF7BEFC2B591E702E51019630
:1051F000009700230C225F219620FFF727F82F51FC
:105200004B465A46EA521F21102001F08BFC010048
:105210006448FDF7A7FC2B591E702E51019600978C
:1052200000230C226E219620FFF710F82F514B46D9
:105230005A46EA521021112001F074FC010059482D
:10524000FDF790FC2B591E702E51019600970023FC
:105250000C221421DC20FEF7F9FF2F514B465A4651
:10526000EA521321112001F05DFC01004D48FDF7C9
:1052700079FC2B591E702E510196009700230C22A9
:105280002321DC20FEF7E2FF2F514B465A46EA521B
:105290001621112001F046FC01004248FDF762FC96
:1052A0002B591E702E510196009700230C2232219B
:1052B000DC20FEF7CBFF2F514B465A46EA5218210D
:1052C000112001F02FFC01003648FDF74BFC2B5953
:1052D0001E702E510196009700230C224121DC20E4
:1052E000FEF7B4FF2F514B465A46EA521D211120BA
:1052F00001F018FC01002B48FDF734FC2B591E70FF
:105300002E510196009700230C225021DC20FEF73D
:105310009DFF2F514B465A46EA521E21112001F0A3
:1053200001FC01001F48FDF71DFC2B591E702E517A
:105330000196009700230C225F21DC20FEF786FFF8
:105340002F514B465A46EA521F21112001F0EAFB29
:1053500001001448FDF706FC2B591E702E510196D2
:10536000009700230C226E21DC20FEF76FFF00F077
:105370005CFCC0466C9F0108749F01087CA2010878
:105380008CA201089CA20108ACA20108B0A20108ED
:10539000C0A20108D0A201080C280020381000008B
:1053A0003C10000038A3010800250195F44B009340
:1053B00000230C220A210A20FEF748FF0195F14B39
:1053C000009300230C2219210A20FEF73FFF0195CC
:1053D000ED4B009300230C2228210A20FEF736FF14
:1053E0000195EA4B009300230C2237210A20FEF797
:1053F0002DFF0195E64B009300230C2246210A2045
:10540000FEF724FF0195E34B009300230C22552166
:105410000A20FEF71BFF0195DF4B009300230C22AF
:1054200064210A20FEF712FF0195DC4B0093002354
:105430000C2273210A20FEF709FFD94ED94B98465A
:1054400008AFF750D84B99460C239B464B465A461B
:10545000F25204210C2001F065FB0100D348FDF756
:1054600081FB4346F3581D704346F5500195009764
:1054700000230C220A219620FEF7E8FE4346F7504F
:105480004B465A46F25205210C2001F04BFB01001D
:10549000C648FDF767FB4346F3581D704346F55079
:1054A0000195009700230C2219219620FEF7CEFECD
:1054B0004346F7504B465A46F25208210C2001F061
:1054C00031FB0100B948FDF74DFB4346F3581D7011
:1054D0004346F5500195009700230C222821962081
:1054E000FEF7B4FE4346F7504B465A46F2520921A6
:1054F0000C2001F017FB0100AC48FDF733FB4346DD
:10550000F3581D704346F5500195009700230C2277
:1055100037219620FEF79AFE4346F7504B465A46EF
:10552000F2520A210C2001F0FDFA01009F48FDF71C
:1055300019FB4346F3581D704346F55001950097FB
:1055400000230C2246219620FEF780FE4346F750AA
:105550004B465A46F2520B210C2001F0E3FA0100AF
:105560009248FDF7FFFA4346F3581D704346F55045
:105570000195009700230C2255219620FEF766FE28
:105580004346F7504B465A46F2520C210C2001F08C
:10559000C9FA01008548FDF7E5FA4346F3581D7046
:1055A0004346F5500195009700230C226421962074
:1055B000FEF74CFE4346F7504B465A46F2520D2139
:1055C0000C2001F0AFFA01007848FDF7CBFA434612
:1055D000F3581D704346F5500195009700230C22A7
:1055E00073219620FEF732FE1FE36D4D6D4B9846FA
:1055F00008AFEF5010226C4BEA52002002F0B4FDCD
:10560000411C6B48FDF7AEFA00264346EB581E706E
:105610004346EE50012501950097002310220A21F0
:105620009420FEF713FE02F07DFD0195009000230B
:105630000C2237219420FEF709FE5E4B18330093AD
:10564000002300220A210120FEF7AAFE01965A4BF0
:105650000093002310226E210A20FEF7F7FDE4E2FA
:1056600001250195554B0093002314220A21942013
:10567000FEF7ECFD0195524B0093002310223221DE
:105680009420FEF7E3FD002301934E4B009300238B
:105690000C226E210A20FEF7D9FDC6E201250195F4
:1056A000494B00930023142219219420FEF7CEFDCC
:1056B0000195464B00930023142237219420FEF7D6
:1056C000C5FD002301933F4B009300230C226E2164
:1056D0000A20FEF7BBFDA8E2012501953C4B009393
:1056E0000023142219219420FEF7B0FD0195394BB7
:1056F00000930023142237219420FEF7A7FD0023F6
:105700000193304B009300230C226E210A20FEF7F8
:105710009DFD8AE2012501952B4B00930023142265
:1057200019219420FEF792FD01952B4B0093002345
:10573000142237219420FEF789FD00230193214B89
:10574000009300230C226E210A20FEF77FFD6CE2FD
:10575000224B1B6D032B07D1204B0022A4214900B3
:105760005A5004395A5056E01C4B1B6D042B37D14C
:105770001A4BA22252009958043299504BE0C0466D
:10578000D0A20108B0A20108DCA20108E8A2010829
:10579000F4A2010804A3010814A3010820A301082E
:1057A0000C280020381000003C10000038A301082D
:1057B0002CA30108A0A300083CA3010844A30108EE
:1057C00058A3010874A301087CA301088CA3010855
:1057D00094A30108A4A30108ACA301085438002035
:1057E000B54B1B6D052B16D1B34B5D6829880D2970
:1057F00011D82A000023B04FA4267600B85B81425E
:1058000002D15288AC498A5101339BB29A00AA183E
:1058100011880D29F2D9A84D296D89B2A4235B0006
:10582000E8580630000140190430FFF721F8002342
:105830002B65FAE101230193A04B0093002314226E
:1058400014219420FEF702FDFBF7FEFF002801D192
:105850009B4B00E09B4B01220192009300231332EB
:1058600032219420FEF7F2FCDFE101250195964BF1
:1058700000930023102214219420FEF7E7FC0195E9
:10588000924B00930023102228219420FEF7DEFC87
:1058900001958F4B0093002310223C219420FEF7AA
:1058A000D5FCC2E10020FBF76BFF0600632803D89C
:1058B000202208AB1A7004E0643886B2312208ABAB
:1058C0001A7008AD0A213000FBF70CFC303068700C
:1058D0000A213000FBF78CFC3031A9700027EF70F3
:1058E000052301930095002354224021BA20FEF79E
:1058F000ADFC0120FBF726FF01978000754BC358D4
:105900000093002310221821D220FEF79FFCFBF702
:1059100049FF0300C2178018504006B2303028708B
:105920006F70002E13D10623019308AB0093002360
:1059300024226421F020FEF789FC674B203300937A
:10594000062300226421D220FEF72AFD2CE0002B42
:1059500015DA0623019308AB009300232422642167
:10596000D220FEF773FCF6005B4B28339E1900969D
:10597000062300226421F020FEF712FD14E0062326
:10598000019308AB0093002324226421F020FEF74A
:105990005DFCF600504B28339E1900964F4B0022B9
:1059A0006421D220FEF7FCFC0820FBF7CBFE002888
:1059B00015D00F20FBF7C6FE002810D10B30FBF7E7
:1059C000C1FE002801D0464B00E0464B0022019268
:1059D000009300230E3201210120FEF737FC0C203A
:1059E00001F09AFE00280DD00620FBF7ABFE002840
:1059F00008D0394B783300930023002201219620F0
:105A0000FEF7CEFC00F0E0FA021E0ED1364D374E06
:105A100008ABAB512032364BEA523648FDF7A2F8BC
:105A20000023AA591370AB5179E0431E9BB2042B9B
:105A300031D805273F1ABFB2062828D012256D425B
:105A40007D43ADB201370026FEF7A6F819382818B5
:105A500000B2002306220821FEF7B2F9FEF79CF8F7
:105A60001938281800B2012305220821FEF7A8F9E9
:105A7000FEF792F81938281800B2002304220821F2
:105A8000FEF79EF901361235ADB2B742DCD10022E5
:105A900008AB1A7043E0062830D1134D134E08AB03
:105AA000AB511A32124BEA521348FDF75BF8002350
:105AB000AA591370AB5132E054380020B4A3010846
:105AC000C8A10108C0A10108C4A30108D4A301080A
:105AD000E4A3010804000020A0A300080680000041
:105AE000E0A10108D0A101080C2800203810000016
:105AF0003C100000F4A30108FCA3010806280ED9FD
:105B0000814D824E08ABAB512022814BEA52C11F1E
:105B10008048FDF727F80023AA591370AB51FEF710
:105B20003BF8013880B20223019308AD00950023B1
:105B30000E220121FEF78AFBFEF72EF8013802B291
:105B4000002399460093143314210120FEF776F9BF
:105B50006D4E6E4FF55120226D4BF2520120FBF736
:105B600079FE04000120FBF781FE1E303C21FBF78B
:105B7000B9FA020021006848FCF7F4FFF3594A46DD
:105B80001A704B46F35106330193009500230E2201
:105B90007E210120FEF75AFB0820FBF7D3FD0028E9
:105BA0000DD1594D08ABEB512022594BEA525B48BD
:105BB000FCF7D8FF0023EA591370EB5120E0FBF704
:105BC00009FE07002024002805D02C34002802DC20
:105BD000404207B206344C4D4C4E08ABAB5120222C
:105BE0004B4BEA52FBF7E4FDFBF7CAFD01003B001B
:105BF00022004B48FCF7B6FF0023AA591370AB51A3
:105C00000623019308AB009300230E227E219620E9
:105C1000FEF71CFBFDF7C0FF013802B20023009322
:105C20006C336C210120FEF709F9039B012B02D88C
:105C30001800FDF74FFE3B4B1B6C002B01D1FEF70C
:105C4000E6FF9847FEF7E3FFFDF7D8FCFDF730FDD0
:105C50001220FDF70DFDFDF72BFD7420FDF708FD6B
:105C60005420FDF715FD7E20FDF702FD3B20FDF7DA
:105C70000FFD2B20FDF7FCFC0420FDF709FD632040
:105C8000FDF706FD0C20FDF7F3FC8B20FDF700FD72
:105C90009C20FDF7FDFC9620FDF7FAFC0F20FDF798
:105CA000F7FC0120FDF7E4FC2720FDF7F1FC0120C3
:105CB000FDF7EEFC0020FDF7EBFC1120FDF7D8FC12
:105CC0000320FDF7E5FC4420FDF7D2FC0020FDF7A2
:105CD000DFFC0F20FDF7DCFC4520FDF7C9FC0020B0
:105CE000FDF7D6FC0020FDF7D3FC2720FDF7D0FC04
:105CF0000120FDF7CDFC3C20FDF7BAFC0120FDF7AB
:105D0000C7FCFEF753FFC0460C28002038100000E7
:105D10003C10000004A4010814A4010820A40108F8
:105D200030A4010854380020F0B583B05D4CAE2299
:105D300052000021200004F05BF95B4B0833236024
:105D40005A4B63600F20FBF7FDFC002806D0554A34
:105D5000574B4C331360554B3C335360554C002527
:105D6000A571E57101272771534B23606771534E6D
:105D70002100300002F0E4FC5149300002F038FD0F
:105D80008021C901300002F035FD2571E7712760DF
:105D90002100300002F0D4FCA571E57102232371CB
:105DA000A0231B02236067712100300002F0C8FCB1
:105DB0002571E7711823236021009020C00502F0AF
:105DC000BFFC01218020C00102F088FE00220D21CD
:105DD000300002F011FD00220F21300002F00CFD16
:105DE0003849394B0B8082235B004B80E023DB007A
:105DF0008B80CD800D8180239B004B81E13BFF3B5D
:105E00008B81CD810D82314C200002F091FE8026E5
:105E100076003100200002F0C1FE0121200002F0D6
:105E2000B1FE0121012002F03DFE1E4C284BA36073
:105E3000284BE36010232361083B6361A56178333D
:105E4000E36125626562A562E56225632100083190
:105E5000214802F0CBFB2149214802F0F3FB01224B
:105E600002211D4802F0FEFB1E480B230370043B79
:105E70004370877002F0F4FC03220021012003F03C
:105E800015FB606300230022002103F02DFB019528
:105E90000097002332001449144803F0F5FC03B0C6
:105EA000F0BDC046543800200400002020A40008A3
:105EB000040100204C270020064400000004004894
:105EC000060400005427002000C0FFFF00380040F7
:105ED0000C380040304C00205800024000000340C5
:105EE000000002409C27002040A40108FD4A000851
:105EF000054B1A645A6D1143596501225A640028F2
:105F000000D098647047C04654380020A4235B003A
:105F1000014AD05A7047C04654380020A4235B0081
:105F2000044AD35800200D2B03DC1B01D3186C331B
:105F3000188870475438002030B500230D2829D820
:105F4000154A1364063393640301D3186C331C8819
:105F50001165042903D1A2235B00D05016E0052966
:105F600014D10D4B586801880D290FD8A4235B006C
:105F7000094AD55A02000023A94200D154880133AE
:105F80009BB29A00821811880D29F5D90122024B83
:105F90005A642300180030BD543800200122014B00
:105FA000DA6470475438002010B5064A136910614E
:105FB0009BB2834204D0002201210020FFF798FF0A
:105FC00010BDC04670650020014B186980B2704753
:105FD0007065002010B5034B188301B20E20FBF74B
:105FE00035FE10BD70650020F0B55F4656464D4643
:105FF0004446F0B485B00A22914901A803F0EFFFAE
:10600000904B9B460020FFF7CFFF5B461A8B0D217C
:106010000C2000F0A9FD5B46188BFFF7DBFF0A2080
:1060200003F01CFE0620FBF78DFB5B461880072063
:10603000FBF788FB5B4658800420FBF783FB5B463D
:1060400098800520FBF77EFB5B46D8809B68002B81
:10605000D8D00C2001F060FB0028D3D0794BDB684E
:10606000002B14D00520FBF76DFB00280BD0754BDF
:10607000DA6892B20F210C2000F076FDC8220E21C2
:106080000C2000F071FD00236E4AD3600AE0052069
:10609000FBF758FB002805D0962252000E210C2059
