:020000040800F2
:1000000000800020590700089D080008A908000882
:1000100000000000000000000000000000000000E0
:10002000000000000000000000000000B50800080B
:100030000000000000000000C1080008CD08000812
:10004000D908000800000000C0000008C000000837
:10005000C0000008E5080008F1080008FD080008D5
:10006000000000000909000815090008210900081E
:100070002D090008390900084509000800000000A2
:10008000510900085D0900086909000875090008A0
:10009000810900088D09000899090008A5090008D0
:1000A000B1090008BD090008C9090008D509000800
:1000B000E1090008ED090008000000000000000050
:1000C000FEE7000030B5002A0ED00C008A1880210F
:1000D00089050502000E23785840543080004058AE
:1000E000684001349442F4D130BDC04630B50A4C6A
:1000F000002180256D000B060822002B02DA5B0030
:10010000434000E05B00013A002AF6D108C4013107
:10011000A942F0D130BDC04650010020F0B54F4695
:100120004646C0B483B01700019304000D00884216
:1001300027D2184E184B9946184B9846E368B3429D
:100140001AD1A3684B4517D16368434514D1144BAA
:1001500022689A4210D1019A002A02D0A38B9342BE
:100160000AD1606FFFF7C2FF7C222100206FFFF7EA
:10017000A9FFE36F984206D0E419AC42DED3002019
:1001800002E0002000E0200003B00CBC904699463D
:10019000F0BDC0460190C965ED3E4BAA19228FDF24
:1001A0003371D69D70B5002810D1194B1022194912
:1001B0001948FFF7B3FF041E23D0436902699A1A56
:1001C0000169006FFFF77EFF050012E0104B10225F
:1001D00012491048FFF7A2FF041E14D001694369B9
:1001E0005A1A80239B029C466144006FFFF76AFF06
:1001F00005000B48FFF77AFFA36F9D4205D1200051
:1002000004E0002002E0002000E0002070BDC046B5
:10021000082B00000000020800100008000004087D
:10022000B71DC104F0B5474680B4020080321D4BB3
:100230001B691B0604D51B4B1B4959601B495960A0
:100240001B4B802424059A4219D125E0B9421ED9BE
:100250004D0507D145461D61596161461961D9684F
:100260000A42FCD1D9680A42FCD11A618021890274
:10027000611809882180D9680A42FCD107E00D4E37
:100280000D4F084B01220221884640318C46023432
:100290002100A51B8542D9D18022024B1A6104BCE2
:1002A0009046F0BD0020024023016745AB89EFCDA9
:1002B000000002088000FEFFFF0F00082A4AD369F1
:1002C000802149000B43D361284B00221A809A8178
:1002D0001A825A6230321A85254ADA6201221A805D
:1002E000AA23DB00C318BA22D200811800221A8088
:1002F00002338B42FBD11F4AAA23DB00C2521E4AA3
:100300001E4BC2522D2284235B00C252164B5A69E7
:10031000802189020A435A619A698021C9010A43EE
:100320009A619023DB051868154A02401A601A6822
:100330008A20800402431A609A688A20400402439B
:100340009A60104A5A62104B00221A605A609960F3
:100350000E4A1A60D02252009A811968A03AFF3AD8
:100360000A431A607047C046001002400020004057
:10037000FFFF0000082B00000080FFFF5405000075
:10038000FFFFC3FC10010100003801400C14000005
:10039000F8B50400837904228271012B03D1043360
:1003A0008371002092E0022B0CD1494B1B691B0684
:1003B00004D5474B474A5A60474A5A600523A37100
:1003C000002083E0032B4CD10833FF33C35A0020B5
:1003D000462B7BD923000D33FF33E21D2000513023
:1003E000FF3011781970013301328342F9D186232D
:1003F0005B00E358F82212069918384A002091420F
:1004000064D8374A934228D95B050DD1304B02227C
:100410001A610B32FF32A2585A6142221A61190046
:10042000413ACB681A42FCD186235B00E058250094
:100430001135FF35CC3B9C468444254A01210F00F1
:100440006B781B022E78F31817610380D36819426A
:10045000FCD1023002356045F2D10523A3710020A2
:1004600034E0042B0DD11A4A11697C330B4313611C
:100470000020FFF797FE002827D00523A371012055
:1004800024E00020052B21D1A37A1A06637A1B04ED
:10049000D318E2799A18237A1B02D218F8231B0684
:1004A000D118104B994202D90223A3710EE0052303
:1004B000A3712500210040312000431B9B5CC372C7
:1004C00001308842F9D1472000E00020F8BDC04645
:1004D0000020024023016745AB89EFCDBFFF030039
:1004E000FF0F0008C0FF030048400823012206490F
:1004F000024203D04008484080B200E04008013B7F
:10050000002BF5D17047C04601A0FFFF70B5002950
:100510000CD0040001398DB2013545190448217809
:10052000FFF7E2FF0134AC42F9D100E0004870BDB2
:10053000FFFF000070B505000C00FFF7E7FF28552E
:10054000A61CB6B20134A4B2000A2855114A802173
:1005500007E0D3691942FCD02B781385013EB6B26F
:100560000135002E03D0D3691942F5D1F1E70949CD
:100570004022CB691A42FCD0074B5A6A92B219004A
:100580004B6A9B1A9BB2312BFAD9024B9A8C0F22E1
:100590001A6270BD0038014000200040F8B54F4697
:1005A0004646C0B40400694B9A8C0F221A6200229E
:1005B00085235B00C25265492032CB691A42FCD0C8
:1005C000634B5A6A92B2614BDB690B2119420ED11F
:1005D0005E49202685235B009C465D489025FF35BB
:1005E000FF3B994609E0CB694F461F4205D00022E8
:1005F00085235B00E2520026A2E0CB691E420DD0AB
:100600006346E35A8A8C9046E21847461771FF2BDF
:1006100002D801336246A352426A92B2436A9B1ADD
:100620009BB2AB42DFD985235B00E75A0026032F3C
:1006300000D885E0E319DD782D029B785D19ADB215
:10064000231D9846B91E89B21800FFF75FFF854247
:1006500076D12379002B04D084225200A25A9A42E8
:100660006ED1012F6BD96379042B40D10533FF3351
:10067000E35A2371A3791B02E279D3189BB2207A43
:100680000202607A801882B294469A18402A05DDE8
:1006900084236371823BA371032123E062465200ED
:1006A000A2716246002A1CD09E18B6B203225D1CBD
:1006B000AA21890089464B445B00195B531C9BB2FD
:1006C000A718080A3871023292B2E3181971ABB256
:1006D000B342ECD1634659001E4B9C46614489B23B
:1006E00000E003214046FFF725FF002628E0642BA9
:1006F00015D1A433E35A2371E42363712000FFF77B
:1007000047FE0600032805D901004046FFF712FF07
:10071000002615E003214046FFF70CFF10E084227D
:100720005200A25A22718022524213436371012364
:10073000A37103214046FFF7FDFE002600E00026DE
:1007400030000CBC90469946F8BDC04600380140C8
:100750000020004003000100F8B5454B1A68012154
:100760000A431A605868434A02405A601868424A6D
:1007700002401A601868414A02401A605868404AAC
:1007800002405A60DA6A0F208243DA62186B3D4AEF
:1007900002401A635A6B8A435A6300229A601A68AD
:1007A000802149020A431A601A0080239B021168C3
:1007B0001942FCD01122344B1A602D4B5A685A60F2
:1007C0005A685A605968314A0A405A605A68882102
:1007D00049030A435A601A68802149040A431A608F
:1007E0001A0080239B0411681942FCD0204B5A68E0
:1007F00003218A435A60596802220A435A60190049
:100800000C224B681340082BFBD1194BC022D2029B
:100810005A6101229A6180239B051E6800221A609A
:100820001B4D1C000020FFF7BDFC07000120FFF757
:10083000B9FCAE4203D0002F16D100280DD1200004
:10084000FFF73CFD2000FFF7A9FE0028FAD0114E6B
:10085000E8E7C28BFB8B9A4202D0FFF7E3FCE1E7AB
:100860000D4B1B689847FEE70028F2D1F8E7C04619
:10087000001002400CB8FFF8FFFFF6FEFFFFFBFF81
:10088000FFFFC0FFACFEFFFF00200240FF7FC0FF64
:100890009DE568C6621A973904100008014B1B6871
:1008A0009F46C04608100008014B1B689F46C04683
:1008B0000C100008014B1B689F46C0462C10000816
:1008C000014B1B689F46C04638100008014B1B684F
:1008D0009F46C0463C100008014B1B689F46C0461F
:1008E00040100008014B1B689F46C046541000088A
:1008F000014B1B689F46C04658100008014B1B68FF
:100900009F46C0465C100008014B1B689F46C046CE
:1009100064100008014B1B689F46C0466810000821
:10092000014B1B689F46C0466C100008014B1B68BA
:100930009F46C04670100008014B1B689F46C0468A
:1009400074100008014B1B689F46C04678100008D1
:10095000014B1B689F46C04680100008014B1B6876
:100960009F46C04684100008014B1B689F46C04646
:1009700088100008014B1B689F46C0468C10000879
:10098000014B1B689F46C04690100008014B1B6836
:100990009F46C04694100008014B1B689F46C04606
:1009A00098100008014B1B689F46C0469C10000829
:1009B000014B1B689F46C046A0100008014B1B68F6
:1009C0009F46C046A4100008014B1B689F46C046C6
:1009D000A8100008014B1B689F46C046AC100008D9
:1009E000014B1B689F46C046B0100008014B1B68B6
:1009F0009F46C046B4100008FFFFFFFFFFFFFFFF48
:100A0000FFFFFFFFFFFFFFFFFFFFFFFFFFFFFFFFF6
:100A1000FFFFFFFFFFFFFFFFFFFFFFFFFFFFFFFFE6
:100A2000FFFFFFFFFFFFFFFFFFFFFFFFFFFFFFFFD6
:100A3000FFFFFFFFFFFFFFFFFFFFFFFFFFFFFFFFC6
:1010000000800020D11300082114000821140008DA
:1010100000000000000000000000000000000000D0
:101020000000000000000000000000001593000810
:10103000000000000000000081930008C593000834
:1010400021140008000000002114000821140008E9
:1010500021140008211400082D8100082114000823
:101060000000000021140008211400080D390008B8
:1010700021140008211400082114000800000000B9
:10108000211400082114000821140008211400086C
:10109000211400082114000821140008211400085C
:1010A0002114000821140008211400080D6E000806
:1010B000211400081D6E000800000000FFFFFFFF64
:1010C00002780B78002A03D0013001319A42F7D020
:1010D000D01A70470023C25C0133002AFBD1581E8E
:1010E00070470000002243088B4274D303098B42EF
:1010F0005FD3030A8B4244D3030B8B4228D3030CE8
:101100008B420DD3FF22090212BA030C8B4202D389
:101110001212090265D0030B8B4219D300E0090AB1
:10112000C30B8B4201D3CB03C01A5241830B8B42BA
:1011300001D38B03C01A5241430B8B4201D34B03A3
:10114000C01A5241030B8B4201D30B03C01A524108
:10115000C30A8B4201D3CB02C01A5241830A8B428D
:1011600001D38B02C01A5241430A8B4201D34B0276
:10117000C01A5241030A8B4201D30B02C01A5241DA
:10118000CDD2C3098B4201D3CB01C01A524183098E
:101190008B4201D38B01C01A524143098B4201D3C8
:1011A0004B01C01A524103098B4201D30B01C01AF3
:1011B0005241C3088B4201D3CB00C01A524183086D
:1011C0008B4201D38B00C01A524143088B4201D39A
:1011D0004B00C01A5241411A00D2014652411046FA
:1011E0007047FFE701B5002000F0F0F802BDC046EF
:1011F0000029F7D076E7704703460B437FD40022DF
:1012000043088B4274D303098B425FD3030A8B429A
:1012100044D3030B8B4228D3030C8B420DD3FF2204
:10122000090212BA030C8B4202D31212090265D0D2
:10123000030B8B4219D300E0090AC30B8B4201D385
:10124000CB03C01A5241830B8B4201D38B03C01ACC
:101250005241430B8B4201D34B03C01A5241030B43
:101260008B4201D30B03C01A5241C30A8B4201D3F4
:10127000CB02C01A5241830A8B4201D38B02C01A9F
:101280005241430A8B4201D34B02C01A5241030A16
:101290008B4201D30B02C01A5241CDD2C3098B42FB
:1012A00001D3CB01C01A524183098B4201D38B0178
:1012B000C01A524143098B4201D34B01C01A52411B
:1012C00003098B4201D30B01C01A5241C3088B4260
:1012D00001D3CB00C01A524183088B4201D38B004B
:1012E000C01A524143088B4201D34B00C01A5241ED
:1012F000411A00D201465241104670475DE0CA0FC4
:1013000000D04942031000D34042534000229C4683
:1013100003098B422DD3030A8B4212D3FC2289018D
:1013200012BA030A8B420CD3890192118B4208D363
:10133000890192118B4204D389013AD0921100E0C5
:101340008909C3098B4201D3CB01C01A52418309D9
:101350008B4201D38B01C01A524143098B4201D306
:101360004B01C01A524103098B4201D30B01C01A31
:101370005241C3088B4201D3CB00C01A52418308AB
:101380008B4201D38B00C01A5241D9D243088B4201
:1013900001D34B00C01A5241411A00D201466346A4
:1013A00052415B10104601D34042002B00D5494208
:1013B000704763465B1000D3404201B5002000F047
:1013C00005F802BD0029F8D016E770477047C046FF
:1013D0000D488546002103E00C4B5B584350043117
:1013E0000B480C4B42189A42F6D30B4A02E00023FA
:1013F00013600432094B9A42F9D307F0DDF808F084
:1014000077FE01F001FBFEE70080002090AA0108B2
:101410000000002034030020340300200871002065
:10142000FEE7000030B5002A0CD00C008A180649EF
:101430000502000E2378584080004058684001346F
:101440009442F5D130BDC0469822002030B50A4CF8
:10145000002180256D000B060822002B02DA5B00BC
:10146000434000E05B00013A002AF6D108C4013194
:10147000A942F0D130BDC0469822002030B5002AE4
:1014800013D00D00013A92B201328918030A2A786A
:1014900053401C096340000258401C0360405B013C
:1014A000434098B201358D42F0D130BDF0B557467A
:1014B0004E464546E0B486B007000D0016001422E3
:1014C000784901A808F01BFEBC00E4190134E20FC2
:1014D00014196410744BDB8B4C2B17D1C8225200AB
:1014E0003B00C33BFF3B9BB293420FD80A2138001D
:1014F000FFF7F8FD80B22D3840006A4B1818848A37
:10150000A3001C190134E20F14196410674B5B6AC5
:101510009846002E35D05E23654AD35A002B2DD134
:10152000614B9A46988A0121494203F053F883009F
:1015300018180130C30F181840100A235B424343A8
:1015400099465346588A012103F044F8830018183D
:101550000130C30F181840108300181840004B4684
:10156000C01A3F224346134058432030C31713404C
:101570001818801148444E4B186601E04C4B186E09
:101580002418002F02D0002D0BDB00E000256D0099
:1015900001ABE85A830018184000012501277F425B
:1015A00009E06D426D0001ABE85A83001818400055
:1015B00001256D420127002E3FD05E233C4AD35ABD
:1015C000002B29D1384B1B8B022B06D0032B08D0C4
:1015D000012B0AD11421002709E028210A277F4284
:1015E00005E03C2114277F4201E00021002743460B
:1015F0009A04920EC91B4A4313002033DA173F2185
:101600000A40D3189B11DB19274AD28A002A00D13D
:101610005B42274A536601E0254B5B6E002D01DDDE
:10162000C01800E0181A002804DA404201256D4273
:10163000012702E0012501277F426043F530FF309A
:10164000FA218900FFF74EFD4543784300192C1914
:10165000184B9C4200DD1C00F423FF339C4201DC4C
:10166000FA246400134B984200DD1800F423FF3382
:10167000984201DCFA204000A2B20D4CA28685B24D
:10168000E5861021102005F003FB2A00102111200F
:1016900005F0FEFA5E23E65206B01CBC9046994661
:1016A000A246F0BD00A30008082200200010004060
:1016B000C8260020C409000010B540221C490020A3
:1016C00005F098F8002814D1194B1B884F2B10D91E
:1016D0001848174B78229A5A12047A21595A5218EC
:1016E00002657C22995A090402329A5A8B18836047
:1016F00004E0802200210E4808F00AFD0C4B1B89F3
:10170000012B03D802220A4B1A8104E00A2B02D9CA
:101710000A22074B1A81064B2D229A800022DA807A
:101720001A82DB89012B01D9014BDA8110BDC04639
:1017300008220020C826002030B583B00C490D4B8C
:101740005A880A800C4A106D050C78240D53023417
:1017500008539268140C7C200C5202300A521B88E9
:10176000009300234022002005F094F803B030BD20
:1017700008220020A8260020C826002030B500231B
:101780003F2812D83B280DD9094A116D094B0D0C81
:1017900078241D53023419539268140C7C215C5236
:1017A00002315A524000034BC35A180030BDC046A4
:1017B000C82600200822002010B5002801D1064BC1
:1017C0009888054B5B88002B05D0000105300A2165
:1017D000FFF712FD80B210BD08220020014B062049
:1017E000185E70470822002010B5074BD88E9B8EDC
:1017F000C0180A301421FFF7FFFC0130400005211A
:10180000FFF7FAFC80B210BDC826002070B50F4B60
:10181000DD8E9A8EAB18013359080020002913D0B1
:10182000954209D26424280060439B08C018FFF742
:1018300059FC201A00B207E0642462439B08D018C8
:10184000FFF750FC001B00B270BDC046C826002048
:1018500000230F2802D84000014BC35A18007047DC
:10186000A826002010B50B00034A5086034A002129
:10187000180004F0D1FB10BDC82600208D1A000806
:101880007423014AD05A7047C8260020002804D08B
:10189000034A136D506D181A01E0014B186D704723
:1018A000C8260020002802D0024B986D01E0014BB1
:1018B00098687047C8260020034B586518650121B9
:1018C0005C2299527047C046C8260020024B98609F
:1018D00001215C2299527047C826002070B5102162
:1018E000102005F0B3F905001321102005F0AEF922
:1018F000854202D3281A85B201E0401B85B210212F
:10190000112005F0A3F904001321112005F09EF920
:10191000844202D3201A83B201E0001B83B200206C
:10192000322B03D83223AB42404180B270BDC04657
:10193000F8B5144801F06EF9134E0024134D37002A
:1019400000213F2C0ED83B2C0BD92B6D190C782283
:10195000B9520232BB52AB68190C0232B952023290
:10196000BB5231880A4801F055F90134A4B202365D
:10197000402CE5D1074801F04DF900216823034AC6
:10198000D152F8BDDCA0010808220020C8260020A2
:10199000E4A00108E8A0010870B504000D003F288C
:1019A0000ED84300074A9B5A8B4206D0064E0122AE
:1019B0006823F25206F0F0FDF0666400014BE55238
:1019C00070BDC04608220020C826002070B52D4BEF
:1019D00099881A8C63280AD1481C00B22A4B3821F6
:1019E0005B5E591D0025884212DD08B210E003003D
:1019F00063330AD1481E00B2234B38215B5E591F66
:101A00000025884204DA08B202E0081800B2012575
:101A1000041C632800DD632424B2182C00DC192484
:101A20001300193B9BB2492B05D812B2231C9442D8
:101A300000DD131C1CB2134BDB8B002B06D0221CC9
:101A4000552C00DD552214B24C2B07D02C2C00DC79
:101A50002D24231C552C00DD55231CB2210002200F
:101A6000FFF79AFF002D01D0074B1C87054B1A8A00
:101A70000620195E98888300C018400080B2FFF7E6
:101A800015FD70BD08220020C826002010B5154B9A
:101A9000DB8D002B24D0134A108E012806D002388B
:101AA00042425041404200281AD000E001200D4A35
:101AB000528E022A14D801339BB20A4AD385032BD3
:101AC00003D98300C01800B203E0022B01D9400003
:101AD00000B2FFF77BFF044A0021002004F09CFACB
:101AE00010BDC046C82600208D1A000810B5462338
:101AF000574AD35A002B2BD106F04EFD544BDB6BCB
:101B0000C01A544B984200D885E0102005F098FE8A
:101B1000002800D17FE0112005F092FE00287AD045
:101B20004B4C01224623E2520821102005F08EF88A
:101B30004C23E052043BE0520821112005F086F8C6
:101B40004E23E052043BE05206F026FD206462E0A2
:101B5000012B14D10821102005F078F800285AD064
:101B600048223B498A5A824255D00C004C23C85225
:101B70000222063BCA5206F00FFDE0634BE0022B47
:101B800033D10821112005F061F8002819D04A222C
:101B90002F498A5A824214D00B004E2288520A6D75
:101BA00001320A65032146229952002118329952C6
:101BB0000020FFF70BFF00220121002004F02CFA87
:101BC00029E006F0E9FC224BDB6BC01A224B98425D
:101BD00021D91F4C03224623E25206F0DDFC20648B
:101BE0004422A35A0133A35215E0032B13D1184CFE
:101BF00001224333E2520821102005F027F84C233C
:101C0000E052043BE0520821112005F01FF84E235A
:101C1000E052043BE05244230D4AD35A002B16D025
:101C200006F0BAFC0A4B1B6CC01A0C4B984204D845
:101C30004423074AD35A232B09D9054C00224423B5
:101C4000E25206F0A9FC206401225C23E25210BD9E
:101C5000C8260020CF070000DB0500005FEA000077
:101C600010B50B4BDB88181800B2031C092800DDE7
:101C70000923191C1BB2093301DA064B198809B272
:101C80000320FFF789FE0020FFF7A0FE10BDC0462D
:101C900008220020D8A0010810B53B283BD88AB202
:101CA00043001D4C1B5B934235D00E282DD883007A
:101CB0001A4CE3589F464B1E9941174B598024E01C
:101CC000154B9888101A00B2FFF780FE1DE0124BEA
:101CD000D888101A00B2FFF7C3FF16E040000E4B81
:101CE000C25212E040000C4BC2520D4B994203D13C
:101CF000012004F053FB08E0002906D1002004F085
:101D00003DFB02E04000044BC25202F073FD012192
:101D10000020FFF7A7FD10BD082200206CA20008DC
:101D2000FF03000070B50400C54B5A8E062A00D987
:101D300082E29300C34AD3589F46002804D1012170
:101D40000020FFF78FFD2DE3032809D10120404239
:101D500006F09EFA00220021002004F05DF921E344
:101D6000042808D1012006F093FA00220021002067
:101D700004F052F916E3012800D013E3002006F026
:101D800047FA0FE30C2805D1AF4A0021002004F0E8
:101D900043F916E0012808D10120FFF717FEAA4AEF
:101DA0000021002004F038F916E0022809D10120B2
:101DB0004042FFF70BFEA44A0021002004F02CF95A
:101DC00016E0032C08D10120FFF74AFF9E4A0021AC
:101DD000002004F021F9E5E2042C09D10120404261
:101DE000FFF73EFF984A0021002004F015F9D9E2E0
:101DF000002C00D0D6E201210020FFF733FDD1E214
:101E0000012804D10121002004F02AF9CAE20228A5
:101E100004D10221002004F023F9C3E203280CD1ED
:101E200004F008F9052104F01BF90E2800D8B9E2E6
:101E300001210020FFF716FDB4E2042800D1BCE127
:101E4000002800D0AEE204F0FDF80400050004F024
:101E5000F1F80E2800D9A5E280007C4B1B589F4664
:101E60007B4BDB8B002B1ED04C2B1CD0002C04D1C9
:101E70000421080004F0F4F80DE0012C04D1042141
:101E8000092004F0EDF88DE2022C04D104210A208F
:101E900004F0E6F886E2032D00D083E204210D2051
:101EA00004F0DEF87EE2002D04D10421012004F0CC
:101EB000D7F80DE0012D04D10421080004F0D0F87A
:101EC0000DE0022D04D10421092004F0C9F869E2D3
:101ED000032D04D104210A2004F0C2F862E2042D8B
:101EE00000D05FE204210D2004F0BAF85AE2A11CF0
:101EF00009B20420FFF750FD0421022004F0B0F8DD
:101F000050E26142614109B20520FFF745FD04211D
:101F1000032004F0A5F845E221B20620FFF73CFDBE
:101F20004BE121B20820FFF737FD00215E23444A30
:101F3000D1520020FFF74AFD454BDB8B002B09D027
:101F40004C2B07D0002C00D137E10421062004F0EF
:101F500087F827E2002D00D12FE10421052004F0AD
:101F60007FF81FE221B20B20FFF716FD00215E2350
:101F7000334AD1520020FFF729FD0421062004F046
:101F80006FF80FE221B20920FFF706FD00215E2362
:101F90002B4AD1520020FFF719FD0421072004F03D
:101FA0005FF8FFE121B20A20FFF7F6FC00215E2373
:101FB000234AD1520020FFF709FD0421082004F034
:101FC0004FF8EFE121B20C20FFF7E6FC00215E2381
:101FD0001B4AD1520020FFF7F9FCEEE0002C00D0A4
:101FE000DAE100210120FFF7D7FCE6E0012108003B
:101FF000FFF7D2FCE1E0164BDB8B002B39D04C2BEA
:1020000037D0002C06D105F06BFD07210520FFF726
:1020100029FCC7E1012C04D103210220FFF722FC97
:10202000C0E1022C04D102210120FFF71BFCB9E121
:10203000032C0FD108210520FFF714FCB2E1C046A4
:10204000C8260020A8A200088D1A0008C4A2000813
:1020500008220020042C04D109210520FFF702FCEE
:10206000A0E1052C00D09DE10A210620FFF7FAFB34
:1020700098E1002D04D104210B2003F0F1FF91E140
:10208000012D06D105F02CFD07210520FFF7EAFB05
:1020900088E1022D04D104210C2003F0E1FF81E14D
:1020A000032D04D103210220FFF7DCFB7AE1042D8C
:1020B00004D104210220FFF7D5FB73E1052D04D1E3
:1020C00002210120FFF7CEFB6CE1062D04D108218F
:1020D0000520FFF7C7FB65E1072D04D10921052085
:1020E000FFF7C0FB5EE1082D00D05BE10A2106206E
:1020F000FFF7B8FB56E121B21120FFF74DFC60421B
:10210000604180B201F02EFA01215C23A64AD1522F
:1021100053E021B20D20FFF73FFC200006F0ECF861
:1021200001215C23A04AD15247E0002C00D036E1C7
:102130009D4B1A6D5A6540E000229B4B9A653CE02E
:10214000002C0CD143210F20FFF726FC01215C233A
:10215000954AD1520B310520FFF784FB1DE0012C7D
:102160000CD148210F20FFF717FC01215C238E4A78
:10217000D1520C310520FFF775FB13E1022C0CD175
:102180004C210F20FFF708FC01215C23864AD15225
:102190000D310520FFF766FB04E1032D00D001E1BE
:1021A00000210F20FFF7F8FB01215C237E4AD1526A
:1021B0000D310520FFF756FBF4E001210020FFF769
:1021C00051FBEFE0002800D0ECE0BFF34F8F774ADF
:1021D000774BDA60BFF34F8FFEE702280BD801215F
:1021E0000020FFF73FFB002174236F4AD1520020EB
:1021F000FFF7ECFBD6E003280DD16B4B1B8ADB0607
:1022000003D401217423684AD15200220021002006
:1022100003F002FFC6E0042800D0C3E0624B1B8A33
:102220001B0703D4012174235F4AD15200220021ED
:10223000002003F0F1FEB5E00A2C0AD1002004F0E2
:102240009DF80322584B5A860321002003F008FF13
:10225000A8E0002C03D1002004F090F80FE00B2C34
:1022600003D1022004F09AF813E0062C07D1514B59
:102270009B89002B1CD0012004F090F818E0072C5B
:1022800007D14C4B9B89002B22D0002004F086F80C
:102290001EE0082C0CD1474B9B89002B02D06320F9
:1022A000FFF794FB00220021002003F0B5FE35E08B
:1022B000092C0DD13F4B9B89002B03D0632040425A
:1022C000FFF784FB00220021002003F0A5FE4CE074
:1022D000012C23D10120FFF779FB374A0021002090
:1022E00003F09AFE304B1B8A0E221A420AD1314B60
:1022F0000421595E1020FFF74FFB01215C232A4A7D
:10230000D1523DE016221A423AD100211020FFF7A7
:1023100043FB01215C23244AD15231E0022C24D119
:1023200001204042FFF752FB234A0021002003F026
:1023300073FE1D4B1B8A0E221A420AD11D4B04212B
:10234000595E1020FFF728FB01215C23164AD15269
:1023500028E016221A4225D100211020FFF71CFB8D
:1023600001215C23104AD1521CE0032C08D101202A
:10237000FFF776FC104A0021002003F04DFE11E02B
:10238000042C0FD101204042FFF76AFC0A4A0021C9
:10239000002003F041FE05E0012C03D126E6012CCC
:1023A00000D1C9E670BDC046C82600200400FA0569
:1023B00000ED00E0082200208D1A0008F0B55F460D
:1023C00056464D464446F0B48DB030220021684652
:1023D00007F09EFE844B0093844B0193844B029341
:1023E000844B0393844B0493844B0593844B069353
:1023F000844B07939023DB051B8A5B07DB0F1B01D4
:102400009846814B1B8A1B0603D5022342461A437A
:1024100090467D4B1B8ADB0503D5042342461A43B5
:1024200090469023DB051B8A9B0703D50823424671
:102430001A439046744B1B8A9B0503D501234246E1
:102440001A4390469023DB051B8A9B0603D5202365
:1024500042461A43904605F047FF002806D001384F
:1024600040238340424613439BB2984601250026F1
:102470000124664B99469A4602E001360135ADB219
:10248000B7B23204120C130008335B004B445B8874
:102490005B009BB241460C4207D111000831490054
:1024A0005A48844661444B8006E0110008314900D7
:1024B0005144012003434B80130008335B00534910
:1024C000CB185988072001405980072924D14F4B48
:1024D0001B8A1C4200D07CE023434C4A1382052F08
:1024E0000ED1538D002B03D10122484B5A8560E059
:1024F00003F0E8FD002003F041FFFFF71DF958E06D
:10250000002F5BD1414B00229A851B8E002B35D1C9
:1025100000223E4BDA852FE000292DD13B4B1B8A50
:102520001C4250D039498B46A3430B8292006B4624
:10253000D158374800F06EFB01235A46D3851786E1
:102540003800FFF7EFFB002F2DD1304F0123BB8563
:1025500006F022F8FB68C31A9B467B8E002B0DD138
:1025600006F01AF8294BD860FA239B009B4505D842
:102570000B20FFF7D7FB01E0002F14D1234B1B8A60
:10258000234223D1214B9B8D002B1FD001339BB2C3
:102590001E4A9385642B19D900221C4B9A850A2068
:1025A000FFF7C0FB12E06400A4B20B2D00D864E773
:1025B00012E0164B1B8E052BAAD0F4E7134B1B8E93
:1025C000BB42F0D1A4E7002FEDD1DBE76400A4B259
:1025D00053E7002FE7D1F9E70DB03CBC9046994690
:1025E000A246AB46F0BDC046ECA00108F4A001082D
:1025F000F8A0010800A1010808A1010810A1010824
:1026000018A1010820A1010800040048C8260020E4
:1026100028A10108F0B5474680B40121E24806F040
:102620005DF801218020000106F066F8012180207C
:10263000800206F0CBFA01218020C00206F0C6FA23
:1026400001218020000306F0C1FA0121802040030F
:1026500006F0BCFA0121012006F0C6FAE120400292
:1026600000F090FFD14EF78B310020313A00D04876
:1026700000F0D0FACF4D78220021280007F048FD65
:10268000CD4B596A2960802252045A62CB4800F02F
:10269000C1FACB48FEF7DAFE05F004FFC94805F0A1
:1026A0006FFFC94C20220021200007F031FDB38BC1
:1026B000238067802B681A0CA283E383C34B1B68BB
:1026C0001A0C22826382C24B1B681A0CA282E3821C
:1026D000C04B1B681A0C2283638305F0F7FF20812F
:1026E00005F0EEFF60810004020C2189BA4800F079
:1026F00091FABA4C002626710127E771B84B236086
:102700009025ED052100280006F0AEF8C3235B01FB
:1027100023602100B34806F0A7F8B34B23602100E3
:10272000B24806F0A1F82671E77166232360210004
:10273000280006F099F8E0239B0023602100A948B7
:1027400006F092F82B8A9B0706D42B8A5B0703D4EA
:1027500001217623974AD1529026F6054021300078
:1027600006F0DCF89D4C0025A571E5710127277165
:102770004023236065712100300006F075F80323C3
:1027800023717D3323602100300006F06DF8A571C0
:10279000E57127710C2323606571944D2100280099
:1027A00006F062F80421280006F0B6F80821280097
:1027B00006F0B4F804F02AF9FEF77EFF05F0C0F940
:1027C00005F010FE8A4C608B05F096FD03F01AFEB2
:1027D00003F03AFB638C002B02D0002000F0C2FE15
:1027E000844806F0AFF8072006F0B2F8FA2006F0A9
:1027F000B5F8002006F0A6F806F0BEF806F0B4F82A
:1028000005F0CAFE050000227B4B1A80694C236D3F
:1028100063650020FFF7DAF87623E35A002B06D031
:1028200004210E2003F01CFC0322624B5A86614BEC
:1028300098461F001C00022007F0A0FA05F056FE83
:1028400000F08CFCFFF7BAFD04F05CF8FFF74EF9DE
:1028500005F0A2FE401BF423FF3398421AD9F53548
:10286000FF350C20FFF75EFA43469A8E10211020A8
:1028700004F00EFA4346DA8E1021112004F008FA13
:1028800002220921102004F003FA0222092111205A
:1028900004F0FEF905F088FE7B68984211D0013300
:1028A0006360A3680133A360A36D581CA0653C213D
:1028B000FEF79EFC1E2904D100221D39002003F0E2
:1028C000ABFBFFF70BF8002809D0484E0821300079
:1028D00006F022F80421300006F020F808E0434E0C
:1028E0000821300006F01AF80421300006F014F830
:1028F00006F03AF85C232F4AD35A002B04D000216B
:102900005C23D152FEF718FF74232A4AD35A012BB5
:102910000CD1160002227333F25205F03DFE3067EF
:10292000002200213548FEF7C1FD2CE0022B14D116
:1029300005F032FE1F4B1B6FC01A314B984222D953
:1029400005F02AFE1B4E3067002200212D48FEF7BD
:10295000ADFD03227423F25215E0032B13D105F0D1
:102960001BFE144B1B6FC01A254B98420BD905F068
:1029700013FE104E3067002200212048FEF796FD1E
:1029800002227423F25268230A4AD35A002B00D140
:1029900051E705F001FE074BDB6EC01A312800D865
:1029A00049E7FEF7C5FF46E733100000289F0108FE
:1029B00044A10108C82600200010024058A10108C7
:1029C000B71DC10488130000A8260020ACF7FF1F24
:1029D000B0F7FF1FB4F7FF1F6CA1010860270020AC
:1029E00019090000000400483FE200000008004808
:1029F0000822002055550000000000208A02000037
:102A00000F270000EE02000000B583B00023019301
:102A10000093802252000349034806F0C5FF07F0E7
:102A20008FF8FEE794A101081526000810B5194B90
:102A3000194AD35A002B2BD00D2829D0174BD35825
:102A4000002B0ED0164A14498A5A012A20D90A00AE
:102A50005C1C1249545018701149535A013B53528F
:102A600016E0104B0C4AD15A4B1C9BB20E4A9342B3
:102A700000D900230D4A084CA25A92B2934202D0C8
:102A80006054084963520A4A116880230B4313605B
:102A900010BDC0463E100000202800203810000065
:102AA0003C10000026100000FF030000281000006A
:102AB0000050004010B504000078002805D0013413
:102AC000FFF7B4FF20780028F9D110BDF0B55F46BC
:102AD0004E464546E0B482B004000091019298460B
:102AE0000B00083B082B01D90A23009300261A4B40
:102AF0009B461A4F00E04E46731C99465B46F518FC
:102B000000992000FEF774FB7B5C2B70009920007D
:102B1000FEF7E8FA041EEED1019B99450BDA20344A
:102B20004346002B00D01034019F2000FFF77EFFAA
:102B3000013FB945F9DB4B46002B07DD064CA05D94
:102B4000FFF774FF013E731C002BF8DC02B01CBCC5
:102B500090469946A346F0BD1028002068A30008BF
:102B6000F0B55F4656464D464446F0B483B0040087
:102B70000091019298460B00083B082B01D90A23CB
:102B8000009300239B46002C02DA644201339B46EB
:102B900000261E4B9A461E4B994600E03E00771CCD
:102BA0005346F51800992000FEF70CFC4B465B5C81
:102BB0002B7000992000FEF71FFB041EEED15B4630
:102BC000002B03D02D22114BDA55B71C019BBB42C1
:102BD0000BDD20254346002B00D01035019C28003A
:102BE000FFF724FF013CA742F9DB7C1E002F05DD27
:102BF000064D285DFFF71AFF013CFAD203B03CBC3A
:102C000090469946A246AB46F0BDC046102800202B
:102C100068A300080FB4F0B585B00AAB80CB03936E
:102C2000387800286DD000230193012464420025E8
:102C30002026002D08D125285AD0FFF7F7FE0023C3
:102C400001930124644258E0252803D1FFF7EEFEEA
:102C5000002552E064280AD1039B1A1D03921868CC
:102C6000019B22000A21FFF77BFF002545E0752824
:102C70000AD1039B1A1D03921868019B22000A21A6
:102C8000FFF724FF002538E00300B343582B0AD197
:102C9000039B1A1D03921868019B22001021FFF765
:102CA00015FF002529E0732807D1039B1A1D039205
:102CB0001868FFF7FFFE00251FE0632807D1039B7C
:102CC0001A1D03921868FFF7B1FE002515E00025D4
:102CD0000300303B092B10D8002C02DA01230193AA
:102CE0000024A3001B195B003038C418012504E040
:102CF000002301930124644201250137387800281C
:102D000097D105B0F0BC08BC04B01847F0B55F46D9
:102D100056464D464446F0B48FB001284CD00028AA
:102D200005D0022875D0032800D19FE0D0E06C4B7D
:102D3000DC8B0E20FEF78CFD0C900F20FEF788FD3B
:102D40000D900820FEF784FD05000920FEF780FDA8
:102D500006000A20FEF77CFD07000B20FEF778FD39
:102D600080460C20FEF774FD81460D20FEF770FDB5
:102D700082460020FEF78AFD83460020FEF792FD82
:102D80000B900D20FEF7FAFC08903C210B98FEF703
:102D9000A9F9079059460691514605914946049173
:102DA000414603910297019600950D9B0C9A2100D4
:102DB0004C48FFF72FFF8BE01021102003F046FF57
:102DC0000B901321102003F041FF0C9016211020CE
:102DD00003F03CFF06001821102003F037FF070026
:102DE0001D21102003F032FF04001E21102003F0EB
:102DF0002DFF05001F21102003F028FF03900295EE
:102E00000194009733000C9A0B993748FFF702FFA3
:102E10005EE01021112003F019FF0B901321112007
:102E200003F014FF0C901621112003F00FFF060091
:102E30001821112003F00AFF07001D21112003F0C3
:102E400005FF04001E21112003F000FF05001F21D3
:102E5000112003F0FBFE03900295019400973300CC
:102E60000C9A0B992148FFF7D5FE31E004210C2084
:102E700003F0ECFE0B9005210C2003F0E7FE0C9014
:102E800008210C2003F0E2FE0D9009210C2003F034
:102E9000DDFE07000A210C2003F0D8FE04000B2100
:102EA0000C2003F0D3FE05000C210C2003F0CEFE15
:102EB00006000D210C2003F0C9FE04900396029534
:102EC000019400970D9B0C9A0B990948FFF7A2FEFD
:102ED0000FB03CBC90469946A246AB46F0BDC046FA
:102EE000289F01089CA10108DCA1010800A201089B
:102EF00024A20108F0B54F464646C0B483B017007F
:102F0000019304000D00884227D2184E184B9946B1
:102F1000184B9846E368B3421AD1A3684B4517D1C2
:102F20006368434514D1144B22689A4210D1019A28
:102F3000002A02D0A38B93420AD1606FFEF786FA73
:102F40007C222100206FFEF76DFAE36F984206D0D5
:102F5000E419AC42DED3002002E0002000E02000B3
:102F600003B00CBC90469946F0BDC0460190C965BF
:102F7000ED3E4BAA19228FDF3371D69D10B5002884
:102F80000FD1164B102216491648FFF7B3FF041E47
:102F90001ED0436902699A1A0169006FFEF742FA6E
:102FA00011E00E4B102210490D48FFF7A3FF041E3D
:102FB00010D0016943695A1A80239B029C466144E0
:102FC000006FFEF72FFAA36F984205D1200004E0AE
:102FD000002002E0002000E0002010BD082B0000CF
:102FE000000002080010000800000408F0B5474681
:102FF00080B41D4BC4181D4B9C4231D8C3072FD43D
:103000001B4B1B691B0604D5194B1A4C5C601A4CF0
:103010005C60002A1FD00026154C02239C464033DA
:1030200098460125430507D1634623616061434605
:103030002361E3681D42FCD18B195B781B028F5D15
:10304000FB1825610380E3681D42FCD10236B6B24D
:103050000230B242E6D8064A116980230B4313615D
:1030600004BC9046F0BDC0460000FEF7FFFF010023
:103070000020024023016745AB89EFCD70B5010008
:10308000861C002000240D782A00303AD3B2092B88
:1030900001D9373DEBB20F2B04D9203BDBB20F2B0C
:1030A00000D923000001C318D8B20131B142EAD1DE
:1030B00070BDC046F0B5474680B482B004000190B0
:1030C0008C46224B224A9A5A92B222495B5A9A4221
:1030D00030D01F4A1D49885A80B26246002A2BD040
:1030E00083422BD021000025184F1B4E5A1C92B250
:1030F000FB188024E400A04643441C781300B2422D
:1031000000D900233B2C03D0232C01D00D2C07D158
:10311000002201994A550F4A0C498B52280010E0B1
:103120000135ADB20C70AC450AD001318342DDD11E
:10313000002006E0002004E0002002E0002000E083
:10314000002002B004BC9046F0BDC04620280020FC
:103150002A1000002C100000FF010000F0B55F46AF
:1031600056464D464446F0B485B0C94B8222120102
:10317000944663440193C74BC74A94466344029301
:10318000822212019C466244039218E1C023DB00B4
:10319000BF4AD35AC14A934206D1C149CA8B203192
:1031A000C048FFF737FD0AE1BF4A934202D1FEF75C
:1031B000BFFB04E1C022D200B5498A5C402A5DD140
:1031C000BA4BCB5C002601241F2B3CD84DE00134C8
:1031D000A4B220002B19C022D200944663441B786D
:1031E0001F2B02D9303B092BF1D8C023DB009C46B2
:1031F0006044C01906F07DFF01B23000FEF74CFDBF
:103200003B19C022D200944663441B78303B092B03
:103210000BD89F4A0134A4B21319C021C9008C46AF
:1032200063441B78303B092BF4D90136B6B2402EEB
:103230001BD0974B1B19C022D200944663441B78C5
:103240001F2B04D811E0924B98461D001F00200050
:1032500043461B19C022D200944663441B781F2B9F
:10326000C3D9303B092BB2D8BFE700220021002090
:1032700002F0D2FE8E48FFF7CDFCA0E08D4A9342CB
:1032800003D1002003F08AF899E08B4A93420CD1D5
:103290000120FFF773FE002803D08848FFF7BAFC2F
:1032A0008DE08748FFF7B6FC89E0864A934216D145
:1032B000784806F01EFF040081235B0102990A0092
:1032C000D0500022804BCA5280221201FF21039865
:1032D00006F01EFF21007D48FFF79CFC6FE07C4A52
:1032E000934214D17B48FEF7B1F8694C764BE25A11
:1032F00082231B01E11801204042FEF793F80200EF
:1033000081235B01E1587448FFF784FC57E0734A5E
:10331000934210D16C4B5E4AD25A043B5C49C85868
:1033200080239B029C4660440199FFF75FFE6C4836
:10333000FFF770FC43E06B4A934228D16A48FFF7DD
:103340009DFE83B29946002B39D004260024504BB1
:103350009B465D4F654B9A46D8465B46DD5B5545BF
:103360000ED86B1C4246D353C023DB00F0184044F8
:10337000FFF784FE454482231B019C466544287068
:103380000134A4B20236B6B2A145E6D817E0584AD5
:1033900093420BD1574A80239B051A60BFF34F8F8E
:1033A000554A564BDA60BFF34F8FFEE7544A9342BB
:1033B00005D1384806F09DFE80B2FFF7A7FC8021BA
:1033C00089005048FFF776FE002800D0DEE605F0C1
:1033D000E3F84D4B984204D901214C4B2C4AD15271
:1033E00005E04A4B2A4AD35A002B00D1ADE0284AC7
:1033F00082235B01D15A052900D9A6E08B00444AFB
:10340000D3589F462021434805F088FA05F0C4F8B8
:103410001F4B414A98500121043A995295E005F01A
:10342000BBF83D4B1A4AD358C01A182800D88CE074
:103430002021384805F070FA05F0AEF8144B364AF2
:1034400098500221043A99527FE005F0A5F8324BDA
:103450000F4AD358C01AF423FF33984275D90D2070
:10346000FEF78CF901002D48FFF7D4FB03218223DE
:103470005B01074AD15268E02948FFF7CBFB05F012
:103480008BF8034B244A98500421043A99525CE08B
:1034900020280020232E0020FDF9FFFF6476000085
:1034A000289F010844A1010867730000010600007D
:1034B00048A201085E5E00006673000050A2010889
:1034C00060A20108666100002410000078A20108D3
:1034D00066630000B71DC10488A201086670000081
:1034E0009CA201087B7B0000222E0020FF07000029
:1034F00066780000621A97390400FA0500ED00E0D2
:1035000069720000202E0020C40900003E10000057
:103510007CA300080004004844100000ACA201088D
:10352000BCA2010805F038F80B4B0C4AD358C01A5E
:10353000F423FF33984208D905F02EF8064B074ACA
:10354000D0502021064805F0E9F905B03CBC904672
:103550009946A246AB46F0BD44100000202800204A
:1035600000040048002805D0002182235B01044AA2
:10357000D15204E0042182235B01014AD1527047F9
:1035800020280020F0B5474680B48046234A002119
:10359000234806F0BDFD01218020400305F032FBE9
:1035A000204E04220321300005F0BAF90422042140
:1035B000300005F0B5F91C4C0025A571E57102231A
:1035C000237116332360012767712100300005F055
:1035D0004BF92023236027712100300005F044F9C6
:1035E0002021300005F098F9104943460B604D60EA
:1035F0008D60CD604D610C230B610D4C200005F0FA
:1036000075FC0121200005F0DFFC012209492000A2
:1036100005F018FD04BC9046F0BDC04648100000FF
:103620002028002000040048602700207C2700207C
:103630000050004005010500F0B5284BDA69186814
:10364000130702D00F21254B1962930620D5234B77
:103650009C8CA4B2224B2349CB5A01339BB2224902
:103660008B4200D9002321491E4D695A994209D045
:103670001B4EA95B69188027FF00BC4661440C7093
:10368000AB5305E0174B0021184C1953144C195338
:10369000030622D5130620D5124A154BD35A9BB2E6
:1036A0001449525A9A4213D00E4B11495A5A92B2A7
:1036B000501C80B25852985C084A10855B5A9BB2E5
:1036C0000D4A934209D90021094B064AD15204E020
:1036D000024A136880218B431360F0BD0050004004
:1036E0002A10000020280020FF0100002C100000FC
:1036F0002810000026100000FF03000070B5802590
:10370000ED00084C2900200005F008F9022006F021
:1037100035FB2900200005F0FFF8022006F02EFB03
:1037200070BDC0460004004810B5040002210E48D8
:1037300005F0F4F8012004F023FF21000B4805F008
:10374000D3FA052004F01CFF084C8021200005F06E
:10375000D7FA0028F9D10221034805F0DDF801204D
:1037600004F00EFF10BDC0460004004800380040C1
:1037700010B504000421054805F0D0F8012004F03C
:10378000FFFE2000FFF7D0FF10BDC0460004004838
:1037900010B504000421054805F0BEF8012004F02E
:1037A000EFFE2000FFF7C0FF10BDC0460004004838
:1037B00070B50C4B1B8ADB070BD411E0338A2B420C
:1037C0000ED00A2006F0DAFA013CA4B2002CF5D1A2
:1037D00006E00A2006F0D2FA034C024E0125EDE77E
:1037E00070BDC04600040048E703000070B56023C8
:1037F000294AD35A012B05D100283FD11E26274D37
:10380000683541E000283CD0FFF7D2FF1820FFF7D1
:10381000AFFF8020FFF7BCFF2220FFF7A9FFA12008
:10382000FFF7B6FF2020FFF7A3FFFFF7C1FF1B2024
:10383000FFF79EFF1820FFF7ABFF6020FFF7A8FF00
:103840002220FFF795FFB120FFF7A2FF2020FFF70E
:103850008FFFFFF7ADFFFFF7ABFF3220FFF788FFC9
:103860000026002E07D00024285DFFF791FF0134C9
:10387000A3B2B342F8D3FFF79BFF0BE01E26074D20
:1038800002E04626054D2035FFF792FF3220FFF774
:103890006FFFE8E770BDC0466838002018A4000834
:1038A000F8B507000E0014001D004420FFF760FF6C
:1038B000FF08F8B2FFF76CFFE408E0B2FFF768FF1B
:1038C0004520FFF755FFF0B2FFF762FF300AFFF720
:1038D0005FFFE8B2FFF75CFF280AFFF759FFF8BD6A
:1038E00070B504000D004E20FFF742FFE408E0B27F
:1038F000FFF74EFF4F20FFF73BFFE8B2FFF748FF0F
:10390000280AFFF745FFFFF753FF70BD00B583B0EE
:10391000002301938020800204F042FF064B586B85
:1039200001A905F00FFF019B002B03D08022520557
:10393000024B1A6003B000BD6838002004ED00E0BF
:10394000F8B507000D001F4C002300220021606B1A
:1039500005F036FF1C4E0421300004F0DDFF01208D
:1039600004F00EFE0221300004F0D8FF01220221F3
:10397000164805F0BBF9E760656121000831144D78
:10398000280004F0C7FE8027BF02380004F008FFBB
:10399000380004F011FF0121280004F0D9FE606B0B
:1039A0000023FA225200002105F00AFF022006F04F
:1039B000E5F90221300004F0AFFF0021280004F0F7
:1039C000C7FEF8BD683800200004004800380040F9
:1039D0005800024070B504006023AC4AD35A012B52
:1039E0006ED16133D35A002B31D0FFF787FE01200F
:1039F000FFF7BEFE2720FFF7CBFE0120FFF7C8FE32
:103A00000020FFF7C5FE0C20FFF7B2FED720FFF71E
:103A1000BFFED620FFF7BCFE9D20FFF7B9FE2C208D
:103A2000FFF7A6FEA820FFF7B3FE3A20FFF7A0FE9F
:103A30001A20FFF7ADFE3B20FFF79AFE0820FFF7A4
:103A4000A7FE1120FFF794FE0320FFF7A1FE200040
:103A5000FFF7CCFEFFF7ACFE2823FF337F220021C7
:103A60000020FFF71DFF00210020FFF739FF242071
:103A7000FFF77EFE942149018548FFF761FF222070
:103A8000FFF776FEC420FFF783FE2020FFF770FECD
:103A9000FFF78EFEFF20FFF76BFEFFF789FE002C7D
:103AA00000D1EAE01020FFF763FE1120FFF770FE5F
:103AB0000A2006F063F901216223744AD152DCE046
:103AC0006223724AD35A002B5FD0FFF717FEFFF72D
:103AD0006FFE1220FFF74CFEFFF76AFE7420FFF71F
:103AE00047FE5420FFF754FE7E20FFF741FE3B20A7
:103AF000FFF74EFE2B20FFF73BFE0420FFF748FEAA
:103B00006320FFF745FE0C20FFF732FE8B20FFF706
:103B10003FFE9C20FFF73CFE9620FFF739FE0F206A
:103B2000FFF736FE0120FFF723FE2720FFF730FEC8
:103B30000120FFF72DFE0020FFF72AFE1120FFF7DE
:103B400017FE0320FFF724FE4420FFF711FE00209C
:103B5000FFF71EFE0F20FFF71BFE4520FFF708FEB4
:103B60000020FFF715FE0020FFF712FE2720FFF7C9
:103B70000FFE0120FFF70CFE3C20FFF7F9FD0120AE
:103B8000FFF706FE0A2006F0F9F8002C04D15E23A8
:103B90003E4AD35A002B38D00120FFF727FE2823B6
:103BA000FF337F2200210020FFF77AFE0021002052
:103BB000FFF796FE2420FFF7DBFD94256D01344CC2
:103BC00029002000FFF7BCFE2220FFF7D1FDC7200F
:103BD000FFF7DEFD2020FFF7CBFDFFF7E9FD0A2010
:103BE00006F0CCF81020FFF7C3FD1120FFF7D0FD41
:103BF0000A2006F0C3F801216223244AD1522A0088
:103C00002100244806F07BFA37E00020FFF7EEFDA4
:103C10002823FF337F2200210020FFF741FE0021EF
:103C20000020FFF75DFE2420FFF7A2FD942464012D
:103C300021001748FFF784FE2620FFF799FD210099
:103C40001448FFF77DFE3A20FFF792FD1A20FFF798
:103C50009FFD3B20FFF78CFD0820FFF799FD2220F8
:103C6000FFF786FDC720FFF793FD2020FFF780FDBB
:103C7000FFF79EFD0A2006F081F85E23034AD35A1F
:103C8000002B02D000215E23D15270BD6838002085
:103C9000544C0020D43900205823084AD35A5A2BB8
:103CA00005D087225200934204D0802004E0942063
:103CB000400001E0942040007047C0466838002072
:103CC0005823074AD35A5A2B06D0872252009342D0
:103CD00004D09420400002E0802000E08020704763
:103CE0006838002010B55823174CE35A5A2B03D1DB
:103CF0007F235B1A010098B27F2824D82823FF3342
:103D0000994220D8002A0FD0C9010918CB170722E1
:103D100013405918C9100D4C07231840793303413B
:103D2000625C134363540EE0C9010918CB170722E4
:103D300013405918C910054C072318407932024125
:103D4000635C9343635410BD68380020544C0020DA
:103D50005823114AD35A5A2B03D17F235B1A0100EF
:103D600098B200237F2815D82822FF32914211D81B
:103D7000C9010918CB17213AFF3A13405918C91045
:103D8000064B5A5C07231840793303411340581EF1
:103D900083419BB21800704768380020544C0020C3
:103DA000F0B55F4656464D464446F0B483B0060033
:103DB000824689461500FFF76FFF03B29B46FFF767
:103DC0007FFF03B29846B34536DD4B466A46938083
:103DD00093880193013B1FB2B6B201993000FFF7FF
:103DE000B7FFA84228D0C84510DD4C46A4B2210038
:103DF0003000FFF7ADFF854208D02A0021003000D7
:103E0000FFF770FF013424B24445EFDB3C1E0FDBAB
:103E1000A4B221003000FFF79BFF854208D02A00A2
:103E200021003000FFF75EFF013C24B2002CEFDAE6
:103E3000013636B25E45CFDB5446013C24B2002C3D
:103E400036DB4B466A46938093880193013B1EB252
:103E5000A4B201992000FFF77BFF854228D0C84516
:103E600010DD4F46BFB239002000FFF771FF8542D9
:103E700008D02A0039002000FFF734FF01373FB295
:103E80004745EFDB371E0FDBBFB239002000FFF7DD
:103E90005FFF854208D02A0039002000FFF722FF8B
:103EA000013F3FB2002FEFDA013C24B2002CCFDA01
:103EB00003B03CBC90469946A246AB46F0BDC04616
:103EC000F0B55F4656464546E0B484B082468B4620
:103ED0001500029353421BB21F0003939D4227DB40
:103EE0002B006B43984617E0230063439B19AB42BA
:103EF00006DC5346181980B2029A0199FFF7F2FEC8
:103F0000013424B2BC42EFDD3B004746A8461D0009
:103F10007B1C1FB2BD420BDB3E007E43039C5B4615
:103F2000DB199BB201932B004546B8461F00DBE727
:103F300004B01CBC90469A46A346F0BDF0B55F465F
:103F400056464D464446F0B483B004000E009046F9
:103F50000CAA12880192404503DB4246811A09B23D
:103F600002E04246111A09B29E4202DBF21A12B274
:103F700001E09A1B12B200208146914207DA4246C4
:103F80009846130022003400160001229146444551
:103F900005DD32001E0013002200444690464246D2
:103FA000121B92B2924615B29E4208DBF71A3FB23C
:103FB000EB0F5D196D1001235B429B4606E09F1BD2
:103FC0003FB2EB0F5D196D1001239B4644451ADC8F
:103FD0004B46002B05D0A1B2B0B2019AFFF782FE8A
:103FE00004E0B1B2A0B2019AFFF77CFEED1BABB2C8
:103FF0001DB2002D03DA5E4436B253441DB20134C3
:1040000024B24445E4DD03B03CBC90469946A24648
:10401000AB46F0BDF0B585B01D000AAB1C8803B2FD
:10402000180017B20EB2009433003A00310003902A
:10403000FFF784FF2DB200942B003A0031003800C6
:10404000FFF77CFF00942B00039A29003800FFF74C
:1040500075FF00943300039802002900FFF76EFFFC
:1040600005B0F0BDF0B585B0070014000AAA1588A8
:10407000A04201D302D80FE0270004001EB20BB209
:10408000039320B20095330002000399FFF756FF17
:104090000134A4B2BC42F4D305B0F0BDF0B587B092
:1040A00003900C000CA909880DA8058800292FD1C0
:1040B00069468889D10F891849108AB2811A09B2D4
:1040C0000491821812B2DE0FF3185B109BB2A6B2F5
:1040D0009F193FB2F61A36B200953B00059239009F
:1040E0000498FFF72BFF00953B00059A31000398D9
:1040F000FFF724FF00953300039E32003900049837
:10410000FFF71CFF2A0021003000FFF749FE62E0A4
:1041100001292FD169468889D10F891849108AB29F
:10412000871A3FB2821812B20492A6B2DA0FD218DE
:10413000521093B2F21A11B2F3181EB20095330066
:104140003A0005913800FFF7F9FE009533003A0078
:104150002100049E3000FFF7F1FE0095230032009D
:1041600005993800FFF7EAFE2A0021000398FFF7BF
:1041700017FE30E002292ED1D10F8A18521092B2C8
:104180006946898957183FB28A1A12B20492A6B2B8
:10419000DA0FD218521093B2F21A11B2F3181EB2FB
:1041A000009533003A0005913800FFF7C7FE0095EF
:1041B00033003A002100049E3000FFF7BFFE009557
:1041C0002300320005993800FFF7B8FE2A002100CD
:1041D0000398FFF7E5FD07B0F0BDC046F0B55F46B8
:1041E00056464D464446F0B485B007008B4690468F
:1041F00001930EAB1B78002851D0202B01D1808871
:1042000052E08278002093424ED3F97899424BD302
:104210009B1A9B00BA68944663445E881B8818000A
:1042200003933B88002B3CD00300013BDA170721A6
:104230000A40D318DB1001339BB2994600239A46FB
:1042400043460293B846070024E0029B53449BB2C6
:104250000093A8B2C2084346DB689B199B5C2342CB
:1042600005D0584480B2019A0099FFF73BFD6408DD
:1042700000D180340135ABB2BB42EAD34E44B6B272
:10428000534601339BB201229446E24442461288CF
:104290009A4208D900258024002FD6D1EEE70020CD
:1042A00002E0039800E0039805B03CBC90469946B4
:1042B000A246AB46F0BDC046F0B50C2805D9002497
:1042C000214F0AE0854208D300E00026F6001E4890
:1042D0008619F06900280BD133E00134A4B226001E
:1042E000E5007D192D8B002DECD1174808302AE010
:1042F000002B01D004881C800B78002400251F2B84
:1043000004D81AE0002D01D00235ADB2202B03D124
:104310008388ED18ADB20BE086789E4208D8C77846
:104320009F4205D39B1B9B0086689B5BED18ADB23B
:104330000134A4B20B5D1F2BE4D8002A03D01580F2
:1043400001E001480830F0BD98A40008F0B589B03C
:1043500006000591100004930EAB20CB1C880E23A1
:1043600004AA9446634407AA2900FFF7A5FF039017
:10437000082C6AD8A400494B1B599F4607AB1B88E1
:104380005B08F31A9EB260E007AB1B88F31A9EB27B
:104390005BE00E2304AA944663441B885B08059ADD
:1043A000D31A9BB2059350E007AB1B885B08F31A46
:1043B0009EB20E2304AA944663441B885B08059AA8
:1043C000D31A9BB2059340E007AB1B88F31A9EB249
:1043D0000E2304AA944663441B885B08059AD31AEB
:1043E0009BB2059331E0039BDB880E2204A98C4627
:1043F000624412889B1A059A944663449BB20593C3
:1044000023E007AB1B885B08F31A9EB2039BDB8893
:104410000E2204A98C46624412889B1A059A94467F
:1044200063449BB2059310E007AB1B88F31A9EB25E
:10443000039BDB880E2204A98C46624412889B1AD7
:10444000059A944663449BB20593002207AB1A80F9
:104450002B7800271F2B06D81CE0002807D002303D
:1044600007AA108003E06A461421525E059207AC49
:104470002188711809B20093049B059A0398FFF7ED
:10448000ADFE2388C01880B220807B1C9FB2EB5DFC
:104490001F2BE2D807AB188809B0F0BD94A3000821
:1044A000F0B55F4656464D464446F0B485B001909F
:1044B000884602920E9A9146D788928892461AB2FE
:1044C0009346FF2213409AB2082A40D89B00404AE4
:1044D000D3589F4653465B08019AD31A9BB2019367
:1044E00035E0019B52469B1A9BB201932FE07B085B
:1044F000CB1A9BB298462AE053465B08019AD31A1E
:104500009BB201937B08CB1A9BB298461FE0019B9C
:1045100052469B1A9BB201937B08CB1A9BB29846DA
:1045200015E0CB1B9BB2984611E053465B08019AFD
:10453000D31A9BB20193CB1B9BB2984607E0019B19
:1045400052469B1A9BB20193CB1B9BB29846002FFD
:1045500037D08025002400265346013B019A94461B
:10456000634403934B461B689B5D2B4211D05B4613
:10457000002B07DB019B181980B2029A4146FFF716
:10458000B1FB06E0039B181B80B2029A4146FFF77D
:10459000A9FB0134A4B26D0805D10136B6B2A2451B
:1045A00005D980350BE0A24509D80136B6B243469D
:1045B00001339BB29846013FBFB280250024002FF3
:1045C000D0D105B03CBC90469946A246AB46F0BD62
:1045D000B8A3000870B58AB005000E000D4C21008C
:1045E0006031122205A805F08AFD210074311222E3
:1045F000684605F084FD0020082D08D8002E03DB56
:104600006D0005ABE85A02E06D006B46E85A0AB04F
:1046100070BDC04698A40008F0B54F464646C0B4E9
:1046200083B0050000260024674B9846C0E05E2A50
:1046300001D0242A5BD101342B5D190030390929BE
:104640000DD80027B800C0194000303B1F180134B6
:104650002B5D190030390929F4D9002F12D15B4F95
:104660005B4B9B194246D35140239E1B594BD6525C
:104670005948FEF7CFFA00234246D25913704246FA
:10468000D3512FE05E2A09D10220FDF777F8C01937
:1046900080B2FDF791F80190504F08E00220FDF73D
:1046A0006DF8C01B80B2FDF787F801904C4F464A69
:1046B000474B9B19454953504020861B454BD652CA
:1046C0000120FDF75BF86B23002800D10233019A2B
:1046D00039004448FEF79EFA3B4A3C4B0021D05833
:1046E0000170D1503A48FCF7F5FC060060E07E2AE4
:1046F00001D0232A58D10134285D0300303B092B17
:104700000DD800218B005918490030384118013468
:10471000285D0300303B092BF4D9002914D12A4F1E
:104720002A4B99462A4B9B194A46BB5040239E1B55
:10473000284BFE522C48FEF76DFA00234A46BA5821
:1047400013704A46BB502AE07E2A14D11E4F1F4BDD
:1047500099461F4B9B194A46BB5040239E1B1D4B3D
:10476000FE522248FEF756FA00234A46BA58137002
:104770004A46BB5013E0144F144B9946144B9B19F7
:104780004A46BB5040239E1B124BFE521848FEF770
:1047900041FA00234A46BA5813704A46BB500C48A7
:1047A000FCF798FC060003E00134094B9A550136EA
:1047B0002A5D1F2A00D93AE705480023835503B034
:1047C0000CBC90469946F0BD20280020381000000F
:1047D000340300203C100000D0A20108C0A2010850
:1047E000C8A20108E4A20108F8A201080CA301086C
:1047F00024A3010810B50620FCF7C0FF002802D052
:104800009C23274AD0520420FCF7B8FF023880B21C
:104810007A23234AD35A834201D97C23D0520520DC
:10482000FCF7ACFF002804D101218C231C4AD15293
:1048300003E000218C231A4AD1520820FCF79EFF86
:10484000002802D0AC23164AD0520920FCF796FF6C
:10485000002802D0CC23124AD0520A20FCF78EFF47
:10486000002802D0DC230E4AD0520B20FCF786FF32
:10487000002802D0BC230A4AD0520C20FCF77EFF4D
:10488000002802D0EC23064AD0521120FCF776FF14
:10489000002803D08E235B00014AD05210BDC046D1
:1048A00068380020F0B55F4656464D464446F0B4A1
:1048B00085B000239846002600240025304B9A46F8
:1048C0009B469946A20053461B689C466244136867
:1048D000002B19D12F002B01294AD3186E334246E1
:1048E0001A80FFF7D9F903002838864201DA283602
:1048F000B3B23F01224AD71970373B800135ADB2C0
:104900000023984600262EE02B00A91D09015944DA
:104910004968002906D1A91D0901194841184A60B2
:104920001020088106331B014B44598901315981FC
:104930001B8901931068FFF76FFE010002AA971D03
:1049400003AB3A000198FFF7B7FC3B881A1CB3424F
:1049500000D2321C96B203AB1B881A1C434500D20E
:10496000424693B298460134A4B20E2DAAD9FFF75D
:1049700041FF05B03CBC90469946A246AB46F0BD0F
:1049800068380020F0B557464E464546E0B486B03C
:1049900004000E00002800D12DE1FFF77DF905008D
:1049A000FFF78EF9013883B2013DAAB201210091CF
:1049B00000210020FFF756FB012E09D12389002B8F
:1049C00002D0013B23810EE0E388013B23810AE012
:1049D000022E08D1238901339BB22381E2889A42B7
:1049E00001D8002323812368002B01D1208903E112
:1049F00066897600B6B2228990469200D058FFF7B9
:104A00000BFE0500FFF748F9A288400880B2012399
:104A10000193009500233100FFF798FC0E2702ABAD
:104A20009C466744A08800233A002900FFF744FC15
:104A30003D88FFF731F907002838854201DA28352B
:104A4000AFB2A781FFF728F940087F08C71BBFB2A4
:104A50003800083083B29A4663895D1C6D10751961
:104A60002AB21100023B1BB2524610B2002501953A
:104A7000012200920F320391FFF710FB6389023B82
:104A80001BB2A0891038504400B201950222009256
:104A90000E320399FFF702FB6389F3189BB2A289D8
:104AA000BA1892B2009531003800FFF7B3FA67895F
:104AB000F71BBFB24546013DADB2E38801229046E7
:104AC000AB421DD820E0FFF7E7F80600A38899461F
:104AD000AB0022689858FFF79FFD7608B6B24346B0
:104AE0000193009000234A4639003000FFF72EFC66
:104AF000013DADB26389FF1ABFB2E388AB4203D96F
:104B0000FFF7DEF8B842DED867897B00FF18BFB236
:104B100025890135ADB2E38801229046AB421DD80C
:104B200020E0FFF7B9F80600A3889946AB00226899
:104B30009858FFF771FD7608B6B24346019300908E
:104B400000234A4639003000FFF700FC0135ADB2C2
:104B50006389FF18BFB2E388AB4203D9FFF7B0F80F
:104B6000B842DED8FFF7ACF80500FFF795F8020071
:104B70002900103989B2012300932B000020FFF790
:104B800071FAFFF79DF8103805B2FFF785F802B209
:104B9000002300932B0029000020FFF7CFF9FFF737
:104BA0008FF8013881B207250195164B0093002339
:104BB0000C221920FFF7CAFBFFF782F8013881B2F7
:104BC0000195114B009300230C229620FFF7BEFBAA
:104BD000FFF762F80500FFF773F8013881B2013D75
:104BE000A8B208230193094B009300230C22FFF77E
:104BF000ADFB208900E0002006B01CBC9046994621
:104C0000A246F0BDECA001083CA3010844A30108A2
:104C1000F0B55F4656464D464446F0B491B032205A
:104C200005F0ACF8B348FDF7F5FFB34C5A23582212
:104C3000A352D032E252A83A0233E252FFF732FED8
:104C400000226023E2529023DB051B8A1B0701D55B
:104C500001F08AF801216023A74AD152FEF74EFDE8
:104C60000120FEF785FD2720FEF792FD0120FEF7CB
:104C70008FFD0020FEF78CFD0C20FEF779FDD7207C
:104C8000FEF786FDD620FEF783FD9D20FEF780FD12
:104C90002C20FEF76DFDA820FEF77AFD3A20FEF7E6
:104CA00067FD1A20FEF774FD3B20FEF761FD08202A
:104CB000FEF76EFD1120FEF75BFD0320FEF768FD99
:104CC00060238D4AD35A012B13D194256D018B4C4F
:104CD0002A00FF21200005F01BFA0120FEF77AFED2
:104CE0002A00FF21200005F013FA0120FEF772FED2
:104CF00008E094225201FF21804805F009FA0120C2
:104D0000FEF768FE642005F039F87B4B01225E2136
:104D10005A525A649A467A4B10330493784B0833AC
:104D200005930A2005F02AF85346DB6C002B6DD062
:104D30006023714AD35A012B13D194256D016F4C16
:104D40002A00FF21200005F0E3F90120FEF742FED2
:104D50002A00FF21200005F0DBF90120FEF73AFED2
:104D600012E094256D01654C2A00FF21200005F01A
:104D7000CFF90020FEF72EFE2A00FF21200005F0CB
:104D8000C7F90020FEF726FE94225201FF215B485E
:104D900005F0BEF90F20FCF7F1FC482808D1584B6C
:104DA00000930023002207210020FFF779FB15E084
:104DB0000F20FCF7E3FC432808D1059B0093002358
:104DC000002207210020FFF76BFB07E0049B009304
:104DD0000023002207210020FFF762FB0120FEF7DD
:104DE000F9FD642004F0CAFF1020FEF7C1FC112079
:104DF000FEF7CEFC642004F0C1FF01F07BFD00282B
:104E0000F8D040219020C00503F086FD3A4B5B6C42
:104E1000002B12D103F0C0FB374B9A6B801ADB6B6F
:104E2000984200D27DE70120FEF7D4FD03F0B4FBE9
:104E3000314B9863334ADA6373E72F4B00225A648D
:104E40005B6DDB070CD503F0A7FB2B4B9B6BC01AEC
:104E50002D4B984204D9284A516D02230B435365C8
:104E6000254B5B6D9B0705D5264A234BDA6301234F
:104E7000039304E0254A204BDA630023039303F0F5
:104E80008BFB1D4DA8636B6D032293436B65012360
:104E900000937E332822FF3200210020FFF7E2F842
:104EA000AB6C0E2B01D900F087FD9B00184AD3583C
:104EB0009F46002400947F232822FF3200210020F7
:104EC000FFF7D0F80220FEF785FD0B4BDC6300F006
:104ED00042FF012300937E332822FF32002100206D
:104EE000FFF7C0F80220FEF775FD0022024BDA63DF
:104EF00000F031FF7CA3010868380020544C0020EA
:104F000030A50008C02709004B1D00004C1D000003
:104F1000DCA30008002501957E4B009300230C22A2
:104F200005210A20FFF712FA01957B4B009300231D
:104F30000C2214210A20FFF709FA0195774B009300
:104F400000230C2223210A20FFF700FA0195744B5D
:104F5000009300230C2232210A20FFF7F7F9019574
:104F6000704B009300230C2241210A20FFF7EEF939
:104F700001956D4B009300230C2250210A20FFF76E
:104F8000E5F90195694B009300230C225F210A206B
:104F9000FFF7DCF9664E674C08AF3751664B994610
:104FA00020239B464B465A46F252644BD98B6448A9
:104FB000FDF730FE33591D703551019500970023E0
:104FC0000C2205219420FFF7C1F937514B465A4670
:104FD000F2520E20FCF73CFC06900F20FCF738FC48
:104FE000020006995748FDF715FE33591D703551DB
:104FF0000195009700230C2214219420FFF7A6F9B5
:1050000037514B465A46F2520820FCF721FC0690D5
:105010000920FCF71DFC07900A20FCF719FC03008F
:10502000079A06994848FDF7F5FD33591D7035512B
:105030000195009700230C2223219420FFF786F985
:1050400037514B465A46F2520B20FCF701FC0690B2
:105050000C20FCF7FDFB07900D20FCF7F9FB03008B
:10506000079A06993848FDF7D5FD33591D7035511B
:105070000195009700230C2232219420FFF766F956
:1050800037510C239B464B465A46F2520020FCF700
:10509000FDFB01002A48FDF7BDFD33591D70355158
:1050A0000195009700230C2241219420FFF74EF92F
:1050B00037514B465A46F2520020FCF7F3FB3C2195
:1050C000FCF710F801001E48FDF7A4FD33591D70D0
:1050D00035510195009700230C2250219420FFF7B1
:1050E00035F937514B465A46F2520D20FCF746FB34
:1050F00001001348FDF78EFD33591D7035510195A0
:10510000009700230C225F219420FFF71FF900F085
:105110001CFEC04698A30108A8A30108B0A301087B
:10512000BCA30108C8A30108D8A30108E8A301088B
:1051300020280020381000003C100000289F0108A3
:10514000C4A40108FCA30108F8A3010800260196E5
:10515000CD4B009300230C2202219620FFF7F6F896
:105160000196CA4B009300230C220221DC20FFF79A
:10517000EDF80196C64B009300230C2214210A205F
:10518000FFF7E4F80196C34B009300230C22232180
:105190000A20FFF7DBF80196BF4B009300230C2297
:1051A00032210A20FFF7D2F80196BC4B009300236E
:1051B0000C2241210A20FFF7C9F80196B84B009351
:1051C00000230C2250210A20FFF7C0F80196B54BAE
:1051D000009300230C225F210A20FFF7B7F8019605
:1051E000B14B009300230C226E210A20FFF7AEF88A
:1051F000AE4DAF4C08AF2F51AE4B99460C239B469A
:105200004B465A46EA521021102001F01FFD0100C2
:10521000A948FDF7FFFC2B591E702E5101960097EF
:1052200000230C2214219620FFF790F82F514B46B3
:105230005A46EA521321102001F008FD01009E4851
:10524000FDF7E8FC2B591E702E51019600970023A4
:105250000C2223219620FFF779F82F514B465A460E
:10526000EA521621102001F0F1FC01009248FDF7EE
:10527000D1FC2B591E702E510196009700230C2251
:1052800032219620FFF762F82F514B465A46EA52D8
:105290001821102001F0DAFC01008748FDF7BAFC64
:1052A0002B591E702E510196009700230C2241218C
:1052B0009620FFF74BF82F514B465A46EA521D21D4
:1052C000102001F0C3FC01007B48FDF7A3FC2B5923
:1052D0001E702E510196009700230C22502196201B
:1052E000FFF734F82F514B465A46EA521E21102040
:1052F00001F0ACFC01007048FDF78CFC2B591E70CE
:105300002E510196009700230C225F219620FFF773
:105310001DF82F514B465A46EA521F21102001F02A
:1053200095FC01006448FDF775FC2B591E702E5149
:105330000196009700230C226E219620FFF706F8B5
:105340002F514B465A46EA521021112001F07EFCA3
:1053500001005948FDF75EFC2B591E702E51019635
:10536000009700230C221421DC20FEF7EFFF2F51C1
:105370004B465A46EA521321112001F067FC010006
:105380004D48FDF747FC2B591E702E510196009792
:1053900000230C222321DC20FEF7D8FF2F514B469F
:1053A0005A46EA521621112001F050FC01004248F1
:1053B000FDF730FC2B591E702E51019600970023EB
:1053C0000C223221DC20FEF7C1FF2F514B465A46FA
:1053D000EA521821112001F039FC01003648FDF78E
:1053E00019FC2B591E702E510196009700230C2298
:1053F0004121DC20FEF7AAFF2F514B465A46EA52C4
:105400001D21112001F022FC01002B48FDF702FCB8
:105410002B591E702E510196009700230C2250210B
:10542000DC20FEF793FF2F514B465A46EA521E21CD
:10543000112001F00BFC01001F48FDF7EBFB2B597D
:105440001E702E510196009700230C225F21DC2054
:10545000FEF77CFF2F514B465A46EA521F2111207E
:1054600001F0F4FB01001448FDF7D4FB2B591E702A
:105470002E510196009700230C226E21DC20FEF7AE
:1054800065FF00F062FCC04600A1010808A1010808
:1054900008A4010818A4010828A4010838A40108D8
:1054A0003CA401084CA401085CA4010820280020A9
:1054B000381000003C100000C4A40108002501952C
:1054C000F44B009300230C220A210A20FEF73EFF32
:1054D0000195F14B009300230C2219210A20FEF7BD
:1054E00035FF0195ED4B009300230C2228210A2063
:1054F000FEF72CFF0195EA4B009300230C22372185
:105500000A20FEF723FF0195E64B009300230C22AF
:1055100046210A20FEF71AFF0195E34B0093002372
:105520000C2255210A20FEF711FF0195DF4B009355
:1055300000230C2264210A20FEF708FF0195DC4BB2
:10554000009300230C2273210A20FEF7FFFED94EA0
:10555000D94B984608AFF750D84B99460C239B4639
:105560004B465A46F25204210C2001F06FFB010019
:10557000D348FDF74FFB4346F3581D704346F550A3
:105580000195009700230C220A219620FEF7DEFEEB
:105590004346F7504B465A46F25205210C2001F083
:1055A00055FB0100C648FDF735FB4346F3581D7017
:1055B0004346F5500195009700230C2219219620AF
:1055C000FEF7C4FE4346F7504B465A46F2520821B6
:1055D0000C2001F03BFB0100B948FDF71BFB4346E3
:1055E000F3581D704346F5500195009700230C2297
:1055F00028219620FEF7AAFE4346F7504B465A460E
:10560000F25209210C2001F021FB0100AC48FDF70A
:1056100001FB4346F3581D704346F5500195009732
:1056200000230C2237219620FEF790FE4346F750C8
:105630004B465A46F2520A210C2001F007FB0100AA
:105640009F48FDF7E7FA4346F3581D704346F5506F
:105650000195009700230C2246219620FEF776FE46
:105660004346F7504B465A46F2520B210C2001F0AC
:10567000EDFA01009248FDF7CDFA4346F3581D704C
:105680004346F5500195009700230C2255219620A2
:10569000FEF75CFE4346F7504B465A46F2520C2149
:1056A0000C2001F0D3FA01008548FDF7B3FA434618
:1056B000F3581D704346F5500195009700230C22C6
:1056C00064219620FEF742FE4346F7504B465A4669
:1056D000F2520D210C2001F0B9FA01007848FDF7D3
:1056E00099FA4346F3581D704346F55001950097CB
:1056F00000230C2273219620FEF728FE25E36D4D32
:105700006D4B984608AFEF5010226C4BEA520020C8
:1057100002F0BEFD411C6B48FDF77CFA00264346B3
:10572000EB581E704346EE5001250195009700236B
:1057300010220A219420FEF709FE02F087FD019550
:10574000009000230C2237219420FEF7FFFD5E4BD2
:1057500018330093002300220A210120FEF7A0FE47
:1057600001965A4B0093002310226E210A20FEF767
:10577000EDFDEAE201250195554B0093002314222B
:105780000A219420FEF7E2FD0195524B009300237D
:10579000102232219420FEF7D9FD002301934E4BB5
:1057A000009300230C226E210A20FEF7CFFDCCE2ED
:1057B00001250195494B00930023142219219420BF
:1057C000FEF7C4FD0195464B0093002314223721B8
:1057D0009420FEF7BBFD002301933F4B0093002371
:1057E0000C226E210A20FEF7B1FDAEE201250195E3
:1057F0003C4B00930023142219219420FEF7A6FDB0
:105800000195394B00930023142237219420FEF791
:105810009DFD00230193304B009300230C226E2149
:105820000A20FEF793FD90E2012501952B4B009392
:105830000023142219219420FEF788FD01952B4B9B
:1058400000930023142237219420FEF77FFD0023CC
:105850000193214B009300230C226E210A20FEF7B6
:1058600075FD72E2224B1B6D032B07D1204B0022EA
:10587000AC2149005A5004395A5056E01C4B1B6D5C
:10588000042B37D11A4BAA2252009958043299504E
:105890004BE0C0465CA401083CA4010868A40108D0
:1058A00074A4010880A4010890A40108A0A4010820
:1058B000ACA4010820280020381000003C10000093
:1058C000C4A40108B8A4010830A50008C8A40108B0
:1058D000D0A40108E4A4010800A5010808A5010856
:1058E00018A5010820A5010830A5010838A5010860
:1058F00068380020B84B1B6D052B16D1B64B5D6880
:1059000029880E2911D82A000023B34FAC2676002F
:10591000B85B814202D15288AF498A5101339BB2B0
:105920009A00AA1811880E29F2D9AB4D296D89B2B7
:10593000AC235B00E8580630000140190430FFF743
:1059400021F800232B6500E201230193A34B009370
:105950000023142214219420FEF7F8FCFBF790FF9B
:10596000002801D19E4B00E09E4B01220192009342
:105970000023133232219420FEF7E8FCE5E10125F3
:105980000195994B00930023102214219420FEF7D7
:10599000DDFC0195954B00930023102228219420D3
:1059A000FEF7D4FC0195924B0093002310223C217A
:1059B0009420FEF7CBFCC8E10020FBF7FDFE0600BB
:1059C000632803D8202208AB1A7004E0643886B23A
:1059D000312208AB1A7008AD0A213000FBF782FBB8
:1059E000303068700A213000FBF702FC3031A970BA
:1059F0000027EF70052301930095002354224021D6
:105A0000BA20FEF7A3FC0120FBF7B8FE0197800047
:105A1000784BC3580093002310221821D220FEF7A0
:105A200095FCFBF7DBFE0300C2178018504006B25E
:105A3000303028706F70002E13D10623019308AB0D
:105A40000093002324226421F020FEF77FFC6A4BA0
:105A500020330093062300226421D220FEF720FD8C
:105A60002CE0002B15DA0623019308AB00930023EA
:105A700024226421D220FEF769FCF6005E4B283315
:105A80009E190096062300226421F020FEF708FDEF
:105A900014E00623019308AB009300232422642121
:105AA000F020FEF753FCF600534B28339E19009666
:105AB000524B00226421D220FEF7F2FC0820FBF7B3
:105AC0005DFE00281AD00F20FBF758FE002804D0F6
:105AD0000F20FBF753FE4C2810D10B20FBF74EFE96
:105AE000002801D0464B00E0464B00220192009373
:105AF00000230E3201210120FEF728FC0C2001F0CA
:105B00009FFE00280DD00620FBF738FE002808D0A5
:105B1000394B783300930023002201219620FEF7B1
:105B2000BFFC00F0E5FA021E0ED1374D374E08AB30
:105B3000AB512032364BEA523648FDF76BF8002362
:105B4000AA591370AB517AE0431E9BB2042B31D893
:105B500005273F1ABFB2062828D012256D427D4383
:105B6000ADB201370026FEF797F81938281800B2B1
:105B7000002306220821FEF7A3F9FEF78DF8193855
:105B8000281800B2012305220821FEF799F9FEF733
:105B900083F81938281800B2002304220821FEF7E0
:105BA0008FF901361235ADB2B742DCD1002208AB15
:105BB0001A7044E0062831D1134D144E08ABAB5196
:105BC0001A32134BEA521448FDF724F80023AA595D
:105BD0001370AB5133E0C0466838002040A501087F
:105BE00054A301084CA3010850A5010860A50108B1
:105BF00070A501080400002030A500080680000000
:105C00006CA301085CA301082028002038100000C4
:105C10003C10000080A5010888A5010806280ED9BF
:105C2000814D824E08ABAB512022814BEA52C11FFD
:105C30008048FCF7EFFF0023AA591370AB51FEF721
:105C40002BF8013880B20223019308AD00950023A0
:105C50000E220121FEF77AFBFEF71EF8013802B290
:105C6000002399460093143314210120FEF766F9AE
:105C70006D4E6E4FF55120226D4BF2520120FBF715
:105C800005FE04000120FBF70DFE1E303C21FBF752
:105C900029FA020021006848FCF7BCFFF3594A4684
:105CA0001A704B46F35106330193009500230E22E0
:105CB0007E210120FEF74AFB0820FBF75FFD00284C
:105CC0000DD1594D08ABEB512022594BEA525B489C
:105CD000FCF7A0FF0023EA591370EB5120E0FBF71B
:105CE00095FD07002024002805D02C34002802DC74
:105CF000404207B206344C4D4C4E08ABAB5120220B
:105D00004B4BEA52FBF770FDFBF756FD01003B00E1
:105D100022004B48FCF77EFF0023AA591370AB51B9
:105D20000623019308AB009300230E227E219620C8
:105D3000FEF70CFBFDF7B0FF013802B20023009321
:105D40006C336C210120FEF7F9F8039B012B02D87C
:105D50001800FDF73FFE3B4B1B6C002B01D1FEF7FB
:105D6000E0FF9847FEF7DDFFFDF7C8FCFDF720FDDB
:105D70001220FDF7FDFCFDF71BFD7420FDF7F8FC7C
:105D80005420FDF705FD7E20FDF7F2FC3B20FDF7DA
:105D9000FFFC2B20FDF7ECFC0420FDF7F9FC632051
:105DA000FDF7F6FC0C20FDF7E3FC8B20FDF7F0FC83
:105DB0009C20FDF7EDFC9620FDF7EAFC0F20FDF797
:105DC000E7FC0120FDF7D4FC2720FDF7E1FC0120D2
:105DD000FDF7DEFC0020FDF7DBFC1120FDF7C8FC21
:105DE0000320FDF7D5FC4420FDF7C2FC0020FDF7A1
:105DF000CFFC0F20FDF7CCFC4520FDF7B9FC0020BF
:105E0000FDF7C6FC0020FDF7C3FC2720FDF7C0FC12
:105E10000120FDF7BDFC3C20FDF7AAFC0120FDF7A9
:105E2000B7FCFEF74DFFC0462028002038100000C8
:105E30003C10000090A50108A0A50108ACA5010830
:105E4000BCA5010868380020F0B583B05F4CB622CD
:105E500052000021200004F05BF95D4B0833236001
:105E60005C4B63600F20FBF789FC00280BD00F20F0
:105E7000FBF784FC4C2806D0544A574B6033136020
:105E8000544B40335360554C0025A571E5710127F3
:105E90002771534B23606771524E2100300002F08E
:105EA000E3FC5149300002F037FD8021C901300088
:105EB00002F034FD2571E77127602100300002F007
:105EC000D3FCA571E57102232371A0231B0223607B
:105ED00067712100300002F0C7FC2571E7711823BB
:105EE000236021009020C00502F0BEFC012180202B
:105EF000C00102F087FE00220D21300002F010FDEB
:105F000000220F21300002F00BFD3849384B0B8086
:105F100082235B004B80E023DB008B80CD800D81F2
:105F200080239B004B81E13BFF3B8B81CD810D8228
:105F3000304C200002F090FE8026760031002000D8
:105F400002F0C0FE0121200002F0B0FE012101207C
:105F500002F03CFE1D4C284BA360284BE36010234D
:105F60002361083B6361A5617833E3612562656263
:105F7000A562E562256321000831214802F0CAFBD1
:105F80002049214802F0F2FB012202211C4802F0C4
:105F9000FDFB1E480B230370043B4370877002F027
:105FA000F3FC03220021012003F010FB60630023B7
:105FB0000022002103F028FB019500970023320006
:105FC0001349144803F0F0FC03B0F0BD683800201A
:105FD00004000020B0A50008040100206027002074
:105FE0000644000000040048060400006827002062
:105FF00000C0FFFF003800400C380040544C002027
:10600000580002400000034000000240B02700207A
:10601000CCA50108114C0008054B1A645A6D1143B8
:10602000596501225A64002800D098647047C04620
:1060300068380020AC235B00014AD05A7047C04644
:1060400068380020AC235B00044AD35800200E2B94
:1060500003DC1B01D3186C331888704768380020A4
:1060600030B500230E2829D8154A136406339364EB
:106070000301D3186C331C881165042903D1AA23AA
:106080005B00D05016E0052914D10D4B58680188EB
:106090000E290FD8AC235B00094AD55A0200002311
